{
	"ERC721A.sol": {
		"ERC721A": {
			"abi": [
				{
					"inputs": [
						{
							"internalType": "string",
							"name": "name_",
							"type": "string"
						},
						{
							"internalType": "string",
							"name": "symbol_",
							"type": "string"
						}
					],
					"stateMutability": "nonpayable",
					"type": "constructor"
				},
				{
					"inputs": [],
					"name": "ApprovalCallerNotOwnerNorApproved",
					"type": "error"
				},
				{
					"inputs": [],
					"name": "ApprovalQueryForNonexistentToken",
					"type": "error"
				},
				{
					"inputs": [],
					"name": "ApprovalToCurrentOwner",
					"type": "error"
				},
				{
					"inputs": [],
					"name": "ApproveToCaller",
					"type": "error"
				},
				{
					"inputs": [],
					"name": "BalanceQueryForZeroAddress",
					"type": "error"
				},
				{
					"inputs": [],
					"name": "MintToZeroAddress",
					"type": "error"
				},
				{
					"inputs": [],
					"name": "MintZeroQuantity",
					"type": "error"
				},
				{
					"inputs": [],
					"name": "OwnerQueryForNonexistentToken",
					"type": "error"
				},
				{
					"inputs": [],
					"name": "TransferCallerNotOwnerNorApproved",
					"type": "error"
				},
				{
					"inputs": [],
					"name": "TransferFromIncorrectOwner",
					"type": "error"
				},
				{
					"inputs": [],
					"name": "TransferToNonERC721ReceiverImplementer",
					"type": "error"
				},
				{
					"inputs": [],
					"name": "TransferToZeroAddress",
					"type": "error"
				},
				{
					"inputs": [],
					"name": "URIQueryForNonexistentToken",
					"type": "error"
				},
				{
					"anonymous": false,
					"inputs": [
						{
							"indexed": true,
							"internalType": "address",
							"name": "owner",
							"type": "address"
						},
						{
							"indexed": true,
							"internalType": "address",
							"name": "approved",
							"type": "address"
						},
						{
							"indexed": true,
							"internalType": "uint256",
							"name": "tokenId",
							"type": "uint256"
						}
					],
					"name": "Approval",
					"type": "event"
				},
				{
					"anonymous": false,
					"inputs": [
						{
							"indexed": true,
							"internalType": "address",
							"name": "owner",
							"type": "address"
						},
						{
							"indexed": true,
							"internalType": "address",
							"name": "operator",
							"type": "address"
						},
						{
							"indexed": false,
							"internalType": "bool",
							"name": "approved",
							"type": "bool"
						}
					],
					"name": "ApprovalForAll",
					"type": "event"
				},
				{
					"anonymous": false,
					"inputs": [
						{
							"indexed": true,
							"internalType": "address",
							"name": "from",
							"type": "address"
						},
						{
							"indexed": true,
							"internalType": "address",
							"name": "to",
							"type": "address"
						},
						{
							"indexed": true,
							"internalType": "uint256",
							"name": "tokenId",
							"type": "uint256"
						}
					],
					"name": "Transfer",
					"type": "event"
				},
				{
					"inputs": [
						{
							"internalType": "address",
							"name": "to",
							"type": "address"
						},
						{
							"internalType": "uint256",
							"name": "tokenId",
							"type": "uint256"
						}
					],
					"name": "approve",
					"outputs": [],
					"stateMutability": "nonpayable",
					"type": "function"
				},
				{
					"inputs": [
						{
							"internalType": "address",
							"name": "owner",
							"type": "address"
						}
					],
					"name": "balanceOf",
					"outputs": [
						{
							"internalType": "uint256",
							"name": "",
							"type": "uint256"
						}
					],
					"stateMutability": "view",
					"type": "function"
				},
				{
					"inputs": [
						{
							"internalType": "uint256",
							"name": "tokenId",
							"type": "uint256"
						}
					],
					"name": "getApproved",
					"outputs": [
						{
							"internalType": "address",
							"name": "",
							"type": "address"
						}
					],
					"stateMutability": "view",
					"type": "function"
				},
				{
					"inputs": [
						{
							"internalType": "address",
							"name": "owner",
							"type": "address"
						},
						{
							"internalType": "address",
							"name": "operator",
							"type": "address"
						}
					],
					"name": "isApprovedForAll",
					"outputs": [
						{
							"internalType": "bool",
							"name": "",
							"type": "bool"
						}
					],
					"stateMutability": "view",
					"type": "function"
				},
				{
					"inputs": [],
					"name": "name",
					"outputs": [
						{
							"internalType": "string",
							"name": "",
							"type": "string"
						}
					],
					"stateMutability": "view",
					"type": "function"
				},
				{
					"inputs": [
						{
							"internalType": "uint256",
							"name": "tokenId",
							"type": "uint256"
						}
					],
					"name": "ownerOf",
					"outputs": [
						{
							"internalType": "address",
							"name": "",
							"type": "address"
						}
					],
					"stateMutability": "view",
					"type": "function"
				},
				{
					"inputs": [
						{
							"internalType": "address",
							"name": "from",
							"type": "address"
						},
						{
							"internalType": "address",
							"name": "to",
							"type": "address"
						},
						{
							"internalType": "uint256",
							"name": "tokenId",
							"type": "uint256"
						}
					],
					"name": "safeTransferFrom",
					"outputs": [],
					"stateMutability": "nonpayable",
					"type": "function"
				},
				{
					"inputs": [
						{
							"internalType": "address",
							"name": "from",
							"type": "address"
						},
						{
							"internalType": "address",
							"name": "to",
							"type": "address"
						},
						{
							"internalType": "uint256",
							"name": "tokenId",
							"type": "uint256"
						},
						{
							"internalType": "bytes",
							"name": "_data",
							"type": "bytes"
						}
					],
					"name": "safeTransferFrom",
					"outputs": [],
					"stateMutability": "nonpayable",
					"type": "function"
				},
				{
					"inputs": [
						{
							"internalType": "address",
							"name": "operator",
							"type": "address"
						},
						{
							"internalType": "bool",
							"name": "approved",
							"type": "bool"
						}
					],
					"name": "setApprovalForAll",
					"outputs": [],
					"stateMutability": "nonpayable",
					"type": "function"
				},
				{
					"inputs": [
						{
							"internalType": "bytes4",
							"name": "interfaceId",
							"type": "bytes4"
						}
					],
					"name": "supportsInterface",
					"outputs": [
						{
							"internalType": "bool",
							"name": "",
							"type": "bool"
						}
					],
					"stateMutability": "view",
					"type": "function"
				},
				{
					"inputs": [],
					"name": "symbol",
					"outputs": [
						{
							"internalType": "string",
							"name": "",
							"type": "string"
						}
					],
					"stateMutability": "view",
					"type": "function"
				},
				{
					"inputs": [
						{
							"internalType": "uint256",
							"name": "tokenId",
							"type": "uint256"
						}
					],
					"name": "tokenURI",
					"outputs": [
						{
							"internalType": "string",
							"name": "",
							"type": "string"
						}
					],
					"stateMutability": "view",
					"type": "function"
				},
				{
					"inputs": [],
					"name": "totalSupply",
					"outputs": [
						{
							"internalType": "uint256",
							"name": "",
							"type": "uint256"
						}
					],
					"stateMutability": "view",
					"type": "function"
				},
				{
					"inputs": [
						{
							"internalType": "address",
							"name": "from",
							"type": "address"
						},
						{
							"internalType": "address",
							"name": "to",
							"type": "address"
						},
						{
							"internalType": "uint256",
							"name": "tokenId",
							"type": "uint256"
						}
					],
					"name": "transferFrom",
					"outputs": [],
					"stateMutability": "nonpayable",
					"type": "function"
				}
			],
			"devdoc": {
				"details": "Implementation of https://eips.ethereum.org/EIPS/eip-721[ERC721] Non-Fungible Token Standard, including the Metadata extension. Built to optimize for lower gas during batch mints. Assumes serials are sequentially minted starting at _startTokenId() (defaults to 0, e.g. 0, 1, 2, 3..). Assumes that an owner cannot have more than 2**64 - 1 (max value of uint64) of supply. Assumes that the maximum token id cannot exceed 2**256 - 1 (max value of uint256).",
				"kind": "dev",
				"methods": {
					"approve(address,uint256)": {
						"details": "See {IERC721-approve}."
					},
					"balanceOf(address)": {
						"details": "See {IERC721-balanceOf}."
					},
					"getApproved(uint256)": {
						"details": "See {IERC721-getApproved}."
					},
					"isApprovedForAll(address,address)": {
						"details": "See {IERC721-isApprovedForAll}."
					},
					"name()": {
						"details": "See {IERC721Metadata-name}."
					},
					"ownerOf(uint256)": {
						"details": "See {IERC721-ownerOf}."
					},
					"safeTransferFrom(address,address,uint256)": {
						"details": "See {IERC721-safeTransferFrom}."
					},
					"safeTransferFrom(address,address,uint256,bytes)": {
						"details": "See {IERC721-safeTransferFrom}."
					},
					"setApprovalForAll(address,bool)": {
						"details": "See {IERC721-setApprovalForAll}."
					},
					"supportsInterface(bytes4)": {
						"details": "See {IERC165-supportsInterface}."
					},
					"symbol()": {
						"details": "See {IERC721Metadata-symbol}."
					},
					"tokenURI(uint256)": {
						"details": "See {IERC721Metadata-tokenURI}."
					},
					"totalSupply()": {
						"details": "Returns the total number of tokens in existence. Burned tokens will reduce the count.  To get the total number of tokens minted, please see `_totalMinted`."
					},
					"transferFrom(address,address,uint256)": {
						"details": "See {IERC721-transferFrom}."
					}
				},
				"version": 1
			},
			"evm": {
				"assembly": "    /* \"ERC721A.sol\":880:29486  contract ERC721A is IERC721A {... */\n  mstore(0x40, 0x80)\n    /* \"ERC721A.sol\":3211:3365  constructor(string memory name_, string memory symbol_) {... */\n  callvalue\n  dup1\n  iszero\n  tag_1\n  jumpi\n  0x00\n  dup1\n  revert\ntag_1:\n  pop\n  mload(0x40)\n  sub(codesize, bytecodeSize)\n  dup1\n  bytecodeSize\n  dup4\n  codecopy\n  dup2\n  dup2\n  add\n  0x40\n  mstore\n  dup2\n  add\n  swap1\n  tag_2\n  swap2\n  swap1\n  tag_3\n  jump\t// in\ntag_2:\n    /* \"ERC721A.sol\":3285:3290  name_ */\n  dup2\n    /* \"ERC721A.sol\":3277:3282  _name */\n  0x02\n    /* \"ERC721A.sol\":3277:3290  _name = name_ */\n  swap1\n  dup1\n  mload\n  swap1\n  0x20\n  add\n  swap1\n  tag_6\n  swap3\n  swap2\n  swap1\n  tag_7\n  jump\t// in\ntag_6:\n  pop\n    /* \"ERC721A.sol\":3310:3317  symbol_ */\n  dup1\n    /* \"ERC721A.sol\":3300:3307  _symbol */\n  0x03\n    /* \"ERC721A.sol\":3300:3317  _symbol = symbol_ */\n  swap1\n  dup1\n  mload\n  swap1\n  0x20\n  add\n  swap1\n  tag_8\n  swap3\n  swap2\n  swap1\n  tag_7\n  jump\t// in\ntag_8:\n  pop\n    /* \"ERC721A.sol\":3343:3358  _startTokenId() */\n  tag_9\n    /* \"ERC721A.sol\":3343:3356  _startTokenId */\n  shl(0x20, tag_10)\n    /* \"ERC721A.sol\":3343:3358  _startTokenId() */\n  0x20\n  shr\n  jump\t// in\ntag_9:\n    /* \"ERC721A.sol\":3327:3340  _currentIndex */\n  0x00\n    /* \"ERC721A.sol\":3327:3358  _currentIndex = _startTokenId() */\n  dup2\n  swap1\n  sstore\n  pop\n    /* \"ERC721A.sol\":3211:3365  constructor(string memory name_, string memory symbol_) {... */\n  pop\n  pop\n    /* \"ERC721A.sol\":880:29486  contract ERC721A is IERC721A {... */\n  jump(tag_11)\n    /* \"ERC721A.sol\":3502:3592  function _startTokenId() internal view virtual returns (uint256) {... */\ntag_10:\n    /* \"ERC721A.sol\":3558:3565  uint256 */\n  0x00\n    /* \"ERC721A.sol\":3502:3592  function _startTokenId() internal view virtual returns (uint256) {... */\n  swap1\n  jump\t// out\n    /* \"ERC721A.sol\":880:29486  contract ERC721A is IERC721A {... */\ntag_7:\n  dup3\n  dup1\n  sload\n  tag_13\n  swap1\n  tag_14\n  jump\t// in\ntag_13:\n  swap1\n  0x00\n  mstore\n  keccak256(0x00, 0x20)\n  swap1\n  0x1f\n  add\n  0x20\n  swap1\n  div\n  dup2\n  add\n  swap3\n  dup3\n  tag_16\n  jumpi\n  0x00\n  dup6\n  sstore\n  jump(tag_15)\ntag_16:\n  dup3\n  0x1f\n  lt\n  tag_17\n  jumpi\n  dup1\n  mload\n  not(0xff)\n  and\n  dup4\n  dup1\n  add\n  or\n  dup6\n  sstore\n  jump(tag_15)\ntag_17:\n  dup3\n  dup1\n  add\n  0x01\n  add\n  dup6\n  sstore\n  dup3\n  iszero\n  tag_15\n  jumpi\n  swap2\n  dup3\n  add\ntag_18:\n  dup3\n  dup2\n  gt\n  iszero\n  tag_19\n  jumpi\n  dup3\n  mload\n  dup3\n  sstore\n  swap2\n  0x20\n  add\n  swap2\n  swap1\n  0x01\n  add\n  swap1\n  jump(tag_18)\ntag_19:\ntag_15:\n  pop\n  swap1\n  pop\n  tag_20\n  swap2\n  swap1\n  tag_21\n  jump\t// in\ntag_20:\n  pop\n  swap1\n  jump\t// out\ntag_21:\ntag_22:\n  dup1\n  dup3\n  gt\n  iszero\n  tag_23\n  jumpi\n  0x00\n  dup2\n  0x00\n  swap1\n  sstore\n  pop\n  0x01\n  add\n  jump(tag_22)\ntag_23:\n  pop\n  swap1\n  jump\t// out\n    /* \"#utility.yul\":7:361   */\ntag_25:\n    /* \"#utility.yul\":96:101   */\n  0x00\n    /* \"#utility.yul\":121:187   */\n  tag_27\n    /* \"#utility.yul\":137:186   */\n  tag_28\n    /* \"#utility.yul\":179:185   */\n  dup5\n    /* \"#utility.yul\":137:186   */\n  tag_29\n  jump\t// in\ntag_28:\n    /* \"#utility.yul\":121:187   */\n  tag_30\n  jump\t// in\ntag_27:\n    /* \"#utility.yul\":112:187   */\n  swap1\n  pop\n    /* \"#utility.yul\":210:216   */\n  dup3\n    /* \"#utility.yul\":203:208   */\n  dup2\n    /* \"#utility.yul\":196:217   */\n  mstore\n    /* \"#utility.yul\":248:252   */\n  0x20\n    /* \"#utility.yul\":241:246   */\n  dup2\n    /* \"#utility.yul\":237:253   */\n  add\n    /* \"#utility.yul\":286:289   */\n  dup5\n    /* \"#utility.yul\":277:283   */\n  dup5\n    /* \"#utility.yul\":272:275   */\n  dup5\n    /* \"#utility.yul\":268:284   */\n  add\n    /* \"#utility.yul\":265:290   */\n  gt\n    /* \"#utility.yul\":262:264   */\n  iszero\n  tag_31\n  jumpi\n    /* \"#utility.yul\":303:304   */\n  0x00\n    /* \"#utility.yul\":300:301   */\n  dup1\n    /* \"#utility.yul\":293:305   */\n  revert\n    /* \"#utility.yul\":262:264   */\ntag_31:\n    /* \"#utility.yul\":316:355   */\n  tag_32\n    /* \"#utility.yul\":348:354   */\n  dup5\n    /* \"#utility.yul\":343:346   */\n  dup3\n    /* \"#utility.yul\":338:341   */\n  dup6\n    /* \"#utility.yul\":316:355   */\n  tag_33\n  jump\t// in\ntag_32:\n    /* \"#utility.yul\":102:361   */\n  pop\n  swap4\n  swap3\n  pop\n  pop\n  pop\n  jump\t// out\n    /* \"#utility.yul\":381:669   */\ntag_34:\n    /* \"#utility.yul\":448:453   */\n  0x00\n    /* \"#utility.yul\":497:500   */\n  dup3\n    /* \"#utility.yul\":490:494   */\n  0x1f\n    /* \"#utility.yul\":482:488   */\n  dup4\n    /* \"#utility.yul\":478:495   */\n  add\n    /* \"#utility.yul\":474:501   */\n  slt\n    /* \"#utility.yul\":464:466   */\n  tag_36\n  jumpi\n    /* \"#utility.yul\":515:516   */\n  0x00\n    /* \"#utility.yul\":512:513   */\n  dup1\n    /* \"#utility.yul\":505:517   */\n  revert\n    /* \"#utility.yul\":464:466   */\ntag_36:\n    /* \"#utility.yul\":548:554   */\n  dup2\n    /* \"#utility.yul\":542:555   */\n  mload\n    /* \"#utility.yul\":573:663   */\n  tag_37\n    /* \"#utility.yul\":659:662   */\n  dup5\n    /* \"#utility.yul\":651:657   */\n  dup3\n    /* \"#utility.yul\":644:648   */\n  0x20\n    /* \"#utility.yul\":636:642   */\n  dup7\n    /* \"#utility.yul\":632:649   */\n  add\n    /* \"#utility.yul\":573:663   */\n  tag_25\n  jump\t// in\ntag_37:\n    /* \"#utility.yul\":564:663   */\n  swap2\n  pop\n    /* \"#utility.yul\":454:669   */\n  pop\n  swap3\n  swap2\n  pop\n  pop\n  jump\t// out\n    /* \"#utility.yul\":675:1327   */\ntag_3:\n    /* \"#utility.yul\":774:780   */\n  0x00\n    /* \"#utility.yul\":782:788   */\n  dup1\n    /* \"#utility.yul\":831:833   */\n  0x40\n    /* \"#utility.yul\":819:828   */\n  dup4\n    /* \"#utility.yul\":810:817   */\n  dup6\n    /* \"#utility.yul\":806:829   */\n  sub\n    /* \"#utility.yul\":802:834   */\n  slt\n    /* \"#utility.yul\":799:801   */\n  iszero\n  tag_39\n  jumpi\n    /* \"#utility.yul\":847:848   */\n  0x00\n    /* \"#utility.yul\":844:845   */\n  dup1\n    /* \"#utility.yul\":837:849   */\n  revert\n    /* \"#utility.yul\":799:801   */\ntag_39:\n    /* \"#utility.yul\":911:912   */\n  0x00\n    /* \"#utility.yul\":900:909   */\n  dup4\n    /* \"#utility.yul\":896:913   */\n  add\n    /* \"#utility.yul\":890:914   */\n  mload\n    /* \"#utility.yul\":941:959   */\n  0xffffffffffffffff\n    /* \"#utility.yul\":933:939   */\n  dup2\n    /* \"#utility.yul\":930:960   */\n  gt\n    /* \"#utility.yul\":927:929   */\n  iszero\n  tag_40\n  jumpi\n    /* \"#utility.yul\":973:974   */\n  0x00\n    /* \"#utility.yul\":970:971   */\n  dup1\n    /* \"#utility.yul\":963:975   */\n  revert\n    /* \"#utility.yul\":927:929   */\ntag_40:\n    /* \"#utility.yul\":1001:1075   */\n  tag_41\n    /* \"#utility.yul\":1067:1074   */\n  dup6\n    /* \"#utility.yul\":1058:1064   */\n  dup3\n    /* \"#utility.yul\":1047:1056   */\n  dup7\n    /* \"#utility.yul\":1043:1065   */\n  add\n    /* \"#utility.yul\":1001:1075   */\n  tag_34\n  jump\t// in\ntag_41:\n    /* \"#utility.yul\":991:1075   */\n  swap3\n  pop\n    /* \"#utility.yul\":861:1085   */\n  pop\n    /* \"#utility.yul\":1145:1147   */\n  0x20\n    /* \"#utility.yul\":1134:1143   */\n  dup4\n    /* \"#utility.yul\":1130:1148   */\n  add\n    /* \"#utility.yul\":1124:1149   */\n  mload\n    /* \"#utility.yul\":1176:1194   */\n  0xffffffffffffffff\n    /* \"#utility.yul\":1168:1174   */\n  dup2\n    /* \"#utility.yul\":1165:1195   */\n  gt\n    /* \"#utility.yul\":1162:1164   */\n  iszero\n  tag_42\n  jumpi\n    /* \"#utility.yul\":1208:1209   */\n  0x00\n    /* \"#utility.yul\":1205:1206   */\n  dup1\n    /* \"#utility.yul\":1198:1210   */\n  revert\n    /* \"#utility.yul\":1162:1164   */\ntag_42:\n    /* \"#utility.yul\":1236:1310   */\n  tag_43\n    /* \"#utility.yul\":1302:1309   */\n  dup6\n    /* \"#utility.yul\":1293:1299   */\n  dup3\n    /* \"#utility.yul\":1282:1291   */\n  dup7\n    /* \"#utility.yul\":1278:1300   */\n  add\n    /* \"#utility.yul\":1236:1310   */\n  tag_34\n  jump\t// in\ntag_43:\n    /* \"#utility.yul\":1226:1310   */\n  swap2\n  pop\n    /* \"#utility.yul\":1095:1320   */\n  pop\n    /* \"#utility.yul\":789:1327   */\n  swap3\n  pop\n  swap3\n  swap1\n  pop\n  jump\t// out\n    /* \"#utility.yul\":1333:1462   */\ntag_30:\n    /* \"#utility.yul\":1367:1373   */\n  0x00\n    /* \"#utility.yul\":1394:1414   */\n  tag_45\n  tag_46\n  jump\t// in\ntag_45:\n    /* \"#utility.yul\":1384:1414   */\n  swap1\n  pop\n    /* \"#utility.yul\":1423:1456   */\n  tag_47\n    /* \"#utility.yul\":1451:1455   */\n  dup3\n    /* \"#utility.yul\":1443:1449   */\n  dup3\n    /* \"#utility.yul\":1423:1456   */\n  tag_48\n  jump\t// in\ntag_47:\n    /* \"#utility.yul\":1374:1462   */\n  swap2\n  swap1\n  pop\n  jump\t// out\n    /* \"#utility.yul\":1468:1543   */\ntag_46:\n    /* \"#utility.yul\":1501:1507   */\n  0x00\n    /* \"#utility.yul\":1534:1536   */\n  0x40\n    /* \"#utility.yul\":1528:1537   */\n  mload\n    /* \"#utility.yul\":1518:1537   */\n  swap1\n  pop\n    /* \"#utility.yul\":1508:1543   */\n  swap1\n  jump\t// out\n    /* \"#utility.yul\":1549:1857   */\ntag_29:\n    /* \"#utility.yul\":1611:1615   */\n  0x00\n    /* \"#utility.yul\":1701:1719   */\n  0xffffffffffffffff\n    /* \"#utility.yul\":1693:1699   */\n  dup3\n    /* \"#utility.yul\":1690:1720   */\n  gt\n    /* \"#utility.yul\":1687:1689   */\n  iszero\n  tag_51\n  jumpi\n    /* \"#utility.yul\":1723:1741   */\n  tag_52\n  tag_53\n  jump\t// in\ntag_52:\n    /* \"#utility.yul\":1687:1689   */\ntag_51:\n    /* \"#utility.yul\":1761:1790   */\n  tag_54\n    /* \"#utility.yul\":1783:1789   */\n  dup3\n    /* \"#utility.yul\":1761:1790   */\n  tag_55\n  jump\t// in\ntag_54:\n    /* \"#utility.yul\":1753:1790   */\n  swap1\n  pop\n    /* \"#utility.yul\":1845:1849   */\n  0x20\n    /* \"#utility.yul\":1839:1843   */\n  dup2\n    /* \"#utility.yul\":1835:1850   */\n  add\n    /* \"#utility.yul\":1827:1850   */\n  swap1\n  pop\n    /* \"#utility.yul\":1616:1857   */\n  swap2\n  swap1\n  pop\n  jump\t// out\n    /* \"#utility.yul\":1863:2170   */\ntag_33:\n    /* \"#utility.yul\":1931:1932   */\n  0x00\n    /* \"#utility.yul\":1941:2054   */\ntag_57:\n    /* \"#utility.yul\":1955:1961   */\n  dup4\n    /* \"#utility.yul\":1952:1953   */\n  dup2\n    /* \"#utility.yul\":1949:1962   */\n  lt\n    /* \"#utility.yul\":1941:2054   */\n  iszero\n  tag_59\n  jumpi\n    /* \"#utility.yul\":2040:2041   */\n  dup1\n    /* \"#utility.yul\":2035:2038   */\n  dup3\n    /* \"#utility.yul\":2031:2042   */\n  add\n    /* \"#utility.yul\":2025:2043   */\n  mload\n    /* \"#utility.yul\":2021:2022   */\n  dup2\n    /* \"#utility.yul\":2016:2019   */\n  dup5\n    /* \"#utility.yul\":2012:2023   */\n  add\n    /* \"#utility.yul\":2005:2044   */\n  mstore\n    /* \"#utility.yul\":1977:1979   */\n  0x20\n    /* \"#utility.yul\":1974:1975   */\n  dup2\n    /* \"#utility.yul\":1970:1980   */\n  add\n    /* \"#utility.yul\":1965:1980   */\n  swap1\n  pop\n    /* \"#utility.yul\":1941:2054   */\n  jump(tag_57)\ntag_59:\n    /* \"#utility.yul\":2072:2078   */\n  dup4\n    /* \"#utility.yul\":2069:2070   */\n  dup2\n    /* \"#utility.yul\":2066:2079   */\n  gt\n    /* \"#utility.yul\":2063:2065   */\n  iszero\n  tag_60\n  jumpi\n    /* \"#utility.yul\":2152:2153   */\n  0x00\n    /* \"#utility.yul\":2143:2149   */\n  dup5\n    /* \"#utility.yul\":2138:2141   */\n  dup5\n    /* \"#utility.yul\":2134:2150   */\n  add\n    /* \"#utility.yul\":2127:2154   */\n  mstore\n    /* \"#utility.yul\":2063:2065   */\ntag_60:\n    /* \"#utility.yul\":1912:2170   */\n  pop\n  pop\n  pop\n  pop\n  jump\t// out\n    /* \"#utility.yul\":2176:2496   */\ntag_14:\n    /* \"#utility.yul\":2220:2226   */\n  0x00\n    /* \"#utility.yul\":2257:2258   */\n  0x02\n    /* \"#utility.yul\":2251:2255   */\n  dup3\n    /* \"#utility.yul\":2247:2259   */\n  div\n    /* \"#utility.yul\":2237:2259   */\n  swap1\n  pop\n    /* \"#utility.yul\":2304:2305   */\n  0x01\n    /* \"#utility.yul\":2298:2302   */\n  dup3\n    /* \"#utility.yul\":2294:2306   */\n  and\n    /* \"#utility.yul\":2325:2343   */\n  dup1\n    /* \"#utility.yul\":2315:2317   */\n  tag_62\n  jumpi\n    /* \"#utility.yul\":2381:2385   */\n  0x7f\n    /* \"#utility.yul\":2373:2379   */\n  dup3\n    /* \"#utility.yul\":2369:2386   */\n  and\n    /* \"#utility.yul\":2359:2386   */\n  swap2\n  pop\n    /* \"#utility.yul\":2315:2317   */\ntag_62:\n    /* \"#utility.yul\":2443:2445   */\n  0x20\n    /* \"#utility.yul\":2435:2441   */\n  dup3\n    /* \"#utility.yul\":2432:2446   */\n  lt\n    /* \"#utility.yul\":2412:2430   */\n  dup2\n    /* \"#utility.yul\":2409:2447   */\n  eq\n    /* \"#utility.yul\":2406:2408   */\n  iszero\n  tag_63\n  jumpi\n    /* \"#utility.yul\":2462:2480   */\n  tag_64\n  tag_65\n  jump\t// in\ntag_64:\n    /* \"#utility.yul\":2406:2408   */\ntag_63:\n    /* \"#utility.yul\":2227:2496   */\n  pop\n  swap2\n  swap1\n  pop\n  jump\t// out\n    /* \"#utility.yul\":2502:2783   */\ntag_48:\n    /* \"#utility.yul\":2585:2612   */\n  tag_67\n    /* \"#utility.yul\":2607:2611   */\n  dup3\n    /* \"#utility.yul\":2585:2612   */\n  tag_55\n  jump\t// in\ntag_67:\n    /* \"#utility.yul\":2577:2583   */\n  dup2\n    /* \"#utility.yul\":2573:2613   */\n  add\n    /* \"#utility.yul\":2715:2721   */\n  dup2\n    /* \"#utility.yul\":2703:2713   */\n  dup2\n    /* \"#utility.yul\":2700:2722   */\n  lt\n    /* \"#utility.yul\":2679:2697   */\n  0xffffffffffffffff\n    /* \"#utility.yul\":2667:2677   */\n  dup3\n    /* \"#utility.yul\":2664:2698   */\n  gt\n    /* \"#utility.yul\":2661:2723   */\n  or\n    /* \"#utility.yul\":2658:2660   */\n  iszero\n  tag_68\n  jumpi\n    /* \"#utility.yul\":2726:2744   */\n  tag_69\n  tag_53\n  jump\t// in\ntag_69:\n    /* \"#utility.yul\":2658:2660   */\ntag_68:\n    /* \"#utility.yul\":2766:2776   */\n  dup1\n    /* \"#utility.yul\":2762:2764   */\n  0x40\n    /* \"#utility.yul\":2755:2777   */\n  mstore\n    /* \"#utility.yul\":2545:2783   */\n  pop\n  pop\n  pop\n  jump\t// out\n    /* \"#utility.yul\":2789:2969   */\ntag_65:\n    /* \"#utility.yul\":2837:2914   */\n  0x4e487b7100000000000000000000000000000000000000000000000000000000\n    /* \"#utility.yul\":2834:2835   */\n  0x00\n    /* \"#utility.yul\":2827:2915   */\n  mstore\n    /* \"#utility.yul\":2934:2938   */\n  0x22\n    /* \"#utility.yul\":2931:2932   */\n  0x04\n    /* \"#utility.yul\":2924:2939   */\n  mstore\n    /* \"#utility.yul\":2958:2962   */\n  0x24\n    /* \"#utility.yul\":2955:2956   */\n  0x00\n    /* \"#utility.yul\":2948:2963   */\n  revert\n    /* \"#utility.yul\":2975:3155   */\ntag_53:\n    /* \"#utility.yul\":3023:3100   */\n  0x4e487b7100000000000000000000000000000000000000000000000000000000\n    /* \"#utility.yul\":3020:3021   */\n  0x00\n    /* \"#utility.yul\":3013:3101   */\n  mstore\n    /* \"#utility.yul\":3120:3124   */\n  0x41\n    /* \"#utility.yul\":3117:3118   */\n  0x04\n    /* \"#utility.yul\":3110:3125   */\n  mstore\n    /* \"#utility.yul\":3144:3148   */\n  0x24\n    /* \"#utility.yul\":3141:3142   */\n  0x00\n    /* \"#utility.yul\":3134:3149   */\n  revert\n    /* \"#utility.yul\":3161:3263   */\ntag_55:\n    /* \"#utility.yul\":3202:3208   */\n  0x00\n    /* \"#utility.yul\":3253:3255   */\n  0x1f\n    /* \"#utility.yul\":3249:3256   */\n  not\n    /* \"#utility.yul\":3244:3246   */\n  0x1f\n    /* \"#utility.yul\":3237:3242   */\n  dup4\n    /* \"#utility.yul\":3233:3247   */\n  add\n    /* \"#utility.yul\":3229:3257   */\n  and\n    /* \"#utility.yul\":3219:3257   */\n  swap1\n  pop\n    /* \"#utility.yul\":3209:3263   */\n  swap2\n  swap1\n  pop\n  jump\t// out\n    /* \"ERC721A.sol\":880:29486  contract ERC721A is IERC721A {... */\ntag_11:\n  dataSize(sub_0)\n  dup1\n  dataOffset(sub_0)\n  0x00\n  codecopy\n  0x00\n  return\nstop\n\nsub_0: assembly {\n        /* \"ERC721A.sol\":880:29486  contract ERC721A is IERC721A {... */\n      mstore(0x40, 0x80)\n      callvalue\n      dup1\n      iszero\n      tag_1\n      jumpi\n      0x00\n      dup1\n      revert\n    tag_1:\n      pop\n      jumpi(tag_2, lt(calldatasize, 0x04))\n      shr(0xe0, calldataload(0x00))\n      dup1\n      0x6352211e\n      gt\n      tag_17\n      jumpi\n      dup1\n      0xa22cb465\n      gt\n      tag_18\n      jumpi\n      dup1\n      0xa22cb465\n      eq\n      tag_13\n      jumpi\n      dup1\n      0xb88d4fde\n      eq\n      tag_14\n      jumpi\n      dup1\n      0xc87b56dd\n      eq\n      tag_15\n      jumpi\n      dup1\n      0xe985e9c5\n      eq\n      tag_16\n      jumpi\n      jump(tag_2)\n    tag_18:\n      dup1\n      0x6352211e\n      eq\n      tag_10\n      jumpi\n      dup1\n      0x70a08231\n      eq\n      tag_11\n      jumpi\n      dup1\n      0x95d89b41\n      eq\n      tag_12\n      jumpi\n      jump(tag_2)\n    tag_17:\n      dup1\n      0x095ea7b3\n      gt\n      tag_19\n      jumpi\n      dup1\n      0x095ea7b3\n      eq\n      tag_6\n      jumpi\n      dup1\n      0x18160ddd\n      eq\n      tag_7\n      jumpi\n      dup1\n      0x23b872dd\n      eq\n      tag_8\n      jumpi\n      dup1\n      0x42842e0e\n      eq\n      tag_9\n      jumpi\n      jump(tag_2)\n    tag_19:\n      dup1\n      0x01ffc9a7\n      eq\n      tag_3\n      jumpi\n      dup1\n      0x06fdde03\n      eq\n      tag_4\n      jumpi\n      dup1\n      0x081812fc\n      eq\n      tag_5\n      jumpi\n    tag_2:\n      0x00\n      dup1\n      revert\n        /* \"ERC721A.sol\":4880:5487  function supportsInterface(bytes4 interfaceId) public view virtual override returns (bool) {... */\n    tag_3:\n      tag_20\n      0x04\n      dup1\n      calldatasize\n      sub\n      dup2\n      add\n      swap1\n      tag_21\n      swap2\n      swap1\n      tag_22\n      jump\t// in\n    tag_21:\n      tag_23\n      jump\t// in\n    tag_20:\n      mload(0x40)\n      tag_24\n      swap2\n      swap1\n      tag_25\n      jump\t// in\n    tag_24:\n      mload(0x40)\n      dup1\n      swap2\n      sub\n      swap1\n      return\n        /* \"ERC721A.sol\":9768:9866  function name() public view virtual override returns (string memory) {... */\n    tag_4:\n      tag_26\n      tag_27\n      jump\t// in\n    tag_26:\n      mload(0x40)\n      tag_28\n      swap2\n      swap1\n      tag_29\n      jump\t// in\n    tag_28:\n      mload(0x40)\n      dup1\n      swap2\n      sub\n      swap1\n      return\n        /* \"ERC721A.sol\":11769:11969  function getApproved(uint256 tokenId) public view override returns (address) {... */\n    tag_5:\n      tag_30\n      0x04\n      dup1\n      calldatasize\n      sub\n      dup2\n      add\n      swap1\n      tag_31\n      swap2\n      swap1\n      tag_32\n      jump\t// in\n    tag_31:\n      tag_33\n      jump\t// in\n    tag_30:\n      mload(0x40)\n      tag_34\n      swap2\n      swap1\n      tag_35\n      jump\t// in\n    tag_34:\n      mload(0x40)\n      dup1\n      swap2\n      sub\n      swap1\n      return\n        /* \"ERC721A.sol\":11245:11708  function approve(address to, uint256 tokenId) public override {... */\n    tag_6:\n      tag_36\n      0x04\n      dup1\n      calldatasize\n      sub\n      dup2\n      add\n      swap1\n      tag_37\n      swap2\n      swap1\n      tag_38\n      jump\t// in\n    tag_37:\n      tag_39\n      jump\t// in\n    tag_36:\n      stop\n        /* \"ERC721A.sol\":3963:4272  function totalSupply() public view override returns (uint256) {... */\n    tag_7:\n      tag_40\n      tag_41\n      jump\t// in\n    tag_40:\n      mload(0x40)\n      tag_42\n      swap2\n      swap1\n      tag_43\n      jump\t// in\n    tag_42:\n      mload(0x40)\n      dup1\n      swap2\n      sub\n      swap1\n      return\n        /* \"ERC721A.sol\":12629:12793  function transferFrom(... */\n    tag_8:\n      tag_44\n      0x04\n      dup1\n      calldatasize\n      sub\n      dup2\n      add\n      swap1\n      tag_45\n      swap2\n      swap1\n      tag_46\n      jump\t// in\n    tag_45:\n      tag_47\n      jump\t// in\n    tag_44:\n      stop\n        /* \"ERC721A.sol\":12859:13038  function safeTransferFrom(... */\n    tag_9:\n      tag_48\n      0x04\n      dup1\n      calldatasize\n      sub\n      dup2\n      add\n      swap1\n      tag_49\n      swap2\n      swap1\n      tag_46\n      jump\t// in\n    tag_49:\n      tag_50\n      jump\t// in\n    tag_48:\n      stop\n        /* \"ERC721A.sol\":9564:9706  function ownerOf(uint256 tokenId) public view override returns (address) {... */\n    tag_10:\n      tag_51\n      0x04\n      dup1\n      calldatasize\n      sub\n      dup2\n      add\n      swap1\n      tag_52\n      swap2\n      swap1\n      tag_32\n      jump\t// in\n    tag_52:\n      tag_53\n      jump\t// in\n    tag_51:\n      mload(0x40)\n      tag_54\n      swap2\n      swap1\n      tag_35\n      jump\t// in\n    tag_54:\n      mload(0x40)\n      dup1\n      swap2\n      sub\n      swap1\n      return\n        /* \"ERC721A.sol\":5546:5767  function balanceOf(address owner) public view override returns (uint256) {... */\n    tag_11:\n      tag_55\n      0x04\n      dup1\n      calldatasize\n      sub\n      dup2\n      add\n      swap1\n      tag_56\n      swap2\n      swap1\n      tag_57\n      jump\t// in\n    tag_56:\n      tag_58\n      jump\t// in\n    tag_55:\n      mload(0x40)\n      tag_59\n      swap2\n      swap1\n      tag_43\n      jump\t// in\n    tag_59:\n      mload(0x40)\n      dup1\n      swap2\n      sub\n      swap1\n      return\n        /* \"ERC721A.sol\":9930:10032  function symbol() public view virtual override returns (string memory) {... */\n    tag_12:\n      tag_60\n      tag_61\n      jump\t// in\n    tag_60:\n      mload(0x40)\n      tag_62\n      swap2\n      swap1\n      tag_29\n      jump\t// in\n    tag_62:\n      mload(0x40)\n      dup1\n      swap2\n      sub\n      swap1\n      return\n        /* \"ERC721A.sol\":12036:12339  function setApprovalForAll(address operator, bool approved) public virtual override {... */\n    tag_13:\n      tag_63\n      0x04\n      dup1\n      calldatasize\n      sub\n      dup2\n      add\n      swap1\n      tag_64\n      swap2\n      swap1\n      tag_65\n      jump\t// in\n    tag_64:\n      tag_66\n      jump\t// in\n    tag_63:\n      stop\n        /* \"ERC721A.sol\":13104:13489  function safeTransferFrom(... */\n    tag_14:\n      tag_67\n      0x04\n      dup1\n      calldatasize\n      sub\n      dup2\n      add\n      swap1\n      tag_68\n      swap2\n      swap1\n      tag_69\n      jump\t// in\n    tag_68:\n      tag_70\n      jump\t// in\n    tag_67:\n      stop\n        /* \"ERC721A.sol\":10098:10411  function tokenURI(uint256 tokenId) public view virtual override returns (string memory) {... */\n    tag_15:\n      tag_71\n      0x04\n      dup1\n      calldatasize\n      sub\n      dup2\n      add\n      swap1\n      tag_72\n      swap2\n      swap1\n      tag_32\n      jump\t// in\n    tag_72:\n      tag_73\n      jump\t// in\n    tag_71:\n      mload(0x40)\n      tag_74\n      swap2\n      swap1\n      tag_29\n      jump\t// in\n    tag_74:\n      mload(0x40)\n      dup1\n      swap2\n      sub\n      swap1\n      return\n        /* \"ERC721A.sol\":12405:12567  function isApprovedForAll(address owner, address operator) public view virtual override returns (bool) {... */\n    tag_16:\n      tag_75\n      0x04\n      dup1\n      calldatasize\n      sub\n      dup2\n      add\n      swap1\n      tag_76\n      swap2\n      swap1\n      tag_77\n      jump\t// in\n    tag_76:\n      tag_78\n      jump\t// in\n    tag_75:\n      mload(0x40)\n      tag_79\n      swap2\n      swap1\n      tag_25\n      jump\t// in\n    tag_79:\n      mload(0x40)\n      dup1\n      swap2\n      sub\n      swap1\n      return\n        /* \"ERC721A.sol\":4880:5487  function supportsInterface(bytes4 interfaceId) public view virtual override returns (bool) {... */\n    tag_23:\n        /* \"ERC721A.sol\":4965:4969  bool */\n      0x00\n        /* \"ERC721A.sol\":5275:5285  0x01ffc9a7 */\n      0x01ffc9a7\n        /* \"ERC721A.sol\":5260:5285  interfaceId == 0x01ffc9a7 */\n      0xe0\n      shl\n        /* \"ERC721A.sol\":5260:5271  interfaceId */\n      dup3\n        /* \"ERC721A.sol\":5260:5285  interfaceId == 0x01ffc9a7 */\n      not(0xffffffffffffffffffffffffffffffffffffffffffffffffffffffff)\n      and\n      eq\n        /* \"ERC721A.sol\":5260:5361  interfaceId == 0x01ffc9a7 || // ERC165 interface ID for ERC165.... */\n      dup1\n      tag_81\n      jumpi\n      pop\n        /* \"ERC721A.sol\":5351:5361  0x80ac58cd */\n      0x80ac58cd\n        /* \"ERC721A.sol\":5336:5361  interfaceId == 0x80ac58cd */\n      0xe0\n      shl\n        /* \"ERC721A.sol\":5336:5347  interfaceId */\n      dup3\n        /* \"ERC721A.sol\":5336:5361  interfaceId == 0x80ac58cd */\n      not(0xffffffffffffffffffffffffffffffffffffffffffffffffffffffff)\n      and\n      eq\n        /* \"ERC721A.sol\":5260:5361  interfaceId == 0x01ffc9a7 || // ERC165 interface ID for ERC165.... */\n    tag_81:\n        /* \"ERC721A.sol\":5260:5437  interfaceId == 0x01ffc9a7 || // ERC165 interface ID for ERC165.... */\n      dup1\n      tag_82\n      jumpi\n      pop\n        /* \"ERC721A.sol\":5427:5437  0x5b5e139f */\n      0x5b5e139f\n        /* \"ERC721A.sol\":5412:5437  interfaceId == 0x5b5e139f */\n      0xe0\n      shl\n        /* \"ERC721A.sol\":5412:5423  interfaceId */\n      dup3\n        /* \"ERC721A.sol\":5412:5437  interfaceId == 0x5b5e139f */\n      not(0xffffffffffffffffffffffffffffffffffffffffffffffffffffffff)\n      and\n      eq\n        /* \"ERC721A.sol\":5260:5437  interfaceId == 0x01ffc9a7 || // ERC165 interface ID for ERC165.... */\n    tag_82:\n        /* \"ERC721A.sol\":5241:5437  return... */\n      swap1\n      pop\n        /* \"ERC721A.sol\":4880:5487  function supportsInterface(bytes4 interfaceId) public view virtual override returns (bool) {... */\n      swap2\n      swap1\n      pop\n      jump\t// out\n        /* \"ERC721A.sol\":9768:9866  function name() public view virtual override returns (string memory) {... */\n    tag_27:\n        /* \"ERC721A.sol\":9822:9835  string memory */\n      0x60\n        /* \"ERC721A.sol\":9854:9859  _name */\n      0x02\n        /* \"ERC721A.sol\":9847:9859  return _name */\n      dup1\n      sload\n      tag_84\n      swap1\n      tag_85\n      jump\t// in\n    tag_84:\n      dup1\n      0x1f\n      add\n      0x20\n      dup1\n      swap2\n      div\n      mul\n      0x20\n      add\n      mload(0x40)\n      swap1\n      dup2\n      add\n      0x40\n      mstore\n      dup1\n      swap3\n      swap2\n      swap1\n      dup2\n      dup2\n      mstore\n      0x20\n      add\n      dup3\n      dup1\n      sload\n      tag_86\n      swap1\n      tag_85\n      jump\t// in\n    tag_86:\n      dup1\n      iszero\n      tag_87\n      jumpi\n      dup1\n      0x1f\n      lt\n      tag_88\n      jumpi\n      0x0100\n      dup1\n      dup4\n      sload\n      div\n      mul\n      dup4\n      mstore\n      swap2\n      0x20\n      add\n      swap2\n      jump(tag_87)\n    tag_88:\n      dup3\n      add\n      swap2\n      swap1\n      0x00\n      mstore\n      keccak256(0x00, 0x20)\n      swap1\n    tag_89:\n      dup2\n      sload\n      dup2\n      mstore\n      swap1\n      0x01\n      add\n      swap1\n      0x20\n      add\n      dup1\n      dup4\n      gt\n      tag_89\n      jumpi\n      dup3\n      swap1\n      sub\n      0x1f\n      and\n      dup3\n      add\n      swap2\n    tag_87:\n      pop\n      pop\n      pop\n      pop\n      pop\n      swap1\n      pop\n        /* \"ERC721A.sol\":9768:9866  function name() public view virtual override returns (string memory) {... */\n      swap1\n      jump\t// out\n        /* \"ERC721A.sol\":11769:11969  function getApproved(uint256 tokenId) public view override returns (address) {... */\n    tag_33:\n        /* \"ERC721A.sol\":11837:11844  address */\n      0x00\n        /* \"ERC721A.sol\":11861:11877  _exists(tokenId) */\n      tag_91\n        /* \"ERC721A.sol\":11869:11876  tokenId */\n      dup3\n        /* \"ERC721A.sol\":11861:11868  _exists */\n      tag_92\n        /* \"ERC721A.sol\":11861:11877  _exists(tokenId) */\n      jump\t// in\n    tag_91:\n        /* \"ERC721A.sol\":11856:11920  if (!_exists(tokenId)) revert ApprovalQueryForNonexistentToken() */\n      tag_93\n      jumpi\n        /* \"ERC721A.sol\":11886:11920  ApprovalQueryForNonexistentToken() */\n      mload(0x40)\n      0xcf4700e400000000000000000000000000000000000000000000000000000000\n      dup2\n      mstore\n      0x04\n      add\n      mload(0x40)\n      dup1\n      swap2\n      sub\n      swap1\n      revert\n        /* \"ERC721A.sol\":11856:11920  if (!_exists(tokenId)) revert ApprovalQueryForNonexistentToken() */\n    tag_93:\n        /* \"ERC721A.sol\":11938:11953  _tokenApprovals */\n      0x06\n        /* \"ERC721A.sol\":11938:11962  _tokenApprovals[tokenId] */\n      0x00\n        /* \"ERC721A.sol\":11954:11961  tokenId */\n      dup4\n        /* \"ERC721A.sol\":11938:11962  _tokenApprovals[tokenId] */\n      dup2\n      mstore\n      0x20\n      add\n      swap1\n      dup2\n      mstore\n      0x20\n      add\n      0x00\n      keccak256\n      0x00\n      swap1\n      sload\n      swap1\n      0x0100\n      exp\n      swap1\n      div\n      0xffffffffffffffffffffffffffffffffffffffff\n      and\n        /* \"ERC721A.sol\":11931:11962  return _tokenApprovals[tokenId] */\n      swap1\n      pop\n        /* \"ERC721A.sol\":11769:11969  function getApproved(uint256 tokenId) public view override returns (address) {... */\n      swap2\n      swap1\n      pop\n      jump\t// out\n        /* \"ERC721A.sol\":11245:11708  function approve(address to, uint256 tokenId) public override {... */\n    tag_39:\n        /* \"ERC721A.sol\":11317:11330  address owner */\n      0x00\n        /* \"ERC721A.sol\":11349:11376  _packedOwnershipOf(tokenId) */\n      tag_95\n        /* \"ERC721A.sol\":11368:11375  tokenId */\n      dup3\n        /* \"ERC721A.sol\":11349:11367  _packedOwnershipOf */\n      tag_96\n        /* \"ERC721A.sol\":11349:11376  _packedOwnershipOf(tokenId) */\n      jump\t// in\n    tag_95:\n        /* \"ERC721A.sol\":11317:11378  address owner = address(uint160(_packedOwnershipOf(tokenId))) */\n      swap1\n      pop\n        /* \"ERC721A.sol\":11398:11403  owner */\n      dup1\n        /* \"ERC721A.sol\":11392:11403  to == owner */\n      0xffffffffffffffffffffffffffffffffffffffff\n      and\n        /* \"ERC721A.sol\":11392:11394  to */\n      dup4\n        /* \"ERC721A.sol\":11392:11403  to == owner */\n      0xffffffffffffffffffffffffffffffffffffffff\n      and\n      eq\n        /* \"ERC721A.sol\":11388:11436  if (to == owner) revert ApprovalToCurrentOwner() */\n      iszero\n      tag_97\n      jumpi\n        /* \"ERC721A.sol\":11412:11436  ApprovalToCurrentOwner() */\n      mload(0x40)\n      0x943f7b8c00000000000000000000000000000000000000000000000000000000\n      dup2\n      mstore\n      0x04\n      add\n      mload(0x40)\n      dup1\n      swap2\n      sub\n      swap1\n      revert\n        /* \"ERC721A.sol\":11388:11436  if (to == owner) revert ApprovalToCurrentOwner() */\n    tag_97:\n        /* \"ERC721A.sol\":11474:11479  owner */\n      dup1\n        /* \"ERC721A.sol\":11451:11479  _msgSenderERC721A() != owner */\n      0xffffffffffffffffffffffffffffffffffffffff\n      and\n        /* \"ERC721A.sol\":11451:11470  _msgSenderERC721A() */\n      tag_98\n        /* \"ERC721A.sol\":11451:11468  _msgSenderERC721A */\n      tag_99\n        /* \"ERC721A.sol\":11451:11470  _msgSenderERC721A() */\n      jump\t// in\n    tag_98:\n        /* \"ERC721A.sol\":11451:11479  _msgSenderERC721A() != owner */\n      0xffffffffffffffffffffffffffffffffffffffff\n      and\n      eq\n        /* \"ERC721A.sol\":11447:11619  if (_msgSenderERC721A() != owner)... */\n      tag_100\n      jumpi\n        /* \"ERC721A.sol\":11498:11542  isApprovedForAll(owner, _msgSenderERC721A()) */\n      tag_101\n        /* \"ERC721A.sol\":11515:11520  owner */\n      dup2\n        /* \"ERC721A.sol\":11522:11541  _msgSenderERC721A() */\n      tag_102\n        /* \"ERC721A.sol\":11522:11539  _msgSenderERC721A */\n      tag_99\n        /* \"ERC721A.sol\":11522:11541  _msgSenderERC721A() */\n      jump\t// in\n    tag_102:\n        /* \"ERC721A.sol\":11498:11514  isApprovedForAll */\n      tag_78\n        /* \"ERC721A.sol\":11498:11542  isApprovedForAll(owner, _msgSenderERC721A()) */\n      jump\t// in\n    tag_101:\n        /* \"ERC721A.sol\":11493:11619  if (!isApprovedForAll(owner, _msgSenderERC721A())) {... */\n      tag_103\n      jumpi\n        /* \"ERC721A.sol\":11569:11604  ApprovalCallerNotOwnerNorApproved() */\n      mload(0x40)\n      0xcfb3b94200000000000000000000000000000000000000000000000000000000\n      dup2\n      mstore\n      0x04\n      add\n      mload(0x40)\n      dup1\n      swap2\n      sub\n      swap1\n      revert\n        /* \"ERC721A.sol\":11493:11619  if (!isApprovedForAll(owner, _msgSenderERC721A())) {... */\n    tag_103:\n        /* \"ERC721A.sol\":11447:11619  if (_msgSenderERC721A() != owner)... */\n    tag_100:\n        /* \"ERC721A.sol\":11656:11658  to */\n      dup3\n        /* \"ERC721A.sol\":11629:11644  _tokenApprovals */\n      0x06\n        /* \"ERC721A.sol\":11629:11653  _tokenApprovals[tokenId] */\n      0x00\n        /* \"ERC721A.sol\":11645:11652  tokenId */\n      dup5\n        /* \"ERC721A.sol\":11629:11653  _tokenApprovals[tokenId] */\n      dup2\n      mstore\n      0x20\n      add\n      swap1\n      dup2\n      mstore\n      0x20\n      add\n      0x00\n      keccak256\n      0x00\n        /* \"ERC721A.sol\":11629:11658  _tokenApprovals[tokenId] = to */\n      0x0100\n      exp\n      dup2\n      sload\n      dup2\n      0xffffffffffffffffffffffffffffffffffffffff\n      mul\n      not\n      and\n      swap1\n      dup4\n      0xffffffffffffffffffffffffffffffffffffffff\n      and\n      mul\n      or\n      swap1\n      sstore\n      pop\n        /* \"ERC721A.sol\":11693:11700  tokenId */\n      dup2\n        /* \"ERC721A.sol\":11689:11691  to */\n      dup4\n        /* \"ERC721A.sol\":11673:11701  Approval(owner, to, tokenId) */\n      0xffffffffffffffffffffffffffffffffffffffff\n      and\n        /* \"ERC721A.sol\":11682:11687  owner */\n      dup3\n        /* \"ERC721A.sol\":11673:11701  Approval(owner, to, tokenId) */\n      0xffffffffffffffffffffffffffffffffffffffff\n      and\n      0x8c5be1e5ebec7d5bd14f71427d1e84f3dd0314c0f7b2291e5b200ac8c7c3b925\n      mload(0x40)\n      mload(0x40)\n      dup1\n      swap2\n      sub\n      swap1\n      log4\n        /* \"ERC721A.sol\":11245:11708  function approve(address to, uint256 tokenId) public override {... */\n      pop\n      pop\n      pop\n      jump\t// out\n        /* \"ERC721A.sol\":3963:4272  function totalSupply() public view override returns (uint256) {... */\n    tag_41:\n        /* \"ERC721A.sol\":4016:4023  uint256 */\n      0x00\n        /* \"ERC721A.sol\":4240:4255  _startTokenId() */\n      tag_105\n        /* \"ERC721A.sol\":4240:4253  _startTokenId */\n      tag_106\n        /* \"ERC721A.sol\":4240:4255  _startTokenId() */\n      jump\t// in\n    tag_105:\n        /* \"ERC721A.sol\":4225:4237  _burnCounter */\n      sload(0x01)\n        /* \"ERC721A.sol\":4209:4222  _currentIndex */\n      sload(0x00)\n        /* \"ERC721A.sol\":4209:4237  _currentIndex - _burnCounter */\n      sub\n        /* \"ERC721A.sol\":4209:4255  _currentIndex - _burnCounter - _startTokenId() */\n      sub\n        /* \"ERC721A.sol\":4202:4255  return _currentIndex - _burnCounter - _startTokenId() */\n      swap1\n      pop\n        /* \"ERC721A.sol\":3963:4272  function totalSupply() public view override returns (uint256) {... */\n      swap1\n      jump\t// out\n        /* \"ERC721A.sol\":12629:12793  function transferFrom(... */\n    tag_47:\n        /* \"ERC721A.sol\":12758:12786  _transfer(from, to, tokenId) */\n      tag_108\n        /* \"ERC721A.sol\":12768:12772  from */\n      dup4\n        /* \"ERC721A.sol\":12774:12776  to */\n      dup4\n        /* \"ERC721A.sol\":12778:12785  tokenId */\n      dup4\n        /* \"ERC721A.sol\":12758:12767  _transfer */\n      tag_109\n        /* \"ERC721A.sol\":12758:12786  _transfer(from, to, tokenId) */\n      jump\t// in\n    tag_108:\n        /* \"ERC721A.sol\":12629:12793  function transferFrom(... */\n      pop\n      pop\n      pop\n      jump\t// out\n        /* \"ERC721A.sol\":12859:13038  function safeTransferFrom(... */\n    tag_50:\n        /* \"ERC721A.sol\":12992:13031  safeTransferFrom(from, to, tokenId, '') */\n      tag_111\n        /* \"ERC721A.sol\":13009:13013  from */\n      dup4\n        /* \"ERC721A.sol\":13015:13017  to */\n      dup4\n        /* \"ERC721A.sol\":13019:13026  tokenId */\n      dup4\n        /* \"ERC721A.sol\":12992:13031  safeTransferFrom(from, to, tokenId, '') */\n      mload(0x40)\n      dup1\n      0x20\n      add\n      0x40\n      mstore\n      dup1\n      0x00\n      dup2\n      mstore\n      pop\n        /* \"ERC721A.sol\":12992:13008  safeTransferFrom */\n      tag_70\n        /* \"ERC721A.sol\":12992:13031  safeTransferFrom(from, to, tokenId, '') */\n      jump\t// in\n    tag_111:\n        /* \"ERC721A.sol\":12859:13038  function safeTransferFrom(... */\n      pop\n      pop\n      pop\n      jump\t// out\n        /* \"ERC721A.sol\":9564:9706  function ownerOf(uint256 tokenId) public view override returns (address) {... */\n    tag_53:\n        /* \"ERC721A.sol\":9628:9635  address */\n      0x00\n        /* \"ERC721A.sol\":9670:9697  _packedOwnershipOf(tokenId) */\n      tag_113\n        /* \"ERC721A.sol\":9689:9696  tokenId */\n      dup3\n        /* \"ERC721A.sol\":9670:9688  _packedOwnershipOf */\n      tag_96\n        /* \"ERC721A.sol\":9670:9697  _packedOwnershipOf(tokenId) */\n      jump\t// in\n    tag_113:\n        /* \"ERC721A.sol\":9647:9699  return address(uint160(_packedOwnershipOf(tokenId))) */\n      swap1\n      pop\n        /* \"ERC721A.sol\":9564:9706  function ownerOf(uint256 tokenId) public view override returns (address) {... */\n      swap2\n      swap1\n      pop\n      jump\t// out\n        /* \"ERC721A.sol\":5546:5767  function balanceOf(address owner) public view override returns (uint256) {... */\n    tag_58:\n        /* \"ERC721A.sol\":5610:5617  uint256 */\n      0x00\n        /* \"ERC721A.sol\":5650:5651  0 */\n      dup1\n        /* \"ERC721A.sol\":5633:5652  owner == address(0) */\n      0xffffffffffffffffffffffffffffffffffffffff\n      and\n        /* \"ERC721A.sol\":5633:5638  owner */\n      dup3\n        /* \"ERC721A.sol\":5633:5652  owner == address(0) */\n      0xffffffffffffffffffffffffffffffffffffffff\n      and\n      eq\n        /* \"ERC721A.sol\":5629:5689  if (owner == address(0)) revert BalanceQueryForZeroAddress() */\n      iszero\n      tag_115\n      jumpi\n        /* \"ERC721A.sol\":5661:5689  BalanceQueryForZeroAddress() */\n      mload(0x40)\n      0x8f4eb60400000000000000000000000000000000000000000000000000000000\n      dup2\n      mstore\n      0x04\n      add\n      mload(0x40)\n      dup1\n      swap2\n      sub\n      swap1\n      revert\n        /* \"ERC721A.sol\":5629:5689  if (owner == address(0)) revert BalanceQueryForZeroAddress() */\n    tag_115:\n        /* \"ERC721A.sol\":1017:1030  (1 << 64) - 1 */\n      0xffffffffffffffff\n        /* \"ERC721A.sol\":5706:5724  _packedAddressData */\n      0x05\n        /* \"ERC721A.sol\":5706:5731  _packedAddressData[owner] */\n      0x00\n        /* \"ERC721A.sol\":5725:5730  owner */\n      dup5\n        /* \"ERC721A.sol\":5706:5731  _packedAddressData[owner] */\n      0xffffffffffffffffffffffffffffffffffffffff\n      and\n      0xffffffffffffffffffffffffffffffffffffffff\n      and\n      dup2\n      mstore\n      0x20\n      add\n      swap1\n      dup2\n      mstore\n      0x20\n      add\n      0x00\n      keccak256\n      sload\n        /* \"ERC721A.sol\":5706:5760  _packedAddressData[owner] & BITMASK_ADDRESS_DATA_ENTRY */\n      and\n        /* \"ERC721A.sol\":5699:5760  return _packedAddressData[owner] & BITMASK_ADDRESS_DATA_ENTRY */\n      swap1\n      pop\n        /* \"ERC721A.sol\":5546:5767  function balanceOf(address owner) public view override returns (uint256) {... */\n      swap2\n      swap1\n      pop\n      jump\t// out\n        /* \"ERC721A.sol\":9930:10032  function symbol() public view virtual override returns (string memory) {... */\n    tag_61:\n        /* \"ERC721A.sol\":9986:9999  string memory */\n      0x60\n        /* \"ERC721A.sol\":10018:10025  _symbol */\n      0x03\n        /* \"ERC721A.sol\":10011:10025  return _symbol */\n      dup1\n      sload\n      tag_117\n      swap1\n      tag_85\n      jump\t// in\n    tag_117:\n      dup1\n      0x1f\n      add\n      0x20\n      dup1\n      swap2\n      div\n      mul\n      0x20\n      add\n      mload(0x40)\n      swap1\n      dup2\n      add\n      0x40\n      mstore\n      dup1\n      swap3\n      swap2\n      swap1\n      dup2\n      dup2\n      mstore\n      0x20\n      add\n      dup3\n      dup1\n      sload\n      tag_118\n      swap1\n      tag_85\n      jump\t// in\n    tag_118:\n      dup1\n      iszero\n      tag_119\n      jumpi\n      dup1\n      0x1f\n      lt\n      tag_120\n      jumpi\n      0x0100\n      dup1\n      dup4\n      sload\n      div\n      mul\n      dup4\n      mstore\n      swap2\n      0x20\n      add\n      swap2\n      jump(tag_119)\n    tag_120:\n      dup3\n      add\n      swap2\n      swap1\n      0x00\n      mstore\n      keccak256(0x00, 0x20)\n      swap1\n    tag_121:\n      dup2\n      sload\n      dup2\n      mstore\n      swap1\n      0x01\n      add\n      swap1\n      0x20\n      add\n      dup1\n      dup4\n      gt\n      tag_121\n      jumpi\n      dup3\n      swap1\n      sub\n      0x1f\n      and\n      dup3\n      add\n      swap2\n    tag_119:\n      pop\n      pop\n      pop\n      pop\n      pop\n      swap1\n      pop\n        /* \"ERC721A.sol\":9930:10032  function symbol() public view virtual override returns (string memory) {... */\n      swap1\n      jump\t// out\n        /* \"ERC721A.sol\":12036:12339  function setApprovalForAll(address operator, bool approved) public virtual override {... */\n    tag_66:\n        /* \"ERC721A.sol\":12146:12165  _msgSenderERC721A() */\n      tag_123\n        /* \"ERC721A.sol\":12146:12163  _msgSenderERC721A */\n      tag_99\n        /* \"ERC721A.sol\":12146:12165  _msgSenderERC721A() */\n      jump\t// in\n    tag_123:\n        /* \"ERC721A.sol\":12134:12165  operator == _msgSenderERC721A() */\n      0xffffffffffffffffffffffffffffffffffffffff\n      and\n        /* \"ERC721A.sol\":12134:12142  operator */\n      dup3\n        /* \"ERC721A.sol\":12134:12165  operator == _msgSenderERC721A() */\n      0xffffffffffffffffffffffffffffffffffffffff\n      and\n      eq\n        /* \"ERC721A.sol\":12130:12191  if (operator == _msgSenderERC721A()) revert ApproveToCaller() */\n      iszero\n      tag_124\n      jumpi\n        /* \"ERC721A.sol\":12174:12191  ApproveToCaller() */\n      mload(0x40)\n      0xb06307db00000000000000000000000000000000000000000000000000000000\n      dup2\n      mstore\n      0x04\n      add\n      mload(0x40)\n      dup1\n      swap2\n      sub\n      swap1\n      revert\n        /* \"ERC721A.sol\":12130:12191  if (operator == _msgSenderERC721A()) revert ApproveToCaller() */\n    tag_124:\n        /* \"ERC721A.sol\":12254:12262  approved */\n      dup1\n        /* \"ERC721A.sol\":12202:12220  _operatorApprovals */\n      0x07\n        /* \"ERC721A.sol\":12202:12241  _operatorApprovals[_msgSenderERC721A()] */\n      0x00\n        /* \"ERC721A.sol\":12221:12240  _msgSenderERC721A() */\n      tag_125\n        /* \"ERC721A.sol\":12221:12238  _msgSenderERC721A */\n      tag_99\n        /* \"ERC721A.sol\":12221:12240  _msgSenderERC721A() */\n      jump\t// in\n    tag_125:\n        /* \"ERC721A.sol\":12202:12241  _operatorApprovals[_msgSenderERC721A()] */\n      0xffffffffffffffffffffffffffffffffffffffff\n      and\n      0xffffffffffffffffffffffffffffffffffffffff\n      and\n      dup2\n      mstore\n      0x20\n      add\n      swap1\n      dup2\n      mstore\n      0x20\n      add\n      0x00\n      keccak256\n        /* \"ERC721A.sol\":12202:12251  _operatorApprovals[_msgSenderERC721A()][operator] */\n      0x00\n        /* \"ERC721A.sol\":12242:12250  operator */\n      dup5\n        /* \"ERC721A.sol\":12202:12251  _operatorApprovals[_msgSenderERC721A()][operator] */\n      0xffffffffffffffffffffffffffffffffffffffff\n      and\n      0xffffffffffffffffffffffffffffffffffffffff\n      and\n      dup2\n      mstore\n      0x20\n      add\n      swap1\n      dup2\n      mstore\n      0x20\n      add\n      0x00\n      keccak256\n      0x00\n        /* \"ERC721A.sol\":12202:12262  _operatorApprovals[_msgSenderERC721A()][operator] = approved */\n      0x0100\n      exp\n      dup2\n      sload\n      dup2\n      0xff\n      mul\n      not\n      and\n      swap1\n      dup4\n      iszero\n      iszero\n      mul\n      or\n      swap1\n      sstore\n      pop\n        /* \"ERC721A.sol\":12313:12321  operator */\n      dup2\n        /* \"ERC721A.sol\":12277:12332  ApprovalForAll(_msgSenderERC721A(), operator, approved) */\n      0xffffffffffffffffffffffffffffffffffffffff\n      and\n        /* \"ERC721A.sol\":12292:12311  _msgSenderERC721A() */\n      tag_126\n        /* \"ERC721A.sol\":12292:12309  _msgSenderERC721A */\n      tag_99\n        /* \"ERC721A.sol\":12292:12311  _msgSenderERC721A() */\n      jump\t// in\n    tag_126:\n        /* \"ERC721A.sol\":12277:12332  ApprovalForAll(_msgSenderERC721A(), operator, approved) */\n      0xffffffffffffffffffffffffffffffffffffffff\n      and\n      0x17307eab39ab6107e8899845ad3d59bd9653f200f220920489ca2b5937696c31\n        /* \"ERC721A.sol\":12323:12331  approved */\n      dup4\n        /* \"ERC721A.sol\":12277:12332  ApprovalForAll(_msgSenderERC721A(), operator, approved) */\n      mload(0x40)\n      tag_127\n      swap2\n      swap1\n      tag_25\n      jump\t// in\n    tag_127:\n      mload(0x40)\n      dup1\n      swap2\n      sub\n      swap1\n      log3\n        /* \"ERC721A.sol\":12036:12339  function setApprovalForAll(address operator, bool approved) public virtual override {... */\n      pop\n      pop\n      jump\t// out\n        /* \"ERC721A.sol\":13104:13489  function safeTransferFrom(... */\n    tag_70:\n        /* \"ERC721A.sol\":13265:13293  _transfer(from, to, tokenId) */\n      tag_129\n        /* \"ERC721A.sol\":13275:13279  from */\n      dup5\n        /* \"ERC721A.sol\":13281:13283  to */\n      dup5\n        /* \"ERC721A.sol\":13285:13292  tokenId */\n      dup5\n        /* \"ERC721A.sol\":13265:13274  _transfer */\n      tag_109\n        /* \"ERC721A.sol\":13265:13293  _transfer(from, to, tokenId) */\n      jump\t// in\n    tag_129:\n        /* \"ERC721A.sol\":13325:13326  0 */\n      0x00\n        /* \"ERC721A.sol\":13307:13309  to */\n      dup4\n        /* \"ERC721A.sol\":13307:13321  to.code.length */\n      0xffffffffffffffffffffffffffffffffffffffff\n      and\n      extcodesize\n        /* \"ERC721A.sol\":13307:13326  to.code.length != 0 */\n      eq\n        /* \"ERC721A.sol\":13303:13483  if (to.code.length != 0)... */\n      tag_130\n      jumpi\n        /* \"ERC721A.sol\":13345:13401  _checkContractOnERC721Received(from, to, tokenId, _data) */\n      tag_131\n        /* \"ERC721A.sol\":13376:13380  from */\n      dup5\n        /* \"ERC721A.sol\":13382:13384  to */\n      dup5\n        /* \"ERC721A.sol\":13386:13393  tokenId */\n      dup5\n        /* \"ERC721A.sol\":13395:13400  _data */\n      dup5\n        /* \"ERC721A.sol\":13345:13375  _checkContractOnERC721Received */\n      tag_132\n        /* \"ERC721A.sol\":13345:13401  _checkContractOnERC721Received(from, to, tokenId, _data) */\n      jump\t// in\n    tag_131:\n        /* \"ERC721A.sol\":13340:13483  if (!_checkContractOnERC721Received(from, to, tokenId, _data)) {... */\n      tag_133\n      jumpi\n        /* \"ERC721A.sol\":13428:13468  TransferToNonERC721ReceiverImplementer() */\n      mload(0x40)\n      0xd1a57ed600000000000000000000000000000000000000000000000000000000\n      dup2\n      mstore\n      0x04\n      add\n      mload(0x40)\n      dup1\n      swap2\n      sub\n      swap1\n      revert\n        /* \"ERC721A.sol\":13340:13483  if (!_checkContractOnERC721Received(from, to, tokenId, _data)) {... */\n    tag_133:\n        /* \"ERC721A.sol\":13303:13483  if (to.code.length != 0)... */\n    tag_130:\n        /* \"ERC721A.sol\":13104:13489  function safeTransferFrom(... */\n      pop\n      pop\n      pop\n      pop\n      jump\t// out\n        /* \"ERC721A.sol\":10098:10411  function tokenURI(uint256 tokenId) public view virtual override returns (string memory) {... */\n    tag_73:\n        /* \"ERC721A.sol\":10171:10184  string memory */\n      0x60\n        /* \"ERC721A.sol\":10201:10217  _exists(tokenId) */\n      tag_135\n        /* \"ERC721A.sol\":10209:10216  tokenId */\n      dup3\n        /* \"ERC721A.sol\":10201:10208  _exists */\n      tag_92\n        /* \"ERC721A.sol\":10201:10217  _exists(tokenId) */\n      jump\t// in\n    tag_135:\n        /* \"ERC721A.sol\":10196:10255  if (!_exists(tokenId)) revert URIQueryForNonexistentToken() */\n      tag_136\n      jumpi\n        /* \"ERC721A.sol\":10226:10255  URIQueryForNonexistentToken() */\n      mload(0x40)\n      0xa14c4b5000000000000000000000000000000000000000000000000000000000\n      dup2\n      mstore\n      0x04\n      add\n      mload(0x40)\n      dup1\n      swap2\n      sub\n      swap1\n      revert\n        /* \"ERC721A.sol\":10196:10255  if (!_exists(tokenId)) revert URIQueryForNonexistentToken() */\n    tag_136:\n        /* \"ERC721A.sol\":10266:10287  string memory baseURI */\n      0x00\n        /* \"ERC721A.sol\":10290:10300  _baseURI() */\n      tag_137\n        /* \"ERC721A.sol\":10290:10298  _baseURI */\n      tag_138\n        /* \"ERC721A.sol\":10290:10300  _baseURI() */\n      jump\t// in\n    tag_137:\n        /* \"ERC721A.sol\":10266:10300  string memory baseURI = _baseURI() */\n      swap1\n      pop\n        /* \"ERC721A.sol\":10342:10343  0 */\n      0x00\n        /* \"ERC721A.sol\":10323:10330  baseURI */\n      dup2\n        /* \"ERC721A.sol\":10317:10338  bytes(baseURI).length */\n      mload\n        /* \"ERC721A.sol\":10317:10343  bytes(baseURI).length != 0 */\n      eq\n      iszero\n        /* \"ERC721A.sol\":10317:10404  bytes(baseURI).length != 0 ? string(abi.encodePacked(baseURI, _toString(tokenId))) : '' */\n      tag_139\n      jumpi\n      mload(0x40)\n      dup1\n      0x20\n      add\n      0x40\n      mstore\n      dup1\n      0x00\n      dup2\n      mstore\n      pop\n      jump(tag_140)\n    tag_139:\n        /* \"ERC721A.sol\":10370:10377  baseURI */\n      dup1\n        /* \"ERC721A.sol\":10379:10397  _toString(tokenId) */\n      tag_141\n        /* \"ERC721A.sol\":10389:10396  tokenId */\n      dup5\n        /* \"ERC721A.sol\":10379:10388  _toString */\n      tag_142\n        /* \"ERC721A.sol\":10379:10397  _toString(tokenId) */\n      jump\t// in\n    tag_141:\n        /* \"ERC721A.sol\":10353:10398  abi.encodePacked(baseURI, _toString(tokenId)) */\n      add(0x20, mload(0x40))\n      tag_143\n      swap3\n      swap2\n      swap1\n      tag_144\n      jump\t// in\n    tag_143:\n      mload(0x40)\n      0x20\n      dup2\n      dup4\n      sub\n      sub\n      dup2\n      mstore\n      swap1\n      0x40\n      mstore\n        /* \"ERC721A.sol\":10317:10404  bytes(baseURI).length != 0 ? string(abi.encodePacked(baseURI, _toString(tokenId))) : '' */\n    tag_140:\n        /* \"ERC721A.sol\":10310:10404  return bytes(baseURI).length != 0 ? string(abi.encodePacked(baseURI, _toString(tokenId))) : '' */\n      swap2\n      pop\n      pop\n        /* \"ERC721A.sol\":10098:10411  function tokenURI(uint256 tokenId) public view virtual override returns (string memory) {... */\n      swap2\n      swap1\n      pop\n      jump\t// out\n        /* \"ERC721A.sol\":12405:12567  function isApprovedForAll(address owner, address operator) public view virtual override returns (bool) {... */\n    tag_78:\n        /* \"ERC721A.sol\":12502:12506  bool */\n      0x00\n        /* \"ERC721A.sol\":12525:12543  _operatorApprovals */\n      0x07\n        /* \"ERC721A.sol\":12525:12550  _operatorApprovals[owner] */\n      0x00\n        /* \"ERC721A.sol\":12544:12549  owner */\n      dup5\n        /* \"ERC721A.sol\":12525:12550  _operatorApprovals[owner] */\n      0xffffffffffffffffffffffffffffffffffffffff\n      and\n      0xffffffffffffffffffffffffffffffffffffffff\n      and\n      dup2\n      mstore\n      0x20\n      add\n      swap1\n      dup2\n      mstore\n      0x20\n      add\n      0x00\n      keccak256\n        /* \"ERC721A.sol\":12525:12560  _operatorApprovals[owner][operator] */\n      0x00\n        /* \"ERC721A.sol\":12551:12559  operator */\n      dup4\n        /* \"ERC721A.sol\":12525:12560  _operatorApprovals[owner][operator] */\n      0xffffffffffffffffffffffffffffffffffffffff\n      and\n      0xffffffffffffffffffffffffffffffffffffffff\n      and\n      dup2\n      mstore\n      0x20\n      add\n      swap1\n      dup2\n      mstore\n      0x20\n      add\n      0x00\n      keccak256\n      0x00\n      swap1\n      sload\n      swap1\n      0x0100\n      exp\n      swap1\n      div\n      0xff\n      and\n        /* \"ERC721A.sol\":12518:12560  return _operatorApprovals[owner][operator] */\n      swap1\n      pop\n        /* \"ERC721A.sol\":12405:12567  function isApprovedForAll(address owner, address operator) public view virtual override returns (bool) {... */\n      swap3\n      swap2\n      pop\n      pop\n      jump\t// out\n        /* \"ERC721A.sol\":13735:14003  function _exists(uint256 tokenId) internal view returns (bool) {... */\n    tag_92:\n        /* \"ERC721A.sol\":13792:13796  bool */\n      0x00\n        /* \"ERC721A.sol\":13846:13853  tokenId */\n      dup2\n        /* \"ERC721A.sol\":13827:13842  _startTokenId() */\n      tag_147\n        /* \"ERC721A.sol\":13827:13840  _startTokenId */\n      tag_106\n        /* \"ERC721A.sol\":13827:13842  _startTokenId() */\n      jump\t// in\n    tag_147:\n        /* \"ERC721A.sol\":13827:13853  _startTokenId() <= tokenId */\n      gt\n      iszero\n        /* \"ERC721A.sol\":13827:13892  _startTokenId() <= tokenId &&... */\n      dup1\n      iszero\n      tag_148\n      jumpi\n      pop\n        /* \"ERC721A.sol\":13879:13892  _currentIndex */\n      sload(0x00)\n        /* \"ERC721A.sol\":13869:13876  tokenId */\n      dup3\n        /* \"ERC721A.sol\":13869:13892  tokenId < _currentIndex */\n      lt\n        /* \"ERC721A.sol\":13827:13892  _startTokenId() <= tokenId &&... */\n    tag_148:\n        /* \"ERC721A.sol\":13827:13977  _startTokenId() <= tokenId &&... */\n      dup1\n      iszero\n      tag_149\n      jumpi\n      pop\n        /* \"ERC721A.sol\":13976:13977  0 */\n      0x00\n        /* \"ERC721A.sol\":1769:1777  1 << 224 */\n      0x0100000000000000000000000000000000000000000000000000000000\n        /* \"ERC721A.sol\":13929:13946  _packedOwnerships */\n      0x04\n        /* \"ERC721A.sol\":13929:13955  _packedOwnerships[tokenId] */\n      0x00\n        /* \"ERC721A.sol\":13947:13954  tokenId */\n      dup6\n        /* \"ERC721A.sol\":13929:13955  _packedOwnerships[tokenId] */\n      dup2\n      mstore\n      0x20\n      add\n      swap1\n      dup2\n      mstore\n      0x20\n      add\n      0x00\n      keccak256\n      sload\n        /* \"ERC721A.sol\":13929:13972  _packedOwnerships[tokenId] & BITMASK_BURNED */\n      and\n        /* \"ERC721A.sol\":13929:13977  _packedOwnerships[tokenId] & BITMASK_BURNED == 0 */\n      eq\n        /* \"ERC721A.sol\":13827:13977  _startTokenId() <= tokenId &&... */\n    tag_149:\n        /* \"ERC721A.sol\":13808:13977  return... */\n      swap1\n      pop\n        /* \"ERC721A.sol\":13735:14003  function _exists(uint256 tokenId) internal view returns (bool) {... */\n      swap2\n      swap1\n      pop\n      jump\t// out\n        /* \"ERC721A.sol\":7141:8246  function _packedOwnershipOf(uint256 tokenId) private view returns (uint256) {... */\n    tag_96:\n        /* \"ERC721A.sol\":7208:7215  uint256 */\n      0x00\n        /* \"ERC721A.sol\":7227:7239  uint256 curr */\n      dup1\n        /* \"ERC721A.sol\":7242:7249  tokenId */\n      dup3\n        /* \"ERC721A.sol\":7227:7249  uint256 curr = tokenId */\n      swap1\n      pop\n        /* \"ERC721A.sol\":7307:7311  curr */\n      dup1\n        /* \"ERC721A.sol\":7288:7303  _startTokenId() */\n      tag_151\n        /* \"ERC721A.sol\":7288:7301  _startTokenId */\n      tag_106\n        /* \"ERC721A.sol\":7288:7303  _startTokenId() */\n      jump\t// in\n    tag_151:\n        /* \"ERC721A.sol\":7288:7311  _startTokenId() <= curr */\n      gt\n        /* \"ERC721A.sol\":7284:8182  if (_startTokenId() <= curr)... */\n      tag_152\n      jumpi\n        /* \"ERC721A.sol\":7340:7353  _currentIndex */\n      sload(0x00)\n        /* \"ERC721A.sol\":7333:7337  curr */\n      dup2\n        /* \"ERC721A.sol\":7333:7353  curr < _currentIndex */\n      lt\n        /* \"ERC721A.sol\":7329:8182  if (curr < _currentIndex) {... */\n      iszero\n      tag_153\n      jumpi\n        /* \"ERC721A.sol\":7377:7391  uint256 packed */\n      0x00\n        /* \"ERC721A.sol\":7394:7411  _packedOwnerships */\n      0x04\n        /* \"ERC721A.sol\":7394:7417  _packedOwnerships[curr] */\n      0x00\n        /* \"ERC721A.sol\":7412:7416  curr */\n      dup4\n        /* \"ERC721A.sol\":7394:7417  _packedOwnerships[curr] */\n      dup2\n      mstore\n      0x20\n      add\n      swap1\n      dup2\n      mstore\n      0x20\n      add\n      0x00\n      keccak256\n      sload\n        /* \"ERC721A.sol\":7377:7417  uint256 packed = _packedOwnerships[curr] */\n      swap1\n      pop\n        /* \"ERC721A.sol\":7508:7509  0 */\n      0x00\n        /* \"ERC721A.sol\":1769:1777  1 << 224 */\n      0x0100000000000000000000000000000000000000000000000000000000\n        /* \"ERC721A.sol\":7481:7487  packed */\n      dup3\n        /* \"ERC721A.sol\":7481:7504  packed & BITMASK_BURNED */\n      and\n        /* \"ERC721A.sol\":7481:7509  packed & BITMASK_BURNED == 0 */\n      eq\n        /* \"ERC721A.sol\":7477:8164  if (packed & BITMASK_BURNED == 0) {... */\n      iszero\n      tag_154\n      jumpi\n        /* \"ERC721A.sol\":7992:8103  while (packed == 0) {... */\n    tag_155:\n        /* \"ERC721A.sol\":8009:8010  0 */\n      0x00\n        /* \"ERC721A.sol\":7999:8005  packed */\n      dup2\n        /* \"ERC721A.sol\":7999:8010  packed == 0 */\n      eq\n        /* \"ERC721A.sol\":7992:8103  while (packed == 0) {... */\n      iszero\n      tag_156\n      jumpi\n        /* \"ERC721A.sol\":8051:8068  _packedOwnerships */\n      0x04\n        /* \"ERC721A.sol\":8051:8076  _packedOwnerships[--curr] */\n      0x00\n        /* \"ERC721A.sol\":8069:8075  --curr */\n      dup4\n      0x01\n      swap1\n      sub\n      swap4\n      pop\n      dup4\n        /* \"ERC721A.sol\":8051:8076  _packedOwnerships[--curr] */\n      dup2\n      mstore\n      0x20\n      add\n      swap1\n      dup2\n      mstore\n      0x20\n      add\n      0x00\n      keccak256\n      sload\n        /* \"ERC721A.sol\":8042:8076  packed = _packedOwnerships[--curr] */\n      swap1\n      pop\n        /* \"ERC721A.sol\":7992:8103  while (packed == 0) {... */\n      jump(tag_155)\n    tag_156:\n        /* \"ERC721A.sol\":8135:8141  packed */\n      dup1\n        /* \"ERC721A.sol\":8128:8141  return packed */\n      swap3\n      pop\n      pop\n      pop\n      jump(tag_150)\n        /* \"ERC721A.sol\":7477:8164  if (packed & BITMASK_BURNED == 0) {... */\n    tag_154:\n        /* \"ERC721A.sol\":7329:8182  if (curr < _currentIndex) {... */\n      pop\n    tag_153:\n        /* \"ERC721A.sol\":7284:8182  if (_startTokenId() <= curr)... */\n    tag_152:\n        /* \"ERC721A.sol\":8208:8239  OwnerQueryForNonexistentToken() */\n      mload(0x40)\n      0xdf2d9b4200000000000000000000000000000000000000000000000000000000\n      dup2\n      mstore\n      0x04\n      add\n      mload(0x40)\n      dup1\n      swap2\n      sub\n      swap1\n      revert\n        /* \"ERC721A.sol\":7141:8246  function _packedOwnershipOf(uint256 tokenId) private view returns (uint256) {... */\n    tag_150:\n      swap2\n      swap1\n      pop\n      jump\t// out\n        /* \"ERC721A.sol\":27360:27463  function _msgSenderERC721A() internal view virtual returns (address) {... */\n    tag_99:\n        /* \"ERC721A.sol\":27420:27427  address */\n      0x00\n        /* \"ERC721A.sol\":27446:27456  msg.sender */\n      caller\n        /* \"ERC721A.sol\":27439:27456  return msg.sender */\n      swap1\n      pop\n        /* \"ERC721A.sol\":27360:27463  function _msgSenderERC721A() internal view virtual returns (address) {... */\n      swap1\n      jump\t// out\n        /* \"ERC721A.sol\":3502:3592  function _startTokenId() internal view virtual returns (uint256) {... */\n    tag_106:\n        /* \"ERC721A.sol\":3558:3565  uint256 */\n      0x00\n        /* \"ERC721A.sol\":3502:3592  function _startTokenId() internal view virtual returns (uint256) {... */\n      swap1\n      jump\t// out\n        /* \"ERC721A.sol\":18835:21295  function _transfer(... */\n    tag_109:\n        /* \"ERC721A.sol\":18945:18972  uint256 prevOwnershipPacked */\n      0x00\n        /* \"ERC721A.sol\":18975:19002  _packedOwnershipOf(tokenId) */\n      tag_160\n        /* \"ERC721A.sol\":18994:19001  tokenId */\n      dup3\n        /* \"ERC721A.sol\":18975:18993  _packedOwnershipOf */\n      tag_96\n        /* \"ERC721A.sol\":18975:19002  _packedOwnershipOf(tokenId) */\n      jump\t// in\n    tag_160:\n        /* \"ERC721A.sol\":18945:19002  uint256 prevOwnershipPacked = _packedOwnershipOf(tokenId) */\n      swap1\n      pop\n        /* \"ERC721A.sol\":19058:19062  from */\n      dup4\n        /* \"ERC721A.sol\":19017:19062  address(uint160(prevOwnershipPacked)) != from */\n      0xffffffffffffffffffffffffffffffffffffffff\n      and\n        /* \"ERC721A.sol\":19033:19052  prevOwnershipPacked */\n      dup2\n        /* \"ERC721A.sol\":19017:19062  address(uint160(prevOwnershipPacked)) != from */\n      0xffffffffffffffffffffffffffffffffffffffff\n      and\n      eq\n        /* \"ERC721A.sol\":19013:19099  if (address(uint160(prevOwnershipPacked)) != from) revert TransferFromIncorrectOwner() */\n      tag_161\n      jumpi\n        /* \"ERC721A.sol\":19071:19099  TransferFromIncorrectOwner() */\n      mload(0x40)\n      0xa114810000000000000000000000000000000000000000000000000000000000\n      dup2\n      mstore\n      0x04\n      add\n      mload(0x40)\n      dup1\n      swap2\n      sub\n      swap1\n      revert\n        /* \"ERC721A.sol\":19013:19099  if (address(uint160(prevOwnershipPacked)) != from) revert TransferFromIncorrectOwner() */\n    tag_161:\n        /* \"ERC721A.sol\":19110:19132  bool isApprovedOrOwner */\n      0x00\n        /* \"ERC721A.sol\":19159:19163  from */\n      dup5\n        /* \"ERC721A.sol\":19136:19163  _msgSenderERC721A() == from */\n      0xffffffffffffffffffffffffffffffffffffffff\n      and\n        /* \"ERC721A.sol\":19136:19155  _msgSenderERC721A() */\n      tag_162\n        /* \"ERC721A.sol\":19136:19153  _msgSenderERC721A */\n      tag_99\n        /* \"ERC721A.sol\":19136:19155  _msgSenderERC721A() */\n      jump\t// in\n    tag_162:\n        /* \"ERC721A.sol\":19136:19163  _msgSenderERC721A() == from */\n      0xffffffffffffffffffffffffffffffffffffffff\n      and\n      eq\n        /* \"ERC721A.sol\":19136:19222  _msgSenderERC721A() == from ||... */\n      dup1\n      tag_163\n      jumpi\n      pop\n        /* \"ERC721A.sol\":19179:19222  isApprovedForAll(from, _msgSenderERC721A()) */\n      tag_164\n        /* \"ERC721A.sol\":19196:19200  from */\n      dup6\n        /* \"ERC721A.sol\":19202:19221  _msgSenderERC721A() */\n      tag_165\n        /* \"ERC721A.sol\":19202:19219  _msgSenderERC721A */\n      tag_99\n        /* \"ERC721A.sol\":19202:19221  _msgSenderERC721A() */\n      jump\t// in\n    tag_165:\n        /* \"ERC721A.sol\":19179:19195  isApprovedForAll */\n      tag_78\n        /* \"ERC721A.sol\":19179:19222  isApprovedForAll(from, _msgSenderERC721A()) */\n      jump\t// in\n    tag_164:\n        /* \"ERC721A.sol\":19136:19222  _msgSenderERC721A() == from ||... */\n    tag_163:\n        /* \"ERC721A.sol\":19136:19281  _msgSenderERC721A() == from ||... */\n      dup1\n      tag_166\n      jumpi\n      pop\n        /* \"ERC721A.sol\":19262:19281  _msgSenderERC721A() */\n      tag_167\n        /* \"ERC721A.sol\":19262:19279  _msgSenderERC721A */\n      tag_99\n        /* \"ERC721A.sol\":19262:19281  _msgSenderERC721A() */\n      jump\t// in\n    tag_167:\n        /* \"ERC721A.sol\":19238:19281  getApproved(tokenId) == _msgSenderERC721A() */\n      0xffffffffffffffffffffffffffffffffffffffff\n      and\n        /* \"ERC721A.sol\":19238:19258  getApproved(tokenId) */\n      tag_168\n        /* \"ERC721A.sol\":19250:19257  tokenId */\n      dup5\n        /* \"ERC721A.sol\":19238:19249  getApproved */\n      tag_33\n        /* \"ERC721A.sol\":19238:19258  getApproved(tokenId) */\n      jump\t// in\n    tag_168:\n        /* \"ERC721A.sol\":19238:19281  getApproved(tokenId) == _msgSenderERC721A() */\n      0xffffffffffffffffffffffffffffffffffffffff\n      and\n      eq\n        /* \"ERC721A.sol\":19136:19281  _msgSenderERC721A() == from ||... */\n    tag_166:\n        /* \"ERC721A.sol\":19110:19282  bool isApprovedOrOwner = (_msgSenderERC721A() == from ||... */\n      swap1\n      pop\n        /* \"ERC721A.sol\":19298:19315  isApprovedOrOwner */\n      dup1\n        /* \"ERC721A.sol\":19293:19359  if (!isApprovedOrOwner) revert TransferCallerNotOwnerNorApproved() */\n      tag_169\n      jumpi\n        /* \"ERC721A.sol\":19324:19359  TransferCallerNotOwnerNorApproved() */\n      mload(0x40)\n      0x59c896be00000000000000000000000000000000000000000000000000000000\n      dup2\n      mstore\n      0x04\n      add\n      mload(0x40)\n      dup1\n      swap2\n      sub\n      swap1\n      revert\n        /* \"ERC721A.sol\":19293:19359  if (!isApprovedOrOwner) revert TransferCallerNotOwnerNorApproved() */\n    tag_169:\n        /* \"ERC721A.sol\":19387:19388  0 */\n      0x00\n        /* \"ERC721A.sol\":19373:19389  to == address(0) */\n      0xffffffffffffffffffffffffffffffffffffffff\n      and\n        /* \"ERC721A.sol\":19373:19375  to */\n      dup5\n        /* \"ERC721A.sol\":19373:19389  to == address(0) */\n      0xffffffffffffffffffffffffffffffffffffffff\n      and\n      eq\n        /* \"ERC721A.sol\":19369:19421  if (to == address(0)) revert TransferToZeroAddress() */\n      iszero\n      tag_170\n      jumpi\n        /* \"ERC721A.sol\":19398:19421  TransferToZeroAddress() */\n      mload(0x40)\n      0xea553b3400000000000000000000000000000000000000000000000000000000\n      dup2\n      mstore\n      0x04\n      add\n      mload(0x40)\n      dup1\n      swap2\n      sub\n      swap1\n      revert\n        /* \"ERC721A.sol\":19369:19421  if (to == address(0)) revert TransferToZeroAddress() */\n    tag_170:\n        /* \"ERC721A.sol\":19432:19475  _beforeTokenTransfers(from, to, tokenId, 1) */\n      tag_171\n        /* \"ERC721A.sol\":19454:19458  from */\n      dup6\n        /* \"ERC721A.sol\":19460:19462  to */\n      dup6\n        /* \"ERC721A.sol\":19464:19471  tokenId */\n      dup6\n        /* \"ERC721A.sol\":19473:19474  1 */\n      0x01\n        /* \"ERC721A.sol\":19432:19453  _beforeTokenTransfers */\n      tag_172\n        /* \"ERC721A.sol\":19432:19475  _beforeTokenTransfers(from, to, tokenId, 1) */\n      jump\t// in\n    tag_171:\n        /* \"ERC721A.sol\":19545:19560  _tokenApprovals */\n      0x06\n        /* \"ERC721A.sol\":19545:19569  _tokenApprovals[tokenId] */\n      0x00\n        /* \"ERC721A.sol\":19561:19568  tokenId */\n      dup5\n        /* \"ERC721A.sol\":19545:19569  _tokenApprovals[tokenId] */\n      dup2\n      mstore\n      0x20\n      add\n      swap1\n      dup2\n      mstore\n      0x20\n      add\n      0x00\n      keccak256\n      0x00\n        /* \"ERC721A.sol\":19538:19569  delete _tokenApprovals[tokenId] */\n      0x0100\n      exp\n      dup2\n      sload\n      swap1\n      0xffffffffffffffffffffffffffffffffffffffff\n      mul\n      not\n      and\n      swap1\n      sstore\n        /* \"ERC721A.sol\":19930:19948  _packedAddressData */\n      0x05\n        /* \"ERC721A.sol\":19930:19954  _packedAddressData[from] */\n      0x00\n        /* \"ERC721A.sol\":19949:19953  from */\n      dup7\n        /* \"ERC721A.sol\":19930:19954  _packedAddressData[from] */\n      0xffffffffffffffffffffffffffffffffffffffff\n      and\n      0xffffffffffffffffffffffffffffffffffffffff\n      and\n      dup2\n      mstore\n      0x20\n      add\n      swap1\n      dup2\n      mstore\n      0x20\n      add\n      0x00\n      keccak256\n      0x00\n        /* \"ERC721A.sol\":19928:19954  --_packedAddressData[from] */\n      dup2\n      sload\n      0x01\n      swap1\n      sub\n      swap2\n      swap1\n      pop\n      dup2\n      swap1\n      sstore\n      pop\n        /* \"ERC721A.sol\":19998:20016  _packedAddressData */\n      0x05\n        /* \"ERC721A.sol\":19998:20020  _packedAddressData[to] */\n      0x00\n        /* \"ERC721A.sol\":20017:20019  to */\n      dup6\n        /* \"ERC721A.sol\":19998:20020  _packedAddressData[to] */\n      0xffffffffffffffffffffffffffffffffffffffff\n      and\n      0xffffffffffffffffffffffffffffffffffffffff\n      and\n      dup2\n      mstore\n      0x20\n      add\n      swap1\n      dup2\n      mstore\n      0x20\n      add\n      0x00\n      keccak256\n      0x00\n        /* \"ERC721A.sol\":19996:20020  ++_packedAddressData[to] */\n      dup2\n      sload\n      0x01\n      add\n      swap2\n      swap1\n      pop\n      dup2\n      swap1\n      sstore\n      pop\n        /* \"ERC721A.sol\":2045:2053  1 << 225 */\n      0x0200000000000000000000000000000000000000000000000000000000\n        /* \"ERC721A.sol\":1656:1659  160 */\n      0xa0\n        /* \"ERC721A.sol\":20370:20385  block.timestamp */\n      timestamp\n        /* \"ERC721A.sol\":20370:20411  block.timestamp << BITPOS_START_TIMESTAMP */\n      swap1\n      shl\n        /* \"ERC721A.sol\":20329:20350  _addressToUint256(to) */\n      tag_173\n        /* \"ERC721A.sol\":20347:20349  to */\n      dup7\n        /* \"ERC721A.sol\":20329:20346  _addressToUint256 */\n      tag_174\n        /* \"ERC721A.sol\":20329:20350  _addressToUint256(to) */\n      jump\t// in\n    tag_173:\n        /* \"ERC721A.sol\":20329:20412  _addressToUint256(to) |... */\n      or\n        /* \"ERC721A.sol\":20329:20455  _addressToUint256(to) |... */\n      or\n        /* \"ERC721A.sol\":20284:20301  _packedOwnerships */\n      0x04\n        /* \"ERC721A.sol\":20284:20310  _packedOwnerships[tokenId] */\n      0x00\n        /* \"ERC721A.sol\":20302:20309  tokenId */\n      dup6\n        /* \"ERC721A.sol\":20284:20310  _packedOwnerships[tokenId] */\n      dup2\n      mstore\n      0x20\n      add\n      swap1\n      dup2\n      mstore\n      0x20\n      add\n      0x00\n      keccak256\n        /* \"ERC721A.sol\":20284:20455  _packedOwnerships[tokenId] =... */\n      dup2\n      swap1\n      sstore\n      pop\n        /* \"ERC721A.sol\":20622:20623  0 */\n      0x00\n        /* \"ERC721A.sol\":2045:2053  1 << 225 */\n      0x0200000000000000000000000000000000000000000000000000000000\n        /* \"ERC721A.sol\":20572:20591  prevOwnershipPacked */\n      dup4\n        /* \"ERC721A.sol\":20572:20618  prevOwnershipPacked & BITMASK_NEXT_INITIALIZED */\n      and\n        /* \"ERC721A.sol\":20572:20623  prevOwnershipPacked & BITMASK_NEXT_INITIALIZED == 0 */\n      eq\n        /* \"ERC721A.sol\":20568:21184  if (prevOwnershipPacked & BITMASK_NEXT_INITIALIZED == 0) {... */\n      iszero\n      tag_175\n      jumpi\n        /* \"ERC721A.sol\":20643:20662  uint256 nextTokenId */\n      0x00\n        /* \"ERC721A.sol\":20675:20676  1 */\n      0x01\n        /* \"ERC721A.sol\":20665:20672  tokenId */\n      dup5\n        /* \"ERC721A.sol\":20665:20676  tokenId + 1 */\n      add\n        /* \"ERC721A.sol\":20643:20676  uint256 nextTokenId = tokenId + 1 */\n      swap1\n      pop\n        /* \"ERC721A.sol\":20830:20831  0 */\n      0x00\n        /* \"ERC721A.sol\":20796:20813  _packedOwnerships */\n      0x04\n        /* \"ERC721A.sol\":20796:20826  _packedOwnerships[nextTokenId] */\n      0x00\n        /* \"ERC721A.sol\":20814:20825  nextTokenId */\n      dup4\n        /* \"ERC721A.sol\":20796:20826  _packedOwnerships[nextTokenId] */\n      dup2\n      mstore\n      0x20\n      add\n      swap1\n      dup2\n      mstore\n      0x20\n      add\n      0x00\n      keccak256\n      sload\n        /* \"ERC721A.sol\":20796:20831  _packedOwnerships[nextTokenId] == 0 */\n      eq\n        /* \"ERC721A.sol\":20792:21170  if (_packedOwnerships[nextTokenId] == 0) {... */\n      iszero\n      tag_176\n      jumpi\n        /* \"ERC721A.sol\":20932:20945  _currentIndex */\n      sload(0x00)\n        /* \"ERC721A.sol\":20917:20928  nextTokenId */\n      dup2\n        /* \"ERC721A.sol\":20917:20945  nextTokenId != _currentIndex */\n      eq\n        /* \"ERC721A.sol\":20913:21152  if (nextTokenId != _currentIndex) {... */\n      tag_177\n      jumpi\n        /* \"ERC721A.sol\":21110:21129  prevOwnershipPacked */\n      dup3\n        /* \"ERC721A.sol\":21077:21094  _packedOwnerships */\n      0x04\n        /* \"ERC721A.sol\":21077:21107  _packedOwnerships[nextTokenId] */\n      0x00\n        /* \"ERC721A.sol\":21095:21106  nextTokenId */\n      dup4\n        /* \"ERC721A.sol\":21077:21107  _packedOwnerships[nextTokenId] */\n      dup2\n      mstore\n      0x20\n      add\n      swap1\n      dup2\n      mstore\n      0x20\n      add\n      0x00\n      keccak256\n        /* \"ERC721A.sol\":21077:21129  _packedOwnerships[nextTokenId] = prevOwnershipPacked */\n      dup2\n      swap1\n      sstore\n      pop\n        /* \"ERC721A.sol\":20913:21152  if (nextTokenId != _currentIndex) {... */\n    tag_177:\n        /* \"ERC721A.sol\":20792:21170  if (_packedOwnerships[nextTokenId] == 0) {... */\n    tag_176:\n        /* \"ERC721A.sol\":20568:21184  if (prevOwnershipPacked & BITMASK_NEXT_INITIALIZED == 0) {... */\n      pop\n    tag_175:\n        /* \"ERC721A.sol\":21228:21235  tokenId */\n      dup3\n        /* \"ERC721A.sol\":21224:21226  to */\n      dup5\n        /* \"ERC721A.sol\":21209:21236  Transfer(from, to, tokenId) */\n      0xffffffffffffffffffffffffffffffffffffffff\n      and\n        /* \"ERC721A.sol\":21218:21222  from */\n      dup7\n        /* \"ERC721A.sol\":21209:21236  Transfer(from, to, tokenId) */\n      0xffffffffffffffffffffffffffffffffffffffff\n      and\n      0xddf252ad1be2c89b69c2b068fc378daa952ba7f163c4a11628f55a4df523b3ef\n      mload(0x40)\n      mload(0x40)\n      dup1\n      swap2\n      sub\n      swap1\n      log4\n        /* \"ERC721A.sol\":21246:21288  _afterTokenTransfers(from, to, tokenId, 1) */\n      tag_178\n        /* \"ERC721A.sol\":21267:21271  from */\n      dup6\n        /* \"ERC721A.sol\":21273:21275  to */\n      dup6\n        /* \"ERC721A.sol\":21277:21284  tokenId */\n      dup6\n        /* \"ERC721A.sol\":21286:21287  1 */\n      0x01\n        /* \"ERC721A.sol\":21246:21266  _afterTokenTransfers */\n      tag_179\n        /* \"ERC721A.sol\":21246:21288  _afterTokenTransfers(from, to, tokenId, 1) */\n      jump\t// in\n    tag_178:\n        /* \"ERC721A.sol\":18835:21295  function _transfer(... */\n      pop\n      pop\n      pop\n      pop\n      pop\n      jump\t// out\n        /* \"ERC721A.sol\":24900:25597  function _checkContractOnERC721Received(... */\n    tag_132:\n        /* \"ERC721A.sol\":25058:25062  bool */\n      0x00\n        /* \"ERC721A.sol\":25103:25105  to */\n      dup4\n        /* \"ERC721A.sol\":25078:25123  ERC721A__IERC721Receiver(to).onERC721Received */\n      0xffffffffffffffffffffffffffffffffffffffff\n      and\n      0x150b7a02\n        /* \"ERC721A.sol\":25124:25143  _msgSenderERC721A() */\n      tag_181\n        /* \"ERC721A.sol\":25124:25141  _msgSenderERC721A */\n      tag_99\n        /* \"ERC721A.sol\":25124:25143  _msgSenderERC721A() */\n      jump\t// in\n    tag_181:\n        /* \"ERC721A.sol\":25145:25149  from */\n      dup8\n        /* \"ERC721A.sol\":25151:25158  tokenId */\n      dup7\n        /* \"ERC721A.sol\":25160:25165  _data */\n      dup7\n        /* \"ERC721A.sol\":25078:25166  ERC721A__IERC721Receiver(to).onERC721Received(_msgSenderERC721A(), from, tokenId, _data) */\n      mload(0x40)\n      dup6\n      0xffffffff\n      and\n      0xe0\n      shl\n      dup2\n      mstore\n      0x04\n      add\n      tag_182\n      swap5\n      swap4\n      swap3\n      swap2\n      swap1\n      tag_183\n      jump\t// in\n    tag_182:\n      0x20\n      mload(0x40)\n      dup1\n      dup4\n      sub\n      dup2\n      0x00\n      dup8\n      dup1\n      extcodesize\n      iszero\n      dup1\n      iszero\n      tag_184\n      jumpi\n      0x00\n      dup1\n      revert\n    tag_184:\n      pop\n      gas\n      call\n      swap3\n      pop\n      pop\n      pop\n      dup1\n      iszero\n      tag_185\n      jumpi\n      pop\n      mload(0x40)\n      returndatasize\n      not(0x1f)\n      0x1f\n      dup3\n      add\n      and\n      dup3\n      add\n      dup1\n      0x40\n      mstore\n      pop\n      dup2\n      add\n      swap1\n      tag_186\n      swap2\n      swap1\n      tag_187\n      jump\t// in\n    tag_186:\n      0x01\n    tag_185:\n        /* \"ERC721A.sol\":25074:25591  try ERC721A__IERC721Receiver(to).onERC721Received(_msgSenderERC721A(), from, tokenId, _data) returns (... */\n      tag_188\n      jumpi\n      returndatasize\n      dup1\n      0x00\n      dup2\n      eq\n      tag_193\n      jumpi\n      mload(0x40)\n      swap2\n      pop\n      and(add(returndatasize, 0x3f), not(0x1f))\n      dup3\n      add\n      0x40\n      mstore\n      returndatasize\n      dup3\n      mstore\n      returndatasize\n      0x00\n      0x20\n      dup5\n      add\n      returndatacopy\n      jump(tag_192)\n    tag_193:\n      0x60\n      swap2\n      pop\n    tag_192:\n      pop\n        /* \"ERC721A.sol\":25373:25374  0 */\n      0x00\n        /* \"ERC721A.sol\":25356:25362  reason */\n      dup2\n        /* \"ERC721A.sol\":25356:25369  reason.length */\n      mload\n        /* \"ERC721A.sol\":25356:25374  reason.length == 0 */\n      eq\n        /* \"ERC721A.sol\":25352:25581  if (reason.length == 0) {... */\n      iszero\n      tag_194\n      jumpi\n        /* \"ERC721A.sol\":25401:25441  TransferToNonERC721ReceiverImplementer() */\n      mload(0x40)\n      0xd1a57ed600000000000000000000000000000000000000000000000000000000\n      dup2\n      mstore\n      0x04\n      add\n      mload(0x40)\n      dup1\n      swap2\n      sub\n      swap1\n      revert\n        /* \"ERC721A.sol\":25352:25581  if (reason.length == 0) {... */\n    tag_194:\n        /* \"ERC721A.sol\":25541:25547  reason */\n      dup1\n        /* \"ERC721A.sol\":25535:25548  mload(reason) */\n      mload\n        /* \"ERC721A.sol\":25526:25532  reason */\n      dup2\n        /* \"ERC721A.sol\":25522:25524  32 */\n      0x20\n        /* \"ERC721A.sol\":25518:25533  add(32, reason) */\n      add\n        /* \"ERC721A.sol\":25511:25549  revert(add(32, reason), mload(reason)) */\n      revert\n        /* \"ERC721A.sol\":25074:25591  try ERC721A__IERC721Receiver(to).onERC721Received(_msgSenderERC721A(), from, tokenId, _data) returns (... */\n    tag_188:\n        /* \"ERC721A.sol\":25244:25298  ERC721A__IERC721Receiver(to).onERC721Received.selector */\n      shl(0xe0, 0x150b7a02)\n        /* \"ERC721A.sol\":25234:25298  retval == ERC721A__IERC721Receiver(to).onERC721Received.selector */\n      not(0xffffffffffffffffffffffffffffffffffffffffffffffffffffffff)\n      and\n        /* \"ERC721A.sol\":25234:25240  retval */\n      dup2\n        /* \"ERC721A.sol\":25234:25298  retval == ERC721A__IERC721Receiver(to).onERC721Received.selector */\n      not(0xffffffffffffffffffffffffffffffffffffffffffffffffffffffff)\n      and\n      eq\n        /* \"ERC721A.sol\":25227:25298  return retval == ERC721A__IERC721Receiver(to).onERC721Received.selector */\n      swap2\n      pop\n      pop\n        /* \"ERC721A.sol\":24900:25597  function _checkContractOnERC721Received(... */\n      swap5\n      swap4\n      pop\n      pop\n      pop\n      pop\n      jump\t// out\n        /* \"ERC721A.sol\":10652:10744  function _baseURI() internal view virtual returns (string memory) {... */\n    tag_138:\n        /* \"ERC721A.sol\":10703:10716  string memory */\n      0x60\n        /* \"ERC721A.sol\":10728:10737  return '' */\n      mload(0x40)\n      dup1\n      0x20\n      add\n      0x40\n      mstore\n      dup1\n      0x00\n      dup2\n      mstore\n      pop\n      swap1\n      pop\n        /* \"ERC721A.sol\":10652:10744  function _baseURI() internal view virtual returns (string memory) {... */\n      swap1\n      jump\t// out\n        /* \"ERC721A.sol\":27564:29484  function _toString(uint256 value) internal pure returns (string memory ptr) {... */\n    tag_142:\n        /* \"ERC721A.sol\":27621:27638  string memory ptr */\n      0x60\n        /* \"ERC721A.sol\":28036:28039  128 */\n      0x80\n        /* \"ERC721A.sol\":28029:28033  0x40 */\n      0x40\n        /* \"ERC721A.sol\":28023:28034  mload(0x40) */\n      mload\n        /* \"ERC721A.sol\":28019:28040  add(mload(0x40), 128) */\n      add\n        /* \"ERC721A.sol\":28012:28040  ptr := add(mload(0x40), 128) */\n      swap1\n      pop\n        /* \"ERC721A.sol\":28125:28128  ptr */\n      dup1\n        /* \"ERC721A.sol\":28119:28123  0x40 */\n      0x40\n        /* \"ERC721A.sol\":28112:28129  mstore(0x40, ptr) */\n      mstore\n        /* \"ERC721A.sol\":28228:28231  ptr */\n      dup1\n        /* \"ERC721A.sol\":28677:28682  value */\n      dup3\n        /* \"ERC721A.sol\":28805:28806  1 */\n      0x01\n        /* \"ERC721A.sol\":28800:28803  ptr */\n      dup4\n        /* \"ERC721A.sol\":28796:28807  sub(ptr, 1) */\n      sub\n        /* \"ERC721A.sol\":28789:28807  ptr := sub(ptr, 1) */\n      swap3\n      pop\n        /* \"ERC721A.sol\":28940:28942  10 */\n      0x0a\n        /* \"ERC721A.sol\":28934:28938  temp */\n      dup2\n        /* \"ERC721A.sol\":28930:28943  mod(temp, 10) */\n      mod\n        /* \"ERC721A.sol\":28926:28928  48 */\n      0x30\n        /* \"ERC721A.sol\":28922:28944  add(48, mod(temp, 10)) */\n      add\n        /* \"ERC721A.sol\":28917:28920  ptr */\n      dup4\n        /* \"ERC721A.sol\":28909:28945  mstore8(ptr, add(48, mod(temp, 10))) */\n      mstore8\n        /* \"ERC721A.sol\":28980:28982  10 */\n      0x0a\n        /* \"ERC721A.sol\":28974:28978  temp */\n      dup2\n        /* \"ERC721A.sol\":28970:28983  div(temp, 10) */\n      div\n        /* \"ERC721A.sol\":28962:28983  temp := div(temp, 10) */\n      swap1\n      pop\n        /* \"ERC721A.sol\":28570:29238  for { ... */\n    tag_199:\n        /* \"ERC721A.sol\":28998:29002  temp */\n      dup1\n        /* \"ERC721A.sol\":28570:29238  for { ... */\n      iszero\n      tag_201\n      jumpi\n        /* \"ERC721A.sol\":29169:29170  1 */\n      0x01\n        /* \"ERC721A.sol\":29164:29167  ptr */\n      dup4\n        /* \"ERC721A.sol\":29160:29171  sub(ptr, 1) */\n      sub\n        /* \"ERC721A.sol\":29153:29171  ptr := sub(ptr, 1) */\n      swap3\n      pop\n        /* \"ERC721A.sol\":29219:29221  10 */\n      0x0a\n        /* \"ERC721A.sol\":29213:29217  temp */\n      dup2\n        /* \"ERC721A.sol\":29209:29222  mod(temp, 10) */\n      mod\n        /* \"ERC721A.sol\":29205:29207  48 */\n      0x30\n        /* \"ERC721A.sol\":29201:29223  add(48, mod(temp, 10)) */\n      add\n        /* \"ERC721A.sol\":29196:29199  ptr */\n      dup4\n        /* \"ERC721A.sol\":29188:29224  mstore8(ptr, add(48, mod(temp, 10))) */\n      mstore8\n        /* \"ERC721A.sol\":29092:29094  10 */\n      0x0a\n        /* \"ERC721A.sol\":29086:29090  temp */\n      dup2\n        /* \"ERC721A.sol\":29082:29095  div(temp, 10) */\n      div\n        /* \"ERC721A.sol\":29074:29095  temp := div(temp, 10) */\n      swap1\n      pop\n        /* \"ERC721A.sol\":28570:29238  for { ... */\n      jump(tag_199)\n    tag_201:\n        /* \"ERC721A.sol\":28574:28997  { ... */\n      pop\n        /* \"ERC721A.sol\":29287:29290  ptr */\n      dup2\n        /* \"ERC721A.sol\":29282:29285  end */\n      dup2\n        /* \"ERC721A.sol\":29278:29291  sub(end, ptr) */\n      sub\n        /* \"ERC721A.sol\":29400:29402  32 */\n      0x20\n        /* \"ERC721A.sol\":29395:29398  ptr */\n      dup4\n        /* \"ERC721A.sol\":29391:29403  sub(ptr, 32) */\n      sub\n        /* \"ERC721A.sol\":29384:29403  ptr := sub(ptr, 32) */\n      swap3\n      pop\n        /* \"ERC721A.sol\":29461:29467  length */\n      dup1\n        /* \"ERC721A.sol\":29456:29459  ptr */\n      dup4\n        /* \"ERC721A.sol\":29449:29468  mstore(ptr, length) */\n      mstore\n        /* \"ERC721A.sol\":27659:29478  {... */\n      pop\n      pop\n      swap2\n      swap1\n      pop\n      jump\t// out\n        /* \"ERC721A.sol\":26228:26382  function _beforeTokenTransfers(... */\n    tag_172:\n      pop\n      pop\n      pop\n      pop\n      jump\t// out\n        /* \"ERC721A.sol\":10824:10968  function _addressToUint256(address value) private pure returns (uint256 result) {... */\n    tag_174:\n        /* \"ERC721A.sol\":10888:10902  uint256 result */\n      0x00\n        /* \"ERC721A.sol\":10947:10952  value */\n      dup2\n        /* \"ERC721A.sol\":10937:10952  result := value */\n      swap1\n      pop\n        /* \"ERC721A.sol\":10923:10962  {... */\n      swap2\n      swap1\n      pop\n      jump\t// out\n        /* \"ERC721A.sol\":27023:27176  function _afterTokenTransfers(... */\n    tag_179:\n      pop\n      pop\n      pop\n      pop\n      jump\t// out\n        /* \"#utility.yul\":7:350   */\n    tag_206:\n        /* \"#utility.yul\":84:89   */\n      0x00\n        /* \"#utility.yul\":109:174   */\n      tag_208\n        /* \"#utility.yul\":125:173   */\n      tag_209\n        /* \"#utility.yul\":166:172   */\n      dup5\n        /* \"#utility.yul\":125:173   */\n      tag_210\n      jump\t// in\n    tag_209:\n        /* \"#utility.yul\":109:174   */\n      tag_211\n      jump\t// in\n    tag_208:\n        /* \"#utility.yul\":100:174   */\n      swap1\n      pop\n        /* \"#utility.yul\":197:203   */\n      dup3\n        /* \"#utility.yul\":190:195   */\n      dup2\n        /* \"#utility.yul\":183:204   */\n      mstore\n        /* \"#utility.yul\":235:239   */\n      0x20\n        /* \"#utility.yul\":228:233   */\n      dup2\n        /* \"#utility.yul\":224:240   */\n      add\n        /* \"#utility.yul\":273:276   */\n      dup5\n        /* \"#utility.yul\":264:270   */\n      dup5\n        /* \"#utility.yul\":259:262   */\n      dup5\n        /* \"#utility.yul\":255:271   */\n      add\n        /* \"#utility.yul\":252:277   */\n      gt\n        /* \"#utility.yul\":249:251   */\n      iszero\n      tag_212\n      jumpi\n        /* \"#utility.yul\":290:291   */\n      0x00\n        /* \"#utility.yul\":287:288   */\n      dup1\n        /* \"#utility.yul\":280:292   */\n      revert\n        /* \"#utility.yul\":249:251   */\n    tag_212:\n        /* \"#utility.yul\":303:344   */\n      tag_213\n        /* \"#utility.yul\":337:343   */\n      dup5\n        /* \"#utility.yul\":332:335   */\n      dup3\n        /* \"#utility.yul\":327:330   */\n      dup6\n        /* \"#utility.yul\":303:344   */\n      tag_214\n      jump\t// in\n    tag_213:\n        /* \"#utility.yul\":90:350   */\n      pop\n      swap4\n      swap3\n      pop\n      pop\n      pop\n      jump\t// out\n        /* \"#utility.yul\":356:495   */\n    tag_215:\n        /* \"#utility.yul\":402:407   */\n      0x00\n        /* \"#utility.yul\":440:446   */\n      dup2\n        /* \"#utility.yul\":427:447   */\n      calldataload\n        /* \"#utility.yul\":418:447   */\n      swap1\n      pop\n        /* \"#utility.yul\":456:489   */\n      tag_217\n        /* \"#utility.yul\":483:488   */\n      dup2\n        /* \"#utility.yul\":456:489   */\n      tag_218\n      jump\t// in\n    tag_217:\n        /* \"#utility.yul\":408:495   */\n      swap3\n      swap2\n      pop\n      pop\n      jump\t// out\n        /* \"#utility.yul\":501:634   */\n    tag_219:\n        /* \"#utility.yul\":544:549   */\n      0x00\n        /* \"#utility.yul\":582:588   */\n      dup2\n        /* \"#utility.yul\":569:589   */\n      calldataload\n        /* \"#utility.yul\":560:589   */\n      swap1\n      pop\n        /* \"#utility.yul\":598:628   */\n      tag_221\n        /* \"#utility.yul\":622:627   */\n      dup2\n        /* \"#utility.yul\":598:628   */\n      tag_222\n      jump\t// in\n    tag_221:\n        /* \"#utility.yul\":550:634   */\n      swap3\n      swap2\n      pop\n      pop\n      jump\t// out\n        /* \"#utility.yul\":640:777   */\n    tag_223:\n        /* \"#utility.yul\":685:690   */\n      0x00\n        /* \"#utility.yul\":723:729   */\n      dup2\n        /* \"#utility.yul\":710:730   */\n      calldataload\n        /* \"#utility.yul\":701:730   */\n      swap1\n      pop\n        /* \"#utility.yul\":739:771   */\n      tag_225\n        /* \"#utility.yul\":765:770   */\n      dup2\n        /* \"#utility.yul\":739:771   */\n      tag_226\n      jump\t// in\n    tag_225:\n        /* \"#utility.yul\":691:777   */\n      swap3\n      swap2\n      pop\n      pop\n      jump\t// out\n        /* \"#utility.yul\":783:924   */\n    tag_227:\n        /* \"#utility.yul\":839:844   */\n      0x00\n        /* \"#utility.yul\":870:876   */\n      dup2\n        /* \"#utility.yul\":864:877   */\n      mload\n        /* \"#utility.yul\":855:877   */\n      swap1\n      pop\n        /* \"#utility.yul\":886:918   */\n      tag_229\n        /* \"#utility.yul\":912:917   */\n      dup2\n        /* \"#utility.yul\":886:918   */\n      tag_226\n      jump\t// in\n    tag_229:\n        /* \"#utility.yul\":845:924   */\n      swap3\n      swap2\n      pop\n      pop\n      jump\t// out\n        /* \"#utility.yul\":943:1214   */\n    tag_230:\n        /* \"#utility.yul\":998:1003   */\n      0x00\n        /* \"#utility.yul\":1047:1050   */\n      dup3\n        /* \"#utility.yul\":1040:1044   */\n      0x1f\n        /* \"#utility.yul\":1032:1038   */\n      dup4\n        /* \"#utility.yul\":1028:1045   */\n      add\n        /* \"#utility.yul\":1024:1051   */\n      slt\n        /* \"#utility.yul\":1014:1016   */\n      tag_232\n      jumpi\n        /* \"#utility.yul\":1065:1066   */\n      0x00\n        /* \"#utility.yul\":1062:1063   */\n      dup1\n        /* \"#utility.yul\":1055:1067   */\n      revert\n        /* \"#utility.yul\":1014:1016   */\n    tag_232:\n        /* \"#utility.yul\":1105:1111   */\n      dup2\n        /* \"#utility.yul\":1092:1112   */\n      calldataload\n        /* \"#utility.yul\":1130:1208   */\n      tag_233\n        /* \"#utility.yul\":1204:1207   */\n      dup5\n        /* \"#utility.yul\":1196:1202   */\n      dup3\n        /* \"#utility.yul\":1189:1193   */\n      0x20\n        /* \"#utility.yul\":1181:1187   */\n      dup7\n        /* \"#utility.yul\":1177:1194   */\n      add\n        /* \"#utility.yul\":1130:1208   */\n      tag_206\n      jump\t// in\n    tag_233:\n        /* \"#utility.yul\":1121:1208   */\n      swap2\n      pop\n        /* \"#utility.yul\":1004:1214   */\n      pop\n      swap3\n      swap2\n      pop\n      pop\n      jump\t// out\n        /* \"#utility.yul\":1220:1359   */\n    tag_234:\n        /* \"#utility.yul\":1266:1271   */\n      0x00\n        /* \"#utility.yul\":1304:1310   */\n      dup2\n        /* \"#utility.yul\":1291:1311   */\n      calldataload\n        /* \"#utility.yul\":1282:1311   */\n      swap1\n      pop\n        /* \"#utility.yul\":1320:1353   */\n      tag_236\n        /* \"#utility.yul\":1347:1352   */\n      dup2\n        /* \"#utility.yul\":1320:1353   */\n      tag_237\n      jump\t// in\n    tag_236:\n        /* \"#utility.yul\":1272:1359   */\n      swap3\n      swap2\n      pop\n      pop\n      jump\t// out\n        /* \"#utility.yul\":1365:1627   */\n    tag_57:\n        /* \"#utility.yul\":1424:1430   */\n      0x00\n        /* \"#utility.yul\":1473:1475   */\n      0x20\n        /* \"#utility.yul\":1461:1470   */\n      dup3\n        /* \"#utility.yul\":1452:1459   */\n      dup5\n        /* \"#utility.yul\":1448:1471   */\n      sub\n        /* \"#utility.yul\":1444:1476   */\n      slt\n        /* \"#utility.yul\":1441:1443   */\n      iszero\n      tag_239\n      jumpi\n        /* \"#utility.yul\":1489:1490   */\n      0x00\n        /* \"#utility.yul\":1486:1487   */\n      dup1\n        /* \"#utility.yul\":1479:1491   */\n      revert\n        /* \"#utility.yul\":1441:1443   */\n    tag_239:\n        /* \"#utility.yul\":1532:1533   */\n      0x00\n        /* \"#utility.yul\":1557:1610   */\n      tag_240\n        /* \"#utility.yul\":1602:1609   */\n      dup5\n        /* \"#utility.yul\":1593:1599   */\n      dup3\n        /* \"#utility.yul\":1582:1591   */\n      dup6\n        /* \"#utility.yul\":1578:1600   */\n      add\n        /* \"#utility.yul\":1557:1610   */\n      tag_215\n      jump\t// in\n    tag_240:\n        /* \"#utility.yul\":1547:1610   */\n      swap2\n      pop\n        /* \"#utility.yul\":1503:1620   */\n      pop\n        /* \"#utility.yul\":1431:1627   */\n      swap3\n      swap2\n      pop\n      pop\n      jump\t// out\n        /* \"#utility.yul\":1633:2040   */\n    tag_77:\n        /* \"#utility.yul\":1701:1707   */\n      0x00\n        /* \"#utility.yul\":1709:1715   */\n      dup1\n        /* \"#utility.yul\":1758:1760   */\n      0x40\n        /* \"#utility.yul\":1746:1755   */\n      dup4\n        /* \"#utility.yul\":1737:1744   */\n      dup6\n        /* \"#utility.yul\":1733:1756   */\n      sub\n        /* \"#utility.yul\":1729:1761   */\n      slt\n        /* \"#utility.yul\":1726:1728   */\n      iszero\n      tag_242\n      jumpi\n        /* \"#utility.yul\":1774:1775   */\n      0x00\n        /* \"#utility.yul\":1771:1772   */\n      dup1\n        /* \"#utility.yul\":1764:1776   */\n      revert\n        /* \"#utility.yul\":1726:1728   */\n    tag_242:\n        /* \"#utility.yul\":1817:1818   */\n      0x00\n        /* \"#utility.yul\":1842:1895   */\n      tag_243\n        /* \"#utility.yul\":1887:1894   */\n      dup6\n        /* \"#utility.yul\":1878:1884   */\n      dup3\n        /* \"#utility.yul\":1867:1876   */\n      dup7\n        /* \"#utility.yul\":1863:1885   */\n      add\n        /* \"#utility.yul\":1842:1895   */\n      tag_215\n      jump\t// in\n    tag_243:\n        /* \"#utility.yul\":1832:1895   */\n      swap3\n      pop\n        /* \"#utility.yul\":1788:1905   */\n      pop\n        /* \"#utility.yul\":1944:1946   */\n      0x20\n        /* \"#utility.yul\":1970:2023   */\n      tag_244\n        /* \"#utility.yul\":2015:2022   */\n      dup6\n        /* \"#utility.yul\":2006:2012   */\n      dup3\n        /* \"#utility.yul\":1995:2004   */\n      dup7\n        /* \"#utility.yul\":1991:2013   */\n      add\n        /* \"#utility.yul\":1970:2023   */\n      tag_215\n      jump\t// in\n    tag_244:\n        /* \"#utility.yul\":1960:2023   */\n      swap2\n      pop\n        /* \"#utility.yul\":1915:2033   */\n      pop\n        /* \"#utility.yul\":1716:2040   */\n      swap3\n      pop\n      swap3\n      swap1\n      pop\n      jump\t// out\n        /* \"#utility.yul\":2046:2598   */\n    tag_46:\n        /* \"#utility.yul\":2123:2129   */\n      0x00\n        /* \"#utility.yul\":2131:2137   */\n      dup1\n        /* \"#utility.yul\":2139:2145   */\n      0x00\n        /* \"#utility.yul\":2188:2190   */\n      0x60\n        /* \"#utility.yul\":2176:2185   */\n      dup5\n        /* \"#utility.yul\":2167:2174   */\n      dup7\n        /* \"#utility.yul\":2163:2186   */\n      sub\n        /* \"#utility.yul\":2159:2191   */\n      slt\n        /* \"#utility.yul\":2156:2158   */\n      iszero\n      tag_246\n      jumpi\n        /* \"#utility.yul\":2204:2205   */\n      0x00\n        /* \"#utility.yul\":2201:2202   */\n      dup1\n        /* \"#utility.yul\":2194:2206   */\n      revert\n        /* \"#utility.yul\":2156:2158   */\n    tag_246:\n        /* \"#utility.yul\":2247:2248   */\n      0x00\n        /* \"#utility.yul\":2272:2325   */\n      tag_247\n        /* \"#utility.yul\":2317:2324   */\n      dup7\n        /* \"#utility.yul\":2308:2314   */\n      dup3\n        /* \"#utility.yul\":2297:2306   */\n      dup8\n        /* \"#utility.yul\":2293:2315   */\n      add\n        /* \"#utility.yul\":2272:2325   */\n      tag_215\n      jump\t// in\n    tag_247:\n        /* \"#utility.yul\":2262:2325   */\n      swap4\n      pop\n        /* \"#utility.yul\":2218:2335   */\n      pop\n        /* \"#utility.yul\":2374:2376   */\n      0x20\n        /* \"#utility.yul\":2400:2453   */\n      tag_248\n        /* \"#utility.yul\":2445:2452   */\n      dup7\n        /* \"#utility.yul\":2436:2442   */\n      dup3\n        /* \"#utility.yul\":2425:2434   */\n      dup8\n        /* \"#utility.yul\":2421:2443   */\n      add\n        /* \"#utility.yul\":2400:2453   */\n      tag_215\n      jump\t// in\n    tag_248:\n        /* \"#utility.yul\":2390:2453   */\n      swap3\n      pop\n        /* \"#utility.yul\":2345:2463   */\n      pop\n        /* \"#utility.yul\":2502:2504   */\n      0x40\n        /* \"#utility.yul\":2528:2581   */\n      tag_249\n        /* \"#utility.yul\":2573:2580   */\n      dup7\n        /* \"#utility.yul\":2564:2570   */\n      dup3\n        /* \"#utility.yul\":2553:2562   */\n      dup8\n        /* \"#utility.yul\":2549:2571   */\n      add\n        /* \"#utility.yul\":2528:2581   */\n      tag_234\n      jump\t// in\n    tag_249:\n        /* \"#utility.yul\":2518:2581   */\n      swap2\n      pop\n        /* \"#utility.yul\":2473:2591   */\n      pop\n        /* \"#utility.yul\":2146:2598   */\n      swap3\n      pop\n      swap3\n      pop\n      swap3\n      jump\t// out\n        /* \"#utility.yul\":2604:3413   */\n    tag_69:\n        /* \"#utility.yul\":2699:2705   */\n      0x00\n        /* \"#utility.yul\":2707:2713   */\n      dup1\n        /* \"#utility.yul\":2715:2721   */\n      0x00\n        /* \"#utility.yul\":2723:2729   */\n      dup1\n        /* \"#utility.yul\":2772:2775   */\n      0x80\n        /* \"#utility.yul\":2760:2769   */\n      dup6\n        /* \"#utility.yul\":2751:2758   */\n      dup8\n        /* \"#utility.yul\":2747:2770   */\n      sub\n        /* \"#utility.yul\":2743:2776   */\n      slt\n        /* \"#utility.yul\":2740:2742   */\n      iszero\n      tag_251\n      jumpi\n        /* \"#utility.yul\":2789:2790   */\n      0x00\n        /* \"#utility.yul\":2786:2787   */\n      dup1\n        /* \"#utility.yul\":2779:2791   */\n      revert\n        /* \"#utility.yul\":2740:2742   */\n    tag_251:\n        /* \"#utility.yul\":2832:2833   */\n      0x00\n        /* \"#utility.yul\":2857:2910   */\n      tag_252\n        /* \"#utility.yul\":2902:2909   */\n      dup8\n        /* \"#utility.yul\":2893:2899   */\n      dup3\n        /* \"#utility.yul\":2882:2891   */\n      dup9\n        /* \"#utility.yul\":2878:2900   */\n      add\n        /* \"#utility.yul\":2857:2910   */\n      tag_215\n      jump\t// in\n    tag_252:\n        /* \"#utility.yul\":2847:2910   */\n      swap5\n      pop\n        /* \"#utility.yul\":2803:2920   */\n      pop\n        /* \"#utility.yul\":2959:2961   */\n      0x20\n        /* \"#utility.yul\":2985:3038   */\n      tag_253\n        /* \"#utility.yul\":3030:3037   */\n      dup8\n        /* \"#utility.yul\":3021:3027   */\n      dup3\n        /* \"#utility.yul\":3010:3019   */\n      dup9\n        /* \"#utility.yul\":3006:3028   */\n      add\n        /* \"#utility.yul\":2985:3038   */\n      tag_215\n      jump\t// in\n    tag_253:\n        /* \"#utility.yul\":2975:3038   */\n      swap4\n      pop\n        /* \"#utility.yul\":2930:3048   */\n      pop\n        /* \"#utility.yul\":3087:3089   */\n      0x40\n        /* \"#utility.yul\":3113:3166   */\n      tag_254\n        /* \"#utility.yul\":3158:3165   */\n      dup8\n        /* \"#utility.yul\":3149:3155   */\n      dup3\n        /* \"#utility.yul\":3138:3147   */\n      dup9\n        /* \"#utility.yul\":3134:3156   */\n      add\n        /* \"#utility.yul\":3113:3166   */\n      tag_234\n      jump\t// in\n    tag_254:\n        /* \"#utility.yul\":3103:3166   */\n      swap3\n      pop\n        /* \"#utility.yul\":3058:3176   */\n      pop\n        /* \"#utility.yul\":3243:3245   */\n      0x60\n        /* \"#utility.yul\":3232:3241   */\n      dup6\n        /* \"#utility.yul\":3228:3246   */\n      add\n        /* \"#utility.yul\":3215:3247   */\n      calldataload\n        /* \"#utility.yul\":3274:3292   */\n      0xffffffffffffffff\n        /* \"#utility.yul\":3266:3272   */\n      dup2\n        /* \"#utility.yul\":3263:3293   */\n      gt\n        /* \"#utility.yul\":3260:3262   */\n      iszero\n      tag_255\n      jumpi\n        /* \"#utility.yul\":3306:3307   */\n      0x00\n        /* \"#utility.yul\":3303:3304   */\n      dup1\n        /* \"#utility.yul\":3296:3308   */\n      revert\n        /* \"#utility.yul\":3260:3262   */\n    tag_255:\n        /* \"#utility.yul\":3334:3396   */\n      tag_256\n        /* \"#utility.yul\":3388:3395   */\n      dup8\n        /* \"#utility.yul\":3379:3385   */\n      dup3\n        /* \"#utility.yul\":3368:3377   */\n      dup9\n        /* \"#utility.yul\":3364:3386   */\n      add\n        /* \"#utility.yul\":3334:3396   */\n      tag_230\n      jump\t// in\n    tag_256:\n        /* \"#utility.yul\":3324:3396   */\n      swap2\n      pop\n        /* \"#utility.yul\":3186:3406   */\n      pop\n        /* \"#utility.yul\":2730:3413   */\n      swap3\n      swap6\n      swap2\n      swap5\n      pop\n      swap3\n      pop\n      jump\t// out\n        /* \"#utility.yul\":3419:3820   */\n    tag_65:\n        /* \"#utility.yul\":3484:3490   */\n      0x00\n        /* \"#utility.yul\":3492:3498   */\n      dup1\n        /* \"#utility.yul\":3541:3543   */\n      0x40\n        /* \"#utility.yul\":3529:3538   */\n      dup4\n        /* \"#utility.yul\":3520:3527   */\n      dup6\n        /* \"#utility.yul\":3516:3539   */\n      sub\n        /* \"#utility.yul\":3512:3544   */\n      slt\n        /* \"#utility.yul\":3509:3511   */\n      iszero\n      tag_258\n      jumpi\n        /* \"#utility.yul\":3557:3558   */\n      0x00\n        /* \"#utility.yul\":3554:3555   */\n      dup1\n        /* \"#utility.yul\":3547:3559   */\n      revert\n        /* \"#utility.yul\":3509:3511   */\n    tag_258:\n        /* \"#utility.yul\":3600:3601   */\n      0x00\n        /* \"#utility.yul\":3625:3678   */\n      tag_259\n        /* \"#utility.yul\":3670:3677   */\n      dup6\n        /* \"#utility.yul\":3661:3667   */\n      dup3\n        /* \"#utility.yul\":3650:3659   */\n      dup7\n        /* \"#utility.yul\":3646:3668   */\n      add\n        /* \"#utility.yul\":3625:3678   */\n      tag_215\n      jump\t// in\n    tag_259:\n        /* \"#utility.yul\":3615:3678   */\n      swap3\n      pop\n        /* \"#utility.yul\":3571:3688   */\n      pop\n        /* \"#utility.yul\":3727:3729   */\n      0x20\n        /* \"#utility.yul\":3753:3803   */\n      tag_260\n        /* \"#utility.yul\":3795:3802   */\n      dup6\n        /* \"#utility.yul\":3786:3792   */\n      dup3\n        /* \"#utility.yul\":3775:3784   */\n      dup7\n        /* \"#utility.yul\":3771:3793   */\n      add\n        /* \"#utility.yul\":3753:3803   */\n      tag_219\n      jump\t// in\n    tag_260:\n        /* \"#utility.yul\":3743:3803   */\n      swap2\n      pop\n        /* \"#utility.yul\":3698:3813   */\n      pop\n        /* \"#utility.yul\":3499:3820   */\n      swap3\n      pop\n      swap3\n      swap1\n      pop\n      jump\t// out\n        /* \"#utility.yul\":3826:4233   */\n    tag_38:\n        /* \"#utility.yul\":3894:3900   */\n      0x00\n        /* \"#utility.yul\":3902:3908   */\n      dup1\n        /* \"#utility.yul\":3951:3953   */\n      0x40\n        /* \"#utility.yul\":3939:3948   */\n      dup4\n        /* \"#utility.yul\":3930:3937   */\n      dup6\n        /* \"#utility.yul\":3926:3949   */\n      sub\n        /* \"#utility.yul\":3922:3954   */\n      slt\n        /* \"#utility.yul\":3919:3921   */\n      iszero\n      tag_262\n      jumpi\n        /* \"#utility.yul\":3967:3968   */\n      0x00\n        /* \"#utility.yul\":3964:3965   */\n      dup1\n        /* \"#utility.yul\":3957:3969   */\n      revert\n        /* \"#utility.yul\":3919:3921   */\n    tag_262:\n        /* \"#utility.yul\":4010:4011   */\n      0x00\n        /* \"#utility.yul\":4035:4088   */\n      tag_263\n        /* \"#utility.yul\":4080:4087   */\n      dup6\n        /* \"#utility.yul\":4071:4077   */\n      dup3\n        /* \"#utility.yul\":4060:4069   */\n      dup7\n        /* \"#utility.yul\":4056:4078   */\n      add\n        /* \"#utility.yul\":4035:4088   */\n      tag_215\n      jump\t// in\n    tag_263:\n        /* \"#utility.yul\":4025:4088   */\n      swap3\n      pop\n        /* \"#utility.yul\":3981:4098   */\n      pop\n        /* \"#utility.yul\":4137:4139   */\n      0x20\n        /* \"#utility.yul\":4163:4216   */\n      tag_264\n        /* \"#utility.yul\":4208:4215   */\n      dup6\n        /* \"#utility.yul\":4199:4205   */\n      dup3\n        /* \"#utility.yul\":4188:4197   */\n      dup7\n        /* \"#utility.yul\":4184:4206   */\n      add\n        /* \"#utility.yul\":4163:4216   */\n      tag_234\n      jump\t// in\n    tag_264:\n        /* \"#utility.yul\":4153:4216   */\n      swap2\n      pop\n        /* \"#utility.yul\":4108:4226   */\n      pop\n        /* \"#utility.yul\":3909:4233   */\n      swap3\n      pop\n      swap3\n      swap1\n      pop\n      jump\t// out\n        /* \"#utility.yul\":4239:4499   */\n    tag_22:\n        /* \"#utility.yul\":4297:4303   */\n      0x00\n        /* \"#utility.yul\":4346:4348   */\n      0x20\n        /* \"#utility.yul\":4334:4343   */\n      dup3\n        /* \"#utility.yul\":4325:4332   */\n      dup5\n        /* \"#utility.yul\":4321:4344   */\n      sub\n        /* \"#utility.yul\":4317:4349   */\n      slt\n        /* \"#utility.yul\":4314:4316   */\n      iszero\n      tag_266\n      jumpi\n        /* \"#utility.yul\":4362:4363   */\n      0x00\n        /* \"#utility.yul\":4359:4360   */\n      dup1\n        /* \"#utility.yul\":4352:4364   */\n      revert\n        /* \"#utility.yul\":4314:4316   */\n    tag_266:\n        /* \"#utility.yul\":4405:4406   */\n      0x00\n        /* \"#utility.yul\":4430:4482   */\n      tag_267\n        /* \"#utility.yul\":4474:4481   */\n      dup5\n        /* \"#utility.yul\":4465:4471   */\n      dup3\n        /* \"#utility.yul\":4454:4463   */\n      dup6\n        /* \"#utility.yul\":4450:4472   */\n      add\n        /* \"#utility.yul\":4430:4482   */\n      tag_223\n      jump\t// in\n    tag_267:\n        /* \"#utility.yul\":4420:4482   */\n      swap2\n      pop\n        /* \"#utility.yul\":4376:4492   */\n      pop\n        /* \"#utility.yul\":4304:4499   */\n      swap3\n      swap2\n      pop\n      pop\n      jump\t// out\n        /* \"#utility.yul\":4505:4787   */\n    tag_187:\n        /* \"#utility.yul\":4574:4580   */\n      0x00\n        /* \"#utility.yul\":4623:4625   */\n      0x20\n        /* \"#utility.yul\":4611:4620   */\n      dup3\n        /* \"#utility.yul\":4602:4609   */\n      dup5\n        /* \"#utility.yul\":4598:4621   */\n      sub\n        /* \"#utility.yul\":4594:4626   */\n      slt\n        /* \"#utility.yul\":4591:4593   */\n      iszero\n      tag_269\n      jumpi\n        /* \"#utility.yul\":4639:4640   */\n      0x00\n        /* \"#utility.yul\":4636:4637   */\n      dup1\n        /* \"#utility.yul\":4629:4641   */\n      revert\n        /* \"#utility.yul\":4591:4593   */\n    tag_269:\n        /* \"#utility.yul\":4682:4683   */\n      0x00\n        /* \"#utility.yul\":4707:4770   */\n      tag_270\n        /* \"#utility.yul\":4762:4769   */\n      dup5\n        /* \"#utility.yul\":4753:4759   */\n      dup3\n        /* \"#utility.yul\":4742:4751   */\n      dup6\n        /* \"#utility.yul\":4738:4760   */\n      add\n        /* \"#utility.yul\":4707:4770   */\n      tag_227\n      jump\t// in\n    tag_270:\n        /* \"#utility.yul\":4697:4770   */\n      swap2\n      pop\n        /* \"#utility.yul\":4653:4780   */\n      pop\n        /* \"#utility.yul\":4581:4787   */\n      swap3\n      swap2\n      pop\n      pop\n      jump\t// out\n        /* \"#utility.yul\":4793:5055   */\n    tag_32:\n        /* \"#utility.yul\":4852:4858   */\n      0x00\n        /* \"#utility.yul\":4901:4903   */\n      0x20\n        /* \"#utility.yul\":4889:4898   */\n      dup3\n        /* \"#utility.yul\":4880:4887   */\n      dup5\n        /* \"#utility.yul\":4876:4899   */\n      sub\n        /* \"#utility.yul\":4872:4904   */\n      slt\n        /* \"#utility.yul\":4869:4871   */\n      iszero\n      tag_272\n      jumpi\n        /* \"#utility.yul\":4917:4918   */\n      0x00\n        /* \"#utility.yul\":4914:4915   */\n      dup1\n        /* \"#utility.yul\":4907:4919   */\n      revert\n        /* \"#utility.yul\":4869:4871   */\n    tag_272:\n        /* \"#utility.yul\":4960:4961   */\n      0x00\n        /* \"#utility.yul\":4985:5038   */\n      tag_273\n        /* \"#utility.yul\":5030:5037   */\n      dup5\n        /* \"#utility.yul\":5021:5027   */\n      dup3\n        /* \"#utility.yul\":5010:5019   */\n      dup6\n        /* \"#utility.yul\":5006:5028   */\n      add\n        /* \"#utility.yul\":4985:5038   */\n      tag_234\n      jump\t// in\n    tag_273:\n        /* \"#utility.yul\":4975:5038   */\n      swap2\n      pop\n        /* \"#utility.yul\":4931:5048   */\n      pop\n        /* \"#utility.yul\":4859:5055   */\n      swap3\n      swap2\n      pop\n      pop\n      jump\t// out\n        /* \"#utility.yul\":5061:5179   */\n    tag_274:\n        /* \"#utility.yul\":5148:5172   */\n      tag_276\n        /* \"#utility.yul\":5166:5171   */\n      dup2\n        /* \"#utility.yul\":5148:5172   */\n      tag_277\n      jump\t// in\n    tag_276:\n        /* \"#utility.yul\":5143:5146   */\n      dup3\n        /* \"#utility.yul\":5136:5173   */\n      mstore\n        /* \"#utility.yul\":5126:5179   */\n      pop\n      pop\n      jump\t// out\n        /* \"#utility.yul\":5185:5294   */\n    tag_278:\n        /* \"#utility.yul\":5266:5287   */\n      tag_280\n        /* \"#utility.yul\":5281:5286   */\n      dup2\n        /* \"#utility.yul\":5266:5287   */\n      tag_281\n      jump\t// in\n    tag_280:\n        /* \"#utility.yul\":5261:5264   */\n      dup3\n        /* \"#utility.yul\":5254:5288   */\n      mstore\n        /* \"#utility.yul\":5244:5294   */\n      pop\n      pop\n      jump\t// out\n        /* \"#utility.yul\":5300:5660   */\n    tag_282:\n        /* \"#utility.yul\":5386:5389   */\n      0x00\n        /* \"#utility.yul\":5414:5452   */\n      tag_284\n        /* \"#utility.yul\":5446:5451   */\n      dup3\n        /* \"#utility.yul\":5414:5452   */\n      tag_285\n      jump\t// in\n    tag_284:\n        /* \"#utility.yul\":5468:5538   */\n      tag_286\n        /* \"#utility.yul\":5531:5537   */\n      dup2\n        /* \"#utility.yul\":5526:5529   */\n      dup6\n        /* \"#utility.yul\":5468:5538   */\n      tag_287\n      jump\t// in\n    tag_286:\n        /* \"#utility.yul\":5461:5538   */\n      swap4\n      pop\n        /* \"#utility.yul\":5547:5599   */\n      tag_288\n        /* \"#utility.yul\":5592:5598   */\n      dup2\n        /* \"#utility.yul\":5587:5590   */\n      dup6\n        /* \"#utility.yul\":5580:5584   */\n      0x20\n        /* \"#utility.yul\":5573:5578   */\n      dup7\n        /* \"#utility.yul\":5569:5585   */\n      add\n        /* \"#utility.yul\":5547:5599   */\n      tag_289\n      jump\t// in\n    tag_288:\n        /* \"#utility.yul\":5624:5653   */\n      tag_290\n        /* \"#utility.yul\":5646:5652   */\n      dup2\n        /* \"#utility.yul\":5624:5653   */\n      tag_291\n      jump\t// in\n    tag_290:\n        /* \"#utility.yul\":5619:5622   */\n      dup5\n        /* \"#utility.yul\":5615:5654   */\n      add\n        /* \"#utility.yul\":5608:5654   */\n      swap2\n      pop\n        /* \"#utility.yul\":5390:5660   */\n      pop\n      swap3\n      swap2\n      pop\n      pop\n      jump\t// out\n        /* \"#utility.yul\":5666:6030   */\n    tag_292:\n        /* \"#utility.yul\":5754:5757   */\n      0x00\n        /* \"#utility.yul\":5782:5821   */\n      tag_294\n        /* \"#utility.yul\":5815:5820   */\n      dup3\n        /* \"#utility.yul\":5782:5821   */\n      tag_295\n      jump\t// in\n    tag_294:\n        /* \"#utility.yul\":5837:5908   */\n      tag_296\n        /* \"#utility.yul\":5901:5907   */\n      dup2\n        /* \"#utility.yul\":5896:5899   */\n      dup6\n        /* \"#utility.yul\":5837:5908   */\n      tag_297\n      jump\t// in\n    tag_296:\n        /* \"#utility.yul\":5830:5908   */\n      swap4\n      pop\n        /* \"#utility.yul\":5917:5969   */\n      tag_298\n        /* \"#utility.yul\":5962:5968   */\n      dup2\n        /* \"#utility.yul\":5957:5960   */\n      dup6\n        /* \"#utility.yul\":5950:5954   */\n      0x20\n        /* \"#utility.yul\":5943:5948   */\n      dup7\n        /* \"#utility.yul\":5939:5955   */\n      add\n        /* \"#utility.yul\":5917:5969   */\n      tag_289\n      jump\t// in\n    tag_298:\n        /* \"#utility.yul\":5994:6023   */\n      tag_299\n        /* \"#utility.yul\":6016:6022   */\n      dup2\n        /* \"#utility.yul\":5994:6023   */\n      tag_291\n      jump\t// in\n    tag_299:\n        /* \"#utility.yul\":5989:5992   */\n      dup5\n        /* \"#utility.yul\":5985:6024   */\n      add\n        /* \"#utility.yul\":5978:6024   */\n      swap2\n      pop\n        /* \"#utility.yul\":5758:6030   */\n      pop\n      swap3\n      swap2\n      pop\n      pop\n      jump\t// out\n        /* \"#utility.yul\":6036:6413   */\n    tag_300:\n        /* \"#utility.yul\":6142:6145   */\n      0x00\n        /* \"#utility.yul\":6170:6209   */\n      tag_302\n        /* \"#utility.yul\":6203:6208   */\n      dup3\n        /* \"#utility.yul\":6170:6209   */\n      tag_295\n      jump\t// in\n    tag_302:\n        /* \"#utility.yul\":6225:6314   */\n      tag_303\n        /* \"#utility.yul\":6307:6313   */\n      dup2\n        /* \"#utility.yul\":6302:6305   */\n      dup6\n        /* \"#utility.yul\":6225:6314   */\n      tag_304\n      jump\t// in\n    tag_303:\n        /* \"#utility.yul\":6218:6314   */\n      swap4\n      pop\n        /* \"#utility.yul\":6323:6375   */\n      tag_305\n        /* \"#utility.yul\":6368:6374   */\n      dup2\n        /* \"#utility.yul\":6363:6366   */\n      dup6\n        /* \"#utility.yul\":6356:6360   */\n      0x20\n        /* \"#utility.yul\":6349:6354   */\n      dup7\n        /* \"#utility.yul\":6345:6361   */\n      add\n        /* \"#utility.yul\":6323:6375   */\n      tag_289\n      jump\t// in\n    tag_305:\n        /* \"#utility.yul\":6400:6406   */\n      dup1\n        /* \"#utility.yul\":6395:6398   */\n      dup5\n        /* \"#utility.yul\":6391:6407   */\n      add\n        /* \"#utility.yul\":6384:6407   */\n      swap2\n      pop\n        /* \"#utility.yul\":6146:6413   */\n      pop\n      swap3\n      swap2\n      pop\n      pop\n      jump\t// out\n        /* \"#utility.yul\":6419:6537   */\n    tag_306:\n        /* \"#utility.yul\":6506:6530   */\n      tag_308\n        /* \"#utility.yul\":6524:6529   */\n      dup2\n        /* \"#utility.yul\":6506:6530   */\n      tag_309\n      jump\t// in\n    tag_308:\n        /* \"#utility.yul\":6501:6504   */\n      dup3\n        /* \"#utility.yul\":6494:6531   */\n      mstore\n        /* \"#utility.yul\":6484:6537   */\n      pop\n      pop\n      jump\t// out\n        /* \"#utility.yul\":6543:6978   */\n    tag_144:\n        /* \"#utility.yul\":6723:6726   */\n      0x00\n        /* \"#utility.yul\":6745:6840   */\n      tag_311\n        /* \"#utility.yul\":6836:6839   */\n      dup3\n        /* \"#utility.yul\":6827:6833   */\n      dup6\n        /* \"#utility.yul\":6745:6840   */\n      tag_300\n      jump\t// in\n    tag_311:\n        /* \"#utility.yul\":6738:6840   */\n      swap2\n      pop\n        /* \"#utility.yul\":6857:6952   */\n      tag_312\n        /* \"#utility.yul\":6948:6951   */\n      dup3\n        /* \"#utility.yul\":6939:6945   */\n      dup5\n        /* \"#utility.yul\":6857:6952   */\n      tag_300\n      jump\t// in\n    tag_312:\n        /* \"#utility.yul\":6850:6952   */\n      swap2\n      pop\n        /* \"#utility.yul\":6969:6972   */\n      dup2\n        /* \"#utility.yul\":6962:6972   */\n      swap1\n      pop\n        /* \"#utility.yul\":6727:6978   */\n      swap4\n      swap3\n      pop\n      pop\n      pop\n      jump\t// out\n        /* \"#utility.yul\":6984:7206   */\n    tag_35:\n        /* \"#utility.yul\":7077:7081   */\n      0x00\n        /* \"#utility.yul\":7115:7117   */\n      0x20\n        /* \"#utility.yul\":7104:7113   */\n      dup3\n        /* \"#utility.yul\":7100:7118   */\n      add\n        /* \"#utility.yul\":7092:7118   */\n      swap1\n      pop\n        /* \"#utility.yul\":7128:7199   */\n      tag_314\n        /* \"#utility.yul\":7196:7197   */\n      0x00\n        /* \"#utility.yul\":7185:7194   */\n      dup4\n        /* \"#utility.yul\":7181:7198   */\n      add\n        /* \"#utility.yul\":7172:7178   */\n      dup5\n        /* \"#utility.yul\":7128:7199   */\n      tag_274\n      jump\t// in\n    tag_314:\n        /* \"#utility.yul\":7082:7206   */\n      swap3\n      swap2\n      pop\n      pop\n      jump\t// out\n        /* \"#utility.yul\":7212:7852   */\n    tag_183:\n        /* \"#utility.yul\":7407:7411   */\n      0x00\n        /* \"#utility.yul\":7445:7448   */\n      0x80\n        /* \"#utility.yul\":7434:7443   */\n      dup3\n        /* \"#utility.yul\":7430:7449   */\n      add\n        /* \"#utility.yul\":7422:7449   */\n      swap1\n      pop\n        /* \"#utility.yul\":7459:7530   */\n      tag_316\n        /* \"#utility.yul\":7527:7528   */\n      0x00\n        /* \"#utility.yul\":7516:7525   */\n      dup4\n        /* \"#utility.yul\":7512:7529   */\n      add\n        /* \"#utility.yul\":7503:7509   */\n      dup8\n        /* \"#utility.yul\":7459:7530   */\n      tag_274\n      jump\t// in\n    tag_316:\n        /* \"#utility.yul\":7540:7612   */\n      tag_317\n        /* \"#utility.yul\":7608:7610   */\n      0x20\n        /* \"#utility.yul\":7597:7606   */\n      dup4\n        /* \"#utility.yul\":7593:7611   */\n      add\n        /* \"#utility.yul\":7584:7590   */\n      dup7\n        /* \"#utility.yul\":7540:7612   */\n      tag_274\n      jump\t// in\n    tag_317:\n        /* \"#utility.yul\":7622:7694   */\n      tag_318\n        /* \"#utility.yul\":7690:7692   */\n      0x40\n        /* \"#utility.yul\":7679:7688   */\n      dup4\n        /* \"#utility.yul\":7675:7693   */\n      add\n        /* \"#utility.yul\":7666:7672   */\n      dup6\n        /* \"#utility.yul\":7622:7694   */\n      tag_306\n      jump\t// in\n    tag_318:\n        /* \"#utility.yul\":7741:7750   */\n      dup2\n        /* \"#utility.yul\":7735:7739   */\n      dup2\n        /* \"#utility.yul\":7731:7751   */\n      sub\n        /* \"#utility.yul\":7726:7728   */\n      0x60\n        /* \"#utility.yul\":7715:7724   */\n      dup4\n        /* \"#utility.yul\":7711:7729   */\n      add\n        /* \"#utility.yul\":7704:7752   */\n      mstore\n        /* \"#utility.yul\":7769:7845   */\n      tag_319\n        /* \"#utility.yul\":7840:7844   */\n      dup2\n        /* \"#utility.yul\":7831:7837   */\n      dup5\n        /* \"#utility.yul\":7769:7845   */\n      tag_282\n      jump\t// in\n    tag_319:\n        /* \"#utility.yul\":7761:7845   */\n      swap1\n      pop\n        /* \"#utility.yul\":7412:7852   */\n      swap6\n      swap5\n      pop\n      pop\n      pop\n      pop\n      pop\n      jump\t// out\n        /* \"#utility.yul\":7858:8068   */\n    tag_25:\n        /* \"#utility.yul\":7945:7949   */\n      0x00\n        /* \"#utility.yul\":7983:7985   */\n      0x20\n        /* \"#utility.yul\":7972:7981   */\n      dup3\n        /* \"#utility.yul\":7968:7986   */\n      add\n        /* \"#utility.yul\":7960:7986   */\n      swap1\n      pop\n        /* \"#utility.yul\":7996:8061   */\n      tag_321\n        /* \"#utility.yul\":8058:8059   */\n      0x00\n        /* \"#utility.yul\":8047:8056   */\n      dup4\n        /* \"#utility.yul\":8043:8060   */\n      add\n        /* \"#utility.yul\":8034:8040   */\n      dup5\n        /* \"#utility.yul\":7996:8061   */\n      tag_278\n      jump\t// in\n    tag_321:\n        /* \"#utility.yul\":7950:8068   */\n      swap3\n      swap2\n      pop\n      pop\n      jump\t// out\n        /* \"#utility.yul\":8074:8387   */\n    tag_29:\n        /* \"#utility.yul\":8187:8191   */\n      0x00\n        /* \"#utility.yul\":8225:8227   */\n      0x20\n        /* \"#utility.yul\":8214:8223   */\n      dup3\n        /* \"#utility.yul\":8210:8228   */\n      add\n        /* \"#utility.yul\":8202:8228   */\n      swap1\n      pop\n        /* \"#utility.yul\":8274:8283   */\n      dup2\n        /* \"#utility.yul\":8268:8272   */\n      dup2\n        /* \"#utility.yul\":8264:8284   */\n      sub\n        /* \"#utility.yul\":8260:8261   */\n      0x00\n        /* \"#utility.yul\":8249:8258   */\n      dup4\n        /* \"#utility.yul\":8245:8262   */\n      add\n        /* \"#utility.yul\":8238:8285   */\n      mstore\n        /* \"#utility.yul\":8302:8380   */\n      tag_323\n        /* \"#utility.yul\":8375:8379   */\n      dup2\n        /* \"#utility.yul\":8366:8372   */\n      dup5\n        /* \"#utility.yul\":8302:8380   */\n      tag_292\n      jump\t// in\n    tag_323:\n        /* \"#utility.yul\":8294:8380   */\n      swap1\n      pop\n        /* \"#utility.yul\":8192:8387   */\n      swap3\n      swap2\n      pop\n      pop\n      jump\t// out\n        /* \"#utility.yul\":8393:8615   */\n    tag_43:\n        /* \"#utility.yul\":8486:8490   */\n      0x00\n        /* \"#utility.yul\":8524:8526   */\n      0x20\n        /* \"#utility.yul\":8513:8522   */\n      dup3\n        /* \"#utility.yul\":8509:8527   */\n      add\n        /* \"#utility.yul\":8501:8527   */\n      swap1\n      pop\n        /* \"#utility.yul\":8537:8608   */\n      tag_325\n        /* \"#utility.yul\":8605:8606   */\n      0x00\n        /* \"#utility.yul\":8594:8603   */\n      dup4\n        /* \"#utility.yul\":8590:8607   */\n      add\n        /* \"#utility.yul\":8581:8587   */\n      dup5\n        /* \"#utility.yul\":8537:8608   */\n      tag_306\n      jump\t// in\n    tag_325:\n        /* \"#utility.yul\":8491:8615   */\n      swap3\n      swap2\n      pop\n      pop\n      jump\t// out\n        /* \"#utility.yul\":8621:8750   */\n    tag_211:\n        /* \"#utility.yul\":8655:8661   */\n      0x00\n        /* \"#utility.yul\":8682:8702   */\n      tag_327\n      tag_328\n      jump\t// in\n    tag_327:\n        /* \"#utility.yul\":8672:8702   */\n      swap1\n      pop\n        /* \"#utility.yul\":8711:8744   */\n      tag_329\n        /* \"#utility.yul\":8739:8743   */\n      dup3\n        /* \"#utility.yul\":8731:8737   */\n      dup3\n        /* \"#utility.yul\":8711:8744   */\n      tag_330\n      jump\t// in\n    tag_329:\n        /* \"#utility.yul\":8662:8750   */\n      swap2\n      swap1\n      pop\n      jump\t// out\n        /* \"#utility.yul\":8756:8831   */\n    tag_328:\n        /* \"#utility.yul\":8789:8795   */\n      0x00\n        /* \"#utility.yul\":8822:8824   */\n      0x40\n        /* \"#utility.yul\":8816:8825   */\n      mload\n        /* \"#utility.yul\":8806:8825   */\n      swap1\n      pop\n        /* \"#utility.yul\":8796:8831   */\n      swap1\n      jump\t// out\n        /* \"#utility.yul\":8837:9144   */\n    tag_210:\n        /* \"#utility.yul\":8898:8902   */\n      0x00\n        /* \"#utility.yul\":8988:9006   */\n      0xffffffffffffffff\n        /* \"#utility.yul\":8980:8986   */\n      dup3\n        /* \"#utility.yul\":8977:9007   */\n      gt\n        /* \"#utility.yul\":8974:8976   */\n      iszero\n      tag_333\n      jumpi\n        /* \"#utility.yul\":9010:9028   */\n      tag_334\n      tag_335\n      jump\t// in\n    tag_334:\n        /* \"#utility.yul\":8974:8976   */\n    tag_333:\n        /* \"#utility.yul\":9048:9077   */\n      tag_336\n        /* \"#utility.yul\":9070:9076   */\n      dup3\n        /* \"#utility.yul\":9048:9077   */\n      tag_291\n      jump\t// in\n    tag_336:\n        /* \"#utility.yul\":9040:9077   */\n      swap1\n      pop\n        /* \"#utility.yul\":9132:9136   */\n      0x20\n        /* \"#utility.yul\":9126:9130   */\n      dup2\n        /* \"#utility.yul\":9122:9137   */\n      add\n        /* \"#utility.yul\":9114:9137   */\n      swap1\n      pop\n        /* \"#utility.yul\":8903:9144   */\n      swap2\n      swap1\n      pop\n      jump\t// out\n        /* \"#utility.yul\":9150:9248   */\n    tag_285:\n        /* \"#utility.yul\":9201:9207   */\n      0x00\n        /* \"#utility.yul\":9235:9240   */\n      dup2\n        /* \"#utility.yul\":9229:9241   */\n      mload\n        /* \"#utility.yul\":9219:9241   */\n      swap1\n      pop\n        /* \"#utility.yul\":9208:9248   */\n      swap2\n      swap1\n      pop\n      jump\t// out\n        /* \"#utility.yul\":9254:9353   */\n    tag_295:\n        /* \"#utility.yul\":9306:9312   */\n      0x00\n        /* \"#utility.yul\":9340:9345   */\n      dup2\n        /* \"#utility.yul\":9334:9346   */\n      mload\n        /* \"#utility.yul\":9324:9346   */\n      swap1\n      pop\n        /* \"#utility.yul\":9313:9353   */\n      swap2\n      swap1\n      pop\n      jump\t// out\n        /* \"#utility.yul\":9359:9527   */\n    tag_287:\n        /* \"#utility.yul\":9442:9453   */\n      0x00\n        /* \"#utility.yul\":9476:9482   */\n      dup3\n        /* \"#utility.yul\":9471:9474   */\n      dup3\n        /* \"#utility.yul\":9464:9483   */\n      mstore\n        /* \"#utility.yul\":9516:9520   */\n      0x20\n        /* \"#utility.yul\":9511:9514   */\n      dup3\n        /* \"#utility.yul\":9507:9521   */\n      add\n        /* \"#utility.yul\":9492:9521   */\n      swap1\n      pop\n        /* \"#utility.yul\":9454:9527   */\n      swap3\n      swap2\n      pop\n      pop\n      jump\t// out\n        /* \"#utility.yul\":9533:9702   */\n    tag_297:\n        /* \"#utility.yul\":9617:9628   */\n      0x00\n        /* \"#utility.yul\":9651:9657   */\n      dup3\n        /* \"#utility.yul\":9646:9649   */\n      dup3\n        /* \"#utility.yul\":9639:9658   */\n      mstore\n        /* \"#utility.yul\":9691:9695   */\n      0x20\n        /* \"#utility.yul\":9686:9689   */\n      dup3\n        /* \"#utility.yul\":9682:9696   */\n      add\n        /* \"#utility.yul\":9667:9696   */\n      swap1\n      pop\n        /* \"#utility.yul\":9629:9702   */\n      swap3\n      swap2\n      pop\n      pop\n      jump\t// out\n        /* \"#utility.yul\":9708:9856   */\n    tag_304:\n        /* \"#utility.yul\":9810:9821   */\n      0x00\n        /* \"#utility.yul\":9847:9850   */\n      dup2\n        /* \"#utility.yul\":9832:9850   */\n      swap1\n      pop\n        /* \"#utility.yul\":9822:9856   */\n      swap3\n      swap2\n      pop\n      pop\n      jump\t// out\n        /* \"#utility.yul\":9862:9958   */\n    tag_277:\n        /* \"#utility.yul\":9899:9906   */\n      0x00\n        /* \"#utility.yul\":9928:9952   */\n      tag_343\n        /* \"#utility.yul\":9946:9951   */\n      dup3\n        /* \"#utility.yul\":9928:9952   */\n      tag_344\n      jump\t// in\n    tag_343:\n        /* \"#utility.yul\":9917:9952   */\n      swap1\n      pop\n        /* \"#utility.yul\":9907:9958   */\n      swap2\n      swap1\n      pop\n      jump\t// out\n        /* \"#utility.yul\":9964:10054   */\n    tag_281:\n        /* \"#utility.yul\":9998:10005   */\n      0x00\n        /* \"#utility.yul\":10041:10046   */\n      dup2\n        /* \"#utility.yul\":10034:10047   */\n      iszero\n        /* \"#utility.yul\":10027:10048   */\n      iszero\n        /* \"#utility.yul\":10016:10048   */\n      swap1\n      pop\n        /* \"#utility.yul\":10006:10054   */\n      swap2\n      swap1\n      pop\n      jump\t// out\n        /* \"#utility.yul\":10060:10209   */\n    tag_346:\n        /* \"#utility.yul\":10096:10103   */\n      0x00\n        /* \"#utility.yul\":10136:10202   */\n      0xffffffff00000000000000000000000000000000000000000000000000000000\n        /* \"#utility.yul\":10129:10134   */\n      dup3\n        /* \"#utility.yul\":10125:10203   */\n      and\n        /* \"#utility.yul\":10114:10203   */\n      swap1\n      pop\n        /* \"#utility.yul\":10104:10209   */\n      swap2\n      swap1\n      pop\n      jump\t// out\n        /* \"#utility.yul\":10215:10341   */\n    tag_344:\n        /* \"#utility.yul\":10252:10259   */\n      0x00\n        /* \"#utility.yul\":10292:10334   */\n      0xffffffffffffffffffffffffffffffffffffffff\n        /* \"#utility.yul\":10285:10290   */\n      dup3\n        /* \"#utility.yul\":10281:10335   */\n      and\n        /* \"#utility.yul\":10270:10335   */\n      swap1\n      pop\n        /* \"#utility.yul\":10260:10341   */\n      swap2\n      swap1\n      pop\n      jump\t// out\n        /* \"#utility.yul\":10347:10424   */\n    tag_309:\n        /* \"#utility.yul\":10384:10391   */\n      0x00\n        /* \"#utility.yul\":10413:10418   */\n      dup2\n        /* \"#utility.yul\":10402:10418   */\n      swap1\n      pop\n        /* \"#utility.yul\":10392:10424   */\n      swap2\n      swap1\n      pop\n      jump\t// out\n        /* \"#utility.yul\":10430:10584   */\n    tag_214:\n        /* \"#utility.yul\":10514:10520   */\n      dup3\n        /* \"#utility.yul\":10509:10512   */\n      dup2\n        /* \"#utility.yul\":10504:10507   */\n      dup4\n        /* \"#utility.yul\":10491:10521   */\n      calldatacopy\n        /* \"#utility.yul\":10576:10577   */\n      0x00\n        /* \"#utility.yul\":10567:10573   */\n      dup4\n        /* \"#utility.yul\":10562:10565   */\n      dup4\n        /* \"#utility.yul\":10558:10574   */\n      add\n        /* \"#utility.yul\":10551:10578   */\n      mstore\n        /* \"#utility.yul\":10481:10584   */\n      pop\n      pop\n      pop\n      jump\t// out\n        /* \"#utility.yul\":10590:10897   */\n    tag_289:\n        /* \"#utility.yul\":10658:10659   */\n      0x00\n        /* \"#utility.yul\":10668:10781   */\n    tag_352:\n        /* \"#utility.yul\":10682:10688   */\n      dup4\n        /* \"#utility.yul\":10679:10680   */\n      dup2\n        /* \"#utility.yul\":10676:10689   */\n      lt\n        /* \"#utility.yul\":10668:10781   */\n      iszero\n      tag_354\n      jumpi\n        /* \"#utility.yul\":10767:10768   */\n      dup1\n        /* \"#utility.yul\":10762:10765   */\n      dup3\n        /* \"#utility.yul\":10758:10769   */\n      add\n        /* \"#utility.yul\":10752:10770   */\n      mload\n        /* \"#utility.yul\":10748:10749   */\n      dup2\n        /* \"#utility.yul\":10743:10746   */\n      dup5\n        /* \"#utility.yul\":10739:10750   */\n      add\n        /* \"#utility.yul\":10732:10771   */\n      mstore\n        /* \"#utility.yul\":10704:10706   */\n      0x20\n        /* \"#utility.yul\":10701:10702   */\n      dup2\n        /* \"#utility.yul\":10697:10707   */\n      add\n        /* \"#utility.yul\":10692:10707   */\n      swap1\n      pop\n        /* \"#utility.yul\":10668:10781   */\n      jump(tag_352)\n    tag_354:\n        /* \"#utility.yul\":10799:10805   */\n      dup4\n        /* \"#utility.yul\":10796:10797   */\n      dup2\n        /* \"#utility.yul\":10793:10806   */\n      gt\n        /* \"#utility.yul\":10790:10792   */\n      iszero\n      tag_355\n      jumpi\n        /* \"#utility.yul\":10879:10880   */\n      0x00\n        /* \"#utility.yul\":10870:10876   */\n      dup5\n        /* \"#utility.yul\":10865:10868   */\n      dup5\n        /* \"#utility.yul\":10861:10877   */\n      add\n        /* \"#utility.yul\":10854:10881   */\n      mstore\n        /* \"#utility.yul\":10790:10792   */\n    tag_355:\n        /* \"#utility.yul\":10639:10897   */\n      pop\n      pop\n      pop\n      pop\n      jump\t// out\n        /* \"#utility.yul\":10903:11223   */\n    tag_85:\n        /* \"#utility.yul\":10947:10953   */\n      0x00\n        /* \"#utility.yul\":10984:10985   */\n      0x02\n        /* \"#utility.yul\":10978:10982   */\n      dup3\n        /* \"#utility.yul\":10974:10986   */\n      div\n        /* \"#utility.yul\":10964:10986   */\n      swap1\n      pop\n        /* \"#utility.yul\":11031:11032   */\n      0x01\n        /* \"#utility.yul\":11025:11029   */\n      dup3\n        /* \"#utility.yul\":11021:11033   */\n      and\n        /* \"#utility.yul\":11052:11070   */\n      dup1\n        /* \"#utility.yul\":11042:11044   */\n      tag_357\n      jumpi\n        /* \"#utility.yul\":11108:11112   */\n      0x7f\n        /* \"#utility.yul\":11100:11106   */\n      dup3\n        /* \"#utility.yul\":11096:11113   */\n      and\n        /* \"#utility.yul\":11086:11113   */\n      swap2\n      pop\n        /* \"#utility.yul\":11042:11044   */\n    tag_357:\n        /* \"#utility.yul\":11170:11172   */\n      0x20\n        /* \"#utility.yul\":11162:11168   */\n      dup3\n        /* \"#utility.yul\":11159:11173   */\n      lt\n        /* \"#utility.yul\":11139:11157   */\n      dup2\n        /* \"#utility.yul\":11136:11174   */\n      eq\n        /* \"#utility.yul\":11133:11135   */\n      iszero\n      tag_358\n      jumpi\n        /* \"#utility.yul\":11189:11207   */\n      tag_359\n      tag_360\n      jump\t// in\n    tag_359:\n        /* \"#utility.yul\":11133:11135   */\n    tag_358:\n        /* \"#utility.yul\":10954:11223   */\n      pop\n      swap2\n      swap1\n      pop\n      jump\t// out\n        /* \"#utility.yul\":11229:11510   */\n    tag_330:\n        /* \"#utility.yul\":11312:11339   */\n      tag_362\n        /* \"#utility.yul\":11334:11338   */\n      dup3\n        /* \"#utility.yul\":11312:11339   */\n      tag_291\n      jump\t// in\n    tag_362:\n        /* \"#utility.yul\":11304:11310   */\n      dup2\n        /* \"#utility.yul\":11300:11340   */\n      add\n        /* \"#utility.yul\":11442:11448   */\n      dup2\n        /* \"#utility.yul\":11430:11440   */\n      dup2\n        /* \"#utility.yul\":11427:11449   */\n      lt\n        /* \"#utility.yul\":11406:11424   */\n      0xffffffffffffffff\n        /* \"#utility.yul\":11394:11404   */\n      dup3\n        /* \"#utility.yul\":11391:11425   */\n      gt\n        /* \"#utility.yul\":11388:11450   */\n      or\n        /* \"#utility.yul\":11385:11387   */\n      iszero\n      tag_363\n      jumpi\n        /* \"#utility.yul\":11453:11471   */\n      tag_364\n      tag_335\n      jump\t// in\n    tag_364:\n        /* \"#utility.yul\":11385:11387   */\n    tag_363:\n        /* \"#utility.yul\":11493:11503   */\n      dup1\n        /* \"#utility.yul\":11489:11491   */\n      0x40\n        /* \"#utility.yul\":11482:11504   */\n      mstore\n        /* \"#utility.yul\":11272:11510   */\n      pop\n      pop\n      pop\n      jump\t// out\n        /* \"#utility.yul\":11516:11696   */\n    tag_360:\n        /* \"#utility.yul\":11564:11641   */\n      0x4e487b7100000000000000000000000000000000000000000000000000000000\n        /* \"#utility.yul\":11561:11562   */\n      0x00\n        /* \"#utility.yul\":11554:11642   */\n      mstore\n        /* \"#utility.yul\":11661:11665   */\n      0x22\n        /* \"#utility.yul\":11658:11659   */\n      0x04\n        /* \"#utility.yul\":11651:11666   */\n      mstore\n        /* \"#utility.yul\":11685:11689   */\n      0x24\n        /* \"#utility.yul\":11682:11683   */\n      0x00\n        /* \"#utility.yul\":11675:11690   */\n      revert\n        /* \"#utility.yul\":11702:11882   */\n    tag_335:\n        /* \"#utility.yul\":11750:11827   */\n      0x4e487b7100000000000000000000000000000000000000000000000000000000\n        /* \"#utility.yul\":11747:11748   */\n      0x00\n        /* \"#utility.yul\":11740:11828   */\n      mstore\n        /* \"#utility.yul\":11847:11851   */\n      0x41\n        /* \"#utility.yul\":11844:11845   */\n      0x04\n        /* \"#utility.yul\":11837:11852   */\n      mstore\n        /* \"#utility.yul\":11871:11875   */\n      0x24\n        /* \"#utility.yul\":11868:11869   */\n      0x00\n        /* \"#utility.yul\":11861:11876   */\n      revert\n        /* \"#utility.yul\":11888:11990   */\n    tag_291:\n        /* \"#utility.yul\":11929:11935   */\n      0x00\n        /* \"#utility.yul\":11980:11982   */\n      0x1f\n        /* \"#utility.yul\":11976:11983   */\n      not\n        /* \"#utility.yul\":11971:11973   */\n      0x1f\n        /* \"#utility.yul\":11964:11969   */\n      dup4\n        /* \"#utility.yul\":11960:11974   */\n      add\n        /* \"#utility.yul\":11956:11984   */\n      and\n        /* \"#utility.yul\":11946:11984   */\n      swap1\n      pop\n        /* \"#utility.yul\":11936:11990   */\n      swap2\n      swap1\n      pop\n      jump\t// out\n        /* \"#utility.yul\":11996:12118   */\n    tag_218:\n        /* \"#utility.yul\":12069:12093   */\n      tag_369\n        /* \"#utility.yul\":12087:12092   */\n      dup2\n        /* \"#utility.yul\":12069:12093   */\n      tag_277\n      jump\t// in\n    tag_369:\n        /* \"#utility.yul\":12062:12067   */\n      dup2\n        /* \"#utility.yul\":12059:12094   */\n      eq\n        /* \"#utility.yul\":12049:12051   */\n      tag_370\n      jumpi\n        /* \"#utility.yul\":12108:12109   */\n      0x00\n        /* \"#utility.yul\":12105:12106   */\n      dup1\n        /* \"#utility.yul\":12098:12110   */\n      revert\n        /* \"#utility.yul\":12049:12051   */\n    tag_370:\n        /* \"#utility.yul\":12039:12118   */\n      pop\n      jump\t// out\n        /* \"#utility.yul\":12124:12240   */\n    tag_222:\n        /* \"#utility.yul\":12194:12215   */\n      tag_372\n        /* \"#utility.yul\":12209:12214   */\n      dup2\n        /* \"#utility.yul\":12194:12215   */\n      tag_281\n      jump\t// in\n    tag_372:\n        /* \"#utility.yul\":12187:12192   */\n      dup2\n        /* \"#utility.yul\":12184:12216   */\n      eq\n        /* \"#utility.yul\":12174:12176   */\n      tag_373\n      jumpi\n        /* \"#utility.yul\":12230:12231   */\n      0x00\n        /* \"#utility.yul\":12227:12228   */\n      dup1\n        /* \"#utility.yul\":12220:12232   */\n      revert\n        /* \"#utility.yul\":12174:12176   */\n    tag_373:\n        /* \"#utility.yul\":12164:12240   */\n      pop\n      jump\t// out\n        /* \"#utility.yul\":12246:12366   */\n    tag_226:\n        /* \"#utility.yul\":12318:12341   */\n      tag_375\n        /* \"#utility.yul\":12335:12340   */\n      dup2\n        /* \"#utility.yul\":12318:12341   */\n      tag_346\n      jump\t// in\n    tag_375:\n        /* \"#utility.yul\":12311:12316   */\n      dup2\n        /* \"#utility.yul\":12308:12342   */\n      eq\n        /* \"#utility.yul\":12298:12300   */\n      tag_376\n      jumpi\n        /* \"#utility.yul\":12356:12357   */\n      0x00\n        /* \"#utility.yul\":12353:12354   */\n      dup1\n        /* \"#utility.yul\":12346:12358   */\n      revert\n        /* \"#utility.yul\":12298:12300   */\n    tag_376:\n        /* \"#utility.yul\":12288:12366   */\n      pop\n      jump\t// out\n        /* \"#utility.yul\":12372:12494   */\n    tag_237:\n        /* \"#utility.yul\":12445:12469   */\n      tag_378\n        /* \"#utility.yul\":12463:12468   */\n      dup2\n        /* \"#utility.yul\":12445:12469   */\n      tag_309\n      jump\t// in\n    tag_378:\n        /* \"#utility.yul\":12438:12443   */\n      dup2\n        /* \"#utility.yul\":12435:12470   */\n      eq\n        /* \"#utility.yul\":12425:12427   */\n      tag_379\n      jumpi\n        /* \"#utility.yul\":12484:12485   */\n      0x00\n        /* \"#utility.yul\":12481:12482   */\n      dup1\n        /* \"#utility.yul\":12474:12486   */\n      revert\n        /* \"#utility.yul\":12425:12427   */\n    tag_379:\n        /* \"#utility.yul\":12415:12494   */\n      pop\n      jump\t// out\n\n    auxdata: 0xa2646970667358221220fd705e5f4e8c4a6c9665e701b73455c0bfc90f92b5ab40f99a25a8486c0aeb4f64736f6c63430008040033\n}\n",
				"bytecode": {
					"linkReferences": {},
					"object": "60806040523480156200001157600080fd5b5060405162001cc338038062001cc38339818101604052810190620000379190620001ae565b81600290805190602001906200004f9291906200008c565b508060039080519060200190620000689291906200008c565b50620000796200008760201b60201c565b600081905550505062000391565b600090565b8280546200009a90620002b6565b90600052602060002090601f016020900481019282620000be57600085556200010a565b82601f10620000d957805160ff19168380011785556200010a565b828001600101855582156200010a579182015b8281111562000109578251825591602001919060010190620000ec565b5b5090506200011991906200011d565b5090565b5b80821115620001385760008160009055506001016200011e565b5090565b6000620001536200014d846200024a565b62000221565b9050828152602081018484840111156200016c57600080fd5b6200017984828562000280565b509392505050565b600082601f8301126200019357600080fd5b8151620001a58482602086016200013c565b91505092915050565b60008060408385031215620001c257600080fd5b600083015167ffffffffffffffff811115620001dd57600080fd5b620001eb8582860162000181565b925050602083015167ffffffffffffffff8111156200020957600080fd5b620002178582860162000181565b9150509250929050565b60006200022d62000240565b90506200023b8282620002ec565b919050565b6000604051905090565b600067ffffffffffffffff82111562000268576200026762000351565b5b620002738262000380565b9050602081019050919050565b60005b83811015620002a057808201518184015260208101905062000283565b83811115620002b0576000848401525b50505050565b60006002820490506001821680620002cf57607f821691505b60208210811415620002e657620002e562000322565b5b50919050565b620002f78262000380565b810181811067ffffffffffffffff8211171562000319576200031862000351565b5b80604052505050565b7f4e487b7100000000000000000000000000000000000000000000000000000000600052602260045260246000fd5b7f4e487b7100000000000000000000000000000000000000000000000000000000600052604160045260246000fd5b6000601f19601f8301169050919050565b61192280620003a16000396000f3fe608060405234801561001057600080fd5b50600436106100ea5760003560e01c80636352211e1161008c578063a22cb46511610066578063a22cb4651461025d578063b88d4fde14610279578063c87b56dd14610295578063e985e9c5146102c5576100ea565b80636352211e146101df57806370a082311461020f57806395d89b411461023f576100ea565b8063095ea7b3116100c8578063095ea7b31461016d57806318160ddd1461018957806323b872dd146101a757806342842e0e146101c3576100ea565b806301ffc9a7146100ef57806306fdde031461011f578063081812fc1461013d575b600080fd5b61010960048036038101906101049190611441565b6102f5565b6040516101169190611617565b60405180910390f35b610127610387565b6040516101349190611632565b60405180910390f35b61015760048036038101906101529190611493565b610419565b60405161016491906115b0565b60405180910390f35b61018760048036038101906101829190611405565b610495565b005b61019161063c565b60405161019e9190611654565b60405180910390f35b6101c160048036038101906101bc91906112ff565b610653565b005b6101dd60048036038101906101d891906112ff565b610663565b005b6101f960048036038101906101f49190611493565b610683565b60405161020691906115b0565b60405180910390f35b6102296004803603810190610224919061129a565b610695565b6040516102369190611654565b60405180910390f35b61024761074e565b6040516102549190611632565b60405180910390f35b610277600480360381019061027291906113c9565b6107e0565b005b610293600480360381019061028e919061134e565b610958565b005b6102af60048036038101906102aa9190611493565b6109cb565b6040516102bc9190611632565b60405180910390f35b6102df60048036038101906102da91906112c3565b610a6a565b6040516102ec9190611617565b60405180910390f35b60006301ffc9a760e01b827bffffffffffffffffffffffffffffffffffffffffffffffffffffffff1916148061035057506380ac58cd60e01b827bffffffffffffffffffffffffffffffffffffffffffffffffffffffff1916145b806103805750635b5e139f60e01b827bffffffffffffffffffffffffffffffffffffffffffffffffffffffff1916145b9050919050565b606060028054610396906117be565b80601f01602080910402602001604051908101604052809291908181526020018280546103c2906117be565b801561040f5780601f106103e45761010080835404028352916020019161040f565b820191906000526020600020905b8154815290600101906020018083116103f257829003601f168201915b5050505050905090565b600061042482610afe565b61045a576040517fcf4700e400000000000000000000000000000000000000000000000000000000815260040160405180910390fd5b6006600083815260200190815260200160002060009054906101000a900473ffffffffffffffffffffffffffffffffffffffff169050919050565b60006104a082610b5d565b90508073ffffffffffffffffffffffffffffffffffffffff168373ffffffffffffffffffffffffffffffffffffffff161415610508576040517f943f7b8c00000000000000000000000000000000000000000000000000000000815260040160405180910390fd5b8073ffffffffffffffffffffffffffffffffffffffff16610527610c2b565b73ffffffffffffffffffffffffffffffffffffffff161461058a576105538161054e610c2b565b610a6a565b610589576040517fcfb3b94200000000000000000000000000000000000000000000000000000000815260040160405180910390fd5b5b826006600084815260200190815260200160002060006101000a81548173ffffffffffffffffffffffffffffffffffffffff021916908373ffffffffffffffffffffffffffffffffffffffff160217905550818373ffffffffffffffffffffffffffffffffffffffff168273ffffffffffffffffffffffffffffffffffffffff167f8c5be1e5ebec7d5bd14f71427d1e84f3dd0314c0f7b2291e5b200ac8c7c3b92560405160405180910390a4505050565b6000610646610c33565b6001546000540303905090565b61065e838383610c38565b505050565b61067e83838360405180602001604052806000815250610958565b505050565b600061068e82610b5d565b9050919050565b60008073ffffffffffffffffffffffffffffffffffffffff168273ffffffffffffffffffffffffffffffffffffffff1614156106fd576040517f8f4eb60400000000000000000000000000000000000000000000000000000000815260040160405180910390fd5b67ffffffffffffffff600560008473ffffffffffffffffffffffffffffffffffffffff1673ffffffffffffffffffffffffffffffffffffffff16815260200190815260200160002054169050919050565b60606003805461075d906117be565b80601f0160208091040260200160405190810160405280929190818152602001828054610789906117be565b80156107d65780601f106107ab576101008083540402835291602001916107d6565b820191906000526020600020905b8154815290600101906020018083116107b957829003601f168201915b5050505050905090565b6107e8610c2b565b73ffffffffffffffffffffffffffffffffffffffff168273ffffffffffffffffffffffffffffffffffffffff16141561084d576040517fb06307db00000000000000000000000000000000000000000000000000000000815260040160405180910390fd5b806007600061085a610c2b565b73ffffffffffffffffffffffffffffffffffffffff1673ffffffffffffffffffffffffffffffffffffffff16815260200190815260200160002060008473ffffffffffffffffffffffffffffffffffffffff1673ffffffffffffffffffffffffffffffffffffffff16815260200190815260200160002060006101000a81548160ff0219169083151502179055508173ffffffffffffffffffffffffffffffffffffffff16610907610c2b565b73ffffffffffffffffffffffffffffffffffffffff167f17307eab39ab6107e8899845ad3d59bd9653f200f220920489ca2b5937696c318360405161094c9190611617565b60405180910390a35050565b610963848484610c38565b60008373ffffffffffffffffffffffffffffffffffffffff163b146109c55761098e84848484610fe2565b6109c4576040517fd1a57ed600000000000000000000000000000000000000000000000000000000815260040160405180910390fd5b5b50505050565b60606109d682610afe565b610a0c576040517fa14c4b5000000000000000000000000000000000000000000000000000000000815260040160405180910390fd5b6000610a16611142565b9050600081511415610a375760405180602001604052806000815250610a62565b80610a4184611159565b604051602001610a5292919061158c565b6040516020818303038152906040525b915050919050565b6000600760008473ffffffffffffffffffffffffffffffffffffffff1673ffffffffffffffffffffffffffffffffffffffff16815260200190815260200160002060008373ffffffffffffffffffffffffffffffffffffffff1673ffffffffffffffffffffffffffffffffffffffff16815260200190815260200160002060009054906101000a900460ff16905092915050565b600081610b09610c33565b11158015610b18575060005482105b8015610b56575060007c0100000000000000000000000000000000000000000000000000000000600460008581526020019081526020016000205416145b9050919050565b60008082905080610b6c610c33565b11610bf457600054811015610bf35760006004600083815260200190815260200160002054905060007c010000000000000000000000000000000000000000000000000000000082161415610bf1575b6000811415610be7576004600083600190039350838152602001908152602001600020549050610bbc565b8092505050610c26565b505b5b6040517fdf2d9b4200000000000000000000000000000000000000000000000000000000815260040160405180910390fd5b919050565b600033905090565b600090565b6000610c4382610b5d565b90508373ffffffffffffffffffffffffffffffffffffffff168173ffffffffffffffffffffffffffffffffffffffff1614610caa576040517fa114810000000000000000000000000000000000000000000000000000000000815260040160405180910390fd5b60008473ffffffffffffffffffffffffffffffffffffffff16610ccb610c2b565b73ffffffffffffffffffffffffffffffffffffffff161480610cfa5750610cf985610cf4610c2b565b610a6a565b5b80610d3f5750610d08610c2b565b73ffffffffffffffffffffffffffffffffffffffff16610d2784610419565b73ffffffffffffffffffffffffffffffffffffffff16145b905080610d78576040517f59c896be00000000000000000000000000000000000000000000000000000000815260040160405180910390fd5b600073ffffffffffffffffffffffffffffffffffffffff168473ffffffffffffffffffffffffffffffffffffffff161415610ddf576040517fea553b3400000000000000000000000000000000000000000000000000000000815260040160405180910390fd5b610dec85858560016111b3565b6006600084815260200190815260200160002060006101000a81549073ffffffffffffffffffffffffffffffffffffffff0219169055600560008673ffffffffffffffffffffffffffffffffffffffff1673ffffffffffffffffffffffffffffffffffffffff168152602001908152602001600020600081546001900391905081905550600560008573ffffffffffffffffffffffffffffffffffffffff1673ffffffffffffffffffffffffffffffffffffffff16815260200190815260200160002060008154600101919050819055507c020000000000000000000000000000000000000000000000000000000060a042901b610ee9866111b9565b1717600460008581526020019081526020016000208190555060007c020000000000000000000000000000000000000000000000000000000083161415610f73576000600184019050600060046000838152602001908152602001600020541415610f71576000548114610f70578260046000838152602001908152602001600020819055505b5b505b828473ffffffffffffffffffffffffffffffffffffffff168673ffffffffffffffffffffffffffffffffffffffff167fddf252ad1be2c89b69c2b068fc378daa952ba7f163c4a11628f55a4df523b3ef60405160405180910390a4610fdb85858560016111c3565b5050505050565b60008373ffffffffffffffffffffffffffffffffffffffff1663150b7a02611008610c2b565b8786866040518563ffffffff1660e01b815260040161102a94939291906115cb565b602060405180830381600087803b15801561104457600080fd5b505af192505050801561107557506040513d601f19601f82011682018060405250810190611072919061146a565b60015b6110ef573d80600081146110a5576040519150601f19603f3d011682016040523d82523d6000602084013e6110aa565b606091505b506000815114156110e7576040517fd1a57ed600000000000000000000000000000000000000000000000000000000815260040160405180910390fd5b805181602001fd5b63150b7a0260e01b7bffffffffffffffffffffffffffffffffffffffffffffffffffffffff1916817bffffffffffffffffffffffffffffffffffffffffffffffffffffffff191614915050949350505050565b606060405180602001604052806000815250905090565b60606080604051019050806040528082600183039250600a81066030018353600a810490505b801561119f57600183039250600a81066030018353600a8104905061117f565b508181036020830392508083525050919050565b50505050565b6000819050919050565b50505050565b60006111dc6111d784611694565b61166f565b9050828152602081018484840111156111f457600080fd5b6111ff84828561177c565b509392505050565b60008135905061121681611890565b92915050565b60008135905061122b816118a7565b92915050565b600081359050611240816118be565b92915050565b600081519050611255816118be565b92915050565b600082601f83011261126c57600080fd5b813561127c8482602086016111c9565b91505092915050565b600081359050611294816118d5565b92915050565b6000602082840312156112ac57600080fd5b60006112ba84828501611207565b91505092915050565b600080604083850312156112d657600080fd5b60006112e485828601611207565b92505060206112f585828601611207565b9150509250929050565b60008060006060848603121561131457600080fd5b600061132286828701611207565b935050602061133386828701611207565b925050604061134486828701611285565b9150509250925092565b6000806000806080858703121561136457600080fd5b600061137287828801611207565b945050602061138387828801611207565b935050604061139487828801611285565b925050606085013567ffffffffffffffff8111156113b157600080fd5b6113bd8782880161125b565b91505092959194509250565b600080604083850312156113dc57600080fd5b60006113ea85828601611207565b92505060206113fb8582860161121c565b9150509250929050565b6000806040838503121561141857600080fd5b600061142685828601611207565b925050602061143785828601611285565b9150509250929050565b60006020828403121561145357600080fd5b600061146184828501611231565b91505092915050565b60006020828403121561147c57600080fd5b600061148a84828501611246565b91505092915050565b6000602082840312156114a557600080fd5b60006114b384828501611285565b91505092915050565b6114c581611708565b82525050565b6114d48161171a565b82525050565b60006114e5826116c5565b6114ef81856116db565b93506114ff81856020860161178b565b6115088161187f565b840191505092915050565b600061151e826116d0565b61152881856116ec565b935061153881856020860161178b565b6115418161187f565b840191505092915050565b6000611557826116d0565b61156181856116fd565b935061157181856020860161178b565b80840191505092915050565b61158681611772565b82525050565b6000611598828561154c565b91506115a4828461154c565b91508190509392505050565b60006020820190506115c560008301846114bc565b92915050565b60006080820190506115e060008301876114bc565b6115ed60208301866114bc565b6115fa604083018561157d565b818103606083015261160c81846114da565b905095945050505050565b600060208201905061162c60008301846114cb565b92915050565b6000602082019050818103600083015261164c8184611513565b905092915050565b6000602082019050611669600083018461157d565b92915050565b600061167961168a565b905061168582826117f0565b919050565b6000604051905090565b600067ffffffffffffffff8211156116af576116ae611850565b5b6116b88261187f565b9050602081019050919050565b600081519050919050565b600081519050919050565b600082825260208201905092915050565b600082825260208201905092915050565b600081905092915050565b600061171382611752565b9050919050565b60008115159050919050565b60007fffffffff0000000000000000000000000000000000000000000000000000000082169050919050565b600073ffffffffffffffffffffffffffffffffffffffff82169050919050565b6000819050919050565b82818337600083830152505050565b60005b838110156117a957808201518184015260208101905061178e565b838111156117b8576000848401525b50505050565b600060028204905060018216806117d657607f821691505b602082108114156117ea576117e9611821565b5b50919050565b6117f98261187f565b810181811067ffffffffffffffff8211171561181857611817611850565b5b80604052505050565b7f4e487b7100000000000000000000000000000000000000000000000000000000600052602260045260246000fd5b7f4e487b7100000000000000000000000000000000000000000000000000000000600052604160045260246000fd5b6000601f19601f8301169050919050565b61189981611708565b81146118a457600080fd5b50565b6118b08161171a565b81146118bb57600080fd5b50565b6118c781611726565b81146118d257600080fd5b50565b6118de81611772565b81146118e957600080fd5b5056fea2646970667358221220fd705e5f4e8c4a6c9665e701b73455c0bfc90f92b5ab40f99a25a8486c0aeb4f64736f6c63430008040033",
					"opcodes": "PUSH1 0x80 PUSH1 0x40 MSTORE CALLVALUE DUP1 ISZERO PUSH3 0x11 JUMPI PUSH1 0x0 DUP1 REVERT JUMPDEST POP PUSH1 0x40 MLOAD PUSH3 0x1CC3 CODESIZE SUB DUP1 PUSH3 0x1CC3 DUP4 CODECOPY DUP2 DUP2 ADD PUSH1 0x40 MSTORE DUP2 ADD SWAP1 PUSH3 0x37 SWAP2 SWAP1 PUSH3 0x1AE JUMP JUMPDEST DUP2 PUSH1 0x2 SWAP1 DUP1 MLOAD SWAP1 PUSH1 0x20 ADD SWAP1 PUSH3 0x4F SWAP3 SWAP2 SWAP1 PUSH3 0x8C JUMP JUMPDEST POP DUP1 PUSH1 0x3 SWAP1 DUP1 MLOAD SWAP1 PUSH1 0x20 ADD SWAP1 PUSH3 0x68 SWAP3 SWAP2 SWAP1 PUSH3 0x8C JUMP JUMPDEST POP PUSH3 0x79 PUSH3 0x87 PUSH1 0x20 SHL PUSH1 0x20 SHR JUMP JUMPDEST PUSH1 0x0 DUP2 SWAP1 SSTORE POP POP POP PUSH3 0x391 JUMP JUMPDEST PUSH1 0x0 SWAP1 JUMP JUMPDEST DUP3 DUP1 SLOAD PUSH3 0x9A SWAP1 PUSH3 0x2B6 JUMP JUMPDEST SWAP1 PUSH1 0x0 MSTORE PUSH1 0x20 PUSH1 0x0 KECCAK256 SWAP1 PUSH1 0x1F ADD PUSH1 0x20 SWAP1 DIV DUP2 ADD SWAP3 DUP3 PUSH3 0xBE JUMPI PUSH1 0x0 DUP6 SSTORE PUSH3 0x10A JUMP JUMPDEST DUP3 PUSH1 0x1F LT PUSH3 0xD9 JUMPI DUP1 MLOAD PUSH1 0xFF NOT AND DUP4 DUP1 ADD OR DUP6 SSTORE PUSH3 0x10A JUMP JUMPDEST DUP3 DUP1 ADD PUSH1 0x1 ADD DUP6 SSTORE DUP3 ISZERO PUSH3 0x10A JUMPI SWAP2 DUP3 ADD JUMPDEST DUP3 DUP2 GT ISZERO PUSH3 0x109 JUMPI DUP3 MLOAD DUP3 SSTORE SWAP2 PUSH1 0x20 ADD SWAP2 SWAP1 PUSH1 0x1 ADD SWAP1 PUSH3 0xEC JUMP JUMPDEST JUMPDEST POP SWAP1 POP PUSH3 0x119 SWAP2 SWAP1 PUSH3 0x11D JUMP JUMPDEST POP SWAP1 JUMP JUMPDEST JUMPDEST DUP1 DUP3 GT ISZERO PUSH3 0x138 JUMPI PUSH1 0x0 DUP2 PUSH1 0x0 SWAP1 SSTORE POP PUSH1 0x1 ADD PUSH3 0x11E JUMP JUMPDEST POP SWAP1 JUMP JUMPDEST PUSH1 0x0 PUSH3 0x153 PUSH3 0x14D DUP5 PUSH3 0x24A JUMP JUMPDEST PUSH3 0x221 JUMP JUMPDEST SWAP1 POP DUP3 DUP2 MSTORE PUSH1 0x20 DUP2 ADD DUP5 DUP5 DUP5 ADD GT ISZERO PUSH3 0x16C JUMPI PUSH1 0x0 DUP1 REVERT JUMPDEST PUSH3 0x179 DUP5 DUP3 DUP6 PUSH3 0x280 JUMP JUMPDEST POP SWAP4 SWAP3 POP POP POP JUMP JUMPDEST PUSH1 0x0 DUP3 PUSH1 0x1F DUP4 ADD SLT PUSH3 0x193 JUMPI PUSH1 0x0 DUP1 REVERT JUMPDEST DUP2 MLOAD PUSH3 0x1A5 DUP5 DUP3 PUSH1 0x20 DUP7 ADD PUSH3 0x13C JUMP JUMPDEST SWAP2 POP POP SWAP3 SWAP2 POP POP JUMP JUMPDEST PUSH1 0x0 DUP1 PUSH1 0x40 DUP4 DUP6 SUB SLT ISZERO PUSH3 0x1C2 JUMPI PUSH1 0x0 DUP1 REVERT JUMPDEST PUSH1 0x0 DUP4 ADD MLOAD PUSH8 0xFFFFFFFFFFFFFFFF DUP2 GT ISZERO PUSH3 0x1DD JUMPI PUSH1 0x0 DUP1 REVERT JUMPDEST PUSH3 0x1EB DUP6 DUP3 DUP7 ADD PUSH3 0x181 JUMP JUMPDEST SWAP3 POP POP PUSH1 0x20 DUP4 ADD MLOAD PUSH8 0xFFFFFFFFFFFFFFFF DUP2 GT ISZERO PUSH3 0x209 JUMPI PUSH1 0x0 DUP1 REVERT JUMPDEST PUSH3 0x217 DUP6 DUP3 DUP7 ADD PUSH3 0x181 JUMP JUMPDEST SWAP2 POP POP SWAP3 POP SWAP3 SWAP1 POP JUMP JUMPDEST PUSH1 0x0 PUSH3 0x22D PUSH3 0x240 JUMP JUMPDEST SWAP1 POP PUSH3 0x23B DUP3 DUP3 PUSH3 0x2EC JUMP JUMPDEST SWAP2 SWAP1 POP JUMP JUMPDEST PUSH1 0x0 PUSH1 0x40 MLOAD SWAP1 POP SWAP1 JUMP JUMPDEST PUSH1 0x0 PUSH8 0xFFFFFFFFFFFFFFFF DUP3 GT ISZERO PUSH3 0x268 JUMPI PUSH3 0x267 PUSH3 0x351 JUMP JUMPDEST JUMPDEST PUSH3 0x273 DUP3 PUSH3 0x380 JUMP JUMPDEST SWAP1 POP PUSH1 0x20 DUP2 ADD SWAP1 POP SWAP2 SWAP1 POP JUMP JUMPDEST PUSH1 0x0 JUMPDEST DUP4 DUP2 LT ISZERO PUSH3 0x2A0 JUMPI DUP1 DUP3 ADD MLOAD DUP2 DUP5 ADD MSTORE PUSH1 0x20 DUP2 ADD SWAP1 POP PUSH3 0x283 JUMP JUMPDEST DUP4 DUP2 GT ISZERO PUSH3 0x2B0 JUMPI PUSH1 0x0 DUP5 DUP5 ADD MSTORE JUMPDEST POP POP POP POP JUMP JUMPDEST PUSH1 0x0 PUSH1 0x2 DUP3 DIV SWAP1 POP PUSH1 0x1 DUP3 AND DUP1 PUSH3 0x2CF JUMPI PUSH1 0x7F DUP3 AND SWAP2 POP JUMPDEST PUSH1 0x20 DUP3 LT DUP2 EQ ISZERO PUSH3 0x2E6 JUMPI PUSH3 0x2E5 PUSH3 0x322 JUMP JUMPDEST JUMPDEST POP SWAP2 SWAP1 POP JUMP JUMPDEST PUSH3 0x2F7 DUP3 PUSH3 0x380 JUMP JUMPDEST DUP2 ADD DUP2 DUP2 LT PUSH8 0xFFFFFFFFFFFFFFFF DUP3 GT OR ISZERO PUSH3 0x319 JUMPI PUSH3 0x318 PUSH3 0x351 JUMP JUMPDEST JUMPDEST DUP1 PUSH1 0x40 MSTORE POP POP POP JUMP JUMPDEST PUSH32 0x4E487B7100000000000000000000000000000000000000000000000000000000 PUSH1 0x0 MSTORE PUSH1 0x22 PUSH1 0x4 MSTORE PUSH1 0x24 PUSH1 0x0 REVERT JUMPDEST PUSH32 0x4E487B7100000000000000000000000000000000000000000000000000000000 PUSH1 0x0 MSTORE PUSH1 0x41 PUSH1 0x4 MSTORE PUSH1 0x24 PUSH1 0x0 REVERT JUMPDEST PUSH1 0x0 PUSH1 0x1F NOT PUSH1 0x1F DUP4 ADD AND SWAP1 POP SWAP2 SWAP1 POP JUMP JUMPDEST PUSH2 0x1922 DUP1 PUSH3 0x3A1 PUSH1 0x0 CODECOPY PUSH1 0x0 RETURN INVALID PUSH1 0x80 PUSH1 0x40 MSTORE CALLVALUE DUP1 ISZERO PUSH2 0x10 JUMPI PUSH1 0x0 DUP1 REVERT JUMPDEST POP PUSH1 0x4 CALLDATASIZE LT PUSH2 0xEA JUMPI PUSH1 0x0 CALLDATALOAD PUSH1 0xE0 SHR DUP1 PUSH4 0x6352211E GT PUSH2 0x8C JUMPI DUP1 PUSH4 0xA22CB465 GT PUSH2 0x66 JUMPI DUP1 PUSH4 0xA22CB465 EQ PUSH2 0x25D JUMPI DUP1 PUSH4 0xB88D4FDE EQ PUSH2 0x279 JUMPI DUP1 PUSH4 0xC87B56DD EQ PUSH2 0x295 JUMPI DUP1 PUSH4 0xE985E9C5 EQ PUSH2 0x2C5 JUMPI PUSH2 0xEA JUMP JUMPDEST DUP1 PUSH4 0x6352211E EQ PUSH2 0x1DF JUMPI DUP1 PUSH4 0x70A08231 EQ PUSH2 0x20F JUMPI DUP1 PUSH4 0x95D89B41 EQ PUSH2 0x23F JUMPI PUSH2 0xEA JUMP JUMPDEST DUP1 PUSH4 0x95EA7B3 GT PUSH2 0xC8 JUMPI DUP1 PUSH4 0x95EA7B3 EQ PUSH2 0x16D JUMPI DUP1 PUSH4 0x18160DDD EQ PUSH2 0x189 JUMPI DUP1 PUSH4 0x23B872DD EQ PUSH2 0x1A7 JUMPI DUP1 PUSH4 0x42842E0E EQ PUSH2 0x1C3 JUMPI PUSH2 0xEA JUMP JUMPDEST DUP1 PUSH4 0x1FFC9A7 EQ PUSH2 0xEF JUMPI DUP1 PUSH4 0x6FDDE03 EQ PUSH2 0x11F JUMPI DUP1 PUSH4 0x81812FC EQ PUSH2 0x13D JUMPI JUMPDEST PUSH1 0x0 DUP1 REVERT JUMPDEST PUSH2 0x109 PUSH1 0x4 DUP1 CALLDATASIZE SUB DUP2 ADD SWAP1 PUSH2 0x104 SWAP2 SWAP1 PUSH2 0x1441 JUMP JUMPDEST PUSH2 0x2F5 JUMP JUMPDEST PUSH1 0x40 MLOAD PUSH2 0x116 SWAP2 SWAP1 PUSH2 0x1617 JUMP JUMPDEST PUSH1 0x40 MLOAD DUP1 SWAP2 SUB SWAP1 RETURN JUMPDEST PUSH2 0x127 PUSH2 0x387 JUMP JUMPDEST PUSH1 0x40 MLOAD PUSH2 0x134 SWAP2 SWAP1 PUSH2 0x1632 JUMP JUMPDEST PUSH1 0x40 MLOAD DUP1 SWAP2 SUB SWAP1 RETURN JUMPDEST PUSH2 0x157 PUSH1 0x4 DUP1 CALLDATASIZE SUB DUP2 ADD SWAP1 PUSH2 0x152 SWAP2 SWAP1 PUSH2 0x1493 JUMP JUMPDEST PUSH2 0x419 JUMP JUMPDEST PUSH1 0x40 MLOAD PUSH2 0x164 SWAP2 SWAP1 PUSH2 0x15B0 JUMP JUMPDEST PUSH1 0x40 MLOAD DUP1 SWAP2 SUB SWAP1 RETURN JUMPDEST PUSH2 0x187 PUSH1 0x4 DUP1 CALLDATASIZE SUB DUP2 ADD SWAP1 PUSH2 0x182 SWAP2 SWAP1 PUSH2 0x1405 JUMP JUMPDEST PUSH2 0x495 JUMP JUMPDEST STOP JUMPDEST PUSH2 0x191 PUSH2 0x63C JUMP JUMPDEST PUSH1 0x40 MLOAD PUSH2 0x19E SWAP2 SWAP1 PUSH2 0x1654 JUMP JUMPDEST PUSH1 0x40 MLOAD DUP1 SWAP2 SUB SWAP1 RETURN JUMPDEST PUSH2 0x1C1 PUSH1 0x4 DUP1 CALLDATASIZE SUB DUP2 ADD SWAP1 PUSH2 0x1BC SWAP2 SWAP1 PUSH2 0x12FF JUMP JUMPDEST PUSH2 0x653 JUMP JUMPDEST STOP JUMPDEST PUSH2 0x1DD PUSH1 0x4 DUP1 CALLDATASIZE SUB DUP2 ADD SWAP1 PUSH2 0x1D8 SWAP2 SWAP1 PUSH2 0x12FF JUMP JUMPDEST PUSH2 0x663 JUMP JUMPDEST STOP JUMPDEST PUSH2 0x1F9 PUSH1 0x4 DUP1 CALLDATASIZE SUB DUP2 ADD SWAP1 PUSH2 0x1F4 SWAP2 SWAP1 PUSH2 0x1493 JUMP JUMPDEST PUSH2 0x683 JUMP JUMPDEST PUSH1 0x40 MLOAD PUSH2 0x206 SWAP2 SWAP1 PUSH2 0x15B0 JUMP JUMPDEST PUSH1 0x40 MLOAD DUP1 SWAP2 SUB SWAP1 RETURN JUMPDEST PUSH2 0x229 PUSH1 0x4 DUP1 CALLDATASIZE SUB DUP2 ADD SWAP1 PUSH2 0x224 SWAP2 SWAP1 PUSH2 0x129A JUMP JUMPDEST PUSH2 0x695 JUMP JUMPDEST PUSH1 0x40 MLOAD PUSH2 0x236 SWAP2 SWAP1 PUSH2 0x1654 JUMP JUMPDEST PUSH1 0x40 MLOAD DUP1 SWAP2 SUB SWAP1 RETURN JUMPDEST PUSH2 0x247 PUSH2 0x74E JUMP JUMPDEST PUSH1 0x40 MLOAD PUSH2 0x254 SWAP2 SWAP1 PUSH2 0x1632 JUMP JUMPDEST PUSH1 0x40 MLOAD DUP1 SWAP2 SUB SWAP1 RETURN JUMPDEST PUSH2 0x277 PUSH1 0x4 DUP1 CALLDATASIZE SUB DUP2 ADD SWAP1 PUSH2 0x272 SWAP2 SWAP1 PUSH2 0x13C9 JUMP JUMPDEST PUSH2 0x7E0 JUMP JUMPDEST STOP JUMPDEST PUSH2 0x293 PUSH1 0x4 DUP1 CALLDATASIZE SUB DUP2 ADD SWAP1 PUSH2 0x28E SWAP2 SWAP1 PUSH2 0x134E JUMP JUMPDEST PUSH2 0x958 JUMP JUMPDEST STOP JUMPDEST PUSH2 0x2AF PUSH1 0x4 DUP1 CALLDATASIZE SUB DUP2 ADD SWAP1 PUSH2 0x2AA SWAP2 SWAP1 PUSH2 0x1493 JUMP JUMPDEST PUSH2 0x9CB JUMP JUMPDEST PUSH1 0x40 MLOAD PUSH2 0x2BC SWAP2 SWAP1 PUSH2 0x1632 JUMP JUMPDEST PUSH1 0x40 MLOAD DUP1 SWAP2 SUB SWAP1 RETURN JUMPDEST PUSH2 0x2DF PUSH1 0x4 DUP1 CALLDATASIZE SUB DUP2 ADD SWAP1 PUSH2 0x2DA SWAP2 SWAP1 PUSH2 0x12C3 JUMP JUMPDEST PUSH2 0xA6A JUMP JUMPDEST PUSH1 0x40 MLOAD PUSH2 0x2EC SWAP2 SWAP1 PUSH2 0x1617 JUMP JUMPDEST PUSH1 0x40 MLOAD DUP1 SWAP2 SUB SWAP1 RETURN JUMPDEST PUSH1 0x0 PUSH4 0x1FFC9A7 PUSH1 0xE0 SHL DUP3 PUSH28 0xFFFFFFFFFFFFFFFFFFFFFFFFFFFFFFFFFFFFFFFFFFFFFFFFFFFFFFFF NOT AND EQ DUP1 PUSH2 0x350 JUMPI POP PUSH4 0x80AC58CD PUSH1 0xE0 SHL DUP3 PUSH28 0xFFFFFFFFFFFFFFFFFFFFFFFFFFFFFFFFFFFFFFFFFFFFFFFFFFFFFFFF NOT AND EQ JUMPDEST DUP1 PUSH2 0x380 JUMPI POP PUSH4 0x5B5E139F PUSH1 0xE0 SHL DUP3 PUSH28 0xFFFFFFFFFFFFFFFFFFFFFFFFFFFFFFFFFFFFFFFFFFFFFFFFFFFFFFFF NOT AND EQ JUMPDEST SWAP1 POP SWAP2 SWAP1 POP JUMP JUMPDEST PUSH1 0x60 PUSH1 0x2 DUP1 SLOAD PUSH2 0x396 SWAP1 PUSH2 0x17BE JUMP JUMPDEST DUP1 PUSH1 0x1F ADD PUSH1 0x20 DUP1 SWAP2 DIV MUL PUSH1 0x20 ADD PUSH1 0x40 MLOAD SWAP1 DUP2 ADD PUSH1 0x40 MSTORE DUP1 SWAP3 SWAP2 SWAP1 DUP2 DUP2 MSTORE PUSH1 0x20 ADD DUP3 DUP1 SLOAD PUSH2 0x3C2 SWAP1 PUSH2 0x17BE JUMP JUMPDEST DUP1 ISZERO PUSH2 0x40F JUMPI DUP1 PUSH1 0x1F LT PUSH2 0x3E4 JUMPI PUSH2 0x100 DUP1 DUP4 SLOAD DIV MUL DUP4 MSTORE SWAP2 PUSH1 0x20 ADD SWAP2 PUSH2 0x40F JUMP JUMPDEST DUP3 ADD SWAP2 SWAP1 PUSH1 0x0 MSTORE PUSH1 0x20 PUSH1 0x0 KECCAK256 SWAP1 JUMPDEST DUP2 SLOAD DUP2 MSTORE SWAP1 PUSH1 0x1 ADD SWAP1 PUSH1 0x20 ADD DUP1 DUP4 GT PUSH2 0x3F2 JUMPI DUP3 SWAP1 SUB PUSH1 0x1F AND DUP3 ADD SWAP2 JUMPDEST POP POP POP POP POP SWAP1 POP SWAP1 JUMP JUMPDEST PUSH1 0x0 PUSH2 0x424 DUP3 PUSH2 0xAFE JUMP JUMPDEST PUSH2 0x45A JUMPI PUSH1 0x40 MLOAD PUSH32 0xCF4700E400000000000000000000000000000000000000000000000000000000 DUP2 MSTORE PUSH1 0x4 ADD PUSH1 0x40 MLOAD DUP1 SWAP2 SUB SWAP1 REVERT JUMPDEST PUSH1 0x6 PUSH1 0x0 DUP4 DUP2 MSTORE PUSH1 0x20 ADD SWAP1 DUP2 MSTORE PUSH1 0x20 ADD PUSH1 0x0 KECCAK256 PUSH1 0x0 SWAP1 SLOAD SWAP1 PUSH2 0x100 EXP SWAP1 DIV PUSH20 0xFFFFFFFFFFFFFFFFFFFFFFFFFFFFFFFFFFFFFFFF AND SWAP1 POP SWAP2 SWAP1 POP JUMP JUMPDEST PUSH1 0x0 PUSH2 0x4A0 DUP3 PUSH2 0xB5D JUMP JUMPDEST SWAP1 POP DUP1 PUSH20 0xFFFFFFFFFFFFFFFFFFFFFFFFFFFFFFFFFFFFFFFF AND DUP4 PUSH20 0xFFFFFFFFFFFFFFFFFFFFFFFFFFFFFFFFFFFFFFFF AND EQ ISZERO PUSH2 0x508 JUMPI PUSH1 0x40 MLOAD PUSH32 0x943F7B8C00000000000000000000000000000000000000000000000000000000 DUP2 MSTORE PUSH1 0x4 ADD PUSH1 0x40 MLOAD DUP1 SWAP2 SUB SWAP1 REVERT JUMPDEST DUP1 PUSH20 0xFFFFFFFFFFFFFFFFFFFFFFFFFFFFFFFFFFFFFFFF AND PUSH2 0x527 PUSH2 0xC2B JUMP JUMPDEST PUSH20 0xFFFFFFFFFFFFFFFFFFFFFFFFFFFFFFFFFFFFFFFF AND EQ PUSH2 0x58A JUMPI PUSH2 0x553 DUP2 PUSH2 0x54E PUSH2 0xC2B JUMP JUMPDEST PUSH2 0xA6A JUMP JUMPDEST PUSH2 0x589 JUMPI PUSH1 0x40 MLOAD PUSH32 0xCFB3B94200000000000000000000000000000000000000000000000000000000 DUP2 MSTORE PUSH1 0x4 ADD PUSH1 0x40 MLOAD DUP1 SWAP2 SUB SWAP1 REVERT JUMPDEST JUMPDEST DUP3 PUSH1 0x6 PUSH1 0x0 DUP5 DUP2 MSTORE PUSH1 0x20 ADD SWAP1 DUP2 MSTORE PUSH1 0x20 ADD PUSH1 0x0 KECCAK256 PUSH1 0x0 PUSH2 0x100 EXP DUP2 SLOAD DUP2 PUSH20 0xFFFFFFFFFFFFFFFFFFFFFFFFFFFFFFFFFFFFFFFF MUL NOT AND SWAP1 DUP4 PUSH20 0xFFFFFFFFFFFFFFFFFFFFFFFFFFFFFFFFFFFFFFFF AND MUL OR SWAP1 SSTORE POP DUP2 DUP4 PUSH20 0xFFFFFFFFFFFFFFFFFFFFFFFFFFFFFFFFFFFFFFFF AND DUP3 PUSH20 0xFFFFFFFFFFFFFFFFFFFFFFFFFFFFFFFFFFFFFFFF AND PUSH32 0x8C5BE1E5EBEC7D5BD14F71427D1E84F3DD0314C0F7B2291E5B200AC8C7C3B925 PUSH1 0x40 MLOAD PUSH1 0x40 MLOAD DUP1 SWAP2 SUB SWAP1 LOG4 POP POP POP JUMP JUMPDEST PUSH1 0x0 PUSH2 0x646 PUSH2 0xC33 JUMP JUMPDEST PUSH1 0x1 SLOAD PUSH1 0x0 SLOAD SUB SUB SWAP1 POP SWAP1 JUMP JUMPDEST PUSH2 0x65E DUP4 DUP4 DUP4 PUSH2 0xC38 JUMP JUMPDEST POP POP POP JUMP JUMPDEST PUSH2 0x67E DUP4 DUP4 DUP4 PUSH1 0x40 MLOAD DUP1 PUSH1 0x20 ADD PUSH1 0x40 MSTORE DUP1 PUSH1 0x0 DUP2 MSTORE POP PUSH2 0x958 JUMP JUMPDEST POP POP POP JUMP JUMPDEST PUSH1 0x0 PUSH2 0x68E DUP3 PUSH2 0xB5D JUMP JUMPDEST SWAP1 POP SWAP2 SWAP1 POP JUMP JUMPDEST PUSH1 0x0 DUP1 PUSH20 0xFFFFFFFFFFFFFFFFFFFFFFFFFFFFFFFFFFFFFFFF AND DUP3 PUSH20 0xFFFFFFFFFFFFFFFFFFFFFFFFFFFFFFFFFFFFFFFF AND EQ ISZERO PUSH2 0x6FD JUMPI PUSH1 0x40 MLOAD PUSH32 0x8F4EB60400000000000000000000000000000000000000000000000000000000 DUP2 MSTORE PUSH1 0x4 ADD PUSH1 0x40 MLOAD DUP1 SWAP2 SUB SWAP1 REVERT JUMPDEST PUSH8 0xFFFFFFFFFFFFFFFF PUSH1 0x5 PUSH1 0x0 DUP5 PUSH20 0xFFFFFFFFFFFFFFFFFFFFFFFFFFFFFFFFFFFFFFFF AND PUSH20 0xFFFFFFFFFFFFFFFFFFFFFFFFFFFFFFFFFFFFFFFF AND DUP2 MSTORE PUSH1 0x20 ADD SWAP1 DUP2 MSTORE PUSH1 0x20 ADD PUSH1 0x0 KECCAK256 SLOAD AND SWAP1 POP SWAP2 SWAP1 POP JUMP JUMPDEST PUSH1 0x60 PUSH1 0x3 DUP1 SLOAD PUSH2 0x75D SWAP1 PUSH2 0x17BE JUMP JUMPDEST DUP1 PUSH1 0x1F ADD PUSH1 0x20 DUP1 SWAP2 DIV MUL PUSH1 0x20 ADD PUSH1 0x40 MLOAD SWAP1 DUP2 ADD PUSH1 0x40 MSTORE DUP1 SWAP3 SWAP2 SWAP1 DUP2 DUP2 MSTORE PUSH1 0x20 ADD DUP3 DUP1 SLOAD PUSH2 0x789 SWAP1 PUSH2 0x17BE JUMP JUMPDEST DUP1 ISZERO PUSH2 0x7D6 JUMPI DUP1 PUSH1 0x1F LT PUSH2 0x7AB JUMPI PUSH2 0x100 DUP1 DUP4 SLOAD DIV MUL DUP4 MSTORE SWAP2 PUSH1 0x20 ADD SWAP2 PUSH2 0x7D6 JUMP JUMPDEST DUP3 ADD SWAP2 SWAP1 PUSH1 0x0 MSTORE PUSH1 0x20 PUSH1 0x0 KECCAK256 SWAP1 JUMPDEST DUP2 SLOAD DUP2 MSTORE SWAP1 PUSH1 0x1 ADD SWAP1 PUSH1 0x20 ADD DUP1 DUP4 GT PUSH2 0x7B9 JUMPI DUP3 SWAP1 SUB PUSH1 0x1F AND DUP3 ADD SWAP2 JUMPDEST POP POP POP POP POP SWAP1 POP SWAP1 JUMP JUMPDEST PUSH2 0x7E8 PUSH2 0xC2B JUMP JUMPDEST PUSH20 0xFFFFFFFFFFFFFFFFFFFFFFFFFFFFFFFFFFFFFFFF AND DUP3 PUSH20 0xFFFFFFFFFFFFFFFFFFFFFFFFFFFFFFFFFFFFFFFF AND EQ ISZERO PUSH2 0x84D JUMPI PUSH1 0x40 MLOAD PUSH32 0xB06307DB00000000000000000000000000000000000000000000000000000000 DUP2 MSTORE PUSH1 0x4 ADD PUSH1 0x40 MLOAD DUP1 SWAP2 SUB SWAP1 REVERT JUMPDEST DUP1 PUSH1 0x7 PUSH1 0x0 PUSH2 0x85A PUSH2 0xC2B JUMP JUMPDEST PUSH20 0xFFFFFFFFFFFFFFFFFFFFFFFFFFFFFFFFFFFFFFFF AND PUSH20 0xFFFFFFFFFFFFFFFFFFFFFFFFFFFFFFFFFFFFFFFF AND DUP2 MSTORE PUSH1 0x20 ADD SWAP1 DUP2 MSTORE PUSH1 0x20 ADD PUSH1 0x0 KECCAK256 PUSH1 0x0 DUP5 PUSH20 0xFFFFFFFFFFFFFFFFFFFFFFFFFFFFFFFFFFFFFFFF AND PUSH20 0xFFFFFFFFFFFFFFFFFFFFFFFFFFFFFFFFFFFFFFFF AND DUP2 MSTORE PUSH1 0x20 ADD SWAP1 DUP2 MSTORE PUSH1 0x20 ADD PUSH1 0x0 KECCAK256 PUSH1 0x0 PUSH2 0x100 EXP DUP2 SLOAD DUP2 PUSH1 0xFF MUL NOT AND SWAP1 DUP4 ISZERO ISZERO MUL OR SWAP1 SSTORE POP DUP2 PUSH20 0xFFFFFFFFFFFFFFFFFFFFFFFFFFFFFFFFFFFFFFFF AND PUSH2 0x907 PUSH2 0xC2B JUMP JUMPDEST PUSH20 0xFFFFFFFFFFFFFFFFFFFFFFFFFFFFFFFFFFFFFFFF AND PUSH32 0x17307EAB39AB6107E8899845AD3D59BD9653F200F220920489CA2B5937696C31 DUP4 PUSH1 0x40 MLOAD PUSH2 0x94C SWAP2 SWAP1 PUSH2 0x1617 JUMP JUMPDEST PUSH1 0x40 MLOAD DUP1 SWAP2 SUB SWAP1 LOG3 POP POP JUMP JUMPDEST PUSH2 0x963 DUP5 DUP5 DUP5 PUSH2 0xC38 JUMP JUMPDEST PUSH1 0x0 DUP4 PUSH20 0xFFFFFFFFFFFFFFFFFFFFFFFFFFFFFFFFFFFFFFFF AND EXTCODESIZE EQ PUSH2 0x9C5 JUMPI PUSH2 0x98E DUP5 DUP5 DUP5 DUP5 PUSH2 0xFE2 JUMP JUMPDEST PUSH2 0x9C4 JUMPI PUSH1 0x40 MLOAD PUSH32 0xD1A57ED600000000000000000000000000000000000000000000000000000000 DUP2 MSTORE PUSH1 0x4 ADD PUSH1 0x40 MLOAD DUP1 SWAP2 SUB SWAP1 REVERT JUMPDEST JUMPDEST POP POP POP POP JUMP JUMPDEST PUSH1 0x60 PUSH2 0x9D6 DUP3 PUSH2 0xAFE JUMP JUMPDEST PUSH2 0xA0C JUMPI PUSH1 0x40 MLOAD PUSH32 0xA14C4B5000000000000000000000000000000000000000000000000000000000 DUP2 MSTORE PUSH1 0x4 ADD PUSH1 0x40 MLOAD DUP1 SWAP2 SUB SWAP1 REVERT JUMPDEST PUSH1 0x0 PUSH2 0xA16 PUSH2 0x1142 JUMP JUMPDEST SWAP1 POP PUSH1 0x0 DUP2 MLOAD EQ ISZERO PUSH2 0xA37 JUMPI PUSH1 0x40 MLOAD DUP1 PUSH1 0x20 ADD PUSH1 0x40 MSTORE DUP1 PUSH1 0x0 DUP2 MSTORE POP PUSH2 0xA62 JUMP JUMPDEST DUP1 PUSH2 0xA41 DUP5 PUSH2 0x1159 JUMP JUMPDEST PUSH1 0x40 MLOAD PUSH1 0x20 ADD PUSH2 0xA52 SWAP3 SWAP2 SWAP1 PUSH2 0x158C JUMP JUMPDEST PUSH1 0x40 MLOAD PUSH1 0x20 DUP2 DUP4 SUB SUB DUP2 MSTORE SWAP1 PUSH1 0x40 MSTORE JUMPDEST SWAP2 POP POP SWAP2 SWAP1 POP JUMP JUMPDEST PUSH1 0x0 PUSH1 0x7 PUSH1 0x0 DUP5 PUSH20 0xFFFFFFFFFFFFFFFFFFFFFFFFFFFFFFFFFFFFFFFF AND PUSH20 0xFFFFFFFFFFFFFFFFFFFFFFFFFFFFFFFFFFFFFFFF AND DUP2 MSTORE PUSH1 0x20 ADD SWAP1 DUP2 MSTORE PUSH1 0x20 ADD PUSH1 0x0 KECCAK256 PUSH1 0x0 DUP4 PUSH20 0xFFFFFFFFFFFFFFFFFFFFFFFFFFFFFFFFFFFFFFFF AND PUSH20 0xFFFFFFFFFFFFFFFFFFFFFFFFFFFFFFFFFFFFFFFF AND DUP2 MSTORE PUSH1 0x20 ADD SWAP1 DUP2 MSTORE PUSH1 0x20 ADD PUSH1 0x0 KECCAK256 PUSH1 0x0 SWAP1 SLOAD SWAP1 PUSH2 0x100 EXP SWAP1 DIV PUSH1 0xFF AND SWAP1 POP SWAP3 SWAP2 POP POP JUMP JUMPDEST PUSH1 0x0 DUP2 PUSH2 0xB09 PUSH2 0xC33 JUMP JUMPDEST GT ISZERO DUP1 ISZERO PUSH2 0xB18 JUMPI POP PUSH1 0x0 SLOAD DUP3 LT JUMPDEST DUP1 ISZERO PUSH2 0xB56 JUMPI POP PUSH1 0x0 PUSH29 0x100000000000000000000000000000000000000000000000000000000 PUSH1 0x4 PUSH1 0x0 DUP6 DUP2 MSTORE PUSH1 0x20 ADD SWAP1 DUP2 MSTORE PUSH1 0x20 ADD PUSH1 0x0 KECCAK256 SLOAD AND EQ JUMPDEST SWAP1 POP SWAP2 SWAP1 POP JUMP JUMPDEST PUSH1 0x0 DUP1 DUP3 SWAP1 POP DUP1 PUSH2 0xB6C PUSH2 0xC33 JUMP JUMPDEST GT PUSH2 0xBF4 JUMPI PUSH1 0x0 SLOAD DUP2 LT ISZERO PUSH2 0xBF3 JUMPI PUSH1 0x0 PUSH1 0x4 PUSH1 0x0 DUP4 DUP2 MSTORE PUSH1 0x20 ADD SWAP1 DUP2 MSTORE PUSH1 0x20 ADD PUSH1 0x0 KECCAK256 SLOAD SWAP1 POP PUSH1 0x0 PUSH29 0x100000000000000000000000000000000000000000000000000000000 DUP3 AND EQ ISZERO PUSH2 0xBF1 JUMPI JUMPDEST PUSH1 0x0 DUP2 EQ ISZERO PUSH2 0xBE7 JUMPI PUSH1 0x4 PUSH1 0x0 DUP4 PUSH1 0x1 SWAP1 SUB SWAP4 POP DUP4 DUP2 MSTORE PUSH1 0x20 ADD SWAP1 DUP2 MSTORE PUSH1 0x20 ADD PUSH1 0x0 KECCAK256 SLOAD SWAP1 POP PUSH2 0xBBC JUMP JUMPDEST DUP1 SWAP3 POP POP POP PUSH2 0xC26 JUMP JUMPDEST POP JUMPDEST JUMPDEST PUSH1 0x40 MLOAD PUSH32 0xDF2D9B4200000000000000000000000000000000000000000000000000000000 DUP2 MSTORE PUSH1 0x4 ADD PUSH1 0x40 MLOAD DUP1 SWAP2 SUB SWAP1 REVERT JUMPDEST SWAP2 SWAP1 POP JUMP JUMPDEST PUSH1 0x0 CALLER SWAP1 POP SWAP1 JUMP JUMPDEST PUSH1 0x0 SWAP1 JUMP JUMPDEST PUSH1 0x0 PUSH2 0xC43 DUP3 PUSH2 0xB5D JUMP JUMPDEST SWAP1 POP DUP4 PUSH20 0xFFFFFFFFFFFFFFFFFFFFFFFFFFFFFFFFFFFFFFFF AND DUP2 PUSH20 0xFFFFFFFFFFFFFFFFFFFFFFFFFFFFFFFFFFFFFFFF AND EQ PUSH2 0xCAA JUMPI PUSH1 0x40 MLOAD PUSH32 0xA114810000000000000000000000000000000000000000000000000000000000 DUP2 MSTORE PUSH1 0x4 ADD PUSH1 0x40 MLOAD DUP1 SWAP2 SUB SWAP1 REVERT JUMPDEST PUSH1 0x0 DUP5 PUSH20 0xFFFFFFFFFFFFFFFFFFFFFFFFFFFFFFFFFFFFFFFF AND PUSH2 0xCCB PUSH2 0xC2B JUMP JUMPDEST PUSH20 0xFFFFFFFFFFFFFFFFFFFFFFFFFFFFFFFFFFFFFFFF AND EQ DUP1 PUSH2 0xCFA JUMPI POP PUSH2 0xCF9 DUP6 PUSH2 0xCF4 PUSH2 0xC2B JUMP JUMPDEST PUSH2 0xA6A JUMP JUMPDEST JUMPDEST DUP1 PUSH2 0xD3F JUMPI POP PUSH2 0xD08 PUSH2 0xC2B JUMP JUMPDEST PUSH20 0xFFFFFFFFFFFFFFFFFFFFFFFFFFFFFFFFFFFFFFFF AND PUSH2 0xD27 DUP5 PUSH2 0x419 JUMP JUMPDEST PUSH20 0xFFFFFFFFFFFFFFFFFFFFFFFFFFFFFFFFFFFFFFFF AND EQ JUMPDEST SWAP1 POP DUP1 PUSH2 0xD78 JUMPI PUSH1 0x40 MLOAD PUSH32 0x59C896BE00000000000000000000000000000000000000000000000000000000 DUP2 MSTORE PUSH1 0x4 ADD PUSH1 0x40 MLOAD DUP1 SWAP2 SUB SWAP1 REVERT JUMPDEST PUSH1 0x0 PUSH20 0xFFFFFFFFFFFFFFFFFFFFFFFFFFFFFFFFFFFFFFFF AND DUP5 PUSH20 0xFFFFFFFFFFFFFFFFFFFFFFFFFFFFFFFFFFFFFFFF AND EQ ISZERO PUSH2 0xDDF JUMPI PUSH1 0x40 MLOAD PUSH32 0xEA553B3400000000000000000000000000000000000000000000000000000000 DUP2 MSTORE PUSH1 0x4 ADD PUSH1 0x40 MLOAD DUP1 SWAP2 SUB SWAP1 REVERT JUMPDEST PUSH2 0xDEC DUP6 DUP6 DUP6 PUSH1 0x1 PUSH2 0x11B3 JUMP JUMPDEST PUSH1 0x6 PUSH1 0x0 DUP5 DUP2 MSTORE PUSH1 0x20 ADD SWAP1 DUP2 MSTORE PUSH1 0x20 ADD PUSH1 0x0 KECCAK256 PUSH1 0x0 PUSH2 0x100 EXP DUP2 SLOAD SWAP1 PUSH20 0xFFFFFFFFFFFFFFFFFFFFFFFFFFFFFFFFFFFFFFFF MUL NOT AND SWAP1 SSTORE PUSH1 0x5 PUSH1 0x0 DUP7 PUSH20 0xFFFFFFFFFFFFFFFFFFFFFFFFFFFFFFFFFFFFFFFF AND PUSH20 0xFFFFFFFFFFFFFFFFFFFFFFFFFFFFFFFFFFFFFFFF AND DUP2 MSTORE PUSH1 0x20 ADD SWAP1 DUP2 MSTORE PUSH1 0x20 ADD PUSH1 0x0 KECCAK256 PUSH1 0x0 DUP2 SLOAD PUSH1 0x1 SWAP1 SUB SWAP2 SWAP1 POP DUP2 SWAP1 SSTORE POP PUSH1 0x5 PUSH1 0x0 DUP6 PUSH20 0xFFFFFFFFFFFFFFFFFFFFFFFFFFFFFFFFFFFFFFFF AND PUSH20 0xFFFFFFFFFFFFFFFFFFFFFFFFFFFFFFFFFFFFFFFF AND DUP2 MSTORE PUSH1 0x20 ADD SWAP1 DUP2 MSTORE PUSH1 0x20 ADD PUSH1 0x0 KECCAK256 PUSH1 0x0 DUP2 SLOAD PUSH1 0x1 ADD SWAP2 SWAP1 POP DUP2 SWAP1 SSTORE POP PUSH29 0x200000000000000000000000000000000000000000000000000000000 PUSH1 0xA0 TIMESTAMP SWAP1 SHL PUSH2 0xEE9 DUP7 PUSH2 0x11B9 JUMP JUMPDEST OR OR PUSH1 0x4 PUSH1 0x0 DUP6 DUP2 MSTORE PUSH1 0x20 ADD SWAP1 DUP2 MSTORE PUSH1 0x20 ADD PUSH1 0x0 KECCAK256 DUP2 SWAP1 SSTORE POP PUSH1 0x0 PUSH29 0x200000000000000000000000000000000000000000000000000000000 DUP4 AND EQ ISZERO PUSH2 0xF73 JUMPI PUSH1 0x0 PUSH1 0x1 DUP5 ADD SWAP1 POP PUSH1 0x0 PUSH1 0x4 PUSH1 0x0 DUP4 DUP2 MSTORE PUSH1 0x20 ADD SWAP1 DUP2 MSTORE PUSH1 0x20 ADD PUSH1 0x0 KECCAK256 SLOAD EQ ISZERO PUSH2 0xF71 JUMPI PUSH1 0x0 SLOAD DUP2 EQ PUSH2 0xF70 JUMPI DUP3 PUSH1 0x4 PUSH1 0x0 DUP4 DUP2 MSTORE PUSH1 0x20 ADD SWAP1 DUP2 MSTORE PUSH1 0x20 ADD PUSH1 0x0 KECCAK256 DUP2 SWAP1 SSTORE POP JUMPDEST JUMPDEST POP JUMPDEST DUP3 DUP5 PUSH20 0xFFFFFFFFFFFFFFFFFFFFFFFFFFFFFFFFFFFFFFFF AND DUP7 PUSH20 0xFFFFFFFFFFFFFFFFFFFFFFFFFFFFFFFFFFFFFFFF AND PUSH32 0xDDF252AD1BE2C89B69C2B068FC378DAA952BA7F163C4A11628F55A4DF523B3EF PUSH1 0x40 MLOAD PUSH1 0x40 MLOAD DUP1 SWAP2 SUB SWAP1 LOG4 PUSH2 0xFDB DUP6 DUP6 DUP6 PUSH1 0x1 PUSH2 0x11C3 JUMP JUMPDEST POP POP POP POP POP JUMP JUMPDEST PUSH1 0x0 DUP4 PUSH20 0xFFFFFFFFFFFFFFFFFFFFFFFFFFFFFFFFFFFFFFFF AND PUSH4 0x150B7A02 PUSH2 0x1008 PUSH2 0xC2B JUMP JUMPDEST DUP8 DUP7 DUP7 PUSH1 0x40 MLOAD DUP6 PUSH4 0xFFFFFFFF AND PUSH1 0xE0 SHL DUP2 MSTORE PUSH1 0x4 ADD PUSH2 0x102A SWAP5 SWAP4 SWAP3 SWAP2 SWAP1 PUSH2 0x15CB JUMP JUMPDEST PUSH1 0x20 PUSH1 0x40 MLOAD DUP1 DUP4 SUB DUP2 PUSH1 0x0 DUP8 DUP1 EXTCODESIZE ISZERO DUP1 ISZERO PUSH2 0x1044 JUMPI PUSH1 0x0 DUP1 REVERT JUMPDEST POP GAS CALL SWAP3 POP POP POP DUP1 ISZERO PUSH2 0x1075 JUMPI POP PUSH1 0x40 MLOAD RETURNDATASIZE PUSH1 0x1F NOT PUSH1 0x1F DUP3 ADD AND DUP3 ADD DUP1 PUSH1 0x40 MSTORE POP DUP2 ADD SWAP1 PUSH2 0x1072 SWAP2 SWAP1 PUSH2 0x146A JUMP JUMPDEST PUSH1 0x1 JUMPDEST PUSH2 0x10EF JUMPI RETURNDATASIZE DUP1 PUSH1 0x0 DUP2 EQ PUSH2 0x10A5 JUMPI PUSH1 0x40 MLOAD SWAP2 POP PUSH1 0x1F NOT PUSH1 0x3F RETURNDATASIZE ADD AND DUP3 ADD PUSH1 0x40 MSTORE RETURNDATASIZE DUP3 MSTORE RETURNDATASIZE PUSH1 0x0 PUSH1 0x20 DUP5 ADD RETURNDATACOPY PUSH2 0x10AA JUMP JUMPDEST PUSH1 0x60 SWAP2 POP JUMPDEST POP PUSH1 0x0 DUP2 MLOAD EQ ISZERO PUSH2 0x10E7 JUMPI PUSH1 0x40 MLOAD PUSH32 0xD1A57ED600000000000000000000000000000000000000000000000000000000 DUP2 MSTORE PUSH1 0x4 ADD PUSH1 0x40 MLOAD DUP1 SWAP2 SUB SWAP1 REVERT JUMPDEST DUP1 MLOAD DUP2 PUSH1 0x20 ADD REVERT JUMPDEST PUSH4 0x150B7A02 PUSH1 0xE0 SHL PUSH28 0xFFFFFFFFFFFFFFFFFFFFFFFFFFFFFFFFFFFFFFFFFFFFFFFFFFFFFFFF NOT AND DUP2 PUSH28 0xFFFFFFFFFFFFFFFFFFFFFFFFFFFFFFFFFFFFFFFFFFFFFFFFFFFFFFFF NOT AND EQ SWAP2 POP POP SWAP5 SWAP4 POP POP POP POP JUMP JUMPDEST PUSH1 0x60 PUSH1 0x40 MLOAD DUP1 PUSH1 0x20 ADD PUSH1 0x40 MSTORE DUP1 PUSH1 0x0 DUP2 MSTORE POP SWAP1 POP SWAP1 JUMP JUMPDEST PUSH1 0x60 PUSH1 0x80 PUSH1 0x40 MLOAD ADD SWAP1 POP DUP1 PUSH1 0x40 MSTORE DUP1 DUP3 PUSH1 0x1 DUP4 SUB SWAP3 POP PUSH1 0xA DUP2 MOD PUSH1 0x30 ADD DUP4 MSTORE8 PUSH1 0xA DUP2 DIV SWAP1 POP JUMPDEST DUP1 ISZERO PUSH2 0x119F JUMPI PUSH1 0x1 DUP4 SUB SWAP3 POP PUSH1 0xA DUP2 MOD PUSH1 0x30 ADD DUP4 MSTORE8 PUSH1 0xA DUP2 DIV SWAP1 POP PUSH2 0x117F JUMP JUMPDEST POP DUP2 DUP2 SUB PUSH1 0x20 DUP4 SUB SWAP3 POP DUP1 DUP4 MSTORE POP POP SWAP2 SWAP1 POP JUMP JUMPDEST POP POP POP POP JUMP JUMPDEST PUSH1 0x0 DUP2 SWAP1 POP SWAP2 SWAP1 POP JUMP JUMPDEST POP POP POP POP JUMP JUMPDEST PUSH1 0x0 PUSH2 0x11DC PUSH2 0x11D7 DUP5 PUSH2 0x1694 JUMP JUMPDEST PUSH2 0x166F JUMP JUMPDEST SWAP1 POP DUP3 DUP2 MSTORE PUSH1 0x20 DUP2 ADD DUP5 DUP5 DUP5 ADD GT ISZERO PUSH2 0x11F4 JUMPI PUSH1 0x0 DUP1 REVERT JUMPDEST PUSH2 0x11FF DUP5 DUP3 DUP6 PUSH2 0x177C JUMP JUMPDEST POP SWAP4 SWAP3 POP POP POP JUMP JUMPDEST PUSH1 0x0 DUP2 CALLDATALOAD SWAP1 POP PUSH2 0x1216 DUP2 PUSH2 0x1890 JUMP JUMPDEST SWAP3 SWAP2 POP POP JUMP JUMPDEST PUSH1 0x0 DUP2 CALLDATALOAD SWAP1 POP PUSH2 0x122B DUP2 PUSH2 0x18A7 JUMP JUMPDEST SWAP3 SWAP2 POP POP JUMP JUMPDEST PUSH1 0x0 DUP2 CALLDATALOAD SWAP1 POP PUSH2 0x1240 DUP2 PUSH2 0x18BE JUMP JUMPDEST SWAP3 SWAP2 POP POP JUMP JUMPDEST PUSH1 0x0 DUP2 MLOAD SWAP1 POP PUSH2 0x1255 DUP2 PUSH2 0x18BE JUMP JUMPDEST SWAP3 SWAP2 POP POP JUMP JUMPDEST PUSH1 0x0 DUP3 PUSH1 0x1F DUP4 ADD SLT PUSH2 0x126C JUMPI PUSH1 0x0 DUP1 REVERT JUMPDEST DUP2 CALLDATALOAD PUSH2 0x127C DUP5 DUP3 PUSH1 0x20 DUP7 ADD PUSH2 0x11C9 JUMP JUMPDEST SWAP2 POP POP SWAP3 SWAP2 POP POP JUMP JUMPDEST PUSH1 0x0 DUP2 CALLDATALOAD SWAP1 POP PUSH2 0x1294 DUP2 PUSH2 0x18D5 JUMP JUMPDEST SWAP3 SWAP2 POP POP JUMP JUMPDEST PUSH1 0x0 PUSH1 0x20 DUP3 DUP5 SUB SLT ISZERO PUSH2 0x12AC JUMPI PUSH1 0x0 DUP1 REVERT JUMPDEST PUSH1 0x0 PUSH2 0x12BA DUP5 DUP3 DUP6 ADD PUSH2 0x1207 JUMP JUMPDEST SWAP2 POP POP SWAP3 SWAP2 POP POP JUMP JUMPDEST PUSH1 0x0 DUP1 PUSH1 0x40 DUP4 DUP6 SUB SLT ISZERO PUSH2 0x12D6 JUMPI PUSH1 0x0 DUP1 REVERT JUMPDEST PUSH1 0x0 PUSH2 0x12E4 DUP6 DUP3 DUP7 ADD PUSH2 0x1207 JUMP JUMPDEST SWAP3 POP POP PUSH1 0x20 PUSH2 0x12F5 DUP6 DUP3 DUP7 ADD PUSH2 0x1207 JUMP JUMPDEST SWAP2 POP POP SWAP3 POP SWAP3 SWAP1 POP JUMP JUMPDEST PUSH1 0x0 DUP1 PUSH1 0x0 PUSH1 0x60 DUP5 DUP7 SUB SLT ISZERO PUSH2 0x1314 JUMPI PUSH1 0x0 DUP1 REVERT JUMPDEST PUSH1 0x0 PUSH2 0x1322 DUP7 DUP3 DUP8 ADD PUSH2 0x1207 JUMP JUMPDEST SWAP4 POP POP PUSH1 0x20 PUSH2 0x1333 DUP7 DUP3 DUP8 ADD PUSH2 0x1207 JUMP JUMPDEST SWAP3 POP POP PUSH1 0x40 PUSH2 0x1344 DUP7 DUP3 DUP8 ADD PUSH2 0x1285 JUMP JUMPDEST SWAP2 POP POP SWAP3 POP SWAP3 POP SWAP3 JUMP JUMPDEST PUSH1 0x0 DUP1 PUSH1 0x0 DUP1 PUSH1 0x80 DUP6 DUP8 SUB SLT ISZERO PUSH2 0x1364 JUMPI PUSH1 0x0 DUP1 REVERT JUMPDEST PUSH1 0x0 PUSH2 0x1372 DUP8 DUP3 DUP9 ADD PUSH2 0x1207 JUMP JUMPDEST SWAP5 POP POP PUSH1 0x20 PUSH2 0x1383 DUP8 DUP3 DUP9 ADD PUSH2 0x1207 JUMP JUMPDEST SWAP4 POP POP PUSH1 0x40 PUSH2 0x1394 DUP8 DUP3 DUP9 ADD PUSH2 0x1285 JUMP JUMPDEST SWAP3 POP POP PUSH1 0x60 DUP6 ADD CALLDATALOAD PUSH8 0xFFFFFFFFFFFFFFFF DUP2 GT ISZERO PUSH2 0x13B1 JUMPI PUSH1 0x0 DUP1 REVERT JUMPDEST PUSH2 0x13BD DUP8 DUP3 DUP9 ADD PUSH2 0x125B JUMP JUMPDEST SWAP2 POP POP SWAP3 SWAP6 SWAP2 SWAP5 POP SWAP3 POP JUMP JUMPDEST PUSH1 0x0 DUP1 PUSH1 0x40 DUP4 DUP6 SUB SLT ISZERO PUSH2 0x13DC JUMPI PUSH1 0x0 DUP1 REVERT JUMPDEST PUSH1 0x0 PUSH2 0x13EA DUP6 DUP3 DUP7 ADD PUSH2 0x1207 JUMP JUMPDEST SWAP3 POP POP PUSH1 0x20 PUSH2 0x13FB DUP6 DUP3 DUP7 ADD PUSH2 0x121C JUMP JUMPDEST SWAP2 POP POP SWAP3 POP SWAP3 SWAP1 POP JUMP JUMPDEST PUSH1 0x0 DUP1 PUSH1 0x40 DUP4 DUP6 SUB SLT ISZERO PUSH2 0x1418 JUMPI PUSH1 0x0 DUP1 REVERT JUMPDEST PUSH1 0x0 PUSH2 0x1426 DUP6 DUP3 DUP7 ADD PUSH2 0x1207 JUMP JUMPDEST SWAP3 POP POP PUSH1 0x20 PUSH2 0x1437 DUP6 DUP3 DUP7 ADD PUSH2 0x1285 JUMP JUMPDEST SWAP2 POP POP SWAP3 POP SWAP3 SWAP1 POP JUMP JUMPDEST PUSH1 0x0 PUSH1 0x20 DUP3 DUP5 SUB SLT ISZERO PUSH2 0x1453 JUMPI PUSH1 0x0 DUP1 REVERT JUMPDEST PUSH1 0x0 PUSH2 0x1461 DUP5 DUP3 DUP6 ADD PUSH2 0x1231 JUMP JUMPDEST SWAP2 POP POP SWAP3 SWAP2 POP POP JUMP JUMPDEST PUSH1 0x0 PUSH1 0x20 DUP3 DUP5 SUB SLT ISZERO PUSH2 0x147C JUMPI PUSH1 0x0 DUP1 REVERT JUMPDEST PUSH1 0x0 PUSH2 0x148A DUP5 DUP3 DUP6 ADD PUSH2 0x1246 JUMP JUMPDEST SWAP2 POP POP SWAP3 SWAP2 POP POP JUMP JUMPDEST PUSH1 0x0 PUSH1 0x20 DUP3 DUP5 SUB SLT ISZERO PUSH2 0x14A5 JUMPI PUSH1 0x0 DUP1 REVERT JUMPDEST PUSH1 0x0 PUSH2 0x14B3 DUP5 DUP3 DUP6 ADD PUSH2 0x1285 JUMP JUMPDEST SWAP2 POP POP SWAP3 SWAP2 POP POP JUMP JUMPDEST PUSH2 0x14C5 DUP2 PUSH2 0x1708 JUMP JUMPDEST DUP3 MSTORE POP POP JUMP JUMPDEST PUSH2 0x14D4 DUP2 PUSH2 0x171A JUMP JUMPDEST DUP3 MSTORE POP POP JUMP JUMPDEST PUSH1 0x0 PUSH2 0x14E5 DUP3 PUSH2 0x16C5 JUMP JUMPDEST PUSH2 0x14EF DUP2 DUP6 PUSH2 0x16DB JUMP JUMPDEST SWAP4 POP PUSH2 0x14FF DUP2 DUP6 PUSH1 0x20 DUP7 ADD PUSH2 0x178B JUMP JUMPDEST PUSH2 0x1508 DUP2 PUSH2 0x187F JUMP JUMPDEST DUP5 ADD SWAP2 POP POP SWAP3 SWAP2 POP POP JUMP JUMPDEST PUSH1 0x0 PUSH2 0x151E DUP3 PUSH2 0x16D0 JUMP JUMPDEST PUSH2 0x1528 DUP2 DUP6 PUSH2 0x16EC JUMP JUMPDEST SWAP4 POP PUSH2 0x1538 DUP2 DUP6 PUSH1 0x20 DUP7 ADD PUSH2 0x178B JUMP JUMPDEST PUSH2 0x1541 DUP2 PUSH2 0x187F JUMP JUMPDEST DUP5 ADD SWAP2 POP POP SWAP3 SWAP2 POP POP JUMP JUMPDEST PUSH1 0x0 PUSH2 0x1557 DUP3 PUSH2 0x16D0 JUMP JUMPDEST PUSH2 0x1561 DUP2 DUP6 PUSH2 0x16FD JUMP JUMPDEST SWAP4 POP PUSH2 0x1571 DUP2 DUP6 PUSH1 0x20 DUP7 ADD PUSH2 0x178B JUMP JUMPDEST DUP1 DUP5 ADD SWAP2 POP POP SWAP3 SWAP2 POP POP JUMP JUMPDEST PUSH2 0x1586 DUP2 PUSH2 0x1772 JUMP JUMPDEST DUP3 MSTORE POP POP JUMP JUMPDEST PUSH1 0x0 PUSH2 0x1598 DUP3 DUP6 PUSH2 0x154C JUMP JUMPDEST SWAP2 POP PUSH2 0x15A4 DUP3 DUP5 PUSH2 0x154C JUMP JUMPDEST SWAP2 POP DUP2 SWAP1 POP SWAP4 SWAP3 POP POP POP JUMP JUMPDEST PUSH1 0x0 PUSH1 0x20 DUP3 ADD SWAP1 POP PUSH2 0x15C5 PUSH1 0x0 DUP4 ADD DUP5 PUSH2 0x14BC JUMP JUMPDEST SWAP3 SWAP2 POP POP JUMP JUMPDEST PUSH1 0x0 PUSH1 0x80 DUP3 ADD SWAP1 POP PUSH2 0x15E0 PUSH1 0x0 DUP4 ADD DUP8 PUSH2 0x14BC JUMP JUMPDEST PUSH2 0x15ED PUSH1 0x20 DUP4 ADD DUP7 PUSH2 0x14BC JUMP JUMPDEST PUSH2 0x15FA PUSH1 0x40 DUP4 ADD DUP6 PUSH2 0x157D JUMP JUMPDEST DUP2 DUP2 SUB PUSH1 0x60 DUP4 ADD MSTORE PUSH2 0x160C DUP2 DUP5 PUSH2 0x14DA JUMP JUMPDEST SWAP1 POP SWAP6 SWAP5 POP POP POP POP POP JUMP JUMPDEST PUSH1 0x0 PUSH1 0x20 DUP3 ADD SWAP1 POP PUSH2 0x162C PUSH1 0x0 DUP4 ADD DUP5 PUSH2 0x14CB JUMP JUMPDEST SWAP3 SWAP2 POP POP JUMP JUMPDEST PUSH1 0x0 PUSH1 0x20 DUP3 ADD SWAP1 POP DUP2 DUP2 SUB PUSH1 0x0 DUP4 ADD MSTORE PUSH2 0x164C DUP2 DUP5 PUSH2 0x1513 JUMP JUMPDEST SWAP1 POP SWAP3 SWAP2 POP POP JUMP JUMPDEST PUSH1 0x0 PUSH1 0x20 DUP3 ADD SWAP1 POP PUSH2 0x1669 PUSH1 0x0 DUP4 ADD DUP5 PUSH2 0x157D JUMP JUMPDEST SWAP3 SWAP2 POP POP JUMP JUMPDEST PUSH1 0x0 PUSH2 0x1679 PUSH2 0x168A JUMP JUMPDEST SWAP1 POP PUSH2 0x1685 DUP3 DUP3 PUSH2 0x17F0 JUMP JUMPDEST SWAP2 SWAP1 POP JUMP JUMPDEST PUSH1 0x0 PUSH1 0x40 MLOAD SWAP1 POP SWAP1 JUMP JUMPDEST PUSH1 0x0 PUSH8 0xFFFFFFFFFFFFFFFF DUP3 GT ISZERO PUSH2 0x16AF JUMPI PUSH2 0x16AE PUSH2 0x1850 JUMP JUMPDEST JUMPDEST PUSH2 0x16B8 DUP3 PUSH2 0x187F JUMP JUMPDEST SWAP1 POP PUSH1 0x20 DUP2 ADD SWAP1 POP SWAP2 SWAP1 POP JUMP JUMPDEST PUSH1 0x0 DUP2 MLOAD SWAP1 POP SWAP2 SWAP1 POP JUMP JUMPDEST PUSH1 0x0 DUP2 MLOAD SWAP1 POP SWAP2 SWAP1 POP JUMP JUMPDEST PUSH1 0x0 DUP3 DUP3 MSTORE PUSH1 0x20 DUP3 ADD SWAP1 POP SWAP3 SWAP2 POP POP JUMP JUMPDEST PUSH1 0x0 DUP3 DUP3 MSTORE PUSH1 0x20 DUP3 ADD SWAP1 POP SWAP3 SWAP2 POP POP JUMP JUMPDEST PUSH1 0x0 DUP2 SWAP1 POP SWAP3 SWAP2 POP POP JUMP JUMPDEST PUSH1 0x0 PUSH2 0x1713 DUP3 PUSH2 0x1752 JUMP JUMPDEST SWAP1 POP SWAP2 SWAP1 POP JUMP JUMPDEST PUSH1 0x0 DUP2 ISZERO ISZERO SWAP1 POP SWAP2 SWAP1 POP JUMP JUMPDEST PUSH1 0x0 PUSH32 0xFFFFFFFF00000000000000000000000000000000000000000000000000000000 DUP3 AND SWAP1 POP SWAP2 SWAP1 POP JUMP JUMPDEST PUSH1 0x0 PUSH20 0xFFFFFFFFFFFFFFFFFFFFFFFFFFFFFFFFFFFFFFFF DUP3 AND SWAP1 POP SWAP2 SWAP1 POP JUMP JUMPDEST PUSH1 0x0 DUP2 SWAP1 POP SWAP2 SWAP1 POP JUMP JUMPDEST DUP3 DUP2 DUP4 CALLDATACOPY PUSH1 0x0 DUP4 DUP4 ADD MSTORE POP POP POP JUMP JUMPDEST PUSH1 0x0 JUMPDEST DUP4 DUP2 LT ISZERO PUSH2 0x17A9 JUMPI DUP1 DUP3 ADD MLOAD DUP2 DUP5 ADD MSTORE PUSH1 0x20 DUP2 ADD SWAP1 POP PUSH2 0x178E JUMP JUMPDEST DUP4 DUP2 GT ISZERO PUSH2 0x17B8 JUMPI PUSH1 0x0 DUP5 DUP5 ADD MSTORE JUMPDEST POP POP POP POP JUMP JUMPDEST PUSH1 0x0 PUSH1 0x2 DUP3 DIV SWAP1 POP PUSH1 0x1 DUP3 AND DUP1 PUSH2 0x17D6 JUMPI PUSH1 0x7F DUP3 AND SWAP2 POP JUMPDEST PUSH1 0x20 DUP3 LT DUP2 EQ ISZERO PUSH2 0x17EA JUMPI PUSH2 0x17E9 PUSH2 0x1821 JUMP JUMPDEST JUMPDEST POP SWAP2 SWAP1 POP JUMP JUMPDEST PUSH2 0x17F9 DUP3 PUSH2 0x187F JUMP JUMPDEST DUP2 ADD DUP2 DUP2 LT PUSH8 0xFFFFFFFFFFFFFFFF DUP3 GT OR ISZERO PUSH2 0x1818 JUMPI PUSH2 0x1817 PUSH2 0x1850 JUMP JUMPDEST JUMPDEST DUP1 PUSH1 0x40 MSTORE POP POP POP JUMP JUMPDEST PUSH32 0x4E487B7100000000000000000000000000000000000000000000000000000000 PUSH1 0x0 MSTORE PUSH1 0x22 PUSH1 0x4 MSTORE PUSH1 0x24 PUSH1 0x0 REVERT JUMPDEST PUSH32 0x4E487B7100000000000000000000000000000000000000000000000000000000 PUSH1 0x0 MSTORE PUSH1 0x41 PUSH1 0x4 MSTORE PUSH1 0x24 PUSH1 0x0 REVERT JUMPDEST PUSH1 0x0 PUSH1 0x1F NOT PUSH1 0x1F DUP4 ADD AND SWAP1 POP SWAP2 SWAP1 POP JUMP JUMPDEST PUSH2 0x1899 DUP2 PUSH2 0x1708 JUMP JUMPDEST DUP2 EQ PUSH2 0x18A4 JUMPI PUSH1 0x0 DUP1 REVERT JUMPDEST POP JUMP JUMPDEST PUSH2 0x18B0 DUP2 PUSH2 0x171A JUMP JUMPDEST DUP2 EQ PUSH2 0x18BB JUMPI PUSH1 0x0 DUP1 REVERT JUMPDEST POP JUMP JUMPDEST PUSH2 0x18C7 DUP2 PUSH2 0x1726 JUMP JUMPDEST DUP2 EQ PUSH2 0x18D2 JUMPI PUSH1 0x0 DUP1 REVERT JUMPDEST POP JUMP JUMPDEST PUSH2 0x18DE DUP2 PUSH2 0x1772 JUMP JUMPDEST DUP2 EQ PUSH2 0x18E9 JUMPI PUSH1 0x0 DUP1 REVERT JUMPDEST POP JUMP INVALID LOG2 PUSH5 0x6970667358 0x22 SLT KECCAK256 REVERT PUSH17 0x5E5F4E8C4A6C9665E701B73455C0BFC90F SWAP3 0xB5 0xAB BLOCKHASH 0xF9 SWAP11 0x25 0xA8 0x48 PUSH13 0xAEB4F64736F6C634300080400 CALLER "
				},
				"gasEstimates": {
					"creation": {
						"codeDepositCost": "1286800",
						"executionCost": "infinite",
						"totalCost": "infinite"
					},
					"external": {
						"approve(address,uint256)": "infinite",
						"balanceOf(address)": "1630",
						"getApproved(uint256)": "3475",
						"isApprovedForAll(address,address)": "infinite",
						"name()": "infinite",
						"ownerOf(uint256)": "infinite",
						"safeTransferFrom(address,address,uint256)": "infinite",
						"safeTransferFrom(address,address,uint256,bytes)": "infinite",
						"setApprovalForAll(address,bool)": "infinite",
						"supportsInterface(bytes4)": "745",
						"symbol()": "infinite",
						"tokenURI(uint256)": "2945",
						"totalSupply()": "2021",
						"transferFrom(address,address,uint256)": "infinite"
					},
					"internal": {
						"_addressToUint256(address)": "28",
						"_afterTokenTransfers(address,address,uint256,uint256)": "17",
						"_baseURI()": "infinite",
						"_beforeTokenTransfers(address,address,uint256,uint256)": "17",
						"_boolToUint256(bool)": "infinite",
						"_burn(uint256)": "infinite",
						"_burn(uint256,bool)": "infinite",
						"_checkContractOnERC721Received(address,address,uint256,bytes memory)": "infinite",
						"_exists(uint256)": "1816",
						"_getAux(address)": "infinite",
						"_initializeOwnershipAt(uint256)": "infinite",
						"_mint(address,uint256)": "infinite",
						"_msgSenderERC721A()": "22",
						"_nextTokenId()": "infinite",
						"_numberBurned(address)": "infinite",
						"_numberMinted(address)": "infinite",
						"_ownershipAt(uint256)": "infinite",
						"_ownershipOf(uint256)": "infinite",
						"_packedOwnershipOf(uint256)": "infinite",
						"_safeMint(address,uint256)": "infinite",
						"_safeMint(address,uint256,bytes memory)": "infinite",
						"_setAux(address,uint64)": "infinite",
						"_startTokenId()": "15",
						"_toString(uint256)": "infinite",
						"_totalBurned()": "infinite",
						"_totalMinted()": "infinite",
						"_transfer(address,address,uint256)": "infinite",
						"_unpackedOwnership(uint256)": "infinite"
					}
				},
				"methodIdentifiers": {
					"approve(address,uint256)": "095ea7b3",
					"balanceOf(address)": "70a08231",
					"getApproved(uint256)": "081812fc",
					"isApprovedForAll(address,address)": "e985e9c5",
					"name()": "06fdde03",
					"ownerOf(uint256)": "6352211e",
					"safeTransferFrom(address,address,uint256)": "42842e0e",
					"safeTransferFrom(address,address,uint256,bytes)": "b88d4fde",
					"setApprovalForAll(address,bool)": "a22cb465",
					"supportsInterface(bytes4)": "01ffc9a7",
					"symbol()": "95d89b41",
					"tokenURI(uint256)": "c87b56dd",
					"totalSupply()": "18160ddd",
					"transferFrom(address,address,uint256)": "23b872dd"
				}
			},
			"storageLayout": {
				"storage": [
					{
						"astId": 63,
						"contract": "ERC721A.sol:ERC721A",
						"label": "_currentIndex",
						"offset": 0,
						"slot": "0",
						"type": "t_uint256"
					},
					{
						"astId": 65,
						"contract": "ERC721A.sol:ERC721A",
						"label": "_burnCounter",
						"offset": 0,
						"slot": "1",
						"type": "t_uint256"
					},
					{
						"astId": 67,
						"contract": "ERC721A.sol:ERC721A",
						"label": "_name",
						"offset": 0,
						"slot": "2",
						"type": "t_string_storage"
					},
					{
						"astId": 69,
						"contract": "ERC721A.sol:ERC721A",
						"label": "_symbol",
						"offset": 0,
						"slot": "3",
						"type": "t_string_storage"
					},
					{
						"astId": 73,
						"contract": "ERC721A.sol:ERC721A",
						"label": "_packedOwnerships",
						"offset": 0,
						"slot": "4",
						"type": "t_mapping(t_uint256,t_uint256)"
					},
					{
						"astId": 77,
						"contract": "ERC721A.sol:ERC721A",
						"label": "_packedAddressData",
						"offset": 0,
						"slot": "5",
						"type": "t_mapping(t_address,t_uint256)"
					},
					{
						"astId": 81,
						"contract": "ERC721A.sol:ERC721A",
						"label": "_tokenApprovals",
						"offset": 0,
						"slot": "6",
						"type": "t_mapping(t_uint256,t_address)"
					},
					{
						"astId": 87,
						"contract": "ERC721A.sol:ERC721A",
						"label": "_operatorApprovals",
						"offset": 0,
						"slot": "7",
						"type": "t_mapping(t_address,t_mapping(t_address,t_bool))"
					}
				],
				"types": {
					"t_address": {
						"encoding": "inplace",
						"label": "address",
						"numberOfBytes": "20"
					},
					"t_bool": {
						"encoding": "inplace",
						"label": "bool",
						"numberOfBytes": "1"
					},
					"t_mapping(t_address,t_bool)": {
						"encoding": "mapping",
						"key": "t_address",
						"label": "mapping(address => bool)",
						"numberOfBytes": "32",
						"value": "t_bool"
					},
					"t_mapping(t_address,t_mapping(t_address,t_bool))": {
						"encoding": "mapping",
						"key": "t_address",
						"label": "mapping(address => mapping(address => bool))",
						"numberOfBytes": "32",
						"value": "t_mapping(t_address,t_bool)"
					},
					"t_mapping(t_address,t_uint256)": {
						"encoding": "mapping",
						"key": "t_address",
						"label": "mapping(address => uint256)",
						"numberOfBytes": "32",
						"value": "t_uint256"
					},
					"t_mapping(t_uint256,t_address)": {
						"encoding": "mapping",
						"key": "t_uint256",
						"label": "mapping(uint256 => address)",
						"numberOfBytes": "32",
						"value": "t_address"
					},
					"t_mapping(t_uint256,t_uint256)": {
						"encoding": "mapping",
						"key": "t_uint256",
						"label": "mapping(uint256 => uint256)",
						"numberOfBytes": "32",
						"value": "t_uint256"
					},
					"t_string_storage": {
						"encoding": "bytes",
						"label": "string",
						"numberOfBytes": "32"
					},
					"t_uint256": {
						"encoding": "inplace",
						"label": "uint256",
						"numberOfBytes": "32"
					}
				}
			},
			"userdoc": {
				"errors": {
					"ApprovalCallerNotOwnerNorApproved()": [
						{
							"notice": "The caller must own the token or be an approved operator."
						}
					],
					"ApprovalQueryForNonexistentToken()": [
						{
							"notice": "The token does not exist."
						}
					],
					"ApprovalToCurrentOwner()": [
						{
							"notice": "The caller cannot approve to the current owner."
						}
					],
					"ApproveToCaller()": [
						{
							"notice": "The caller cannot approve to their own address."
						}
					],
					"BalanceQueryForZeroAddress()": [
						{
							"notice": "Cannot query the balance for the zero address."
						}
					],
					"MintToZeroAddress()": [
						{
							"notice": "Cannot mint to the zero address."
						}
					],
					"MintZeroQuantity()": [
						{
							"notice": "The quantity of tokens minted must be more than zero."
						}
					],
					"OwnerQueryForNonexistentToken()": [
						{
							"notice": "The token does not exist."
						}
					],
					"TransferCallerNotOwnerNorApproved()": [
						{
							"notice": "The caller must own the token or be an approved operator."
						}
					],
					"TransferFromIncorrectOwner()": [
						{
							"notice": "The token must be owned by `from`."
						}
					],
					"TransferToNonERC721ReceiverImplementer()": [
						{
							"notice": "Cannot safely transfer to a contract that does not implement the ERC721Receiver interface."
						}
					],
					"TransferToZeroAddress()": [
						{
							"notice": "Cannot transfer to the zero address."
						}
					],
					"URIQueryForNonexistentToken()": [
						{
							"notice": "The token does not exist."
						}
					]
				},
				"kind": "user",
				"methods": {},
				"version": 1
			}
		}
	}
}