{
	"bulkNFTminter.sol": {
		"NftMinter": {
			"abi": [
				{
					"inputs": [],
					"stateMutability": "nonpayable",
					"type": "constructor"
				},
				{
					"inputs": [],
					"name": "ApprovalCallerNotOwnerNorApproved",
					"type": "error"
				},
				{
					"inputs": [],
					"name": "ApprovalQueryForNonexistentToken",
					"type": "error"
				},
				{
					"inputs": [],
					"name": "ApprovalToCurrentOwner",
					"type": "error"
				},
				{
					"inputs": [],
					"name": "ApproveToCaller",
					"type": "error"
				},
				{
					"inputs": [],
					"name": "BalanceQueryForZeroAddress",
					"type": "error"
				},
				{
					"inputs": [],
					"name": "MintToZeroAddress",
					"type": "error"
				},
				{
					"inputs": [],
					"name": "MintZeroQuantity",
					"type": "error"
				},
				{
					"inputs": [],
					"name": "OwnerQueryForNonexistentToken",
					"type": "error"
				},
				{
					"inputs": [],
					"name": "TransferCallerNotOwnerNorApproved",
					"type": "error"
				},
				{
					"inputs": [],
					"name": "TransferFromIncorrectOwner",
					"type": "error"
				},
				{
					"inputs": [],
					"name": "TransferToNonERC721ReceiverImplementer",
					"type": "error"
				},
				{
					"inputs": [],
					"name": "TransferToZeroAddress",
					"type": "error"
				},
				{
					"inputs": [],
					"name": "URIQueryForNonexistentToken",
					"type": "error"
				},
				{
					"anonymous": false,
					"inputs": [
						{
							"indexed": true,
							"internalType": "address",
							"name": "owner",
							"type": "address"
						},
						{
							"indexed": true,
							"internalType": "address",
							"name": "approved",
							"type": "address"
						},
						{
							"indexed": true,
							"internalType": "uint256",
							"name": "tokenId",
							"type": "uint256"
						}
					],
					"name": "Approval",
					"type": "event"
				},
				{
					"anonymous": false,
					"inputs": [
						{
							"indexed": true,
							"internalType": "address",
							"name": "owner",
							"type": "address"
						},
						{
							"indexed": true,
							"internalType": "address",
							"name": "operator",
							"type": "address"
						},
						{
							"indexed": false,
							"internalType": "bool",
							"name": "approved",
							"type": "bool"
						}
					],
					"name": "ApprovalForAll",
					"type": "event"
				},
				{
					"anonymous": false,
					"inputs": [
						{
							"indexed": true,
							"internalType": "address",
							"name": "previousOwner",
							"type": "address"
						},
						{
							"indexed": true,
							"internalType": "address",
							"name": "newOwner",
							"type": "address"
						}
					],
					"name": "OwnershipTransferred",
					"type": "event"
				},
				{
					"anonymous": false,
					"inputs": [
						{
							"indexed": true,
							"internalType": "address",
							"name": "from",
							"type": "address"
						},
						{
							"indexed": true,
							"internalType": "address",
							"name": "to",
							"type": "address"
						},
						{
							"indexed": true,
							"internalType": "uint256",
							"name": "tokenId",
							"type": "uint256"
						}
					],
					"name": "Transfer",
					"type": "event"
				},
				{
					"inputs": [
						{
							"internalType": "address",
							"name": "to",
							"type": "address"
						},
						{
							"internalType": "uint256",
							"name": "tokenId",
							"type": "uint256"
						}
					],
					"name": "approve",
					"outputs": [],
					"stateMutability": "nonpayable",
					"type": "function"
				},
				{
					"inputs": [
						{
							"internalType": "address",
							"name": "owner",
							"type": "address"
						}
					],
					"name": "balanceOf",
					"outputs": [
						{
							"internalType": "uint256",
							"name": "",
							"type": "uint256"
						}
					],
					"stateMutability": "view",
					"type": "function"
				},
				{
					"inputs": [
						{
							"internalType": "uint256",
							"name": "tokenId",
							"type": "uint256"
						}
					],
					"name": "getApproved",
					"outputs": [
						{
							"internalType": "address",
							"name": "",
							"type": "address"
						}
					],
					"stateMutability": "view",
					"type": "function"
				},
				{
					"inputs": [
						{
							"internalType": "address",
							"name": "owner",
							"type": "address"
						},
						{
							"internalType": "address",
							"name": "operator",
							"type": "address"
						}
					],
					"name": "isApprovedForAll",
					"outputs": [
						{
							"internalType": "bool",
							"name": "",
							"type": "bool"
						}
					],
					"stateMutability": "view",
					"type": "function"
				},
				{
					"inputs": [
						{
							"internalType": "address",
							"name": "to",
							"type": "address"
						},
						{
							"internalType": "uint256",
							"name": "quantity",
							"type": "uint256"
						}
					],
					"name": "mint",
					"outputs": [],
					"stateMutability": "nonpayable",
					"type": "function"
				},
				{
					"inputs": [],
					"name": "name",
					"outputs": [
						{
							"internalType": "string",
							"name": "",
							"type": "string"
						}
					],
					"stateMutability": "view",
					"type": "function"
				},
				{
					"inputs": [],
					"name": "owner",
					"outputs": [
						{
							"internalType": "address",
							"name": "",
							"type": "address"
						}
					],
					"stateMutability": "view",
					"type": "function"
				},
				{
					"inputs": [
						{
							"internalType": "uint256",
							"name": "tokenId",
							"type": "uint256"
						}
					],
					"name": "ownerOf",
					"outputs": [
						{
							"internalType": "address",
							"name": "",
							"type": "address"
						}
					],
					"stateMutability": "view",
					"type": "function"
				},
				{
					"inputs": [],
					"name": "renounceOwnership",
					"outputs": [],
					"stateMutability": "nonpayable",
					"type": "function"
				},
				{
					"inputs": [
						{
							"internalType": "address",
							"name": "from",
							"type": "address"
						},
						{
							"internalType": "address",
							"name": "to",
							"type": "address"
						},
						{
							"internalType": "uint256",
							"name": "tokenId",
							"type": "uint256"
						}
					],
					"name": "safeTransferFrom",
					"outputs": [],
					"stateMutability": "nonpayable",
					"type": "function"
				},
				{
					"inputs": [
						{
							"internalType": "address",
							"name": "from",
							"type": "address"
						},
						{
							"internalType": "address",
							"name": "to",
							"type": "address"
						},
						{
							"internalType": "uint256",
							"name": "tokenId",
							"type": "uint256"
						},
						{
							"internalType": "bytes",
							"name": "_data",
							"type": "bytes"
						}
					],
					"name": "safeTransferFrom",
					"outputs": [],
					"stateMutability": "nonpayable",
					"type": "function"
				},
				{
					"inputs": [
						{
							"internalType": "address",
							"name": "operator",
							"type": "address"
						},
						{
							"internalType": "bool",
							"name": "approved",
							"type": "bool"
						}
					],
					"name": "setApprovalForAll",
					"outputs": [],
					"stateMutability": "nonpayable",
					"type": "function"
				},
				{
					"inputs": [
						{
							"internalType": "bytes4",
							"name": "interfaceId",
							"type": "bytes4"
						}
					],
					"name": "supportsInterface",
					"outputs": [
						{
							"internalType": "bool",
							"name": "",
							"type": "bool"
						}
					],
					"stateMutability": "view",
					"type": "function"
				},
				{
					"inputs": [],
					"name": "symbol",
					"outputs": [
						{
							"internalType": "string",
							"name": "",
							"type": "string"
						}
					],
					"stateMutability": "view",
					"type": "function"
				},
				{
					"inputs": [
						{
							"internalType": "uint256",
							"name": "tokenId",
							"type": "uint256"
						}
					],
					"name": "tokenURI",
					"outputs": [
						{
							"internalType": "string",
							"name": "",
							"type": "string"
						}
					],
					"stateMutability": "view",
					"type": "function"
				},
				{
					"inputs": [],
					"name": "totalSupply",
					"outputs": [
						{
							"internalType": "uint256",
							"name": "",
							"type": "uint256"
						}
					],
					"stateMutability": "view",
					"type": "function"
				},
				{
					"inputs": [
						{
							"internalType": "address",
							"name": "from",
							"type": "address"
						},
						{
							"internalType": "address",
							"name": "to",
							"type": "address"
						},
						{
							"internalType": "uint256",
							"name": "tokenId",
							"type": "uint256"
						}
					],
					"name": "transferFrom",
					"outputs": [],
					"stateMutability": "nonpayable",
					"type": "function"
				},
				{
					"inputs": [
						{
							"internalType": "address",
							"name": "newOwner",
							"type": "address"
						}
					],
					"name": "transferOwnership",
					"outputs": [],
					"stateMutability": "nonpayable",
					"type": "function"
				}
			],
			"devdoc": {
				"kind": "dev",
				"methods": {
					"approve(address,uint256)": {
						"details": "See {IERC721-approve}."
					},
					"balanceOf(address)": {
						"details": "See {IERC721-balanceOf}."
					},
					"getApproved(uint256)": {
						"details": "See {IERC721-getApproved}."
					},
					"isApprovedForAll(address,address)": {
						"details": "See {IERC721-isApprovedForAll}."
					},
					"name()": {
						"details": "See {IERC721Metadata-name}."
					},
					"owner()": {
						"details": "Returns the address of the current owner."
					},
					"ownerOf(uint256)": {
						"details": "See {IERC721-ownerOf}."
					},
					"renounceOwnership()": {
						"details": "Leaves the contract without owner. It will not be possible to call `onlyOwner` functions anymore. Can only be called by the current owner. NOTE: Renouncing ownership will leave the contract without an owner, thereby removing any functionality that is only available to the owner."
					},
					"safeTransferFrom(address,address,uint256)": {
						"details": "See {IERC721-safeTransferFrom}."
					},
					"safeTransferFrom(address,address,uint256,bytes)": {
						"details": "See {IERC721-safeTransferFrom}."
					},
					"setApprovalForAll(address,bool)": {
						"details": "See {IERC721-setApprovalForAll}."
					},
					"supportsInterface(bytes4)": {
						"details": "See {IERC165-supportsInterface}."
					},
					"symbol()": {
						"details": "See {IERC721Metadata-symbol}."
					},
					"tokenURI(uint256)": {
						"details": "See {IERC721Metadata-tokenURI}."
					},
					"totalSupply()": {
						"details": "Returns the total number of tokens in existence. Burned tokens will reduce the count.  To get the total number of tokens minted, please see `_totalMinted`."
					},
					"transferFrom(address,address,uint256)": {
						"details": "See {IERC721-transferFrom}."
					},
					"transferOwnership(address)": {
						"details": "Transfers ownership of the contract to a new account (`newOwner`). Can only be called by the current owner."
					}
				},
				"version": 1
			},
			"evm": {
				"assembly": "    /* \"bulkNFTminter.sol\":142:480  contract NftMinter is ERC721A, Ownable {... */\n  mstore(0x40, 0x80)\n    /* \"bulkNFTminter.sol\":185:225  constructor() ERC721A(\"Sword\", \"SWD\") {} */\n  callvalue\n  dup1\n  iszero\n  tag_1\n  jumpi\n  0x00\n  dup1\n  revert\ntag_1:\n  pop\n    /* \"ERC721A.sol\":3211:3365  constructor(string memory name_, string memory symbol_) {... */\n  mload(0x40)\n  dup1\n  0x40\n  add\n  0x40\n  mstore\n  dup1\n  0x05\n  dup2\n  mstore\n  0x20\n  add\n  0x53776f7264000000000000000000000000000000000000000000000000000000\n  dup2\n  mstore\n  pop\n  mload(0x40)\n  dup1\n  0x40\n  add\n  0x40\n  mstore\n  dup1\n  0x03\n  dup2\n  mstore\n  0x20\n  add\n  0x5357440000000000000000000000000000000000000000000000000000000000\n  dup2\n  mstore\n  pop\n    /* \"ERC721A.sol\":3285:3290  name_ */\n  dup2\n    /* \"ERC721A.sol\":3277:3282  _name */\n  0x02\n    /* \"ERC721A.sol\":3277:3290  _name = name_ */\n  swap1\n  dup1\n  mload\n  swap1\n  0x20\n  add\n  swap1\n  tag_6\n  swap3\n  swap2\n  swap1\n  tag_7\n  jump\t// in\ntag_6:\n  pop\n    /* \"ERC721A.sol\":3310:3317  symbol_ */\n  dup1\n    /* \"ERC721A.sol\":3300:3307  _symbol */\n  0x03\n    /* \"ERC721A.sol\":3300:3317  _symbol = symbol_ */\n  swap1\n  dup1\n  mload\n  swap1\n  0x20\n  add\n  swap1\n  tag_8\n  swap3\n  swap2\n  swap1\n  tag_7\n  jump\t// in\ntag_8:\n  pop\n    /* \"ERC721A.sol\":3343:3358  _startTokenId() */\n  tag_9\n    /* \"ERC721A.sol\":3343:3356  _startTokenId */\n  shl(0x20, tag_10)\n    /* \"ERC721A.sol\":3343:3358  _startTokenId() */\n  0x20\n  shr\n  jump\t// in\ntag_9:\n    /* \"ERC721A.sol\":3327:3340  _currentIndex */\n  0x00\n    /* \"ERC721A.sol\":3327:3358  _currentIndex = _startTokenId() */\n  dup2\n  swap1\n  sstore\n  pop\n    /* \"ERC721A.sol\":3211:3365  constructor(string memory name_, string memory symbol_) {... */\n  pop\n  pop\n    /* \"@openzeppelin/contracts@4.6.0/access/Ownable.sol\":921:953  _transferOwnership(_msgSender()) */\n  tag_12\n    /* \"@openzeppelin/contracts@4.6.0/access/Ownable.sol\":940:952  _msgSender() */\n  tag_13\n    /* \"@openzeppelin/contracts@4.6.0/access/Ownable.sol\":940:950  _msgSender */\n  shl(0x20, tag_14)\n    /* \"@openzeppelin/contracts@4.6.0/access/Ownable.sol\":940:952  _msgSender() */\n  0x20\n  shr\n  jump\t// in\ntag_13:\n    /* \"@openzeppelin/contracts@4.6.0/access/Ownable.sol\":921:939  _transferOwnership */\n  shl(0x20, tag_15)\n    /* \"@openzeppelin/contracts@4.6.0/access/Ownable.sol\":921:953  _transferOwnership(_msgSender()) */\n  0x20\n  shr\n  jump\t// in\ntag_12:\n    /* \"bulkNFTminter.sol\":142:480  contract NftMinter is ERC721A, Ownable {... */\n  jump(tag_17)\n    /* \"ERC721A.sol\":3502:3592  function _startTokenId() internal view virtual returns (uint256) {... */\ntag_10:\n    /* \"ERC721A.sol\":3558:3565  uint256 */\n  0x00\n    /* \"ERC721A.sol\":3502:3592  function _startTokenId() internal view virtual returns (uint256) {... */\n  swap1\n  jump\t// out\n    /* \"@openzeppelin/contracts@4.6.0/utils/Context.sol\":640:736  function _msgSender() internal view virtual returns (address) {... */\ntag_14:\n    /* \"@openzeppelin/contracts@4.6.0/utils/Context.sol\":693:700  address */\n  0x00\n    /* \"@openzeppelin/contracts@4.6.0/utils/Context.sol\":719:729  msg.sender */\n  caller\n    /* \"@openzeppelin/contracts@4.6.0/utils/Context.sol\":712:729  return msg.sender */\n  swap1\n  pop\n    /* \"@openzeppelin/contracts@4.6.0/utils/Context.sol\":640:736  function _msgSender() internal view virtual returns (address) {... */\n  swap1\n  jump\t// out\n    /* \"@openzeppelin/contracts@4.6.0/access/Ownable.sol\":2270:2457  function _transferOwnership(address newOwner) internal virtual {... */\ntag_15:\n    /* \"@openzeppelin/contracts@4.6.0/access/Ownable.sol\":2343:2359  address oldOwner */\n  0x00\n    /* \"@openzeppelin/contracts@4.6.0/access/Ownable.sol\":2362:2368  _owner */\n  0x08\n  0x00\n  swap1\n  sload\n  swap1\n  0x0100\n  exp\n  swap1\n  div\n  0xffffffffffffffffffffffffffffffffffffffff\n  and\n    /* \"@openzeppelin/contracts@4.6.0/access/Ownable.sol\":2343:2368  address oldOwner = _owner */\n  swap1\n  pop\n    /* \"@openzeppelin/contracts@4.6.0/access/Ownable.sol\":2387:2395  newOwner */\n  dup2\n    /* \"@openzeppelin/contracts@4.6.0/access/Ownable.sol\":2378:2384  _owner */\n  0x08\n  0x00\n    /* \"@openzeppelin/contracts@4.6.0/access/Ownable.sol\":2378:2395  _owner = newOwner */\n  0x0100\n  exp\n  dup2\n  sload\n  dup2\n  0xffffffffffffffffffffffffffffffffffffffff\n  mul\n  not\n  and\n  swap1\n  dup4\n  0xffffffffffffffffffffffffffffffffffffffff\n  and\n  mul\n  or\n  swap1\n  sstore\n  pop\n    /* \"@openzeppelin/contracts@4.6.0/access/Ownable.sol\":2441:2449  newOwner */\n  dup2\n    /* \"@openzeppelin/contracts@4.6.0/access/Ownable.sol\":2410:2450  OwnershipTransferred(oldOwner, newOwner) */\n  0xffffffffffffffffffffffffffffffffffffffff\n  and\n    /* \"@openzeppelin/contracts@4.6.0/access/Ownable.sol\":2431:2439  oldOwner */\n  dup2\n    /* \"@openzeppelin/contracts@4.6.0/access/Ownable.sol\":2410:2450  OwnershipTransferred(oldOwner, newOwner) */\n  0xffffffffffffffffffffffffffffffffffffffff\n  and\n  0x8be0079c531659141344cd1fd0a4f28419497f9722a3daafe3b4186f6b6457e0\n  mload(0x40)\n  mload(0x40)\n  dup1\n  swap2\n  sub\n  swap1\n  log3\n    /* \"@openzeppelin/contracts@4.6.0/access/Ownable.sol\":2270:2457  function _transferOwnership(address newOwner) internal virtual {... */\n  pop\n  pop\n  jump\t// out\n    /* \"bulkNFTminter.sol\":142:480  contract NftMinter is ERC721A, Ownable {... */\ntag_7:\n  dup3\n  dup1\n  sload\n  tag_21\n  swap1\n  tag_22\n  jump\t// in\ntag_21:\n  swap1\n  0x00\n  mstore\n  keccak256(0x00, 0x20)\n  swap1\n  0x1f\n  add\n  0x20\n  swap1\n  div\n  dup2\n  add\n  swap3\n  dup3\n  tag_24\n  jumpi\n  0x00\n  dup6\n  sstore\n  jump(tag_23)\ntag_24:\n  dup3\n  0x1f\n  lt\n  tag_25\n  jumpi\n  dup1\n  mload\n  not(0xff)\n  and\n  dup4\n  dup1\n  add\n  or\n  dup6\n  sstore\n  jump(tag_23)\ntag_25:\n  dup3\n  dup1\n  add\n  0x01\n  add\n  dup6\n  sstore\n  dup3\n  iszero\n  tag_23\n  jumpi\n  swap2\n  dup3\n  add\ntag_26:\n  dup3\n  dup2\n  gt\n  iszero\n  tag_27\n  jumpi\n  dup3\n  mload\n  dup3\n  sstore\n  swap2\n  0x20\n  add\n  swap2\n  swap1\n  0x01\n  add\n  swap1\n  jump(tag_26)\ntag_27:\ntag_23:\n  pop\n  swap1\n  pop\n  tag_28\n  swap2\n  swap1\n  tag_29\n  jump\t// in\ntag_28:\n  pop\n  swap1\n  jump\t// out\ntag_29:\ntag_30:\n  dup1\n  dup3\n  gt\n  iszero\n  tag_31\n  jumpi\n  0x00\n  dup2\n  0x00\n  swap1\n  sstore\n  pop\n  0x01\n  add\n  jump(tag_30)\ntag_31:\n  pop\n  swap1\n  jump\t// out\n    /* \"#utility.yul\":7:327   */\ntag_22:\n    /* \"#utility.yul\":51:57   */\n  0x00\n    /* \"#utility.yul\":88:89   */\n  0x02\n    /* \"#utility.yul\":82:86   */\n  dup3\n    /* \"#utility.yul\":78:90   */\n  div\n    /* \"#utility.yul\":68:90   */\n  swap1\n  pop\n    /* \"#utility.yul\":135:136   */\n  0x01\n    /* \"#utility.yul\":129:133   */\n  dup3\n    /* \"#utility.yul\":125:137   */\n  and\n    /* \"#utility.yul\":156:174   */\n  dup1\n    /* \"#utility.yul\":146:148   */\n  tag_34\n  jumpi\n    /* \"#utility.yul\":212:216   */\n  0x7f\n    /* \"#utility.yul\":204:210   */\n  dup3\n    /* \"#utility.yul\":200:217   */\n  and\n    /* \"#utility.yul\":190:217   */\n  swap2\n  pop\n    /* \"#utility.yul\":146:148   */\ntag_34:\n    /* \"#utility.yul\":274:276   */\n  0x20\n    /* \"#utility.yul\":266:272   */\n  dup3\n    /* \"#utility.yul\":263:277   */\n  lt\n    /* \"#utility.yul\":243:261   */\n  dup2\n    /* \"#utility.yul\":240:278   */\n  eq\n    /* \"#utility.yul\":237:239   */\n  iszero\n  tag_35\n  jumpi\n    /* \"#utility.yul\":293:311   */\n  tag_36\n  tag_37\n  jump\t// in\ntag_36:\n    /* \"#utility.yul\":237:239   */\ntag_35:\n    /* \"#utility.yul\":58:327   */\n  pop\n  swap2\n  swap1\n  pop\n  jump\t// out\n    /* \"#utility.yul\":333:513   */\ntag_37:\n    /* \"#utility.yul\":381:458   */\n  0x4e487b7100000000000000000000000000000000000000000000000000000000\n    /* \"#utility.yul\":378:379   */\n  0x00\n    /* \"#utility.yul\":371:459   */\n  mstore\n    /* \"#utility.yul\":478:482   */\n  0x22\n    /* \"#utility.yul\":475:476   */\n  0x04\n    /* \"#utility.yul\":468:483   */\n  mstore\n    /* \"#utility.yul\":502:506   */\n  0x24\n    /* \"#utility.yul\":499:500   */\n  0x00\n    /* \"#utility.yul\":492:507   */\n  revert\n    /* \"bulkNFTminter.sol\":142:480  contract NftMinter is ERC721A, Ownable {... */\ntag_17:\n  dataSize(sub_0)\n  dup1\n  dataOffset(sub_0)\n  0x00\n  codecopy\n  0x00\n  return\nstop\n\nsub_0: assembly {\n        /* \"bulkNFTminter.sol\":142:480  contract NftMinter is ERC721A, Ownable {... */\n      mstore(0x40, 0x80)\n      callvalue\n      dup1\n      iszero\n      tag_1\n      jumpi\n      0x00\n      dup1\n      revert\n    tag_1:\n      pop\n      jumpi(tag_2, lt(calldatasize, 0x04))\n      shr(0xe0, calldataload(0x00))\n      dup1\n      0x70a08231\n      gt\n      tag_21\n      jumpi\n      dup1\n      0xa22cb465\n      gt\n      tag_22\n      jumpi\n      dup1\n      0xa22cb465\n      eq\n      tag_16\n      jumpi\n      dup1\n      0xb88d4fde\n      eq\n      tag_17\n      jumpi\n      dup1\n      0xc87b56dd\n      eq\n      tag_18\n      jumpi\n      dup1\n      0xe985e9c5\n      eq\n      tag_19\n      jumpi\n      dup1\n      0xf2fde38b\n      eq\n      tag_20\n      jumpi\n      jump(tag_2)\n    tag_22:\n      dup1\n      0x70a08231\n      eq\n      tag_12\n      jumpi\n      dup1\n      0x715018a6\n      eq\n      tag_13\n      jumpi\n      dup1\n      0x8da5cb5b\n      eq\n      tag_14\n      jumpi\n      dup1\n      0x95d89b41\n      eq\n      tag_15\n      jumpi\n      jump(tag_2)\n    tag_21:\n      dup1\n      0x18160ddd\n      gt\n      tag_23\n      jumpi\n      dup1\n      0x18160ddd\n      eq\n      tag_7\n      jumpi\n      dup1\n      0x23b872dd\n      eq\n      tag_8\n      jumpi\n      dup1\n      0x40c10f19\n      eq\n      tag_9\n      jumpi\n      dup1\n      0x42842e0e\n      eq\n      tag_10\n      jumpi\n      dup1\n      0x6352211e\n      eq\n      tag_11\n      jumpi\n      jump(tag_2)\n    tag_23:\n      dup1\n      0x01ffc9a7\n      eq\n      tag_3\n      jumpi\n      dup1\n      0x06fdde03\n      eq\n      tag_4\n      jumpi\n      dup1\n      0x081812fc\n      eq\n      tag_5\n      jumpi\n      dup1\n      0x095ea7b3\n      eq\n      tag_6\n      jumpi\n    tag_2:\n      0x00\n      dup1\n      revert\n        /* \"ERC721A.sol\":4880:5487  function supportsInterface(bytes4 interfaceId) public view virtual override returns (bool) {... */\n    tag_3:\n      tag_24\n      0x04\n      dup1\n      calldatasize\n      sub\n      dup2\n      add\n      swap1\n      tag_25\n      swap2\n      swap1\n      tag_26\n      jump\t// in\n    tag_25:\n      tag_27\n      jump\t// in\n    tag_24:\n      mload(0x40)\n      tag_28\n      swap2\n      swap1\n      tag_29\n      jump\t// in\n    tag_28:\n      mload(0x40)\n      dup1\n      swap2\n      sub\n      swap1\n      return\n        /* \"ERC721A.sol\":9768:9866  function name() public view virtual override returns (string memory) {... */\n    tag_4:\n      tag_30\n      tag_31\n      jump\t// in\n    tag_30:\n      mload(0x40)\n      tag_32\n      swap2\n      swap1\n      tag_33\n      jump\t// in\n    tag_32:\n      mload(0x40)\n      dup1\n      swap2\n      sub\n      swap1\n      return\n        /* \"ERC721A.sol\":11769:11969  function getApproved(uint256 tokenId) public view override returns (address) {... */\n    tag_5:\n      tag_34\n      0x04\n      dup1\n      calldatasize\n      sub\n      dup2\n      add\n      swap1\n      tag_35\n      swap2\n      swap1\n      tag_36\n      jump\t// in\n    tag_35:\n      tag_37\n      jump\t// in\n    tag_34:\n      mload(0x40)\n      tag_38\n      swap2\n      swap1\n      tag_39\n      jump\t// in\n    tag_38:\n      mload(0x40)\n      dup1\n      swap2\n      sub\n      swap1\n      return\n        /* \"ERC721A.sol\":11245:11708  function approve(address to, uint256 tokenId) public override {... */\n    tag_6:\n      tag_40\n      0x04\n      dup1\n      calldatasize\n      sub\n      dup2\n      add\n      swap1\n      tag_41\n      swap2\n      swap1\n      tag_42\n      jump\t// in\n    tag_41:\n      tag_43\n      jump\t// in\n    tag_40:\n      stop\n        /* \"ERC721A.sol\":3963:4272  function totalSupply() public view override returns (uint256) {... */\n    tag_7:\n      tag_44\n      tag_45\n      jump\t// in\n    tag_44:\n      mload(0x40)\n      tag_46\n      swap2\n      swap1\n      tag_47\n      jump\t// in\n    tag_46:\n      mload(0x40)\n      dup1\n      swap2\n      sub\n      swap1\n      return\n        /* \"ERC721A.sol\":12629:12793  function transferFrom(... */\n    tag_8:\n      tag_48\n      0x04\n      dup1\n      calldatasize\n      sub\n      dup2\n      add\n      swap1\n      tag_49\n      swap2\n      swap1\n      tag_50\n      jump\t// in\n    tag_49:\n      tag_51\n      jump\t// in\n    tag_48:\n      stop\n        /* \"bulkNFTminter.sol\":383:478  function mint(address to, uint256 quantity) public onlyOwner {... */\n    tag_9:\n      tag_52\n      0x04\n      dup1\n      calldatasize\n      sub\n      dup2\n      add\n      swap1\n      tag_53\n      swap2\n      swap1\n      tag_42\n      jump\t// in\n    tag_53:\n      tag_54\n      jump\t// in\n    tag_52:\n      stop\n        /* \"ERC721A.sol\":12859:13038  function safeTransferFrom(... */\n    tag_10:\n      tag_55\n      0x04\n      dup1\n      calldatasize\n      sub\n      dup2\n      add\n      swap1\n      tag_56\n      swap2\n      swap1\n      tag_50\n      jump\t// in\n    tag_56:\n      tag_57\n      jump\t// in\n    tag_55:\n      stop\n        /* \"ERC721A.sol\":9564:9706  function ownerOf(uint256 tokenId) public view override returns (address) {... */\n    tag_11:\n      tag_58\n      0x04\n      dup1\n      calldatasize\n      sub\n      dup2\n      add\n      swap1\n      tag_59\n      swap2\n      swap1\n      tag_36\n      jump\t// in\n    tag_59:\n      tag_60\n      jump\t// in\n    tag_58:\n      mload(0x40)\n      tag_61\n      swap2\n      swap1\n      tag_39\n      jump\t// in\n    tag_61:\n      mload(0x40)\n      dup1\n      swap2\n      sub\n      swap1\n      return\n        /* \"ERC721A.sol\":5546:5767  function balanceOf(address owner) public view override returns (uint256) {... */\n    tag_12:\n      tag_62\n      0x04\n      dup1\n      calldatasize\n      sub\n      dup2\n      add\n      swap1\n      tag_63\n      swap2\n      swap1\n      tag_64\n      jump\t// in\n    tag_63:\n      tag_65\n      jump\t// in\n    tag_62:\n      mload(0x40)\n      tag_66\n      swap2\n      swap1\n      tag_47\n      jump\t// in\n    tag_66:\n      mload(0x40)\n      dup1\n      swap2\n      sub\n      swap1\n      return\n        /* \"@openzeppelin/contracts@4.6.0/access/Ownable.sol\":1668:1769  function renounceOwnership() public virtual onlyOwner {... */\n    tag_13:\n      tag_67\n      tag_68\n      jump\t// in\n    tag_67:\n      stop\n        /* \"@openzeppelin/contracts@4.6.0/access/Ownable.sol\":1036:1121  function owner() public view virtual returns (address) {... */\n    tag_14:\n      tag_69\n      tag_70\n      jump\t// in\n    tag_69:\n      mload(0x40)\n      tag_71\n      swap2\n      swap1\n      tag_39\n      jump\t// in\n    tag_71:\n      mload(0x40)\n      dup1\n      swap2\n      sub\n      swap1\n      return\n        /* \"ERC721A.sol\":9930:10032  function symbol() public view virtual override returns (string memory) {... */\n    tag_15:\n      tag_72\n      tag_73\n      jump\t// in\n    tag_72:\n      mload(0x40)\n      tag_74\n      swap2\n      swap1\n      tag_33\n      jump\t// in\n    tag_74:\n      mload(0x40)\n      dup1\n      swap2\n      sub\n      swap1\n      return\n        /* \"ERC721A.sol\":12036:12339  function setApprovalForAll(address operator, bool approved) public virtual override {... */\n    tag_16:\n      tag_75\n      0x04\n      dup1\n      calldatasize\n      sub\n      dup2\n      add\n      swap1\n      tag_76\n      swap2\n      swap1\n      tag_77\n      jump\t// in\n    tag_76:\n      tag_78\n      jump\t// in\n    tag_75:\n      stop\n        /* \"ERC721A.sol\":13104:13489  function safeTransferFrom(... */\n    tag_17:\n      tag_79\n      0x04\n      dup1\n      calldatasize\n      sub\n      dup2\n      add\n      swap1\n      tag_80\n      swap2\n      swap1\n      tag_81\n      jump\t// in\n    tag_80:\n      tag_82\n      jump\t// in\n    tag_79:\n      stop\n        /* \"ERC721A.sol\":10098:10411  function tokenURI(uint256 tokenId) public view virtual override returns (string memory) {... */\n    tag_18:\n      tag_83\n      0x04\n      dup1\n      calldatasize\n      sub\n      dup2\n      add\n      swap1\n      tag_84\n      swap2\n      swap1\n      tag_36\n      jump\t// in\n    tag_84:\n      tag_85\n      jump\t// in\n    tag_83:\n      mload(0x40)\n      tag_86\n      swap2\n      swap1\n      tag_33\n      jump\t// in\n    tag_86:\n      mload(0x40)\n      dup1\n      swap2\n      sub\n      swap1\n      return\n        /* \"ERC721A.sol\":12405:12567  function isApprovedForAll(address owner, address operator) public view virtual override returns (bool) {... */\n    tag_19:\n      tag_87\n      0x04\n      dup1\n      calldatasize\n      sub\n      dup2\n      add\n      swap1\n      tag_88\n      swap2\n      swap1\n      tag_89\n      jump\t// in\n    tag_88:\n      tag_90\n      jump\t// in\n    tag_87:\n      mload(0x40)\n      tag_91\n      swap2\n      swap1\n      tag_29\n      jump\t// in\n    tag_91:\n      mload(0x40)\n      dup1\n      swap2\n      sub\n      swap1\n      return\n        /* \"@openzeppelin/contracts@4.6.0/access/Ownable.sol\":1918:2116  function transferOwnership(address newOwner) public virtual onlyOwner {... */\n    tag_20:\n      tag_92\n      0x04\n      dup1\n      calldatasize\n      sub\n      dup2\n      add\n      swap1\n      tag_93\n      swap2\n      swap1\n      tag_64\n      jump\t// in\n    tag_93:\n      tag_94\n      jump\t// in\n    tag_92:\n      stop\n        /* \"ERC721A.sol\":4880:5487  function supportsInterface(bytes4 interfaceId) public view virtual override returns (bool) {... */\n    tag_27:\n        /* \"ERC721A.sol\":4965:4969  bool */\n      0x00\n        /* \"ERC721A.sol\":5275:5285  0x01ffc9a7 */\n      0x01ffc9a7\n        /* \"ERC721A.sol\":5260:5285  interfaceId == 0x01ffc9a7 */\n      0xe0\n      shl\n        /* \"ERC721A.sol\":5260:5271  interfaceId */\n      dup3\n        /* \"ERC721A.sol\":5260:5285  interfaceId == 0x01ffc9a7 */\n      not(0xffffffffffffffffffffffffffffffffffffffffffffffffffffffff)\n      and\n      eq\n        /* \"ERC721A.sol\":5260:5361  interfaceId == 0x01ffc9a7 || // ERC165 interface ID for ERC165.... */\n      dup1\n      tag_96\n      jumpi\n      pop\n        /* \"ERC721A.sol\":5351:5361  0x80ac58cd */\n      0x80ac58cd\n        /* \"ERC721A.sol\":5336:5361  interfaceId == 0x80ac58cd */\n      0xe0\n      shl\n        /* \"ERC721A.sol\":5336:5347  interfaceId */\n      dup3\n        /* \"ERC721A.sol\":5336:5361  interfaceId == 0x80ac58cd */\n      not(0xffffffffffffffffffffffffffffffffffffffffffffffffffffffff)\n      and\n      eq\n        /* \"ERC721A.sol\":5260:5361  interfaceId == 0x01ffc9a7 || // ERC165 interface ID for ERC165.... */\n    tag_96:\n        /* \"ERC721A.sol\":5260:5437  interfaceId == 0x01ffc9a7 || // ERC165 interface ID for ERC165.... */\n      dup1\n      tag_97\n      jumpi\n      pop\n        /* \"ERC721A.sol\":5427:5437  0x5b5e139f */\n      0x5b5e139f\n        /* \"ERC721A.sol\":5412:5437  interfaceId == 0x5b5e139f */\n      0xe0\n      shl\n        /* \"ERC721A.sol\":5412:5423  interfaceId */\n      dup3\n        /* \"ERC721A.sol\":5412:5437  interfaceId == 0x5b5e139f */\n      not(0xffffffffffffffffffffffffffffffffffffffffffffffffffffffff)\n      and\n      eq\n        /* \"ERC721A.sol\":5260:5437  interfaceId == 0x01ffc9a7 || // ERC165 interface ID for ERC165.... */\n    tag_97:\n        /* \"ERC721A.sol\":5241:5437  return... */\n      swap1\n      pop\n        /* \"ERC721A.sol\":4880:5487  function supportsInterface(bytes4 interfaceId) public view virtual override returns (bool) {... */\n      swap2\n      swap1\n      pop\n      jump\t// out\n        /* \"ERC721A.sol\":9768:9866  function name() public view virtual override returns (string memory) {... */\n    tag_31:\n        /* \"ERC721A.sol\":9822:9835  string memory */\n      0x60\n        /* \"ERC721A.sol\":9854:9859  _name */\n      0x02\n        /* \"ERC721A.sol\":9847:9859  return _name */\n      dup1\n      sload\n      tag_99\n      swap1\n      tag_100\n      jump\t// in\n    tag_99:\n      dup1\n      0x1f\n      add\n      0x20\n      dup1\n      swap2\n      div\n      mul\n      0x20\n      add\n      mload(0x40)\n      swap1\n      dup2\n      add\n      0x40\n      mstore\n      dup1\n      swap3\n      swap2\n      swap1\n      dup2\n      dup2\n      mstore\n      0x20\n      add\n      dup3\n      dup1\n      sload\n      tag_101\n      swap1\n      tag_100\n      jump\t// in\n    tag_101:\n      dup1\n      iszero\n      tag_102\n      jumpi\n      dup1\n      0x1f\n      lt\n      tag_103\n      jumpi\n      0x0100\n      dup1\n      dup4\n      sload\n      div\n      mul\n      dup4\n      mstore\n      swap2\n      0x20\n      add\n      swap2\n      jump(tag_102)\n    tag_103:\n      dup3\n      add\n      swap2\n      swap1\n      0x00\n      mstore\n      keccak256(0x00, 0x20)\n      swap1\n    tag_104:\n      dup2\n      sload\n      dup2\n      mstore\n      swap1\n      0x01\n      add\n      swap1\n      0x20\n      add\n      dup1\n      dup4\n      gt\n      tag_104\n      jumpi\n      dup3\n      swap1\n      sub\n      0x1f\n      and\n      dup3\n      add\n      swap2\n    tag_102:\n      pop\n      pop\n      pop\n      pop\n      pop\n      swap1\n      pop\n        /* \"ERC721A.sol\":9768:9866  function name() public view virtual override returns (string memory) {... */\n      swap1\n      jump\t// out\n        /* \"ERC721A.sol\":11769:11969  function getApproved(uint256 tokenId) public view override returns (address) {... */\n    tag_37:\n        /* \"ERC721A.sol\":11837:11844  address */\n      0x00\n        /* \"ERC721A.sol\":11861:11877  _exists(tokenId) */\n      tag_106\n        /* \"ERC721A.sol\":11869:11876  tokenId */\n      dup3\n        /* \"ERC721A.sol\":11861:11868  _exists */\n      tag_107\n        /* \"ERC721A.sol\":11861:11877  _exists(tokenId) */\n      jump\t// in\n    tag_106:\n        /* \"ERC721A.sol\":11856:11920  if (!_exists(tokenId)) revert ApprovalQueryForNonexistentToken() */\n      tag_108\n      jumpi\n        /* \"ERC721A.sol\":11886:11920  ApprovalQueryForNonexistentToken() */\n      mload(0x40)\n      0xcf4700e400000000000000000000000000000000000000000000000000000000\n      dup2\n      mstore\n      0x04\n      add\n      mload(0x40)\n      dup1\n      swap2\n      sub\n      swap1\n      revert\n        /* \"ERC721A.sol\":11856:11920  if (!_exists(tokenId)) revert ApprovalQueryForNonexistentToken() */\n    tag_108:\n        /* \"ERC721A.sol\":11938:11953  _tokenApprovals */\n      0x06\n        /* \"ERC721A.sol\":11938:11962  _tokenApprovals[tokenId] */\n      0x00\n        /* \"ERC721A.sol\":11954:11961  tokenId */\n      dup4\n        /* \"ERC721A.sol\":11938:11962  _tokenApprovals[tokenId] */\n      dup2\n      mstore\n      0x20\n      add\n      swap1\n      dup2\n      mstore\n      0x20\n      add\n      0x00\n      keccak256\n      0x00\n      swap1\n      sload\n      swap1\n      0x0100\n      exp\n      swap1\n      div\n      0xffffffffffffffffffffffffffffffffffffffff\n      and\n        /* \"ERC721A.sol\":11931:11962  return _tokenApprovals[tokenId] */\n      swap1\n      pop\n        /* \"ERC721A.sol\":11769:11969  function getApproved(uint256 tokenId) public view override returns (address) {... */\n      swap2\n      swap1\n      pop\n      jump\t// out\n        /* \"ERC721A.sol\":11245:11708  function approve(address to, uint256 tokenId) public override {... */\n    tag_43:\n        /* \"ERC721A.sol\":11317:11330  address owner */\n      0x00\n        /* \"ERC721A.sol\":11349:11376  _packedOwnershipOf(tokenId) */\n      tag_110\n        /* \"ERC721A.sol\":11368:11375  tokenId */\n      dup3\n        /* \"ERC721A.sol\":11349:11367  _packedOwnershipOf */\n      tag_111\n        /* \"ERC721A.sol\":11349:11376  _packedOwnershipOf(tokenId) */\n      jump\t// in\n    tag_110:\n        /* \"ERC721A.sol\":11317:11378  address owner = address(uint160(_packedOwnershipOf(tokenId))) */\n      swap1\n      pop\n        /* \"ERC721A.sol\":11398:11403  owner */\n      dup1\n        /* \"ERC721A.sol\":11392:11403  to == owner */\n      0xffffffffffffffffffffffffffffffffffffffff\n      and\n        /* \"ERC721A.sol\":11392:11394  to */\n      dup4\n        /* \"ERC721A.sol\":11392:11403  to == owner */\n      0xffffffffffffffffffffffffffffffffffffffff\n      and\n      eq\n        /* \"ERC721A.sol\":11388:11436  if (to == owner) revert ApprovalToCurrentOwner() */\n      iszero\n      tag_112\n      jumpi\n        /* \"ERC721A.sol\":11412:11436  ApprovalToCurrentOwner() */\n      mload(0x40)\n      0x943f7b8c00000000000000000000000000000000000000000000000000000000\n      dup2\n      mstore\n      0x04\n      add\n      mload(0x40)\n      dup1\n      swap2\n      sub\n      swap1\n      revert\n        /* \"ERC721A.sol\":11388:11436  if (to == owner) revert ApprovalToCurrentOwner() */\n    tag_112:\n        /* \"ERC721A.sol\":11474:11479  owner */\n      dup1\n        /* \"ERC721A.sol\":11451:11479  _msgSenderERC721A() != owner */\n      0xffffffffffffffffffffffffffffffffffffffff\n      and\n        /* \"ERC721A.sol\":11451:11470  _msgSenderERC721A() */\n      tag_113\n        /* \"ERC721A.sol\":11451:11468  _msgSenderERC721A */\n      tag_114\n        /* \"ERC721A.sol\":11451:11470  _msgSenderERC721A() */\n      jump\t// in\n    tag_113:\n        /* \"ERC721A.sol\":11451:11479  _msgSenderERC721A() != owner */\n      0xffffffffffffffffffffffffffffffffffffffff\n      and\n      eq\n        /* \"ERC721A.sol\":11447:11619  if (_msgSenderERC721A() != owner)... */\n      tag_115\n      jumpi\n        /* \"ERC721A.sol\":11498:11542  isApprovedForAll(owner, _msgSenderERC721A()) */\n      tag_116\n        /* \"ERC721A.sol\":11515:11520  owner */\n      dup2\n        /* \"ERC721A.sol\":11522:11541  _msgSenderERC721A() */\n      tag_117\n        /* \"ERC721A.sol\":11522:11539  _msgSenderERC721A */\n      tag_114\n        /* \"ERC721A.sol\":11522:11541  _msgSenderERC721A() */\n      jump\t// in\n    tag_117:\n        /* \"ERC721A.sol\":11498:11514  isApprovedForAll */\n      tag_90\n        /* \"ERC721A.sol\":11498:11542  isApprovedForAll(owner, _msgSenderERC721A()) */\n      jump\t// in\n    tag_116:\n        /* \"ERC721A.sol\":11493:11619  if (!isApprovedForAll(owner, _msgSenderERC721A())) {... */\n      tag_118\n      jumpi\n        /* \"ERC721A.sol\":11569:11604  ApprovalCallerNotOwnerNorApproved() */\n      mload(0x40)\n      0xcfb3b94200000000000000000000000000000000000000000000000000000000\n      dup2\n      mstore\n      0x04\n      add\n      mload(0x40)\n      dup1\n      swap2\n      sub\n      swap1\n      revert\n        /* \"ERC721A.sol\":11493:11619  if (!isApprovedForAll(owner, _msgSenderERC721A())) {... */\n    tag_118:\n        /* \"ERC721A.sol\":11447:11619  if (_msgSenderERC721A() != owner)... */\n    tag_115:\n        /* \"ERC721A.sol\":11656:11658  to */\n      dup3\n        /* \"ERC721A.sol\":11629:11644  _tokenApprovals */\n      0x06\n        /* \"ERC721A.sol\":11629:11653  _tokenApprovals[tokenId] */\n      0x00\n        /* \"ERC721A.sol\":11645:11652  tokenId */\n      dup5\n        /* \"ERC721A.sol\":11629:11653  _tokenApprovals[tokenId] */\n      dup2\n      mstore\n      0x20\n      add\n      swap1\n      dup2\n      mstore\n      0x20\n      add\n      0x00\n      keccak256\n      0x00\n        /* \"ERC721A.sol\":11629:11658  _tokenApprovals[tokenId] = to */\n      0x0100\n      exp\n      dup2\n      sload\n      dup2\n      0xffffffffffffffffffffffffffffffffffffffff\n      mul\n      not\n      and\n      swap1\n      dup4\n      0xffffffffffffffffffffffffffffffffffffffff\n      and\n      mul\n      or\n      swap1\n      sstore\n      pop\n        /* \"ERC721A.sol\":11693:11700  tokenId */\n      dup2\n        /* \"ERC721A.sol\":11689:11691  to */\n      dup4\n        /* \"ERC721A.sol\":11673:11701  Approval(owner, to, tokenId) */\n      0xffffffffffffffffffffffffffffffffffffffff\n      and\n        /* \"ERC721A.sol\":11682:11687  owner */\n      dup3\n        /* \"ERC721A.sol\":11673:11701  Approval(owner, to, tokenId) */\n      0xffffffffffffffffffffffffffffffffffffffff\n      and\n      0x8c5be1e5ebec7d5bd14f71427d1e84f3dd0314c0f7b2291e5b200ac8c7c3b925\n      mload(0x40)\n      mload(0x40)\n      dup1\n      swap2\n      sub\n      swap1\n      log4\n        /* \"ERC721A.sol\":11245:11708  function approve(address to, uint256 tokenId) public override {... */\n      pop\n      pop\n      pop\n      jump\t// out\n        /* \"ERC721A.sol\":3963:4272  function totalSupply() public view override returns (uint256) {... */\n    tag_45:\n        /* \"ERC721A.sol\":4016:4023  uint256 */\n      0x00\n        /* \"ERC721A.sol\":4240:4255  _startTokenId() */\n      tag_120\n        /* \"ERC721A.sol\":4240:4253  _startTokenId */\n      tag_121\n        /* \"ERC721A.sol\":4240:4255  _startTokenId() */\n      jump\t// in\n    tag_120:\n        /* \"ERC721A.sol\":4225:4237  _burnCounter */\n      sload(0x01)\n        /* \"ERC721A.sol\":4209:4222  _currentIndex */\n      sload(0x00)\n        /* \"ERC721A.sol\":4209:4237  _currentIndex - _burnCounter */\n      sub\n        /* \"ERC721A.sol\":4209:4255  _currentIndex - _burnCounter - _startTokenId() */\n      sub\n        /* \"ERC721A.sol\":4202:4255  return _currentIndex - _burnCounter - _startTokenId() */\n      swap1\n      pop\n        /* \"ERC721A.sol\":3963:4272  function totalSupply() public view override returns (uint256) {... */\n      swap1\n      jump\t// out\n        /* \"ERC721A.sol\":12629:12793  function transferFrom(... */\n    tag_51:\n        /* \"ERC721A.sol\":12758:12786  _transfer(from, to, tokenId) */\n      tag_123\n        /* \"ERC721A.sol\":12768:12772  from */\n      dup4\n        /* \"ERC721A.sol\":12774:12776  to */\n      dup4\n        /* \"ERC721A.sol\":12778:12785  tokenId */\n      dup4\n        /* \"ERC721A.sol\":12758:12767  _transfer */\n      tag_124\n        /* \"ERC721A.sol\":12758:12786  _transfer(from, to, tokenId) */\n      jump\t// in\n    tag_123:\n        /* \"ERC721A.sol\":12629:12793  function transferFrom(... */\n      pop\n      pop\n      pop\n      jump\t// out\n        /* \"bulkNFTminter.sol\":383:478  function mint(address to, uint256 quantity) public onlyOwner {... */\n    tag_54:\n        /* \"@openzeppelin/contracts@4.6.0/access/Ownable.sol\":1259:1271  _msgSender() */\n      tag_126\n        /* \"@openzeppelin/contracts@4.6.0/access/Ownable.sol\":1259:1269  _msgSender */\n      tag_127\n        /* \"@openzeppelin/contracts@4.6.0/access/Ownable.sol\":1259:1271  _msgSender() */\n      jump\t// in\n    tag_126:\n        /* \"@openzeppelin/contracts@4.6.0/access/Ownable.sol\":1248:1271  owner() == _msgSender() */\n      0xffffffffffffffffffffffffffffffffffffffff\n      and\n        /* \"@openzeppelin/contracts@4.6.0/access/Ownable.sol\":1248:1255  owner() */\n      tag_128\n        /* \"@openzeppelin/contracts@4.6.0/access/Ownable.sol\":1248:1253  owner */\n      tag_70\n        /* \"@openzeppelin/contracts@4.6.0/access/Ownable.sol\":1248:1255  owner() */\n      jump\t// in\n    tag_128:\n        /* \"@openzeppelin/contracts@4.6.0/access/Ownable.sol\":1248:1271  owner() == _msgSender() */\n      0xffffffffffffffffffffffffffffffffffffffff\n      and\n      eq\n        /* \"@openzeppelin/contracts@4.6.0/access/Ownable.sol\":1240:1308  require(owner() == _msgSender(), \"Ownable: caller is not the owner\") */\n      tag_129\n      jumpi\n      mload(0x40)\n      0x08c379a000000000000000000000000000000000000000000000000000000000\n      dup2\n      mstore\n      0x04\n      add\n      tag_130\n      swap1\n      tag_131\n      jump\t// in\n    tag_130:\n      mload(0x40)\n      dup1\n      swap2\n      sub\n      swap1\n      revert\n    tag_129:\n        /* \"bulkNFTminter.sol\":450:473  _safeMint(to, quantity) */\n      tag_133\n        /* \"bulkNFTminter.sol\":460:462  to */\n      dup3\n        /* \"bulkNFTminter.sol\":464:472  quantity */\n      dup3\n        /* \"bulkNFTminter.sol\":450:459  _safeMint */\n      tag_134\n        /* \"bulkNFTminter.sol\":450:473  _safeMint(to, quantity) */\n      jump\t// in\n    tag_133:\n        /* \"bulkNFTminter.sol\":383:478  function mint(address to, uint256 quantity) public onlyOwner {... */\n      pop\n      pop\n      jump\t// out\n        /* \"ERC721A.sol\":12859:13038  function safeTransferFrom(... */\n    tag_57:\n        /* \"ERC721A.sol\":12992:13031  safeTransferFrom(from, to, tokenId, '') */\n      tag_136\n        /* \"ERC721A.sol\":13009:13013  from */\n      dup4\n        /* \"ERC721A.sol\":13015:13017  to */\n      dup4\n        /* \"ERC721A.sol\":13019:13026  tokenId */\n      dup4\n        /* \"ERC721A.sol\":12992:13031  safeTransferFrom(from, to, tokenId, '') */\n      mload(0x40)\n      dup1\n      0x20\n      add\n      0x40\n      mstore\n      dup1\n      0x00\n      dup2\n      mstore\n      pop\n        /* \"ERC721A.sol\":12992:13008  safeTransferFrom */\n      tag_82\n        /* \"ERC721A.sol\":12992:13031  safeTransferFrom(from, to, tokenId, '') */\n      jump\t// in\n    tag_136:\n        /* \"ERC721A.sol\":12859:13038  function safeTransferFrom(... */\n      pop\n      pop\n      pop\n      jump\t// out\n        /* \"ERC721A.sol\":9564:9706  function ownerOf(uint256 tokenId) public view override returns (address) {... */\n    tag_60:\n        /* \"ERC721A.sol\":9628:9635  address */\n      0x00\n        /* \"ERC721A.sol\":9670:9697  _packedOwnershipOf(tokenId) */\n      tag_138\n        /* \"ERC721A.sol\":9689:9696  tokenId */\n      dup3\n        /* \"ERC721A.sol\":9670:9688  _packedOwnershipOf */\n      tag_111\n        /* \"ERC721A.sol\":9670:9697  _packedOwnershipOf(tokenId) */\n      jump\t// in\n    tag_138:\n        /* \"ERC721A.sol\":9647:9699  return address(uint160(_packedOwnershipOf(tokenId))) */\n      swap1\n      pop\n        /* \"ERC721A.sol\":9564:9706  function ownerOf(uint256 tokenId) public view override returns (address) {... */\n      swap2\n      swap1\n      pop\n      jump\t// out\n        /* \"ERC721A.sol\":5546:5767  function balanceOf(address owner) public view override returns (uint256) {... */\n    tag_65:\n        /* \"ERC721A.sol\":5610:5617  uint256 */\n      0x00\n        /* \"ERC721A.sol\":5650:5651  0 */\n      dup1\n        /* \"ERC721A.sol\":5633:5652  owner == address(0) */\n      0xffffffffffffffffffffffffffffffffffffffff\n      and\n        /* \"ERC721A.sol\":5633:5638  owner */\n      dup3\n        /* \"ERC721A.sol\":5633:5652  owner == address(0) */\n      0xffffffffffffffffffffffffffffffffffffffff\n      and\n      eq\n        /* \"ERC721A.sol\":5629:5689  if (owner == address(0)) revert BalanceQueryForZeroAddress() */\n      iszero\n      tag_140\n      jumpi\n        /* \"ERC721A.sol\":5661:5689  BalanceQueryForZeroAddress() */\n      mload(0x40)\n      0x8f4eb60400000000000000000000000000000000000000000000000000000000\n      dup2\n      mstore\n      0x04\n      add\n      mload(0x40)\n      dup1\n      swap2\n      sub\n      swap1\n      revert\n        /* \"ERC721A.sol\":5629:5689  if (owner == address(0)) revert BalanceQueryForZeroAddress() */\n    tag_140:\n        /* \"ERC721A.sol\":1017:1030  (1 << 64) - 1 */\n      0xffffffffffffffff\n        /* \"ERC721A.sol\":5706:5724  _packedAddressData */\n      0x05\n        /* \"ERC721A.sol\":5706:5731  _packedAddressData[owner] */\n      0x00\n        /* \"ERC721A.sol\":5725:5730  owner */\n      dup5\n        /* \"ERC721A.sol\":5706:5731  _packedAddressData[owner] */\n      0xffffffffffffffffffffffffffffffffffffffff\n      and\n      0xffffffffffffffffffffffffffffffffffffffff\n      and\n      dup2\n      mstore\n      0x20\n      add\n      swap1\n      dup2\n      mstore\n      0x20\n      add\n      0x00\n      keccak256\n      sload\n        /* \"ERC721A.sol\":5706:5760  _packedAddressData[owner] & BITMASK_ADDRESS_DATA_ENTRY */\n      and\n        /* \"ERC721A.sol\":5699:5760  return _packedAddressData[owner] & BITMASK_ADDRESS_DATA_ENTRY */\n      swap1\n      pop\n        /* \"ERC721A.sol\":5546:5767  function balanceOf(address owner) public view override returns (uint256) {... */\n      swap2\n      swap1\n      pop\n      jump\t// out\n        /* \"@openzeppelin/contracts@4.6.0/access/Ownable.sol\":1668:1769  function renounceOwnership() public virtual onlyOwner {... */\n    tag_68:\n        /* \"@openzeppelin/contracts@4.6.0/access/Ownable.sol\":1259:1271  _msgSender() */\n      tag_142\n        /* \"@openzeppelin/contracts@4.6.0/access/Ownable.sol\":1259:1269  _msgSender */\n      tag_127\n        /* \"@openzeppelin/contracts@4.6.0/access/Ownable.sol\":1259:1271  _msgSender() */\n      jump\t// in\n    tag_142:\n        /* \"@openzeppelin/contracts@4.6.0/access/Ownable.sol\":1248:1271  owner() == _msgSender() */\n      0xffffffffffffffffffffffffffffffffffffffff\n      and\n        /* \"@openzeppelin/contracts@4.6.0/access/Ownable.sol\":1248:1255  owner() */\n      tag_143\n        /* \"@openzeppelin/contracts@4.6.0/access/Ownable.sol\":1248:1253  owner */\n      tag_70\n        /* \"@openzeppelin/contracts@4.6.0/access/Ownable.sol\":1248:1255  owner() */\n      jump\t// in\n    tag_143:\n        /* \"@openzeppelin/contracts@4.6.0/access/Ownable.sol\":1248:1271  owner() == _msgSender() */\n      0xffffffffffffffffffffffffffffffffffffffff\n      and\n      eq\n        /* \"@openzeppelin/contracts@4.6.0/access/Ownable.sol\":1240:1308  require(owner() == _msgSender(), \"Ownable: caller is not the owner\") */\n      tag_144\n      jumpi\n      mload(0x40)\n      0x08c379a000000000000000000000000000000000000000000000000000000000\n      dup2\n      mstore\n      0x04\n      add\n      tag_145\n      swap1\n      tag_131\n      jump\t// in\n    tag_145:\n      mload(0x40)\n      dup1\n      swap2\n      sub\n      swap1\n      revert\n    tag_144:\n        /* \"@openzeppelin/contracts@4.6.0/access/Ownable.sol\":1732:1762  _transferOwnership(address(0)) */\n      tag_147\n        /* \"@openzeppelin/contracts@4.6.0/access/Ownable.sol\":1759:1760  0 */\n      0x00\n        /* \"@openzeppelin/contracts@4.6.0/access/Ownable.sol\":1732:1750  _transferOwnership */\n      tag_148\n        /* \"@openzeppelin/contracts@4.6.0/access/Ownable.sol\":1732:1762  _transferOwnership(address(0)) */\n      jump\t// in\n    tag_147:\n        /* \"@openzeppelin/contracts@4.6.0/access/Ownable.sol\":1668:1769  function renounceOwnership() public virtual onlyOwner {... */\n      jump\t// out\n        /* \"@openzeppelin/contracts@4.6.0/access/Ownable.sol\":1036:1121  function owner() public view virtual returns (address) {... */\n    tag_70:\n        /* \"@openzeppelin/contracts@4.6.0/access/Ownable.sol\":1082:1089  address */\n      0x00\n        /* \"@openzeppelin/contracts@4.6.0/access/Ownable.sol\":1108:1114  _owner */\n      0x08\n      0x00\n      swap1\n      sload\n      swap1\n      0x0100\n      exp\n      swap1\n      div\n      0xffffffffffffffffffffffffffffffffffffffff\n      and\n        /* \"@openzeppelin/contracts@4.6.0/access/Ownable.sol\":1101:1114  return _owner */\n      swap1\n      pop\n        /* \"@openzeppelin/contracts@4.6.0/access/Ownable.sol\":1036:1121  function owner() public view virtual returns (address) {... */\n      swap1\n      jump\t// out\n        /* \"ERC721A.sol\":9930:10032  function symbol() public view virtual override returns (string memory) {... */\n    tag_73:\n        /* \"ERC721A.sol\":9986:9999  string memory */\n      0x60\n        /* \"ERC721A.sol\":10018:10025  _symbol */\n      0x03\n        /* \"ERC721A.sol\":10011:10025  return _symbol */\n      dup1\n      sload\n      tag_151\n      swap1\n      tag_100\n      jump\t// in\n    tag_151:\n      dup1\n      0x1f\n      add\n      0x20\n      dup1\n      swap2\n      div\n      mul\n      0x20\n      add\n      mload(0x40)\n      swap1\n      dup2\n      add\n      0x40\n      mstore\n      dup1\n      swap3\n      swap2\n      swap1\n      dup2\n      dup2\n      mstore\n      0x20\n      add\n      dup3\n      dup1\n      sload\n      tag_152\n      swap1\n      tag_100\n      jump\t// in\n    tag_152:\n      dup1\n      iszero\n      tag_153\n      jumpi\n      dup1\n      0x1f\n      lt\n      tag_154\n      jumpi\n      0x0100\n      dup1\n      dup4\n      sload\n      div\n      mul\n      dup4\n      mstore\n      swap2\n      0x20\n      add\n      swap2\n      jump(tag_153)\n    tag_154:\n      dup3\n      add\n      swap2\n      swap1\n      0x00\n      mstore\n      keccak256(0x00, 0x20)\n      swap1\n    tag_155:\n      dup2\n      sload\n      dup2\n      mstore\n      swap1\n      0x01\n      add\n      swap1\n      0x20\n      add\n      dup1\n      dup4\n      gt\n      tag_155\n      jumpi\n      dup3\n      swap1\n      sub\n      0x1f\n      and\n      dup3\n      add\n      swap2\n    tag_153:\n      pop\n      pop\n      pop\n      pop\n      pop\n      swap1\n      pop\n        /* \"ERC721A.sol\":9930:10032  function symbol() public view virtual override returns (string memory) {... */\n      swap1\n      jump\t// out\n        /* \"ERC721A.sol\":12036:12339  function setApprovalForAll(address operator, bool approved) public virtual override {... */\n    tag_78:\n        /* \"ERC721A.sol\":12146:12165  _msgSenderERC721A() */\n      tag_157\n        /* \"ERC721A.sol\":12146:12163  _msgSenderERC721A */\n      tag_114\n        /* \"ERC721A.sol\":12146:12165  _msgSenderERC721A() */\n      jump\t// in\n    tag_157:\n        /* \"ERC721A.sol\":12134:12165  operator == _msgSenderERC721A() */\n      0xffffffffffffffffffffffffffffffffffffffff\n      and\n        /* \"ERC721A.sol\":12134:12142  operator */\n      dup3\n        /* \"ERC721A.sol\":12134:12165  operator == _msgSenderERC721A() */\n      0xffffffffffffffffffffffffffffffffffffffff\n      and\n      eq\n        /* \"ERC721A.sol\":12130:12191  if (operator == _msgSenderERC721A()) revert ApproveToCaller() */\n      iszero\n      tag_158\n      jumpi\n        /* \"ERC721A.sol\":12174:12191  ApproveToCaller() */\n      mload(0x40)\n      0xb06307db00000000000000000000000000000000000000000000000000000000\n      dup2\n      mstore\n      0x04\n      add\n      mload(0x40)\n      dup1\n      swap2\n      sub\n      swap1\n      revert\n        /* \"ERC721A.sol\":12130:12191  if (operator == _msgSenderERC721A()) revert ApproveToCaller() */\n    tag_158:\n        /* \"ERC721A.sol\":12254:12262  approved */\n      dup1\n        /* \"ERC721A.sol\":12202:12220  _operatorApprovals */\n      0x07\n        /* \"ERC721A.sol\":12202:12241  _operatorApprovals[_msgSenderERC721A()] */\n      0x00\n        /* \"ERC721A.sol\":12221:12240  _msgSenderERC721A() */\n      tag_159\n        /* \"ERC721A.sol\":12221:12238  _msgSenderERC721A */\n      tag_114\n        /* \"ERC721A.sol\":12221:12240  _msgSenderERC721A() */\n      jump\t// in\n    tag_159:\n        /* \"ERC721A.sol\":12202:12241  _operatorApprovals[_msgSenderERC721A()] */\n      0xffffffffffffffffffffffffffffffffffffffff\n      and\n      0xffffffffffffffffffffffffffffffffffffffff\n      and\n      dup2\n      mstore\n      0x20\n      add\n      swap1\n      dup2\n      mstore\n      0x20\n      add\n      0x00\n      keccak256\n        /* \"ERC721A.sol\":12202:12251  _operatorApprovals[_msgSenderERC721A()][operator] */\n      0x00\n        /* \"ERC721A.sol\":12242:12250  operator */\n      dup5\n        /* \"ERC721A.sol\":12202:12251  _operatorApprovals[_msgSenderERC721A()][operator] */\n      0xffffffffffffffffffffffffffffffffffffffff\n      and\n      0xffffffffffffffffffffffffffffffffffffffff\n      and\n      dup2\n      mstore\n      0x20\n      add\n      swap1\n      dup2\n      mstore\n      0x20\n      add\n      0x00\n      keccak256\n      0x00\n        /* \"ERC721A.sol\":12202:12262  _operatorApprovals[_msgSenderERC721A()][operator] = approved */\n      0x0100\n      exp\n      dup2\n      sload\n      dup2\n      0xff\n      mul\n      not\n      and\n      swap1\n      dup4\n      iszero\n      iszero\n      mul\n      or\n      swap1\n      sstore\n      pop\n        /* \"ERC721A.sol\":12313:12321  operator */\n      dup2\n        /* \"ERC721A.sol\":12277:12332  ApprovalForAll(_msgSenderERC721A(), operator, approved) */\n      0xffffffffffffffffffffffffffffffffffffffff\n      and\n        /* \"ERC721A.sol\":12292:12311  _msgSenderERC721A() */\n      tag_160\n        /* \"ERC721A.sol\":12292:12309  _msgSenderERC721A */\n      tag_114\n        /* \"ERC721A.sol\":12292:12311  _msgSenderERC721A() */\n      jump\t// in\n    tag_160:\n        /* \"ERC721A.sol\":12277:12332  ApprovalForAll(_msgSenderERC721A(), operator, approved) */\n      0xffffffffffffffffffffffffffffffffffffffff\n      and\n      0x17307eab39ab6107e8899845ad3d59bd9653f200f220920489ca2b5937696c31\n        /* \"ERC721A.sol\":12323:12331  approved */\n      dup4\n        /* \"ERC721A.sol\":12277:12332  ApprovalForAll(_msgSenderERC721A(), operator, approved) */\n      mload(0x40)\n      tag_161\n      swap2\n      swap1\n      tag_29\n      jump\t// in\n    tag_161:\n      mload(0x40)\n      dup1\n      swap2\n      sub\n      swap1\n      log3\n        /* \"ERC721A.sol\":12036:12339  function setApprovalForAll(address operator, bool approved) public virtual override {... */\n      pop\n      pop\n      jump\t// out\n        /* \"ERC721A.sol\":13104:13489  function safeTransferFrom(... */\n    tag_82:\n        /* \"ERC721A.sol\":13265:13293  _transfer(from, to, tokenId) */\n      tag_163\n        /* \"ERC721A.sol\":13275:13279  from */\n      dup5\n        /* \"ERC721A.sol\":13281:13283  to */\n      dup5\n        /* \"ERC721A.sol\":13285:13292  tokenId */\n      dup5\n        /* \"ERC721A.sol\":13265:13274  _transfer */\n      tag_124\n        /* \"ERC721A.sol\":13265:13293  _transfer(from, to, tokenId) */\n      jump\t// in\n    tag_163:\n        /* \"ERC721A.sol\":13325:13326  0 */\n      0x00\n        /* \"ERC721A.sol\":13307:13309  to */\n      dup4\n        /* \"ERC721A.sol\":13307:13321  to.code.length */\n      0xffffffffffffffffffffffffffffffffffffffff\n      and\n      extcodesize\n        /* \"ERC721A.sol\":13307:13326  to.code.length != 0 */\n      eq\n        /* \"ERC721A.sol\":13303:13483  if (to.code.length != 0)... */\n      tag_164\n      jumpi\n        /* \"ERC721A.sol\":13345:13401  _checkContractOnERC721Received(from, to, tokenId, _data) */\n      tag_165\n        /* \"ERC721A.sol\":13376:13380  from */\n      dup5\n        /* \"ERC721A.sol\":13382:13384  to */\n      dup5\n        /* \"ERC721A.sol\":13386:13393  tokenId */\n      dup5\n        /* \"ERC721A.sol\":13395:13400  _data */\n      dup5\n        /* \"ERC721A.sol\":13345:13375  _checkContractOnERC721Received */\n      tag_166\n        /* \"ERC721A.sol\":13345:13401  _checkContractOnERC721Received(from, to, tokenId, _data) */\n      jump\t// in\n    tag_165:\n        /* \"ERC721A.sol\":13340:13483  if (!_checkContractOnERC721Received(from, to, tokenId, _data)) {... */\n      tag_167\n      jumpi\n        /* \"ERC721A.sol\":13428:13468  TransferToNonERC721ReceiverImplementer() */\n      mload(0x40)\n      0xd1a57ed600000000000000000000000000000000000000000000000000000000\n      dup2\n      mstore\n      0x04\n      add\n      mload(0x40)\n      dup1\n      swap2\n      sub\n      swap1\n      revert\n        /* \"ERC721A.sol\":13340:13483  if (!_checkContractOnERC721Received(from, to, tokenId, _data)) {... */\n    tag_167:\n        /* \"ERC721A.sol\":13303:13483  if (to.code.length != 0)... */\n    tag_164:\n        /* \"ERC721A.sol\":13104:13489  function safeTransferFrom(... */\n      pop\n      pop\n      pop\n      pop\n      jump\t// out\n        /* \"ERC721A.sol\":10098:10411  function tokenURI(uint256 tokenId) public view virtual override returns (string memory) {... */\n    tag_85:\n        /* \"ERC721A.sol\":10171:10184  string memory */\n      0x60\n        /* \"ERC721A.sol\":10201:10217  _exists(tokenId) */\n      tag_169\n        /* \"ERC721A.sol\":10209:10216  tokenId */\n      dup3\n        /* \"ERC721A.sol\":10201:10208  _exists */\n      tag_107\n        /* \"ERC721A.sol\":10201:10217  _exists(tokenId) */\n      jump\t// in\n    tag_169:\n        /* \"ERC721A.sol\":10196:10255  if (!_exists(tokenId)) revert URIQueryForNonexistentToken() */\n      tag_170\n      jumpi\n        /* \"ERC721A.sol\":10226:10255  URIQueryForNonexistentToken() */\n      mload(0x40)\n      0xa14c4b5000000000000000000000000000000000000000000000000000000000\n      dup2\n      mstore\n      0x04\n      add\n      mload(0x40)\n      dup1\n      swap2\n      sub\n      swap1\n      revert\n        /* \"ERC721A.sol\":10196:10255  if (!_exists(tokenId)) revert URIQueryForNonexistentToken() */\n    tag_170:\n        /* \"ERC721A.sol\":10266:10287  string memory baseURI */\n      0x00\n        /* \"ERC721A.sol\":10290:10300  _baseURI() */\n      tag_171\n        /* \"ERC721A.sol\":10290:10298  _baseURI */\n      tag_172\n        /* \"ERC721A.sol\":10290:10300  _baseURI() */\n      jump\t// in\n    tag_171:\n        /* \"ERC721A.sol\":10266:10300  string memory baseURI = _baseURI() */\n      swap1\n      pop\n        /* \"ERC721A.sol\":10342:10343  0 */\n      0x00\n        /* \"ERC721A.sol\":10323:10330  baseURI */\n      dup2\n        /* \"ERC721A.sol\":10317:10338  bytes(baseURI).length */\n      mload\n        /* \"ERC721A.sol\":10317:10343  bytes(baseURI).length != 0 */\n      eq\n      iszero\n        /* \"ERC721A.sol\":10317:10404  bytes(baseURI).length != 0 ? string(abi.encodePacked(baseURI, _toString(tokenId))) : '' */\n      tag_173\n      jumpi\n      mload(0x40)\n      dup1\n      0x20\n      add\n      0x40\n      mstore\n      dup1\n      0x00\n      dup2\n      mstore\n      pop\n      jump(tag_174)\n    tag_173:\n        /* \"ERC721A.sol\":10370:10377  baseURI */\n      dup1\n        /* \"ERC721A.sol\":10379:10397  _toString(tokenId) */\n      tag_175\n        /* \"ERC721A.sol\":10389:10396  tokenId */\n      dup5\n        /* \"ERC721A.sol\":10379:10388  _toString */\n      tag_176\n        /* \"ERC721A.sol\":10379:10397  _toString(tokenId) */\n      jump\t// in\n    tag_175:\n        /* \"ERC721A.sol\":10353:10398  abi.encodePacked(baseURI, _toString(tokenId)) */\n      add(0x20, mload(0x40))\n      tag_177\n      swap3\n      swap2\n      swap1\n      tag_178\n      jump\t// in\n    tag_177:\n      mload(0x40)\n      0x20\n      dup2\n      dup4\n      sub\n      sub\n      dup2\n      mstore\n      swap1\n      0x40\n      mstore\n        /* \"ERC721A.sol\":10317:10404  bytes(baseURI).length != 0 ? string(abi.encodePacked(baseURI, _toString(tokenId))) : '' */\n    tag_174:\n        /* \"ERC721A.sol\":10310:10404  return bytes(baseURI).length != 0 ? string(abi.encodePacked(baseURI, _toString(tokenId))) : '' */\n      swap2\n      pop\n      pop\n        /* \"ERC721A.sol\":10098:10411  function tokenURI(uint256 tokenId) public view virtual override returns (string memory) {... */\n      swap2\n      swap1\n      pop\n      jump\t// out\n        /* \"ERC721A.sol\":12405:12567  function isApprovedForAll(address owner, address operator) public view virtual override returns (bool) {... */\n    tag_90:\n        /* \"ERC721A.sol\":12502:12506  bool */\n      0x00\n        /* \"ERC721A.sol\":12525:12543  _operatorApprovals */\n      0x07\n        /* \"ERC721A.sol\":12525:12550  _operatorApprovals[owner] */\n      0x00\n        /* \"ERC721A.sol\":12544:12549  owner */\n      dup5\n        /* \"ERC721A.sol\":12525:12550  _operatorApprovals[owner] */\n      0xffffffffffffffffffffffffffffffffffffffff\n      and\n      0xffffffffffffffffffffffffffffffffffffffff\n      and\n      dup2\n      mstore\n      0x20\n      add\n      swap1\n      dup2\n      mstore\n      0x20\n      add\n      0x00\n      keccak256\n        /* \"ERC721A.sol\":12525:12560  _operatorApprovals[owner][operator] */\n      0x00\n        /* \"ERC721A.sol\":12551:12559  operator */\n      dup4\n        /* \"ERC721A.sol\":12525:12560  _operatorApprovals[owner][operator] */\n      0xffffffffffffffffffffffffffffffffffffffff\n      and\n      0xffffffffffffffffffffffffffffffffffffffff\n      and\n      dup2\n      mstore\n      0x20\n      add\n      swap1\n      dup2\n      mstore\n      0x20\n      add\n      0x00\n      keccak256\n      0x00\n      swap1\n      sload\n      swap1\n      0x0100\n      exp\n      swap1\n      div\n      0xff\n      and\n        /* \"ERC721A.sol\":12518:12560  return _operatorApprovals[owner][operator] */\n      swap1\n      pop\n        /* \"ERC721A.sol\":12405:12567  function isApprovedForAll(address owner, address operator) public view virtual override returns (bool) {... */\n      swap3\n      swap2\n      pop\n      pop\n      jump\t// out\n        /* \"@openzeppelin/contracts@4.6.0/access/Ownable.sol\":1918:2116  function transferOwnership(address newOwner) public virtual onlyOwner {... */\n    tag_94:\n        /* \"@openzeppelin/contracts@4.6.0/access/Ownable.sol\":1259:1271  _msgSender() */\n      tag_181\n        /* \"@openzeppelin/contracts@4.6.0/access/Ownable.sol\":1259:1269  _msgSender */\n      tag_127\n        /* \"@openzeppelin/contracts@4.6.0/access/Ownable.sol\":1259:1271  _msgSender() */\n      jump\t// in\n    tag_181:\n        /* \"@openzeppelin/contracts@4.6.0/access/Ownable.sol\":1248:1271  owner() == _msgSender() */\n      0xffffffffffffffffffffffffffffffffffffffff\n      and\n        /* \"@openzeppelin/contracts@4.6.0/access/Ownable.sol\":1248:1255  owner() */\n      tag_182\n        /* \"@openzeppelin/contracts@4.6.0/access/Ownable.sol\":1248:1253  owner */\n      tag_70\n        /* \"@openzeppelin/contracts@4.6.0/access/Ownable.sol\":1248:1255  owner() */\n      jump\t// in\n    tag_182:\n        /* \"@openzeppelin/contracts@4.6.0/access/Ownable.sol\":1248:1271  owner() == _msgSender() */\n      0xffffffffffffffffffffffffffffffffffffffff\n      and\n      eq\n        /* \"@openzeppelin/contracts@4.6.0/access/Ownable.sol\":1240:1308  require(owner() == _msgSender(), \"Ownable: caller is not the owner\") */\n      tag_183\n      jumpi\n      mload(0x40)\n      0x08c379a000000000000000000000000000000000000000000000000000000000\n      dup2\n      mstore\n      0x04\n      add\n      tag_184\n      swap1\n      tag_131\n      jump\t// in\n    tag_184:\n      mload(0x40)\n      dup1\n      swap2\n      sub\n      swap1\n      revert\n    tag_183:\n        /* \"@openzeppelin/contracts@4.6.0/access/Ownable.sol\":2026:2027  0 */\n      0x00\n        /* \"@openzeppelin/contracts@4.6.0/access/Ownable.sol\":2006:2028  newOwner != address(0) */\n      0xffffffffffffffffffffffffffffffffffffffff\n      and\n        /* \"@openzeppelin/contracts@4.6.0/access/Ownable.sol\":2006:2014  newOwner */\n      dup2\n        /* \"@openzeppelin/contracts@4.6.0/access/Ownable.sol\":2006:2028  newOwner != address(0) */\n      0xffffffffffffffffffffffffffffffffffffffff\n      and\n      eq\n      iszero\n        /* \"@openzeppelin/contracts@4.6.0/access/Ownable.sol\":1998:2071  require(newOwner != address(0), \"Ownable: new owner is the zero address\") */\n      tag_186\n      jumpi\n      mload(0x40)\n      0x08c379a000000000000000000000000000000000000000000000000000000000\n      dup2\n      mstore\n      0x04\n      add\n      tag_187\n      swap1\n      tag_188\n      jump\t// in\n    tag_187:\n      mload(0x40)\n      dup1\n      swap2\n      sub\n      swap1\n      revert\n    tag_186:\n        /* \"@openzeppelin/contracts@4.6.0/access/Ownable.sol\":2081:2109  _transferOwnership(newOwner) */\n      tag_189\n        /* \"@openzeppelin/contracts@4.6.0/access/Ownable.sol\":2100:2108  newOwner */\n      dup2\n        /* \"@openzeppelin/contracts@4.6.0/access/Ownable.sol\":2081:2099  _transferOwnership */\n      tag_148\n        /* \"@openzeppelin/contracts@4.6.0/access/Ownable.sol\":2081:2109  _transferOwnership(newOwner) */\n      jump\t// in\n    tag_189:\n        /* \"@openzeppelin/contracts@4.6.0/access/Ownable.sol\":1918:2116  function transferOwnership(address newOwner) public virtual onlyOwner {... */\n      pop\n      jump\t// out\n        /* \"ERC721A.sol\":13735:14003  function _exists(uint256 tokenId) internal view returns (bool) {... */\n    tag_107:\n        /* \"ERC721A.sol\":13792:13796  bool */\n      0x00\n        /* \"ERC721A.sol\":13846:13853  tokenId */\n      dup2\n        /* \"ERC721A.sol\":13827:13842  _startTokenId() */\n      tag_191\n        /* \"ERC721A.sol\":13827:13840  _startTokenId */\n      tag_121\n        /* \"ERC721A.sol\":13827:13842  _startTokenId() */\n      jump\t// in\n    tag_191:\n        /* \"ERC721A.sol\":13827:13853  _startTokenId() <= tokenId */\n      gt\n      iszero\n        /* \"ERC721A.sol\":13827:13892  _startTokenId() <= tokenId &&... */\n      dup1\n      iszero\n      tag_192\n      jumpi\n      pop\n        /* \"ERC721A.sol\":13879:13892  _currentIndex */\n      sload(0x00)\n        /* \"ERC721A.sol\":13869:13876  tokenId */\n      dup3\n        /* \"ERC721A.sol\":13869:13892  tokenId < _currentIndex */\n      lt\n        /* \"ERC721A.sol\":13827:13892  _startTokenId() <= tokenId &&... */\n    tag_192:\n        /* \"ERC721A.sol\":13827:13977  _startTokenId() <= tokenId &&... */\n      dup1\n      iszero\n      tag_193\n      jumpi\n      pop\n        /* \"ERC721A.sol\":13976:13977  0 */\n      0x00\n        /* \"ERC721A.sol\":1769:1777  1 << 224 */\n      0x0100000000000000000000000000000000000000000000000000000000\n        /* \"ERC721A.sol\":13929:13946  _packedOwnerships */\n      0x04\n        /* \"ERC721A.sol\":13929:13955  _packedOwnerships[tokenId] */\n      0x00\n        /* \"ERC721A.sol\":13947:13954  tokenId */\n      dup6\n        /* \"ERC721A.sol\":13929:13955  _packedOwnerships[tokenId] */\n      dup2\n      mstore\n      0x20\n      add\n      swap1\n      dup2\n      mstore\n      0x20\n      add\n      0x00\n      keccak256\n      sload\n        /* \"ERC721A.sol\":13929:13972  _packedOwnerships[tokenId] & BITMASK_BURNED */\n      and\n        /* \"ERC721A.sol\":13929:13977  _packedOwnerships[tokenId] & BITMASK_BURNED == 0 */\n      eq\n        /* \"ERC721A.sol\":13827:13977  _startTokenId() <= tokenId &&... */\n    tag_193:\n        /* \"ERC721A.sol\":13808:13977  return... */\n      swap1\n      pop\n        /* \"ERC721A.sol\":13735:14003  function _exists(uint256 tokenId) internal view returns (bool) {... */\n      swap2\n      swap1\n      pop\n      jump\t// out\n        /* \"ERC721A.sol\":7141:8246  function _packedOwnershipOf(uint256 tokenId) private view returns (uint256) {... */\n    tag_111:\n        /* \"ERC721A.sol\":7208:7215  uint256 */\n      0x00\n        /* \"ERC721A.sol\":7227:7239  uint256 curr */\n      dup1\n        /* \"ERC721A.sol\":7242:7249  tokenId */\n      dup3\n        /* \"ERC721A.sol\":7227:7249  uint256 curr = tokenId */\n      swap1\n      pop\n        /* \"ERC721A.sol\":7307:7311  curr */\n      dup1\n        /* \"ERC721A.sol\":7288:7303  _startTokenId() */\n      tag_195\n        /* \"ERC721A.sol\":7288:7301  _startTokenId */\n      tag_121\n        /* \"ERC721A.sol\":7288:7303  _startTokenId() */\n      jump\t// in\n    tag_195:\n        /* \"ERC721A.sol\":7288:7311  _startTokenId() <= curr */\n      gt\n        /* \"ERC721A.sol\":7284:8182  if (_startTokenId() <= curr)... */\n      tag_196\n      jumpi\n        /* \"ERC721A.sol\":7340:7353  _currentIndex */\n      sload(0x00)\n        /* \"ERC721A.sol\":7333:7337  curr */\n      dup2\n        /* \"ERC721A.sol\":7333:7353  curr < _currentIndex */\n      lt\n        /* \"ERC721A.sol\":7329:8182  if (curr < _currentIndex) {... */\n      iszero\n      tag_197\n      jumpi\n        /* \"ERC721A.sol\":7377:7391  uint256 packed */\n      0x00\n        /* \"ERC721A.sol\":7394:7411  _packedOwnerships */\n      0x04\n        /* \"ERC721A.sol\":7394:7417  _packedOwnerships[curr] */\n      0x00\n        /* \"ERC721A.sol\":7412:7416  curr */\n      dup4\n        /* \"ERC721A.sol\":7394:7417  _packedOwnerships[curr] */\n      dup2\n      mstore\n      0x20\n      add\n      swap1\n      dup2\n      mstore\n      0x20\n      add\n      0x00\n      keccak256\n      sload\n        /* \"ERC721A.sol\":7377:7417  uint256 packed = _packedOwnerships[curr] */\n      swap1\n      pop\n        /* \"ERC721A.sol\":7508:7509  0 */\n      0x00\n        /* \"ERC721A.sol\":1769:1777  1 << 224 */\n      0x0100000000000000000000000000000000000000000000000000000000\n        /* \"ERC721A.sol\":7481:7487  packed */\n      dup3\n        /* \"ERC721A.sol\":7481:7504  packed & BITMASK_BURNED */\n      and\n        /* \"ERC721A.sol\":7481:7509  packed & BITMASK_BURNED == 0 */\n      eq\n        /* \"ERC721A.sol\":7477:8164  if (packed & BITMASK_BURNED == 0) {... */\n      iszero\n      tag_198\n      jumpi\n        /* \"ERC721A.sol\":7992:8103  while (packed == 0) {... */\n    tag_199:\n        /* \"ERC721A.sol\":8009:8010  0 */\n      0x00\n        /* \"ERC721A.sol\":7999:8005  packed */\n      dup2\n        /* \"ERC721A.sol\":7999:8010  packed == 0 */\n      eq\n        /* \"ERC721A.sol\":7992:8103  while (packed == 0) {... */\n      iszero\n      tag_200\n      jumpi\n        /* \"ERC721A.sol\":8051:8068  _packedOwnerships */\n      0x04\n        /* \"ERC721A.sol\":8051:8076  _packedOwnerships[--curr] */\n      0x00\n        /* \"ERC721A.sol\":8069:8075  --curr */\n      dup4\n      0x01\n      swap1\n      sub\n      swap4\n      pop\n      dup4\n        /* \"ERC721A.sol\":8051:8076  _packedOwnerships[--curr] */\n      dup2\n      mstore\n      0x20\n      add\n      swap1\n      dup2\n      mstore\n      0x20\n      add\n      0x00\n      keccak256\n      sload\n        /* \"ERC721A.sol\":8042:8076  packed = _packedOwnerships[--curr] */\n      swap1\n      pop\n        /* \"ERC721A.sol\":7992:8103  while (packed == 0) {... */\n      jump(tag_199)\n    tag_200:\n        /* \"ERC721A.sol\":8135:8141  packed */\n      dup1\n        /* \"ERC721A.sol\":8128:8141  return packed */\n      swap3\n      pop\n      pop\n      pop\n      jump(tag_194)\n        /* \"ERC721A.sol\":7477:8164  if (packed & BITMASK_BURNED == 0) {... */\n    tag_198:\n        /* \"ERC721A.sol\":7329:8182  if (curr < _currentIndex) {... */\n      pop\n    tag_197:\n        /* \"ERC721A.sol\":7284:8182  if (_startTokenId() <= curr)... */\n    tag_196:\n        /* \"ERC721A.sol\":8208:8239  OwnerQueryForNonexistentToken() */\n      mload(0x40)\n      0xdf2d9b4200000000000000000000000000000000000000000000000000000000\n      dup2\n      mstore\n      0x04\n      add\n      mload(0x40)\n      dup1\n      swap2\n      sub\n      swap1\n      revert\n        /* \"ERC721A.sol\":7141:8246  function _packedOwnershipOf(uint256 tokenId) private view returns (uint256) {... */\n    tag_194:\n      swap2\n      swap1\n      pop\n      jump\t// out\n        /* \"ERC721A.sol\":27360:27463  function _msgSenderERC721A() internal view virtual returns (address) {... */\n    tag_114:\n        /* \"ERC721A.sol\":27420:27427  address */\n      0x00\n        /* \"ERC721A.sol\":27446:27456  msg.sender */\n      caller\n        /* \"ERC721A.sol\":27439:27456  return msg.sender */\n      swap1\n      pop\n        /* \"ERC721A.sol\":27360:27463  function _msgSenderERC721A() internal view virtual returns (address) {... */\n      swap1\n      jump\t// out\n        /* \"ERC721A.sol\":3502:3592  function _startTokenId() internal view virtual returns (uint256) {... */\n    tag_121:\n        /* \"ERC721A.sol\":3558:3565  uint256 */\n      0x00\n        /* \"ERC721A.sol\":3502:3592  function _startTokenId() internal view virtual returns (uint256) {... */\n      swap1\n      jump\t// out\n        /* \"ERC721A.sol\":18835:21295  function _transfer(... */\n    tag_124:\n        /* \"ERC721A.sol\":18945:18972  uint256 prevOwnershipPacked */\n      0x00\n        /* \"ERC721A.sol\":18975:19002  _packedOwnershipOf(tokenId) */\n      tag_204\n        /* \"ERC721A.sol\":18994:19001  tokenId */\n      dup3\n        /* \"ERC721A.sol\":18975:18993  _packedOwnershipOf */\n      tag_111\n        /* \"ERC721A.sol\":18975:19002  _packedOwnershipOf(tokenId) */\n      jump\t// in\n    tag_204:\n        /* \"ERC721A.sol\":18945:19002  uint256 prevOwnershipPacked = _packedOwnershipOf(tokenId) */\n      swap1\n      pop\n        /* \"ERC721A.sol\":19058:19062  from */\n      dup4\n        /* \"ERC721A.sol\":19017:19062  address(uint160(prevOwnershipPacked)) != from */\n      0xffffffffffffffffffffffffffffffffffffffff\n      and\n        /* \"ERC721A.sol\":19033:19052  prevOwnershipPacked */\n      dup2\n        /* \"ERC721A.sol\":19017:19062  address(uint160(prevOwnershipPacked)) != from */\n      0xffffffffffffffffffffffffffffffffffffffff\n      and\n      eq\n        /* \"ERC721A.sol\":19013:19099  if (address(uint160(prevOwnershipPacked)) != from) revert TransferFromIncorrectOwner() */\n      tag_205\n      jumpi\n        /* \"ERC721A.sol\":19071:19099  TransferFromIncorrectOwner() */\n      mload(0x40)\n      0xa114810000000000000000000000000000000000000000000000000000000000\n      dup2\n      mstore\n      0x04\n      add\n      mload(0x40)\n      dup1\n      swap2\n      sub\n      swap1\n      revert\n        /* \"ERC721A.sol\":19013:19099  if (address(uint160(prevOwnershipPacked)) != from) revert TransferFromIncorrectOwner() */\n    tag_205:\n        /* \"ERC721A.sol\":19110:19132  bool isApprovedOrOwner */\n      0x00\n        /* \"ERC721A.sol\":19159:19163  from */\n      dup5\n        /* \"ERC721A.sol\":19136:19163  _msgSenderERC721A() == from */\n      0xffffffffffffffffffffffffffffffffffffffff\n      and\n        /* \"ERC721A.sol\":19136:19155  _msgSenderERC721A() */\n      tag_206\n        /* \"ERC721A.sol\":19136:19153  _msgSenderERC721A */\n      tag_114\n        /* \"ERC721A.sol\":19136:19155  _msgSenderERC721A() */\n      jump\t// in\n    tag_206:\n        /* \"ERC721A.sol\":19136:19163  _msgSenderERC721A() == from */\n      0xffffffffffffffffffffffffffffffffffffffff\n      and\n      eq\n        /* \"ERC721A.sol\":19136:19222  _msgSenderERC721A() == from ||... */\n      dup1\n      tag_207\n      jumpi\n      pop\n        /* \"ERC721A.sol\":19179:19222  isApprovedForAll(from, _msgSenderERC721A()) */\n      tag_208\n        /* \"ERC721A.sol\":19196:19200  from */\n      dup6\n        /* \"ERC721A.sol\":19202:19221  _msgSenderERC721A() */\n      tag_209\n        /* \"ERC721A.sol\":19202:19219  _msgSenderERC721A */\n      tag_114\n        /* \"ERC721A.sol\":19202:19221  _msgSenderERC721A() */\n      jump\t// in\n    tag_209:\n        /* \"ERC721A.sol\":19179:19195  isApprovedForAll */\n      tag_90\n        /* \"ERC721A.sol\":19179:19222  isApprovedForAll(from, _msgSenderERC721A()) */\n      jump\t// in\n    tag_208:\n        /* \"ERC721A.sol\":19136:19222  _msgSenderERC721A() == from ||... */\n    tag_207:\n        /* \"ERC721A.sol\":19136:19281  _msgSenderERC721A() == from ||... */\n      dup1\n      tag_210\n      jumpi\n      pop\n        /* \"ERC721A.sol\":19262:19281  _msgSenderERC721A() */\n      tag_211\n        /* \"ERC721A.sol\":19262:19279  _msgSenderERC721A */\n      tag_114\n        /* \"ERC721A.sol\":19262:19281  _msgSenderERC721A() */\n      jump\t// in\n    tag_211:\n        /* \"ERC721A.sol\":19238:19281  getApproved(tokenId) == _msgSenderERC721A() */\n      0xffffffffffffffffffffffffffffffffffffffff\n      and\n        /* \"ERC721A.sol\":19238:19258  getApproved(tokenId) */\n      tag_212\n        /* \"ERC721A.sol\":19250:19257  tokenId */\n      dup5\n        /* \"ERC721A.sol\":19238:19249  getApproved */\n      tag_37\n        /* \"ERC721A.sol\":19238:19258  getApproved(tokenId) */\n      jump\t// in\n    tag_212:\n        /* \"ERC721A.sol\":19238:19281  getApproved(tokenId) == _msgSenderERC721A() */\n      0xffffffffffffffffffffffffffffffffffffffff\n      and\n      eq\n        /* \"ERC721A.sol\":19136:19281  _msgSenderERC721A() == from ||... */\n    tag_210:\n        /* \"ERC721A.sol\":19110:19282  bool isApprovedOrOwner = (_msgSenderERC721A() == from ||... */\n      swap1\n      pop\n        /* \"ERC721A.sol\":19298:19315  isApprovedOrOwner */\n      dup1\n        /* \"ERC721A.sol\":19293:19359  if (!isApprovedOrOwner) revert TransferCallerNotOwnerNorApproved() */\n      tag_213\n      jumpi\n        /* \"ERC721A.sol\":19324:19359  TransferCallerNotOwnerNorApproved() */\n      mload(0x40)\n      0x59c896be00000000000000000000000000000000000000000000000000000000\n      dup2\n      mstore\n      0x04\n      add\n      mload(0x40)\n      dup1\n      swap2\n      sub\n      swap1\n      revert\n        /* \"ERC721A.sol\":19293:19359  if (!isApprovedOrOwner) revert TransferCallerNotOwnerNorApproved() */\n    tag_213:\n        /* \"ERC721A.sol\":19387:19388  0 */\n      0x00\n        /* \"ERC721A.sol\":19373:19389  to == address(0) */\n      0xffffffffffffffffffffffffffffffffffffffff\n      and\n        /* \"ERC721A.sol\":19373:19375  to */\n      dup5\n        /* \"ERC721A.sol\":19373:19389  to == address(0) */\n      0xffffffffffffffffffffffffffffffffffffffff\n      and\n      eq\n        /* \"ERC721A.sol\":19369:19421  if (to == address(0)) revert TransferToZeroAddress() */\n      iszero\n      tag_214\n      jumpi\n        /* \"ERC721A.sol\":19398:19421  TransferToZeroAddress() */\n      mload(0x40)\n      0xea553b3400000000000000000000000000000000000000000000000000000000\n      dup2\n      mstore\n      0x04\n      add\n      mload(0x40)\n      dup1\n      swap2\n      sub\n      swap1\n      revert\n        /* \"ERC721A.sol\":19369:19421  if (to == address(0)) revert TransferToZeroAddress() */\n    tag_214:\n        /* \"ERC721A.sol\":19432:19475  _beforeTokenTransfers(from, to, tokenId, 1) */\n      tag_215\n        /* \"ERC721A.sol\":19454:19458  from */\n      dup6\n        /* \"ERC721A.sol\":19460:19462  to */\n      dup6\n        /* \"ERC721A.sol\":19464:19471  tokenId */\n      dup6\n        /* \"ERC721A.sol\":19473:19474  1 */\n      0x01\n        /* \"ERC721A.sol\":19432:19453  _beforeTokenTransfers */\n      tag_216\n        /* \"ERC721A.sol\":19432:19475  _beforeTokenTransfers(from, to, tokenId, 1) */\n      jump\t// in\n    tag_215:\n        /* \"ERC721A.sol\":19545:19560  _tokenApprovals */\n      0x06\n        /* \"ERC721A.sol\":19545:19569  _tokenApprovals[tokenId] */\n      0x00\n        /* \"ERC721A.sol\":19561:19568  tokenId */\n      dup5\n        /* \"ERC721A.sol\":19545:19569  _tokenApprovals[tokenId] */\n      dup2\n      mstore\n      0x20\n      add\n      swap1\n      dup2\n      mstore\n      0x20\n      add\n      0x00\n      keccak256\n      0x00\n        /* \"ERC721A.sol\":19538:19569  delete _tokenApprovals[tokenId] */\n      0x0100\n      exp\n      dup2\n      sload\n      swap1\n      0xffffffffffffffffffffffffffffffffffffffff\n      mul\n      not\n      and\n      swap1\n      sstore\n        /* \"ERC721A.sol\":19930:19948  _packedAddressData */\n      0x05\n        /* \"ERC721A.sol\":19930:19954  _packedAddressData[from] */\n      0x00\n        /* \"ERC721A.sol\":19949:19953  from */\n      dup7\n        /* \"ERC721A.sol\":19930:19954  _packedAddressData[from] */\n      0xffffffffffffffffffffffffffffffffffffffff\n      and\n      0xffffffffffffffffffffffffffffffffffffffff\n      and\n      dup2\n      mstore\n      0x20\n      add\n      swap1\n      dup2\n      mstore\n      0x20\n      add\n      0x00\n      keccak256\n      0x00\n        /* \"ERC721A.sol\":19928:19954  --_packedAddressData[from] */\n      dup2\n      sload\n      0x01\n      swap1\n      sub\n      swap2\n      swap1\n      pop\n      dup2\n      swap1\n      sstore\n      pop\n        /* \"ERC721A.sol\":19998:20016  _packedAddressData */\n      0x05\n        /* \"ERC721A.sol\":19998:20020  _packedAddressData[to] */\n      0x00\n        /* \"ERC721A.sol\":20017:20019  to */\n      dup6\n        /* \"ERC721A.sol\":19998:20020  _packedAddressData[to] */\n      0xffffffffffffffffffffffffffffffffffffffff\n      and\n      0xffffffffffffffffffffffffffffffffffffffff\n      and\n      dup2\n      mstore\n      0x20\n      add\n      swap1\n      dup2\n      mstore\n      0x20\n      add\n      0x00\n      keccak256\n      0x00\n        /* \"ERC721A.sol\":19996:20020  ++_packedAddressData[to] */\n      dup2\n      sload\n      0x01\n      add\n      swap2\n      swap1\n      pop\n      dup2\n      swap1\n      sstore\n      pop\n        /* \"ERC721A.sol\":2045:2053  1 << 225 */\n      0x0200000000000000000000000000000000000000000000000000000000\n        /* \"ERC721A.sol\":1656:1659  160 */\n      0xa0\n        /* \"ERC721A.sol\":20370:20385  block.timestamp */\n      timestamp\n        /* \"ERC721A.sol\":20370:20411  block.timestamp << BITPOS_START_TIMESTAMP */\n      swap1\n      shl\n        /* \"ERC721A.sol\":20329:20350  _addressToUint256(to) */\n      tag_217\n        /* \"ERC721A.sol\":20347:20349  to */\n      dup7\n        /* \"ERC721A.sol\":20329:20346  _addressToUint256 */\n      tag_218\n        /* \"ERC721A.sol\":20329:20350  _addressToUint256(to) */\n      jump\t// in\n    tag_217:\n        /* \"ERC721A.sol\":20329:20412  _addressToUint256(to) |... */\n      or\n        /* \"ERC721A.sol\":20329:20455  _addressToUint256(to) |... */\n      or\n        /* \"ERC721A.sol\":20284:20301  _packedOwnerships */\n      0x04\n        /* \"ERC721A.sol\":20284:20310  _packedOwnerships[tokenId] */\n      0x00\n        /* \"ERC721A.sol\":20302:20309  tokenId */\n      dup6\n        /* \"ERC721A.sol\":20284:20310  _packedOwnerships[tokenId] */\n      dup2\n      mstore\n      0x20\n      add\n      swap1\n      dup2\n      mstore\n      0x20\n      add\n      0x00\n      keccak256\n        /* \"ERC721A.sol\":20284:20455  _packedOwnerships[tokenId] =... */\n      dup2\n      swap1\n      sstore\n      pop\n        /* \"ERC721A.sol\":20622:20623  0 */\n      0x00\n        /* \"ERC721A.sol\":2045:2053  1 << 225 */\n      0x0200000000000000000000000000000000000000000000000000000000\n        /* \"ERC721A.sol\":20572:20591  prevOwnershipPacked */\n      dup4\n        /* \"ERC721A.sol\":20572:20618  prevOwnershipPacked & BITMASK_NEXT_INITIALIZED */\n      and\n        /* \"ERC721A.sol\":20572:20623  prevOwnershipPacked & BITMASK_NEXT_INITIALIZED == 0 */\n      eq\n        /* \"ERC721A.sol\":20568:21184  if (prevOwnershipPacked & BITMASK_NEXT_INITIALIZED == 0) {... */\n      iszero\n      tag_219\n      jumpi\n        /* \"ERC721A.sol\":20643:20662  uint256 nextTokenId */\n      0x00\n        /* \"ERC721A.sol\":20675:20676  1 */\n      0x01\n        /* \"ERC721A.sol\":20665:20672  tokenId */\n      dup5\n        /* \"ERC721A.sol\":20665:20676  tokenId + 1 */\n      add\n        /* \"ERC721A.sol\":20643:20676  uint256 nextTokenId = tokenId + 1 */\n      swap1\n      pop\n        /* \"ERC721A.sol\":20830:20831  0 */\n      0x00\n        /* \"ERC721A.sol\":20796:20813  _packedOwnerships */\n      0x04\n        /* \"ERC721A.sol\":20796:20826  _packedOwnerships[nextTokenId] */\n      0x00\n        /* \"ERC721A.sol\":20814:20825  nextTokenId */\n      dup4\n        /* \"ERC721A.sol\":20796:20826  _packedOwnerships[nextTokenId] */\n      dup2\n      mstore\n      0x20\n      add\n      swap1\n      dup2\n      mstore\n      0x20\n      add\n      0x00\n      keccak256\n      sload\n        /* \"ERC721A.sol\":20796:20831  _packedOwnerships[nextTokenId] == 0 */\n      eq\n        /* \"ERC721A.sol\":20792:21170  if (_packedOwnerships[nextTokenId] == 0) {... */\n      iszero\n      tag_220\n      jumpi\n        /* \"ERC721A.sol\":20932:20945  _currentIndex */\n      sload(0x00)\n        /* \"ERC721A.sol\":20917:20928  nextTokenId */\n      dup2\n        /* \"ERC721A.sol\":20917:20945  nextTokenId != _currentIndex */\n      eq\n        /* \"ERC721A.sol\":20913:21152  if (nextTokenId != _currentIndex) {... */\n      tag_221\n      jumpi\n        /* \"ERC721A.sol\":21110:21129  prevOwnershipPacked */\n      dup3\n        /* \"ERC721A.sol\":21077:21094  _packedOwnerships */\n      0x04\n        /* \"ERC721A.sol\":21077:21107  _packedOwnerships[nextTokenId] */\n      0x00\n        /* \"ERC721A.sol\":21095:21106  nextTokenId */\n      dup4\n        /* \"ERC721A.sol\":21077:21107  _packedOwnerships[nextTokenId] */\n      dup2\n      mstore\n      0x20\n      add\n      swap1\n      dup2\n      mstore\n      0x20\n      add\n      0x00\n      keccak256\n        /* \"ERC721A.sol\":21077:21129  _packedOwnerships[nextTokenId] = prevOwnershipPacked */\n      dup2\n      swap1\n      sstore\n      pop\n        /* \"ERC721A.sol\":20913:21152  if (nextTokenId != _currentIndex) {... */\n    tag_221:\n        /* \"ERC721A.sol\":20792:21170  if (_packedOwnerships[nextTokenId] == 0) {... */\n    tag_220:\n        /* \"ERC721A.sol\":20568:21184  if (prevOwnershipPacked & BITMASK_NEXT_INITIALIZED == 0) {... */\n      pop\n    tag_219:\n        /* \"ERC721A.sol\":21228:21235  tokenId */\n      dup3\n        /* \"ERC721A.sol\":21224:21226  to */\n      dup5\n        /* \"ERC721A.sol\":21209:21236  Transfer(from, to, tokenId) */\n      0xffffffffffffffffffffffffffffffffffffffff\n      and\n        /* \"ERC721A.sol\":21218:21222  from */\n      dup7\n        /* \"ERC721A.sol\":21209:21236  Transfer(from, to, tokenId) */\n      0xffffffffffffffffffffffffffffffffffffffff\n      and\n      0xddf252ad1be2c89b69c2b068fc378daa952ba7f163c4a11628f55a4df523b3ef\n      mload(0x40)\n      mload(0x40)\n      dup1\n      swap2\n      sub\n      swap1\n      log4\n        /* \"ERC721A.sol\":21246:21288  _afterTokenTransfers(from, to, tokenId, 1) */\n      tag_222\n        /* \"ERC721A.sol\":21267:21271  from */\n      dup6\n        /* \"ERC721A.sol\":21273:21275  to */\n      dup6\n        /* \"ERC721A.sol\":21277:21284  tokenId */\n      dup6\n        /* \"ERC721A.sol\":21286:21287  1 */\n      0x01\n        /* \"ERC721A.sol\":21246:21266  _afterTokenTransfers */\n      tag_223\n        /* \"ERC721A.sol\":21246:21288  _afterTokenTransfers(from, to, tokenId, 1) */\n      jump\t// in\n    tag_222:\n        /* \"ERC721A.sol\":18835:21295  function _transfer(... */\n      pop\n      pop\n      pop\n      pop\n      pop\n      jump\t// out\n        /* \"@openzeppelin/contracts@4.6.0/utils/Context.sol\":640:736  function _msgSender() internal view virtual returns (address) {... */\n    tag_127:\n        /* \"@openzeppelin/contracts@4.6.0/utils/Context.sol\":693:700  address */\n      0x00\n        /* \"@openzeppelin/contracts@4.6.0/utils/Context.sol\":719:729  msg.sender */\n      caller\n        /* \"@openzeppelin/contracts@4.6.0/utils/Context.sol\":712:729  return msg.sender */\n      swap1\n      pop\n        /* \"@openzeppelin/contracts@4.6.0/utils/Context.sol\":640:736  function _msgSender() internal view virtual returns (address) {... */\n      swap1\n      jump\t// out\n        /* \"ERC721A.sol\":14082:14184  function _safeMint(address to, uint256 quantity) internal {... */\n    tag_134:\n        /* \"ERC721A.sol\":14150:14177  _safeMint(to, quantity, '') */\n      tag_226\n        /* \"ERC721A.sol\":14160:14162  to */\n      dup3\n        /* \"ERC721A.sol\":14164:14172  quantity */\n      dup3\n        /* \"ERC721A.sol\":14150:14177  _safeMint(to, quantity, '') */\n      mload(0x40)\n      dup1\n      0x20\n      add\n      0x40\n      mstore\n      dup1\n      0x00\n      dup2\n      mstore\n      pop\n        /* \"ERC721A.sol\":14150:14159  _safeMint */\n      tag_227\n        /* \"ERC721A.sol\":14150:14177  _safeMint(to, quantity, '') */\n      jump\t// in\n    tag_226:\n        /* \"ERC721A.sol\":14082:14184  function _safeMint(address to, uint256 quantity) internal {... */\n      pop\n      pop\n      jump\t// out\n        /* \"@openzeppelin/contracts@4.6.0/access/Ownable.sol\":2270:2457  function _transferOwnership(address newOwner) internal virtual {... */\n    tag_148:\n        /* \"@openzeppelin/contracts@4.6.0/access/Ownable.sol\":2343:2359  address oldOwner */\n      0x00\n        /* \"@openzeppelin/contracts@4.6.0/access/Ownable.sol\":2362:2368  _owner */\n      0x08\n      0x00\n      swap1\n      sload\n      swap1\n      0x0100\n      exp\n      swap1\n      div\n      0xffffffffffffffffffffffffffffffffffffffff\n      and\n        /* \"@openzeppelin/contracts@4.6.0/access/Ownable.sol\":2343:2368  address oldOwner = _owner */\n      swap1\n      pop\n        /* \"@openzeppelin/contracts@4.6.0/access/Ownable.sol\":2387:2395  newOwner */\n      dup2\n        /* \"@openzeppelin/contracts@4.6.0/access/Ownable.sol\":2378:2384  _owner */\n      0x08\n      0x00\n        /* \"@openzeppelin/contracts@4.6.0/access/Ownable.sol\":2378:2395  _owner = newOwner */\n      0x0100\n      exp\n      dup2\n      sload\n      dup2\n      0xffffffffffffffffffffffffffffffffffffffff\n      mul\n      not\n      and\n      swap1\n      dup4\n      0xffffffffffffffffffffffffffffffffffffffff\n      and\n      mul\n      or\n      swap1\n      sstore\n      pop\n        /* \"@openzeppelin/contracts@4.6.0/access/Ownable.sol\":2441:2449  newOwner */\n      dup2\n        /* \"@openzeppelin/contracts@4.6.0/access/Ownable.sol\":2410:2450  OwnershipTransferred(oldOwner, newOwner) */\n      0xffffffffffffffffffffffffffffffffffffffff\n      and\n        /* \"@openzeppelin/contracts@4.6.0/access/Ownable.sol\":2431:2439  oldOwner */\n      dup2\n        /* \"@openzeppelin/contracts@4.6.0/access/Ownable.sol\":2410:2450  OwnershipTransferred(oldOwner, newOwner) */\n      0xffffffffffffffffffffffffffffffffffffffff\n      and\n      0x8be0079c531659141344cd1fd0a4f28419497f9722a3daafe3b4186f6b6457e0\n      mload(0x40)\n      mload(0x40)\n      dup1\n      swap2\n      sub\n      swap1\n      log3\n        /* \"@openzeppelin/contracts@4.6.0/access/Ownable.sol\":2270:2457  function _transferOwnership(address newOwner) internal virtual {... */\n      pop\n      pop\n      jump\t// out\n        /* \"ERC721A.sol\":24900:25597  function _checkContractOnERC721Received(... */\n    tag_166:\n        /* \"ERC721A.sol\":25058:25062  bool */\n      0x00\n        /* \"ERC721A.sol\":25103:25105  to */\n      dup4\n        /* \"ERC721A.sol\":25078:25123  ERC721A__IERC721Receiver(to).onERC721Received */\n      0xffffffffffffffffffffffffffffffffffffffff\n      and\n      0x150b7a02\n        /* \"ERC721A.sol\":25124:25143  _msgSenderERC721A() */\n      tag_230\n        /* \"ERC721A.sol\":25124:25141  _msgSenderERC721A */\n      tag_114\n        /* \"ERC721A.sol\":25124:25143  _msgSenderERC721A() */\n      jump\t// in\n    tag_230:\n        /* \"ERC721A.sol\":25145:25149  from */\n      dup8\n        /* \"ERC721A.sol\":25151:25158  tokenId */\n      dup7\n        /* \"ERC721A.sol\":25160:25165  _data */\n      dup7\n        /* \"ERC721A.sol\":25078:25166  ERC721A__IERC721Receiver(to).onERC721Received(_msgSenderERC721A(), from, tokenId, _data) */\n      mload(0x40)\n      dup6\n      0xffffffff\n      and\n      0xe0\n      shl\n      dup2\n      mstore\n      0x04\n      add\n      tag_231\n      swap5\n      swap4\n      swap3\n      swap2\n      swap1\n      tag_232\n      jump\t// in\n    tag_231:\n      0x20\n      mload(0x40)\n      dup1\n      dup4\n      sub\n      dup2\n      0x00\n      dup8\n      dup1\n      extcodesize\n      iszero\n      dup1\n      iszero\n      tag_233\n      jumpi\n      0x00\n      dup1\n      revert\n    tag_233:\n      pop\n      gas\n      call\n      swap3\n      pop\n      pop\n      pop\n      dup1\n      iszero\n      tag_234\n      jumpi\n      pop\n      mload(0x40)\n      returndatasize\n      not(0x1f)\n      0x1f\n      dup3\n      add\n      and\n      dup3\n      add\n      dup1\n      0x40\n      mstore\n      pop\n      dup2\n      add\n      swap1\n      tag_235\n      swap2\n      swap1\n      tag_236\n      jump\t// in\n    tag_235:\n      0x01\n    tag_234:\n        /* \"ERC721A.sol\":25074:25591  try ERC721A__IERC721Receiver(to).onERC721Received(_msgSenderERC721A(), from, tokenId, _data) returns (... */\n      tag_237\n      jumpi\n      returndatasize\n      dup1\n      0x00\n      dup2\n      eq\n      tag_242\n      jumpi\n      mload(0x40)\n      swap2\n      pop\n      and(add(returndatasize, 0x3f), not(0x1f))\n      dup3\n      add\n      0x40\n      mstore\n      returndatasize\n      dup3\n      mstore\n      returndatasize\n      0x00\n      0x20\n      dup5\n      add\n      returndatacopy\n      jump(tag_241)\n    tag_242:\n      0x60\n      swap2\n      pop\n    tag_241:\n      pop\n        /* \"ERC721A.sol\":25373:25374  0 */\n      0x00\n        /* \"ERC721A.sol\":25356:25362  reason */\n      dup2\n        /* \"ERC721A.sol\":25356:25369  reason.length */\n      mload\n        /* \"ERC721A.sol\":25356:25374  reason.length == 0 */\n      eq\n        /* \"ERC721A.sol\":25352:25581  if (reason.length == 0) {... */\n      iszero\n      tag_243\n      jumpi\n        /* \"ERC721A.sol\":25401:25441  TransferToNonERC721ReceiverImplementer() */\n      mload(0x40)\n      0xd1a57ed600000000000000000000000000000000000000000000000000000000\n      dup2\n      mstore\n      0x04\n      add\n      mload(0x40)\n      dup1\n      swap2\n      sub\n      swap1\n      revert\n        /* \"ERC721A.sol\":25352:25581  if (reason.length == 0) {... */\n    tag_243:\n        /* \"ERC721A.sol\":25541:25547  reason */\n      dup1\n        /* \"ERC721A.sol\":25535:25548  mload(reason) */\n      mload\n        /* \"ERC721A.sol\":25526:25532  reason */\n      dup2\n        /* \"ERC721A.sol\":25522:25524  32 */\n      0x20\n        /* \"ERC721A.sol\":25518:25533  add(32, reason) */\n      add\n        /* \"ERC721A.sol\":25511:25549  revert(add(32, reason), mload(reason)) */\n      revert\n        /* \"ERC721A.sol\":25074:25591  try ERC721A__IERC721Receiver(to).onERC721Received(_msgSenderERC721A(), from, tokenId, _data) returns (... */\n    tag_237:\n        /* \"ERC721A.sol\":25244:25298  ERC721A__IERC721Receiver(to).onERC721Received.selector */\n      shl(0xe0, 0x150b7a02)\n        /* \"ERC721A.sol\":25234:25298  retval == ERC721A__IERC721Receiver(to).onERC721Received.selector */\n      not(0xffffffffffffffffffffffffffffffffffffffffffffffffffffffff)\n      and\n        /* \"ERC721A.sol\":25234:25240  retval */\n      dup2\n        /* \"ERC721A.sol\":25234:25298  retval == ERC721A__IERC721Receiver(to).onERC721Received.selector */\n      not(0xffffffffffffffffffffffffffffffffffffffffffffffffffffffff)\n      and\n      eq\n        /* \"ERC721A.sol\":25227:25298  return retval == ERC721A__IERC721Receiver(to).onERC721Received.selector */\n      swap2\n      pop\n      pop\n        /* \"ERC721A.sol\":24900:25597  function _checkContractOnERC721Received(... */\n      swap5\n      swap4\n      pop\n      pop\n      pop\n      pop\n      jump\t// out\n        /* \"bulkNFTminter.sol\":229:379  function _baseURI() internal pure override returns (string memory) {... */\n    tag_172:\n        /* \"bulkNFTminter.sol\":281:294  string memory */\n      0x60\n        /* \"bulkNFTminter.sol\":302:374  return \"https://iheartcraftythings.com/wp-content/uploads/2021/07/7.jpg\" */\n      mload(0x40)\n      dup1\n      0x60\n      add\n      0x40\n      mstore\n      dup1\n      0x3f\n      dup2\n      mstore\n      0x20\n      add\n      data_c85d34806aee4c64020221c448c413c2761083d5792a4f0d21c9a60bf84e8ed5\n      0x3f\n      swap2\n      codecopy\n      swap1\n      pop\n        /* \"bulkNFTminter.sol\":229:379  function _baseURI() internal pure override returns (string memory) {... */\n      swap1\n      jump\t// out\n        /* \"ERC721A.sol\":27564:29484  function _toString(uint256 value) internal pure returns (string memory ptr) {... */\n    tag_176:\n        /* \"ERC721A.sol\":27621:27638  string memory ptr */\n      0x60\n        /* \"ERC721A.sol\":28036:28039  128 */\n      0x80\n        /* \"ERC721A.sol\":28029:28033  0x40 */\n      0x40\n        /* \"ERC721A.sol\":28023:28034  mload(0x40) */\n      mload\n        /* \"ERC721A.sol\":28019:28040  add(mload(0x40), 128) */\n      add\n        /* \"ERC721A.sol\":28012:28040  ptr := add(mload(0x40), 128) */\n      swap1\n      pop\n        /* \"ERC721A.sol\":28125:28128  ptr */\n      dup1\n        /* \"ERC721A.sol\":28119:28123  0x40 */\n      0x40\n        /* \"ERC721A.sol\":28112:28129  mstore(0x40, ptr) */\n      mstore\n        /* \"ERC721A.sol\":28228:28231  ptr */\n      dup1\n        /* \"ERC721A.sol\":28677:28682  value */\n      dup3\n        /* \"ERC721A.sol\":28805:28806  1 */\n      0x01\n        /* \"ERC721A.sol\":28800:28803  ptr */\n      dup4\n        /* \"ERC721A.sol\":28796:28807  sub(ptr, 1) */\n      sub\n        /* \"ERC721A.sol\":28789:28807  ptr := sub(ptr, 1) */\n      swap3\n      pop\n        /* \"ERC721A.sol\":28940:28942  10 */\n      0x0a\n        /* \"ERC721A.sol\":28934:28938  temp */\n      dup2\n        /* \"ERC721A.sol\":28930:28943  mod(temp, 10) */\n      mod\n        /* \"ERC721A.sol\":28926:28928  48 */\n      0x30\n        /* \"ERC721A.sol\":28922:28944  add(48, mod(temp, 10)) */\n      add\n        /* \"ERC721A.sol\":28917:28920  ptr */\n      dup4\n        /* \"ERC721A.sol\":28909:28945  mstore8(ptr, add(48, mod(temp, 10))) */\n      mstore8\n        /* \"ERC721A.sol\":28980:28982  10 */\n      0x0a\n        /* \"ERC721A.sol\":28974:28978  temp */\n      dup2\n        /* \"ERC721A.sol\":28970:28983  div(temp, 10) */\n      div\n        /* \"ERC721A.sol\":28962:28983  temp := div(temp, 10) */\n      swap1\n      pop\n        /* \"ERC721A.sol\":28570:29238  for { ... */\n    tag_248:\n        /* \"ERC721A.sol\":28998:29002  temp */\n      dup1\n        /* \"ERC721A.sol\":28570:29238  for { ... */\n      iszero\n      tag_250\n      jumpi\n        /* \"ERC721A.sol\":29169:29170  1 */\n      0x01\n        /* \"ERC721A.sol\":29164:29167  ptr */\n      dup4\n        /* \"ERC721A.sol\":29160:29171  sub(ptr, 1) */\n      sub\n        /* \"ERC721A.sol\":29153:29171  ptr := sub(ptr, 1) */\n      swap3\n      pop\n        /* \"ERC721A.sol\":29219:29221  10 */\n      0x0a\n        /* \"ERC721A.sol\":29213:29217  temp */\n      dup2\n        /* \"ERC721A.sol\":29209:29222  mod(temp, 10) */\n      mod\n        /* \"ERC721A.sol\":29205:29207  48 */\n      0x30\n        /* \"ERC721A.sol\":29201:29223  add(48, mod(temp, 10)) */\n      add\n        /* \"ERC721A.sol\":29196:29199  ptr */\n      dup4\n        /* \"ERC721A.sol\":29188:29224  mstore8(ptr, add(48, mod(temp, 10))) */\n      mstore8\n        /* \"ERC721A.sol\":29092:29094  10 */\n      0x0a\n        /* \"ERC721A.sol\":29086:29090  temp */\n      dup2\n        /* \"ERC721A.sol\":29082:29095  div(temp, 10) */\n      div\n        /* \"ERC721A.sol\":29074:29095  temp := div(temp, 10) */\n      swap1\n      pop\n        /* \"ERC721A.sol\":28570:29238  for { ... */\n      jump(tag_248)\n    tag_250:\n        /* \"ERC721A.sol\":28574:28997  { ... */\n      pop\n        /* \"ERC721A.sol\":29287:29290  ptr */\n      dup2\n        /* \"ERC721A.sol\":29282:29285  end */\n      dup2\n        /* \"ERC721A.sol\":29278:29291  sub(end, ptr) */\n      sub\n        /* \"ERC721A.sol\":29400:29402  32 */\n      0x20\n        /* \"ERC721A.sol\":29395:29398  ptr */\n      dup4\n        /* \"ERC721A.sol\":29391:29403  sub(ptr, 32) */\n      sub\n        /* \"ERC721A.sol\":29384:29403  ptr := sub(ptr, 32) */\n      swap3\n      pop\n        /* \"ERC721A.sol\":29461:29467  length */\n      dup1\n        /* \"ERC721A.sol\":29456:29459  ptr */\n      dup4\n        /* \"ERC721A.sol\":29449:29468  mstore(ptr, length) */\n      mstore\n        /* \"ERC721A.sol\":27659:29478  {... */\n      pop\n      pop\n      swap2\n      swap1\n      pop\n      jump\t// out\n        /* \"ERC721A.sol\":26228:26382  function _beforeTokenTransfers(... */\n    tag_216:\n      pop\n      pop\n      pop\n      pop\n      jump\t// out\n        /* \"ERC721A.sol\":10824:10968  function _addressToUint256(address value) private pure returns (uint256 result) {... */\n    tag_218:\n        /* \"ERC721A.sol\":10888:10902  uint256 result */\n      0x00\n        /* \"ERC721A.sol\":10947:10952  value */\n      dup2\n        /* \"ERC721A.sol\":10937:10952  result := value */\n      swap1\n      pop\n        /* \"ERC721A.sol\":10923:10962  {... */\n      swap2\n      swap1\n      pop\n      jump\t// out\n        /* \"ERC721A.sol\":27023:27176  function _afterTokenTransfers(... */\n    tag_223:\n      pop\n      pop\n      pop\n      pop\n      jump\t// out\n        /* \"ERC721A.sol\":14544:16728  function _safeMint(... */\n    tag_227:\n        /* \"ERC721A.sol\":14662:14682  uint256 startTokenId */\n      0x00\n        /* \"ERC721A.sol\":14685:14698  _currentIndex */\n      dup1\n      sload\n        /* \"ERC721A.sol\":14662:14698  uint256 startTokenId = _currentIndex */\n      swap1\n      pop\n        /* \"ERC721A.sol\":14726:14727  0 */\n      0x00\n        /* \"ERC721A.sol\":14712:14728  to == address(0) */\n      0xffffffffffffffffffffffffffffffffffffffff\n      and\n        /* \"ERC721A.sol\":14712:14714  to */\n      dup5\n        /* \"ERC721A.sol\":14712:14728  to == address(0) */\n      0xffffffffffffffffffffffffffffffffffffffff\n      and\n      eq\n        /* \"ERC721A.sol\":14708:14756  if (to == address(0)) revert MintToZeroAddress() */\n      iszero\n      tag_255\n      jumpi\n        /* \"ERC721A.sol\":14737:14756  MintToZeroAddress() */\n      mload(0x40)\n      0x2e07630000000000000000000000000000000000000000000000000000000000\n      dup2\n      mstore\n      0x04\n      add\n      mload(0x40)\n      dup1\n      swap2\n      sub\n      swap1\n      revert\n        /* \"ERC721A.sol\":14708:14756  if (to == address(0)) revert MintToZeroAddress() */\n    tag_255:\n        /* \"ERC721A.sol\":14782:14783  0 */\n      0x00\n        /* \"ERC721A.sol\":14770:14778  quantity */\n      dup4\n        /* \"ERC721A.sol\":14770:14783  quantity == 0 */\n      eq\n        /* \"ERC721A.sol\":14766:14810  if (quantity == 0) revert MintZeroQuantity() */\n      iszero\n      tag_256\n      jumpi\n        /* \"ERC721A.sol\":14792:14810  MintZeroQuantity() */\n      mload(0x40)\n      0xb562e8dd00000000000000000000000000000000000000000000000000000000\n      dup2\n      mstore\n      0x04\n      add\n      mload(0x40)\n      dup1\n      swap2\n      sub\n      swap1\n      revert\n        /* \"ERC721A.sol\":14766:14810  if (quantity == 0) revert MintZeroQuantity() */\n    tag_256:\n        /* \"ERC721A.sol\":14821:14882  _beforeTokenTransfers(address(0), to, startTokenId, quantity) */\n      tag_257\n        /* \"ERC721A.sol\":14851:14852  0 */\n      0x00\n        /* \"ERC721A.sol\":14855:14857  to */\n      dup6\n        /* \"ERC721A.sol\":14859:14871  startTokenId */\n      dup4\n        /* \"ERC721A.sol\":14873:14881  quantity */\n      dup7\n        /* \"ERC721A.sol\":14821:14842  _beforeTokenTransfers */\n      tag_216\n        /* \"ERC721A.sol\":14821:14882  _beforeTokenTransfers(address(0), to, startTokenId, quantity) */\n      jump\t// in\n    tag_257:\n        /* \"ERC721A.sol\":15414:15415  1 */\n      0x01\n        /* \"ERC721A.sol\":1151:1153  64 */\n      0x40\n        /* \"ERC721A.sol\":15385:15386  1 */\n      0x01\n        /* \"ERC721A.sol\":15385:15410  1 << BITPOS_NUMBER_MINTED */\n      swap1\n      shl\n        /* \"ERC721A.sol\":15384:15415  (1 << BITPOS_NUMBER_MINTED) | 1 */\n      or\n        /* \"ERC721A.sol\":15372:15380  quantity */\n      dup4\n        /* \"ERC721A.sol\":15372:15416  quantity * ((1 << BITPOS_NUMBER_MINTED) | 1) */\n      mul\n        /* \"ERC721A.sol\":15346:15364  _packedAddressData */\n      0x05\n        /* \"ERC721A.sol\":15346:15368  _packedAddressData[to] */\n      0x00\n        /* \"ERC721A.sol\":15365:15367  to */\n      dup7\n        /* \"ERC721A.sol\":15346:15368  _packedAddressData[to] */\n      0xffffffffffffffffffffffffffffffffffffffff\n      and\n      0xffffffffffffffffffffffffffffffffffffffff\n      and\n      dup2\n      mstore\n      0x20\n      add\n      swap1\n      dup2\n      mstore\n      0x20\n      add\n      0x00\n      keccak256\n      0x00\n        /* \"ERC721A.sol\":15346:15416  _packedAddressData[to] += quantity * ((1 << BITPOS_NUMBER_MINTED) | 1) */\n      dup3\n      dup3\n      sload\n      add\n      swap3\n      pop\n      pop\n      dup2\n      swap1\n      sstore\n      pop\n        /* \"ERC721A.sol\":1913:1916  225 */\n      0xe1\n        /* \"ERC721A.sol\":15805:15834  _boolToUint256(quantity == 1) */\n      tag_258\n        /* \"ERC721A.sol\":15832:15833  1 */\n      0x01\n        /* \"ERC721A.sol\":15820:15828  quantity */\n      dup6\n        /* \"ERC721A.sol\":15820:15833  quantity == 1 */\n      eq\n        /* \"ERC721A.sol\":15805:15819  _boolToUint256 */\n      tag_259\n        /* \"ERC721A.sol\":15805:15834  _boolToUint256(quantity == 1) */\n      jump\t// in\n    tag_258:\n        /* \"ERC721A.sol\":15805:15861  _boolToUint256(quantity == 1) << BITPOS_NEXT_INITIALIZED */\n      swap1\n      shl\n        /* \"ERC721A.sol\":1656:1659  160 */\n      0xa0\n        /* \"ERC721A.sol\":15743:15758  block.timestamp */\n      timestamp\n        /* \"ERC721A.sol\":15743:15784  block.timestamp << BITPOS_START_TIMESTAMP */\n      swap1\n      shl\n        /* \"ERC721A.sol\":15702:15723  _addressToUint256(to) */\n      tag_260\n        /* \"ERC721A.sol\":15720:15722  to */\n      dup7\n        /* \"ERC721A.sol\":15702:15719  _addressToUint256 */\n      tag_218\n        /* \"ERC721A.sol\":15702:15723  _addressToUint256(to) */\n      jump\t// in\n    tag_260:\n        /* \"ERC721A.sol\":15702:15785  _addressToUint256(to) |... */\n      or\n        /* \"ERC721A.sol\":15702:15862  _addressToUint256(to) |... */\n      or\n        /* \"ERC721A.sol\":15652:15669  _packedOwnerships */\n      0x04\n        /* \"ERC721A.sol\":15652:15683  _packedOwnerships[startTokenId] */\n      0x00\n        /* \"ERC721A.sol\":15670:15682  startTokenId */\n      dup4\n        /* \"ERC721A.sol\":15652:15683  _packedOwnerships[startTokenId] */\n      dup2\n      mstore\n      0x20\n      add\n      swap1\n      dup2\n      mstore\n      0x20\n      add\n      0x00\n      keccak256\n        /* \"ERC721A.sol\":15652:15862  _packedOwnerships[startTokenId] =... */\n      dup2\n      swap1\n      sstore\n      pop\n        /* \"ERC721A.sol\":15877:15897  uint256 updatedIndex */\n      0x00\n        /* \"ERC721A.sol\":15900:15912  startTokenId */\n      dup2\n        /* \"ERC721A.sol\":15877:15912  uint256 updatedIndex = startTokenId */\n      swap1\n      pop\n        /* \"ERC721A.sol\":15926:15937  uint256 end */\n      0x00\n        /* \"ERC721A.sol\":15955:15963  quantity */\n      dup5\n        /* \"ERC721A.sol\":15940:15952  updatedIndex */\n      dup3\n        /* \"ERC721A.sol\":15940:15963  updatedIndex + quantity */\n      add\n        /* \"ERC721A.sol\":15926:15963  uint256 end = updatedIndex + quantity */\n      swap1\n      pop\n        /* \"ERC721A.sol\":16000:16001  0 */\n      0x00\n        /* \"ERC721A.sol\":15982:15984  to */\n      dup7\n        /* \"ERC721A.sol\":15982:15996  to.code.length */\n      0xffffffffffffffffffffffffffffffffffffffff\n      and\n      extcodesize\n        /* \"ERC721A.sol\":15982:16001  to.code.length != 0 */\n      eq\n        /* \"ERC721A.sol\":15978:16600  if (to.code.length != 0) {... */\n      tag_261\n      jumpi\n        /* \"ERC721A.sol\":16021:16329  do {... */\n    tag_262:\n        /* \"ERC721A.sol\":16076:16088  updatedIndex */\n      dup2\n        /* \"ERC721A.sol\":16072:16074  to */\n      dup7\n        /* \"ERC721A.sol\":16051:16089  Transfer(address(0), to, updatedIndex) */\n      0xffffffffffffffffffffffffffffffffffffffff\n      and\n        /* \"ERC721A.sol\":16068:16069  0 */\n      0x00\n        /* \"ERC721A.sol\":16051:16089  Transfer(address(0), to, updatedIndex) */\n      0xffffffffffffffffffffffffffffffffffffffff\n      and\n      0xddf252ad1be2c89b69c2b068fc378daa952ba7f163c4a11628f55a4df523b3ef\n      mload(0x40)\n      mload(0x40)\n      dup1\n      swap2\n      sub\n      swap1\n      log4\n        /* \"ERC721A.sol\":16116:16185  _checkContractOnERC721Received(address(0), to, updatedIndex++, _data) */\n      tag_265\n        /* \"ERC721A.sol\":16155:16156  0 */\n      0x00\n        /* \"ERC721A.sol\":16159:16161  to */\n      dup8\n        /* \"ERC721A.sol\":16163:16177  updatedIndex++ */\n      dup5\n      dup1\n      0x01\n      add\n      swap6\n      pop\n        /* \"ERC721A.sol\":16179:16184  _data */\n      dup8\n        /* \"ERC721A.sol\":16116:16146  _checkContractOnERC721Received */\n      tag_166\n        /* \"ERC721A.sol\":16116:16185  _checkContractOnERC721Received(address(0), to, updatedIndex++, _data) */\n      jump\t// in\n    tag_265:\n        /* \"ERC721A.sol\":16111:16283  if (!_checkContractOnERC721Received(address(0), to, updatedIndex++, _data)) {... */\n      tag_266\n      jumpi\n        /* \"ERC721A.sol\":16220:16260  TransferToNonERC721ReceiverImplementer() */\n      mload(0x40)\n      0xd1a57ed600000000000000000000000000000000000000000000000000000000\n      dup2\n      mstore\n      0x04\n      add\n      mload(0x40)\n      dup1\n      swap2\n      sub\n      swap1\n      revert\n        /* \"ERC721A.sol\":16111:16283  if (!_checkContractOnERC721Received(address(0), to, updatedIndex++, _data)) {... */\n    tag_266:\n        /* \"ERC721A.sol\":16324:16327  end */\n      dup1\n        /* \"ERC721A.sol\":16309:16321  updatedIndex */\n      dup3\n        /* \"ERC721A.sol\":16309:16327  updatedIndex < end */\n      lt\n        /* \"ERC721A.sol\":16021:16329  do {... */\n      tag_262\n      jumpi\n        /* \"ERC721A.sol\":16408:16420  startTokenId */\n      dup3\n        /* \"ERC721A.sol\":16391:16404  _currentIndex */\n      sload(0x00)\n        /* \"ERC721A.sol\":16391:16420  _currentIndex != startTokenId */\n      eq\n        /* \"ERC721A.sol\":16387:16430  if (_currentIndex != startTokenId) revert() */\n      tag_267\n      jumpi\n        /* \"ERC721A.sol\":16422:16430  revert() */\n      0x00\n      dup1\n      revert\n        /* \"ERC721A.sol\":16387:16430  if (_currentIndex != startTokenId) revert() */\n    tag_267:\n        /* \"ERC721A.sol\":15978:16600  if (to.code.length != 0) {... */\n      jump(tag_268)\n    tag_261:\n        /* \"ERC721A.sol\":16469:16586  do {... */\n    tag_269:\n        /* \"ERC721A.sol\":16524:16538  updatedIndex++ */\n      dup2\n      dup1\n      0x01\n      add\n      swap3\n      pop\n        /* \"ERC721A.sol\":16520:16522  to */\n      dup7\n        /* \"ERC721A.sol\":16499:16539  Transfer(address(0), to, updatedIndex++) */\n      0xffffffffffffffffffffffffffffffffffffffff\n      and\n        /* \"ERC721A.sol\":16516:16517  0 */\n      0x00\n        /* \"ERC721A.sol\":16499:16539  Transfer(address(0), to, updatedIndex++) */\n      0xffffffffffffffffffffffffffffffffffffffff\n      and\n      0xddf252ad1be2c89b69c2b068fc378daa952ba7f163c4a11628f55a4df523b3ef\n      mload(0x40)\n      mload(0x40)\n      dup1\n      swap2\n      sub\n      swap1\n      log4\n        /* \"ERC721A.sol\":16581:16584  end */\n      dup1\n        /* \"ERC721A.sol\":16566:16578  updatedIndex */\n      dup3\n        /* \"ERC721A.sol\":16566:16584  updatedIndex < end */\n      lt\n        /* \"ERC721A.sol\":16469:16586  do {... */\n      tag_269\n      jumpi\n        /* \"ERC721A.sol\":15978:16600  if (to.code.length != 0) {... */\n    tag_268:\n        /* \"ERC721A.sol\":16629:16641  updatedIndex */\n      dup2\n        /* \"ERC721A.sol\":16613:16626  _currentIndex */\n      0x00\n        /* \"ERC721A.sol\":16613:16641  _currentIndex = updatedIndex */\n      dup2\n      swap1\n      sstore\n      pop\n        /* \"ERC721A.sol\":14544:16728  function _safeMint(... */\n      pop\n      pop\n        /* \"ERC721A.sol\":16661:16721  _afterTokenTransfers(address(0), to, startTokenId, quantity) */\n      tag_272\n        /* \"ERC721A.sol\":16690:16691  0 */\n      0x00\n        /* \"ERC721A.sol\":16694:16696  to */\n      dup6\n        /* \"ERC721A.sol\":16698:16710  startTokenId */\n      dup4\n        /* \"ERC721A.sol\":16712:16720  quantity */\n      dup7\n        /* \"ERC721A.sol\":16661:16681  _afterTokenTransfers */\n      tag_223\n        /* \"ERC721A.sol\":16661:16721  _afterTokenTransfers(address(0), to, startTokenId, quantity) */\n      jump\t// in\n    tag_272:\n        /* \"ERC721A.sol\":14544:16728  function _safeMint(... */\n      pop\n      pop\n      pop\n      pop\n      jump\t// out\n        /* \"ERC721A.sol\":11050:11188  function _boolToUint256(bool value) private pure returns (uint256 result) {... */\n    tag_259:\n        /* \"ERC721A.sol\":11108:11122  uint256 result */\n      0x00\n        /* \"ERC721A.sol\":11167:11172  value */\n      dup2\n        /* \"ERC721A.sol\":11157:11172  result := value */\n      swap1\n      pop\n        /* \"ERC721A.sol\":11143:11182  {... */\n      swap2\n      swap1\n      pop\n      jump\t// out\n        /* \"#utility.yul\":7:350   */\n    tag_275:\n        /* \"#utility.yul\":84:89   */\n      0x00\n        /* \"#utility.yul\":109:174   */\n      tag_277\n        /* \"#utility.yul\":125:173   */\n      tag_278\n        /* \"#utility.yul\":166:172   */\n      dup5\n        /* \"#utility.yul\":125:173   */\n      tag_279\n      jump\t// in\n    tag_278:\n        /* \"#utility.yul\":109:174   */\n      tag_280\n      jump\t// in\n    tag_277:\n        /* \"#utility.yul\":100:174   */\n      swap1\n      pop\n        /* \"#utility.yul\":197:203   */\n      dup3\n        /* \"#utility.yul\":190:195   */\n      dup2\n        /* \"#utility.yul\":183:204   */\n      mstore\n        /* \"#utility.yul\":235:239   */\n      0x20\n        /* \"#utility.yul\":228:233   */\n      dup2\n        /* \"#utility.yul\":224:240   */\n      add\n        /* \"#utility.yul\":273:276   */\n      dup5\n        /* \"#utility.yul\":264:270   */\n      dup5\n        /* \"#utility.yul\":259:262   */\n      dup5\n        /* \"#utility.yul\":255:271   */\n      add\n        /* \"#utility.yul\":252:277   */\n      gt\n        /* \"#utility.yul\":249:251   */\n      iszero\n      tag_281\n      jumpi\n        /* \"#utility.yul\":290:291   */\n      0x00\n        /* \"#utility.yul\":287:288   */\n      dup1\n        /* \"#utility.yul\":280:292   */\n      revert\n        /* \"#utility.yul\":249:251   */\n    tag_281:\n        /* \"#utility.yul\":303:344   */\n      tag_282\n        /* \"#utility.yul\":337:343   */\n      dup5\n        /* \"#utility.yul\":332:335   */\n      dup3\n        /* \"#utility.yul\":327:330   */\n      dup6\n        /* \"#utility.yul\":303:344   */\n      tag_283\n      jump\t// in\n    tag_282:\n        /* \"#utility.yul\":90:350   */\n      pop\n      swap4\n      swap3\n      pop\n      pop\n      pop\n      jump\t// out\n        /* \"#utility.yul\":356:495   */\n    tag_284:\n        /* \"#utility.yul\":402:407   */\n      0x00\n        /* \"#utility.yul\":440:446   */\n      dup2\n        /* \"#utility.yul\":427:447   */\n      calldataload\n        /* \"#utility.yul\":418:447   */\n      swap1\n      pop\n        /* \"#utility.yul\":456:489   */\n      tag_286\n        /* \"#utility.yul\":483:488   */\n      dup2\n        /* \"#utility.yul\":456:489   */\n      tag_287\n      jump\t// in\n    tag_286:\n        /* \"#utility.yul\":408:495   */\n      swap3\n      swap2\n      pop\n      pop\n      jump\t// out\n        /* \"#utility.yul\":501:634   */\n    tag_288:\n        /* \"#utility.yul\":544:549   */\n      0x00\n        /* \"#utility.yul\":582:588   */\n      dup2\n        /* \"#utility.yul\":569:589   */\n      calldataload\n        /* \"#utility.yul\":560:589   */\n      swap1\n      pop\n        /* \"#utility.yul\":598:628   */\n      tag_290\n        /* \"#utility.yul\":622:627   */\n      dup2\n        /* \"#utility.yul\":598:628   */\n      tag_291\n      jump\t// in\n    tag_290:\n        /* \"#utility.yul\":550:634   */\n      swap3\n      swap2\n      pop\n      pop\n      jump\t// out\n        /* \"#utility.yul\":640:777   */\n    tag_292:\n        /* \"#utility.yul\":685:690   */\n      0x00\n        /* \"#utility.yul\":723:729   */\n      dup2\n        /* \"#utility.yul\":710:730   */\n      calldataload\n        /* \"#utility.yul\":701:730   */\n      swap1\n      pop\n        /* \"#utility.yul\":739:771   */\n      tag_294\n        /* \"#utility.yul\":765:770   */\n      dup2\n        /* \"#utility.yul\":739:771   */\n      tag_295\n      jump\t// in\n    tag_294:\n        /* \"#utility.yul\":691:777   */\n      swap3\n      swap2\n      pop\n      pop\n      jump\t// out\n        /* \"#utility.yul\":783:924   */\n    tag_296:\n        /* \"#utility.yul\":839:844   */\n      0x00\n        /* \"#utility.yul\":870:876   */\n      dup2\n        /* \"#utility.yul\":864:877   */\n      mload\n        /* \"#utility.yul\":855:877   */\n      swap1\n      pop\n        /* \"#utility.yul\":886:918   */\n      tag_298\n        /* \"#utility.yul\":912:917   */\n      dup2\n        /* \"#utility.yul\":886:918   */\n      tag_295\n      jump\t// in\n    tag_298:\n        /* \"#utility.yul\":845:924   */\n      swap3\n      swap2\n      pop\n      pop\n      jump\t// out\n        /* \"#utility.yul\":943:1214   */\n    tag_299:\n        /* \"#utility.yul\":998:1003   */\n      0x00\n        /* \"#utility.yul\":1047:1050   */\n      dup3\n        /* \"#utility.yul\":1040:1044   */\n      0x1f\n        /* \"#utility.yul\":1032:1038   */\n      dup4\n        /* \"#utility.yul\":1028:1045   */\n      add\n        /* \"#utility.yul\":1024:1051   */\n      slt\n        /* \"#utility.yul\":1014:1016   */\n      tag_301\n      jumpi\n        /* \"#utility.yul\":1065:1066   */\n      0x00\n        /* \"#utility.yul\":1062:1063   */\n      dup1\n        /* \"#utility.yul\":1055:1067   */\n      revert\n        /* \"#utility.yul\":1014:1016   */\n    tag_301:\n        /* \"#utility.yul\":1105:1111   */\n      dup2\n        /* \"#utility.yul\":1092:1112   */\n      calldataload\n        /* \"#utility.yul\":1130:1208   */\n      tag_302\n        /* \"#utility.yul\":1204:1207   */\n      dup5\n        /* \"#utility.yul\":1196:1202   */\n      dup3\n        /* \"#utility.yul\":1189:1193   */\n      0x20\n        /* \"#utility.yul\":1181:1187   */\n      dup7\n        /* \"#utility.yul\":1177:1194   */\n      add\n        /* \"#utility.yul\":1130:1208   */\n      tag_275\n      jump\t// in\n    tag_302:\n        /* \"#utility.yul\":1121:1208   */\n      swap2\n      pop\n        /* \"#utility.yul\":1004:1214   */\n      pop\n      swap3\n      swap2\n      pop\n      pop\n      jump\t// out\n        /* \"#utility.yul\":1220:1359   */\n    tag_303:\n        /* \"#utility.yul\":1266:1271   */\n      0x00\n        /* \"#utility.yul\":1304:1310   */\n      dup2\n        /* \"#utility.yul\":1291:1311   */\n      calldataload\n        /* \"#utility.yul\":1282:1311   */\n      swap1\n      pop\n        /* \"#utility.yul\":1320:1353   */\n      tag_305\n        /* \"#utility.yul\":1347:1352   */\n      dup2\n        /* \"#utility.yul\":1320:1353   */\n      tag_306\n      jump\t// in\n    tag_305:\n        /* \"#utility.yul\":1272:1359   */\n      swap3\n      swap2\n      pop\n      pop\n      jump\t// out\n        /* \"#utility.yul\":1365:1627   */\n    tag_64:\n        /* \"#utility.yul\":1424:1430   */\n      0x00\n        /* \"#utility.yul\":1473:1475   */\n      0x20\n        /* \"#utility.yul\":1461:1470   */\n      dup3\n        /* \"#utility.yul\":1452:1459   */\n      dup5\n        /* \"#utility.yul\":1448:1471   */\n      sub\n        /* \"#utility.yul\":1444:1476   */\n      slt\n        /* \"#utility.yul\":1441:1443   */\n      iszero\n      tag_308\n      jumpi\n        /* \"#utility.yul\":1489:1490   */\n      0x00\n        /* \"#utility.yul\":1486:1487   */\n      dup1\n        /* \"#utility.yul\":1479:1491   */\n      revert\n        /* \"#utility.yul\":1441:1443   */\n    tag_308:\n        /* \"#utility.yul\":1532:1533   */\n      0x00\n        /* \"#utility.yul\":1557:1610   */\n      tag_309\n        /* \"#utility.yul\":1602:1609   */\n      dup5\n        /* \"#utility.yul\":1593:1599   */\n      dup3\n        /* \"#utility.yul\":1582:1591   */\n      dup6\n        /* \"#utility.yul\":1578:1600   */\n      add\n        /* \"#utility.yul\":1557:1610   */\n      tag_284\n      jump\t// in\n    tag_309:\n        /* \"#utility.yul\":1547:1610   */\n      swap2\n      pop\n        /* \"#utility.yul\":1503:1620   */\n      pop\n        /* \"#utility.yul\":1431:1627   */\n      swap3\n      swap2\n      pop\n      pop\n      jump\t// out\n        /* \"#utility.yul\":1633:2040   */\n    tag_89:\n        /* \"#utility.yul\":1701:1707   */\n      0x00\n        /* \"#utility.yul\":1709:1715   */\n      dup1\n        /* \"#utility.yul\":1758:1760   */\n      0x40\n        /* \"#utility.yul\":1746:1755   */\n      dup4\n        /* \"#utility.yul\":1737:1744   */\n      dup6\n        /* \"#utility.yul\":1733:1756   */\n      sub\n        /* \"#utility.yul\":1729:1761   */\n      slt\n        /* \"#utility.yul\":1726:1728   */\n      iszero\n      tag_311\n      jumpi\n        /* \"#utility.yul\":1774:1775   */\n      0x00\n        /* \"#utility.yul\":1771:1772   */\n      dup1\n        /* \"#utility.yul\":1764:1776   */\n      revert\n        /* \"#utility.yul\":1726:1728   */\n    tag_311:\n        /* \"#utility.yul\":1817:1818   */\n      0x00\n        /* \"#utility.yul\":1842:1895   */\n      tag_312\n        /* \"#utility.yul\":1887:1894   */\n      dup6\n        /* \"#utility.yul\":1878:1884   */\n      dup3\n        /* \"#utility.yul\":1867:1876   */\n      dup7\n        /* \"#utility.yul\":1863:1885   */\n      add\n        /* \"#utility.yul\":1842:1895   */\n      tag_284\n      jump\t// in\n    tag_312:\n        /* \"#utility.yul\":1832:1895   */\n      swap3\n      pop\n        /* \"#utility.yul\":1788:1905   */\n      pop\n        /* \"#utility.yul\":1944:1946   */\n      0x20\n        /* \"#utility.yul\":1970:2023   */\n      tag_313\n        /* \"#utility.yul\":2015:2022   */\n      dup6\n        /* \"#utility.yul\":2006:2012   */\n      dup3\n        /* \"#utility.yul\":1995:2004   */\n      dup7\n        /* \"#utility.yul\":1991:2013   */\n      add\n        /* \"#utility.yul\":1970:2023   */\n      tag_284\n      jump\t// in\n    tag_313:\n        /* \"#utility.yul\":1960:2023   */\n      swap2\n      pop\n        /* \"#utility.yul\":1915:2033   */\n      pop\n        /* \"#utility.yul\":1716:2040   */\n      swap3\n      pop\n      swap3\n      swap1\n      pop\n      jump\t// out\n        /* \"#utility.yul\":2046:2598   */\n    tag_50:\n        /* \"#utility.yul\":2123:2129   */\n      0x00\n        /* \"#utility.yul\":2131:2137   */\n      dup1\n        /* \"#utility.yul\":2139:2145   */\n      0x00\n        /* \"#utility.yul\":2188:2190   */\n      0x60\n        /* \"#utility.yul\":2176:2185   */\n      dup5\n        /* \"#utility.yul\":2167:2174   */\n      dup7\n        /* \"#utility.yul\":2163:2186   */\n      sub\n        /* \"#utility.yul\":2159:2191   */\n      slt\n        /* \"#utility.yul\":2156:2158   */\n      iszero\n      tag_315\n      jumpi\n        /* \"#utility.yul\":2204:2205   */\n      0x00\n        /* \"#utility.yul\":2201:2202   */\n      dup1\n        /* \"#utility.yul\":2194:2206   */\n      revert\n        /* \"#utility.yul\":2156:2158   */\n    tag_315:\n        /* \"#utility.yul\":2247:2248   */\n      0x00\n        /* \"#utility.yul\":2272:2325   */\n      tag_316\n        /* \"#utility.yul\":2317:2324   */\n      dup7\n        /* \"#utility.yul\":2308:2314   */\n      dup3\n        /* \"#utility.yul\":2297:2306   */\n      dup8\n        /* \"#utility.yul\":2293:2315   */\n      add\n        /* \"#utility.yul\":2272:2325   */\n      tag_284\n      jump\t// in\n    tag_316:\n        /* \"#utility.yul\":2262:2325   */\n      swap4\n      pop\n        /* \"#utility.yul\":2218:2335   */\n      pop\n        /* \"#utility.yul\":2374:2376   */\n      0x20\n        /* \"#utility.yul\":2400:2453   */\n      tag_317\n        /* \"#utility.yul\":2445:2452   */\n      dup7\n        /* \"#utility.yul\":2436:2442   */\n      dup3\n        /* \"#utility.yul\":2425:2434   */\n      dup8\n        /* \"#utility.yul\":2421:2443   */\n      add\n        /* \"#utility.yul\":2400:2453   */\n      tag_284\n      jump\t// in\n    tag_317:\n        /* \"#utility.yul\":2390:2453   */\n      swap3\n      pop\n        /* \"#utility.yul\":2345:2463   */\n      pop\n        /* \"#utility.yul\":2502:2504   */\n      0x40\n        /* \"#utility.yul\":2528:2581   */\n      tag_318\n        /* \"#utility.yul\":2573:2580   */\n      dup7\n        /* \"#utility.yul\":2564:2570   */\n      dup3\n        /* \"#utility.yul\":2553:2562   */\n      dup8\n        /* \"#utility.yul\":2549:2571   */\n      add\n        /* \"#utility.yul\":2528:2581   */\n      tag_303\n      jump\t// in\n    tag_318:\n        /* \"#utility.yul\":2518:2581   */\n      swap2\n      pop\n        /* \"#utility.yul\":2473:2591   */\n      pop\n        /* \"#utility.yul\":2146:2598   */\n      swap3\n      pop\n      swap3\n      pop\n      swap3\n      jump\t// out\n        /* \"#utility.yul\":2604:3413   */\n    tag_81:\n        /* \"#utility.yul\":2699:2705   */\n      0x00\n        /* \"#utility.yul\":2707:2713   */\n      dup1\n        /* \"#utility.yul\":2715:2721   */\n      0x00\n        /* \"#utility.yul\":2723:2729   */\n      dup1\n        /* \"#utility.yul\":2772:2775   */\n      0x80\n        /* \"#utility.yul\":2760:2769   */\n      dup6\n        /* \"#utility.yul\":2751:2758   */\n      dup8\n        /* \"#utility.yul\":2747:2770   */\n      sub\n        /* \"#utility.yul\":2743:2776   */\n      slt\n        /* \"#utility.yul\":2740:2742   */\n      iszero\n      tag_320\n      jumpi\n        /* \"#utility.yul\":2789:2790   */\n      0x00\n        /* \"#utility.yul\":2786:2787   */\n      dup1\n        /* \"#utility.yul\":2779:2791   */\n      revert\n        /* \"#utility.yul\":2740:2742   */\n    tag_320:\n        /* \"#utility.yul\":2832:2833   */\n      0x00\n        /* \"#utility.yul\":2857:2910   */\n      tag_321\n        /* \"#utility.yul\":2902:2909   */\n      dup8\n        /* \"#utility.yul\":2893:2899   */\n      dup3\n        /* \"#utility.yul\":2882:2891   */\n      dup9\n        /* \"#utility.yul\":2878:2900   */\n      add\n        /* \"#utility.yul\":2857:2910   */\n      tag_284\n      jump\t// in\n    tag_321:\n        /* \"#utility.yul\":2847:2910   */\n      swap5\n      pop\n        /* \"#utility.yul\":2803:2920   */\n      pop\n        /* \"#utility.yul\":2959:2961   */\n      0x20\n        /* \"#utility.yul\":2985:3038   */\n      tag_322\n        /* \"#utility.yul\":3030:3037   */\n      dup8\n        /* \"#utility.yul\":3021:3027   */\n      dup3\n        /* \"#utility.yul\":3010:3019   */\n      dup9\n        /* \"#utility.yul\":3006:3028   */\n      add\n        /* \"#utility.yul\":2985:3038   */\n      tag_284\n      jump\t// in\n    tag_322:\n        /* \"#utility.yul\":2975:3038   */\n      swap4\n      pop\n        /* \"#utility.yul\":2930:3048   */\n      pop\n        /* \"#utility.yul\":3087:3089   */\n      0x40\n        /* \"#utility.yul\":3113:3166   */\n      tag_323\n        /* \"#utility.yul\":3158:3165   */\n      dup8\n        /* \"#utility.yul\":3149:3155   */\n      dup3\n        /* \"#utility.yul\":3138:3147   */\n      dup9\n        /* \"#utility.yul\":3134:3156   */\n      add\n        /* \"#utility.yul\":3113:3166   */\n      tag_303\n      jump\t// in\n    tag_323:\n        /* \"#utility.yul\":3103:3166   */\n      swap3\n      pop\n        /* \"#utility.yul\":3058:3176   */\n      pop\n        /* \"#utility.yul\":3243:3245   */\n      0x60\n        /* \"#utility.yul\":3232:3241   */\n      dup6\n        /* \"#utility.yul\":3228:3246   */\n      add\n        /* \"#utility.yul\":3215:3247   */\n      calldataload\n        /* \"#utility.yul\":3274:3292   */\n      0xffffffffffffffff\n        /* \"#utility.yul\":3266:3272   */\n      dup2\n        /* \"#utility.yul\":3263:3293   */\n      gt\n        /* \"#utility.yul\":3260:3262   */\n      iszero\n      tag_324\n      jumpi\n        /* \"#utility.yul\":3306:3307   */\n      0x00\n        /* \"#utility.yul\":3303:3304   */\n      dup1\n        /* \"#utility.yul\":3296:3308   */\n      revert\n        /* \"#utility.yul\":3260:3262   */\n    tag_324:\n        /* \"#utility.yul\":3334:3396   */\n      tag_325\n        /* \"#utility.yul\":3388:3395   */\n      dup8\n        /* \"#utility.yul\":3379:3385   */\n      dup3\n        /* \"#utility.yul\":3368:3377   */\n      dup9\n        /* \"#utility.yul\":3364:3386   */\n      add\n        /* \"#utility.yul\":3334:3396   */\n      tag_299\n      jump\t// in\n    tag_325:\n        /* \"#utility.yul\":3324:3396   */\n      swap2\n      pop\n        /* \"#utility.yul\":3186:3406   */\n      pop\n        /* \"#utility.yul\":2730:3413   */\n      swap3\n      swap6\n      swap2\n      swap5\n      pop\n      swap3\n      pop\n      jump\t// out\n        /* \"#utility.yul\":3419:3820   */\n    tag_77:\n        /* \"#utility.yul\":3484:3490   */\n      0x00\n        /* \"#utility.yul\":3492:3498   */\n      dup1\n        /* \"#utility.yul\":3541:3543   */\n      0x40\n        /* \"#utility.yul\":3529:3538   */\n      dup4\n        /* \"#utility.yul\":3520:3527   */\n      dup6\n        /* \"#utility.yul\":3516:3539   */\n      sub\n        /* \"#utility.yul\":3512:3544   */\n      slt\n        /* \"#utility.yul\":3509:3511   */\n      iszero\n      tag_327\n      jumpi\n        /* \"#utility.yul\":3557:3558   */\n      0x00\n        /* \"#utility.yul\":3554:3555   */\n      dup1\n        /* \"#utility.yul\":3547:3559   */\n      revert\n        /* \"#utility.yul\":3509:3511   */\n    tag_327:\n        /* \"#utility.yul\":3600:3601   */\n      0x00\n        /* \"#utility.yul\":3625:3678   */\n      tag_328\n        /* \"#utility.yul\":3670:3677   */\n      dup6\n        /* \"#utility.yul\":3661:3667   */\n      dup3\n        /* \"#utility.yul\":3650:3659   */\n      dup7\n        /* \"#utility.yul\":3646:3668   */\n      add\n        /* \"#utility.yul\":3625:3678   */\n      tag_284\n      jump\t// in\n    tag_328:\n        /* \"#utility.yul\":3615:3678   */\n      swap3\n      pop\n        /* \"#utility.yul\":3571:3688   */\n      pop\n        /* \"#utility.yul\":3727:3729   */\n      0x20\n        /* \"#utility.yul\":3753:3803   */\n      tag_329\n        /* \"#utility.yul\":3795:3802   */\n      dup6\n        /* \"#utility.yul\":3786:3792   */\n      dup3\n        /* \"#utility.yul\":3775:3784   */\n      dup7\n        /* \"#utility.yul\":3771:3793   */\n      add\n        /* \"#utility.yul\":3753:3803   */\n      tag_288\n      jump\t// in\n    tag_329:\n        /* \"#utility.yul\":3743:3803   */\n      swap2\n      pop\n        /* \"#utility.yul\":3698:3813   */\n      pop\n        /* \"#utility.yul\":3499:3820   */\n      swap3\n      pop\n      swap3\n      swap1\n      pop\n      jump\t// out\n        /* \"#utility.yul\":3826:4233   */\n    tag_42:\n        /* \"#utility.yul\":3894:3900   */\n      0x00\n        /* \"#utility.yul\":3902:3908   */\n      dup1\n        /* \"#utility.yul\":3951:3953   */\n      0x40\n        /* \"#utility.yul\":3939:3948   */\n      dup4\n        /* \"#utility.yul\":3930:3937   */\n      dup6\n        /* \"#utility.yul\":3926:3949   */\n      sub\n        /* \"#utility.yul\":3922:3954   */\n      slt\n        /* \"#utility.yul\":3919:3921   */\n      iszero\n      tag_331\n      jumpi\n        /* \"#utility.yul\":3967:3968   */\n      0x00\n        /* \"#utility.yul\":3964:3965   */\n      dup1\n        /* \"#utility.yul\":3957:3969   */\n      revert\n        /* \"#utility.yul\":3919:3921   */\n    tag_331:\n        /* \"#utility.yul\":4010:4011   */\n      0x00\n        /* \"#utility.yul\":4035:4088   */\n      tag_332\n        /* \"#utility.yul\":4080:4087   */\n      dup6\n        /* \"#utility.yul\":4071:4077   */\n      dup3\n        /* \"#utility.yul\":4060:4069   */\n      dup7\n        /* \"#utility.yul\":4056:4078   */\n      add\n        /* \"#utility.yul\":4035:4088   */\n      tag_284\n      jump\t// in\n    tag_332:\n        /* \"#utility.yul\":4025:4088   */\n      swap3\n      pop\n        /* \"#utility.yul\":3981:4098   */\n      pop\n        /* \"#utility.yul\":4137:4139   */\n      0x20\n        /* \"#utility.yul\":4163:4216   */\n      tag_333\n        /* \"#utility.yul\":4208:4215   */\n      dup6\n        /* \"#utility.yul\":4199:4205   */\n      dup3\n        /* \"#utility.yul\":4188:4197   */\n      dup7\n        /* \"#utility.yul\":4184:4206   */\n      add\n        /* \"#utility.yul\":4163:4216   */\n      tag_303\n      jump\t// in\n    tag_333:\n        /* \"#utility.yul\":4153:4216   */\n      swap2\n      pop\n        /* \"#utility.yul\":4108:4226   */\n      pop\n        /* \"#utility.yul\":3909:4233   */\n      swap3\n      pop\n      swap3\n      swap1\n      pop\n      jump\t// out\n        /* \"#utility.yul\":4239:4499   */\n    tag_26:\n        /* \"#utility.yul\":4297:4303   */\n      0x00\n        /* \"#utility.yul\":4346:4348   */\n      0x20\n        /* \"#utility.yul\":4334:4343   */\n      dup3\n        /* \"#utility.yul\":4325:4332   */\n      dup5\n        /* \"#utility.yul\":4321:4344   */\n      sub\n        /* \"#utility.yul\":4317:4349   */\n      slt\n        /* \"#utility.yul\":4314:4316   */\n      iszero\n      tag_335\n      jumpi\n        /* \"#utility.yul\":4362:4363   */\n      0x00\n        /* \"#utility.yul\":4359:4360   */\n      dup1\n        /* \"#utility.yul\":4352:4364   */\n      revert\n        /* \"#utility.yul\":4314:4316   */\n    tag_335:\n        /* \"#utility.yul\":4405:4406   */\n      0x00\n        /* \"#utility.yul\":4430:4482   */\n      tag_336\n        /* \"#utility.yul\":4474:4481   */\n      dup5\n        /* \"#utility.yul\":4465:4471   */\n      dup3\n        /* \"#utility.yul\":4454:4463   */\n      dup6\n        /* \"#utility.yul\":4450:4472   */\n      add\n        /* \"#utility.yul\":4430:4482   */\n      tag_292\n      jump\t// in\n    tag_336:\n        /* \"#utility.yul\":4420:4482   */\n      swap2\n      pop\n        /* \"#utility.yul\":4376:4492   */\n      pop\n        /* \"#utility.yul\":4304:4499   */\n      swap3\n      swap2\n      pop\n      pop\n      jump\t// out\n        /* \"#utility.yul\":4505:4787   */\n    tag_236:\n        /* \"#utility.yul\":4574:4580   */\n      0x00\n        /* \"#utility.yul\":4623:4625   */\n      0x20\n        /* \"#utility.yul\":4611:4620   */\n      dup3\n        /* \"#utility.yul\":4602:4609   */\n      dup5\n        /* \"#utility.yul\":4598:4621   */\n      sub\n        /* \"#utility.yul\":4594:4626   */\n      slt\n        /* \"#utility.yul\":4591:4593   */\n      iszero\n      tag_338\n      jumpi\n        /* \"#utility.yul\":4639:4640   */\n      0x00\n        /* \"#utility.yul\":4636:4637   */\n      dup1\n        /* \"#utility.yul\":4629:4641   */\n      revert\n        /* \"#utility.yul\":4591:4593   */\n    tag_338:\n        /* \"#utility.yul\":4682:4683   */\n      0x00\n        /* \"#utility.yul\":4707:4770   */\n      tag_339\n        /* \"#utility.yul\":4762:4769   */\n      dup5\n        /* \"#utility.yul\":4753:4759   */\n      dup3\n        /* \"#utility.yul\":4742:4751   */\n      dup6\n        /* \"#utility.yul\":4738:4760   */\n      add\n        /* \"#utility.yul\":4707:4770   */\n      tag_296\n      jump\t// in\n    tag_339:\n        /* \"#utility.yul\":4697:4770   */\n      swap2\n      pop\n        /* \"#utility.yul\":4653:4780   */\n      pop\n        /* \"#utility.yul\":4581:4787   */\n      swap3\n      swap2\n      pop\n      pop\n      jump\t// out\n        /* \"#utility.yul\":4793:5055   */\n    tag_36:\n        /* \"#utility.yul\":4852:4858   */\n      0x00\n        /* \"#utility.yul\":4901:4903   */\n      0x20\n        /* \"#utility.yul\":4889:4898   */\n      dup3\n        /* \"#utility.yul\":4880:4887   */\n      dup5\n        /* \"#utility.yul\":4876:4899   */\n      sub\n        /* \"#utility.yul\":4872:4904   */\n      slt\n        /* \"#utility.yul\":4869:4871   */\n      iszero\n      tag_341\n      jumpi\n        /* \"#utility.yul\":4917:4918   */\n      0x00\n        /* \"#utility.yul\":4914:4915   */\n      dup1\n        /* \"#utility.yul\":4907:4919   */\n      revert\n        /* \"#utility.yul\":4869:4871   */\n    tag_341:\n        /* \"#utility.yul\":4960:4961   */\n      0x00\n        /* \"#utility.yul\":4985:5038   */\n      tag_342\n        /* \"#utility.yul\":5030:5037   */\n      dup5\n        /* \"#utility.yul\":5021:5027   */\n      dup3\n        /* \"#utility.yul\":5010:5019   */\n      dup6\n        /* \"#utility.yul\":5006:5028   */\n      add\n        /* \"#utility.yul\":4985:5038   */\n      tag_303\n      jump\t// in\n    tag_342:\n        /* \"#utility.yul\":4975:5038   */\n      swap2\n      pop\n        /* \"#utility.yul\":4931:5048   */\n      pop\n        /* \"#utility.yul\":4859:5055   */\n      swap3\n      swap2\n      pop\n      pop\n      jump\t// out\n        /* \"#utility.yul\":5061:5179   */\n    tag_343:\n        /* \"#utility.yul\":5148:5172   */\n      tag_345\n        /* \"#utility.yul\":5166:5171   */\n      dup2\n        /* \"#utility.yul\":5148:5172   */\n      tag_346\n      jump\t// in\n    tag_345:\n        /* \"#utility.yul\":5143:5146   */\n      dup3\n        /* \"#utility.yul\":5136:5173   */\n      mstore\n        /* \"#utility.yul\":5126:5179   */\n      pop\n      pop\n      jump\t// out\n        /* \"#utility.yul\":5185:5294   */\n    tag_347:\n        /* \"#utility.yul\":5266:5287   */\n      tag_349\n        /* \"#utility.yul\":5281:5286   */\n      dup2\n        /* \"#utility.yul\":5266:5287   */\n      tag_350\n      jump\t// in\n    tag_349:\n        /* \"#utility.yul\":5261:5264   */\n      dup3\n        /* \"#utility.yul\":5254:5288   */\n      mstore\n        /* \"#utility.yul\":5244:5294   */\n      pop\n      pop\n      jump\t// out\n        /* \"#utility.yul\":5300:5660   */\n    tag_351:\n        /* \"#utility.yul\":5386:5389   */\n      0x00\n        /* \"#utility.yul\":5414:5452   */\n      tag_353\n        /* \"#utility.yul\":5446:5451   */\n      dup3\n        /* \"#utility.yul\":5414:5452   */\n      tag_354\n      jump\t// in\n    tag_353:\n        /* \"#utility.yul\":5468:5538   */\n      tag_355\n        /* \"#utility.yul\":5531:5537   */\n      dup2\n        /* \"#utility.yul\":5526:5529   */\n      dup6\n        /* \"#utility.yul\":5468:5538   */\n      tag_356\n      jump\t// in\n    tag_355:\n        /* \"#utility.yul\":5461:5538   */\n      swap4\n      pop\n        /* \"#utility.yul\":5547:5599   */\n      tag_357\n        /* \"#utility.yul\":5592:5598   */\n      dup2\n        /* \"#utility.yul\":5587:5590   */\n      dup6\n        /* \"#utility.yul\":5580:5584   */\n      0x20\n        /* \"#utility.yul\":5573:5578   */\n      dup7\n        /* \"#utility.yul\":5569:5585   */\n      add\n        /* \"#utility.yul\":5547:5599   */\n      tag_358\n      jump\t// in\n    tag_357:\n        /* \"#utility.yul\":5624:5653   */\n      tag_359\n        /* \"#utility.yul\":5646:5652   */\n      dup2\n        /* \"#utility.yul\":5624:5653   */\n      tag_360\n      jump\t// in\n    tag_359:\n        /* \"#utility.yul\":5619:5622   */\n      dup5\n        /* \"#utility.yul\":5615:5654   */\n      add\n        /* \"#utility.yul\":5608:5654   */\n      swap2\n      pop\n        /* \"#utility.yul\":5390:5660   */\n      pop\n      swap3\n      swap2\n      pop\n      pop\n      jump\t// out\n        /* \"#utility.yul\":5666:6030   */\n    tag_361:\n        /* \"#utility.yul\":5754:5757   */\n      0x00\n        /* \"#utility.yul\":5782:5821   */\n      tag_363\n        /* \"#utility.yul\":5815:5820   */\n      dup3\n        /* \"#utility.yul\":5782:5821   */\n      tag_364\n      jump\t// in\n    tag_363:\n        /* \"#utility.yul\":5837:5908   */\n      tag_365\n        /* \"#utility.yul\":5901:5907   */\n      dup2\n        /* \"#utility.yul\":5896:5899   */\n      dup6\n        /* \"#utility.yul\":5837:5908   */\n      tag_366\n      jump\t// in\n    tag_365:\n        /* \"#utility.yul\":5830:5908   */\n      swap4\n      pop\n        /* \"#utility.yul\":5917:5969   */\n      tag_367\n        /* \"#utility.yul\":5962:5968   */\n      dup2\n        /* \"#utility.yul\":5957:5960   */\n      dup6\n        /* \"#utility.yul\":5950:5954   */\n      0x20\n        /* \"#utility.yul\":5943:5948   */\n      dup7\n        /* \"#utility.yul\":5939:5955   */\n      add\n        /* \"#utility.yul\":5917:5969   */\n      tag_358\n      jump\t// in\n    tag_367:\n        /* \"#utility.yul\":5994:6023   */\n      tag_368\n        /* \"#utility.yul\":6016:6022   */\n      dup2\n        /* \"#utility.yul\":5994:6023   */\n      tag_360\n      jump\t// in\n    tag_368:\n        /* \"#utility.yul\":5989:5992   */\n      dup5\n        /* \"#utility.yul\":5985:6024   */\n      add\n        /* \"#utility.yul\":5978:6024   */\n      swap2\n      pop\n        /* \"#utility.yul\":5758:6030   */\n      pop\n      swap3\n      swap2\n      pop\n      pop\n      jump\t// out\n        /* \"#utility.yul\":6036:6413   */\n    tag_369:\n        /* \"#utility.yul\":6142:6145   */\n      0x00\n        /* \"#utility.yul\":6170:6209   */\n      tag_371\n        /* \"#utility.yul\":6203:6208   */\n      dup3\n        /* \"#utility.yul\":6170:6209   */\n      tag_364\n      jump\t// in\n    tag_371:\n        /* \"#utility.yul\":6225:6314   */\n      tag_372\n        /* \"#utility.yul\":6307:6313   */\n      dup2\n        /* \"#utility.yul\":6302:6305   */\n      dup6\n        /* \"#utility.yul\":6225:6314   */\n      tag_373\n      jump\t// in\n    tag_372:\n        /* \"#utility.yul\":6218:6314   */\n      swap4\n      pop\n        /* \"#utility.yul\":6323:6375   */\n      tag_374\n        /* \"#utility.yul\":6368:6374   */\n      dup2\n        /* \"#utility.yul\":6363:6366   */\n      dup6\n        /* \"#utility.yul\":6356:6360   */\n      0x20\n        /* \"#utility.yul\":6349:6354   */\n      dup7\n        /* \"#utility.yul\":6345:6361   */\n      add\n        /* \"#utility.yul\":6323:6375   */\n      tag_358\n      jump\t// in\n    tag_374:\n        /* \"#utility.yul\":6400:6406   */\n      dup1\n        /* \"#utility.yul\":6395:6398   */\n      dup5\n        /* \"#utility.yul\":6391:6407   */\n      add\n        /* \"#utility.yul\":6384:6407   */\n      swap2\n      pop\n        /* \"#utility.yul\":6146:6413   */\n      pop\n      swap3\n      swap2\n      pop\n      pop\n      jump\t// out\n        /* \"#utility.yul\":6419:6785   */\n    tag_375:\n        /* \"#utility.yul\":6561:6564   */\n      0x00\n        /* \"#utility.yul\":6582:6649   */\n      tag_377\n        /* \"#utility.yul\":6646:6648   */\n      0x26\n        /* \"#utility.yul\":6641:6644   */\n      dup4\n        /* \"#utility.yul\":6582:6649   */\n      tag_366\n      jump\t// in\n    tag_377:\n        /* \"#utility.yul\":6575:6649   */\n      swap2\n      pop\n        /* \"#utility.yul\":6658:6751   */\n      tag_378\n        /* \"#utility.yul\":6747:6750   */\n      dup3\n        /* \"#utility.yul\":6658:6751   */\n      tag_379\n      jump\t// in\n    tag_378:\n        /* \"#utility.yul\":6776:6778   */\n      0x40\n        /* \"#utility.yul\":6771:6774   */\n      dup3\n        /* \"#utility.yul\":6767:6779   */\n      add\n        /* \"#utility.yul\":6760:6779   */\n      swap1\n      pop\n        /* \"#utility.yul\":6565:6785   */\n      swap2\n      swap1\n      pop\n      jump\t// out\n        /* \"#utility.yul\":6791:7157   */\n    tag_380:\n        /* \"#utility.yul\":6933:6936   */\n      0x00\n        /* \"#utility.yul\":6954:7021   */\n      tag_382\n        /* \"#utility.yul\":7018:7020   */\n      0x20\n        /* \"#utility.yul\":7013:7016   */\n      dup4\n        /* \"#utility.yul\":6954:7021   */\n      tag_366\n      jump\t// in\n    tag_382:\n        /* \"#utility.yul\":6947:7021   */\n      swap2\n      pop\n        /* \"#utility.yul\":7030:7123   */\n      tag_383\n        /* \"#utility.yul\":7119:7122   */\n      dup3\n        /* \"#utility.yul\":7030:7123   */\n      tag_384\n      jump\t// in\n    tag_383:\n        /* \"#utility.yul\":7148:7150   */\n      0x20\n        /* \"#utility.yul\":7143:7146   */\n      dup3\n        /* \"#utility.yul\":7139:7151   */\n      add\n        /* \"#utility.yul\":7132:7151   */\n      swap1\n      pop\n        /* \"#utility.yul\":6937:7157   */\n      swap2\n      swap1\n      pop\n      jump\t// out\n        /* \"#utility.yul\":7163:7281   */\n    tag_385:\n        /* \"#utility.yul\":7250:7274   */\n      tag_387\n        /* \"#utility.yul\":7268:7273   */\n      dup2\n        /* \"#utility.yul\":7250:7274   */\n      tag_388\n      jump\t// in\n    tag_387:\n        /* \"#utility.yul\":7245:7248   */\n      dup3\n        /* \"#utility.yul\":7238:7275   */\n      mstore\n        /* \"#utility.yul\":7228:7281   */\n      pop\n      pop\n      jump\t// out\n        /* \"#utility.yul\":7287:7722   */\n    tag_178:\n        /* \"#utility.yul\":7467:7470   */\n      0x00\n        /* \"#utility.yul\":7489:7584   */\n      tag_390\n        /* \"#utility.yul\":7580:7583   */\n      dup3\n        /* \"#utility.yul\":7571:7577   */\n      dup6\n        /* \"#utility.yul\":7489:7584   */\n      tag_369\n      jump\t// in\n    tag_390:\n        /* \"#utility.yul\":7482:7584   */\n      swap2\n      pop\n        /* \"#utility.yul\":7601:7696   */\n      tag_391\n        /* \"#utility.yul\":7692:7695   */\n      dup3\n        /* \"#utility.yul\":7683:7689   */\n      dup5\n        /* \"#utility.yul\":7601:7696   */\n      tag_369\n      jump\t// in\n    tag_391:\n        /* \"#utility.yul\":7594:7696   */\n      swap2\n      pop\n        /* \"#utility.yul\":7713:7716   */\n      dup2\n        /* \"#utility.yul\":7706:7716   */\n      swap1\n      pop\n        /* \"#utility.yul\":7471:7722   */\n      swap4\n      swap3\n      pop\n      pop\n      pop\n      jump\t// out\n        /* \"#utility.yul\":7728:7950   */\n    tag_39:\n        /* \"#utility.yul\":7821:7825   */\n      0x00\n        /* \"#utility.yul\":7859:7861   */\n      0x20\n        /* \"#utility.yul\":7848:7857   */\n      dup3\n        /* \"#utility.yul\":7844:7862   */\n      add\n        /* \"#utility.yul\":7836:7862   */\n      swap1\n      pop\n        /* \"#utility.yul\":7872:7943   */\n      tag_393\n        /* \"#utility.yul\":7940:7941   */\n      0x00\n        /* \"#utility.yul\":7929:7938   */\n      dup4\n        /* \"#utility.yul\":7925:7942   */\n      add\n        /* \"#utility.yul\":7916:7922   */\n      dup5\n        /* \"#utility.yul\":7872:7943   */\n      tag_343\n      jump\t// in\n    tag_393:\n        /* \"#utility.yul\":7826:7950   */\n      swap3\n      swap2\n      pop\n      pop\n      jump\t// out\n        /* \"#utility.yul\":7956:8596   */\n    tag_232:\n        /* \"#utility.yul\":8151:8155   */\n      0x00\n        /* \"#utility.yul\":8189:8192   */\n      0x80\n        /* \"#utility.yul\":8178:8187   */\n      dup3\n        /* \"#utility.yul\":8174:8193   */\n      add\n        /* \"#utility.yul\":8166:8193   */\n      swap1\n      pop\n        /* \"#utility.yul\":8203:8274   */\n      tag_395\n        /* \"#utility.yul\":8271:8272   */\n      0x00\n        /* \"#utility.yul\":8260:8269   */\n      dup4\n        /* \"#utility.yul\":8256:8273   */\n      add\n        /* \"#utility.yul\":8247:8253   */\n      dup8\n        /* \"#utility.yul\":8203:8274   */\n      tag_343\n      jump\t// in\n    tag_395:\n        /* \"#utility.yul\":8284:8356   */\n      tag_396\n        /* \"#utility.yul\":8352:8354   */\n      0x20\n        /* \"#utility.yul\":8341:8350   */\n      dup4\n        /* \"#utility.yul\":8337:8355   */\n      add\n        /* \"#utility.yul\":8328:8334   */\n      dup7\n        /* \"#utility.yul\":8284:8356   */\n      tag_343\n      jump\t// in\n    tag_396:\n        /* \"#utility.yul\":8366:8438   */\n      tag_397\n        /* \"#utility.yul\":8434:8436   */\n      0x40\n        /* \"#utility.yul\":8423:8432   */\n      dup4\n        /* \"#utility.yul\":8419:8437   */\n      add\n        /* \"#utility.yul\":8410:8416   */\n      dup6\n        /* \"#utility.yul\":8366:8438   */\n      tag_385\n      jump\t// in\n    tag_397:\n        /* \"#utility.yul\":8485:8494   */\n      dup2\n        /* \"#utility.yul\":8479:8483   */\n      dup2\n        /* \"#utility.yul\":8475:8495   */\n      sub\n        /* \"#utility.yul\":8470:8472   */\n      0x60\n        /* \"#utility.yul\":8459:8468   */\n      dup4\n        /* \"#utility.yul\":8455:8473   */\n      add\n        /* \"#utility.yul\":8448:8496   */\n      mstore\n        /* \"#utility.yul\":8513:8589   */\n      tag_398\n        /* \"#utility.yul\":8584:8588   */\n      dup2\n        /* \"#utility.yul\":8575:8581   */\n      dup5\n        /* \"#utility.yul\":8513:8589   */\n      tag_351\n      jump\t// in\n    tag_398:\n        /* \"#utility.yul\":8505:8589   */\n      swap1\n      pop\n        /* \"#utility.yul\":8156:8596   */\n      swap6\n      swap5\n      pop\n      pop\n      pop\n      pop\n      pop\n      jump\t// out\n        /* \"#utility.yul\":8602:8812   */\n    tag_29:\n        /* \"#utility.yul\":8689:8693   */\n      0x00\n        /* \"#utility.yul\":8727:8729   */\n      0x20\n        /* \"#utility.yul\":8716:8725   */\n      dup3\n        /* \"#utility.yul\":8712:8730   */\n      add\n        /* \"#utility.yul\":8704:8730   */\n      swap1\n      pop\n        /* \"#utility.yul\":8740:8805   */\n      tag_400\n        /* \"#utility.yul\":8802:8803   */\n      0x00\n        /* \"#utility.yul\":8791:8800   */\n      dup4\n        /* \"#utility.yul\":8787:8804   */\n      add\n        /* \"#utility.yul\":8778:8784   */\n      dup5\n        /* \"#utility.yul\":8740:8805   */\n      tag_347\n      jump\t// in\n    tag_400:\n        /* \"#utility.yul\":8694:8812   */\n      swap3\n      swap2\n      pop\n      pop\n      jump\t// out\n        /* \"#utility.yul\":8818:9131   */\n    tag_33:\n        /* \"#utility.yul\":8931:8935   */\n      0x00\n        /* \"#utility.yul\":8969:8971   */\n      0x20\n        /* \"#utility.yul\":8958:8967   */\n      dup3\n        /* \"#utility.yul\":8954:8972   */\n      add\n        /* \"#utility.yul\":8946:8972   */\n      swap1\n      pop\n        /* \"#utility.yul\":9018:9027   */\n      dup2\n        /* \"#utility.yul\":9012:9016   */\n      dup2\n        /* \"#utility.yul\":9008:9028   */\n      sub\n        /* \"#utility.yul\":9004:9005   */\n      0x00\n        /* \"#utility.yul\":8993:9002   */\n      dup4\n        /* \"#utility.yul\":8989:9006   */\n      add\n        /* \"#utility.yul\":8982:9029   */\n      mstore\n        /* \"#utility.yul\":9046:9124   */\n      tag_402\n        /* \"#utility.yul\":9119:9123   */\n      dup2\n        /* \"#utility.yul\":9110:9116   */\n      dup5\n        /* \"#utility.yul\":9046:9124   */\n      tag_361\n      jump\t// in\n    tag_402:\n        /* \"#utility.yul\":9038:9124   */\n      swap1\n      pop\n        /* \"#utility.yul\":8936:9131   */\n      swap3\n      swap2\n      pop\n      pop\n      jump\t// out\n        /* \"#utility.yul\":9137:9556   */\n    tag_188:\n        /* \"#utility.yul\":9303:9307   */\n      0x00\n        /* \"#utility.yul\":9341:9343   */\n      0x20\n        /* \"#utility.yul\":9330:9339   */\n      dup3\n        /* \"#utility.yul\":9326:9344   */\n      add\n        /* \"#utility.yul\":9318:9344   */\n      swap1\n      pop\n        /* \"#utility.yul\":9390:9399   */\n      dup2\n        /* \"#utility.yul\":9384:9388   */\n      dup2\n        /* \"#utility.yul\":9380:9400   */\n      sub\n        /* \"#utility.yul\":9376:9377   */\n      0x00\n        /* \"#utility.yul\":9365:9374   */\n      dup4\n        /* \"#utility.yul\":9361:9378   */\n      add\n        /* \"#utility.yul\":9354:9401   */\n      mstore\n        /* \"#utility.yul\":9418:9549   */\n      tag_404\n        /* \"#utility.yul\":9544:9548   */\n      dup2\n        /* \"#utility.yul\":9418:9549   */\n      tag_375\n      jump\t// in\n    tag_404:\n        /* \"#utility.yul\":9410:9549   */\n      swap1\n      pop\n        /* \"#utility.yul\":9308:9556   */\n      swap2\n      swap1\n      pop\n      jump\t// out\n        /* \"#utility.yul\":9562:9981   */\n    tag_131:\n        /* \"#utility.yul\":9728:9732   */\n      0x00\n        /* \"#utility.yul\":9766:9768   */\n      0x20\n        /* \"#utility.yul\":9755:9764   */\n      dup3\n        /* \"#utility.yul\":9751:9769   */\n      add\n        /* \"#utility.yul\":9743:9769   */\n      swap1\n      pop\n        /* \"#utility.yul\":9815:9824   */\n      dup2\n        /* \"#utility.yul\":9809:9813   */\n      dup2\n        /* \"#utility.yul\":9805:9825   */\n      sub\n        /* \"#utility.yul\":9801:9802   */\n      0x00\n        /* \"#utility.yul\":9790:9799   */\n      dup4\n        /* \"#utility.yul\":9786:9803   */\n      add\n        /* \"#utility.yul\":9779:9826   */\n      mstore\n        /* \"#utility.yul\":9843:9974   */\n      tag_406\n        /* \"#utility.yul\":9969:9973   */\n      dup2\n        /* \"#utility.yul\":9843:9974   */\n      tag_380\n      jump\t// in\n    tag_406:\n        /* \"#utility.yul\":9835:9974   */\n      swap1\n      pop\n        /* \"#utility.yul\":9733:9981   */\n      swap2\n      swap1\n      pop\n      jump\t// out\n        /* \"#utility.yul\":9987:10209   */\n    tag_47:\n        /* \"#utility.yul\":10080:10084   */\n      0x00\n        /* \"#utility.yul\":10118:10120   */\n      0x20\n        /* \"#utility.yul\":10107:10116   */\n      dup3\n        /* \"#utility.yul\":10103:10121   */\n      add\n        /* \"#utility.yul\":10095:10121   */\n      swap1\n      pop\n        /* \"#utility.yul\":10131:10202   */\n      tag_408\n        /* \"#utility.yul\":10199:10200   */\n      0x00\n        /* \"#utility.yul\":10188:10197   */\n      dup4\n        /* \"#utility.yul\":10184:10201   */\n      add\n        /* \"#utility.yul\":10175:10181   */\n      dup5\n        /* \"#utility.yul\":10131:10202   */\n      tag_385\n      jump\t// in\n    tag_408:\n        /* \"#utility.yul\":10085:10209   */\n      swap3\n      swap2\n      pop\n      pop\n      jump\t// out\n        /* \"#utility.yul\":10215:10344   */\n    tag_280:\n        /* \"#utility.yul\":10249:10255   */\n      0x00\n        /* \"#utility.yul\":10276:10296   */\n      tag_410\n      tag_411\n      jump\t// in\n    tag_410:\n        /* \"#utility.yul\":10266:10296   */\n      swap1\n      pop\n        /* \"#utility.yul\":10305:10338   */\n      tag_412\n        /* \"#utility.yul\":10333:10337   */\n      dup3\n        /* \"#utility.yul\":10325:10331   */\n      dup3\n        /* \"#utility.yul\":10305:10338   */\n      tag_413\n      jump\t// in\n    tag_412:\n        /* \"#utility.yul\":10256:10344   */\n      swap2\n      swap1\n      pop\n      jump\t// out\n        /* \"#utility.yul\":10350:10425   */\n    tag_411:\n        /* \"#utility.yul\":10383:10389   */\n      0x00\n        /* \"#utility.yul\":10416:10418   */\n      0x40\n        /* \"#utility.yul\":10410:10419   */\n      mload\n        /* \"#utility.yul\":10400:10419   */\n      swap1\n      pop\n        /* \"#utility.yul\":10390:10425   */\n      swap1\n      jump\t// out\n        /* \"#utility.yul\":10431:10738   */\n    tag_279:\n        /* \"#utility.yul\":10492:10496   */\n      0x00\n        /* \"#utility.yul\":10582:10600   */\n      0xffffffffffffffff\n        /* \"#utility.yul\":10574:10580   */\n      dup3\n        /* \"#utility.yul\":10571:10601   */\n      gt\n        /* \"#utility.yul\":10568:10570   */\n      iszero\n      tag_416\n      jumpi\n        /* \"#utility.yul\":10604:10622   */\n      tag_417\n      tag_418\n      jump\t// in\n    tag_417:\n        /* \"#utility.yul\":10568:10570   */\n    tag_416:\n        /* \"#utility.yul\":10642:10671   */\n      tag_419\n        /* \"#utility.yul\":10664:10670   */\n      dup3\n        /* \"#utility.yul\":10642:10671   */\n      tag_360\n      jump\t// in\n    tag_419:\n        /* \"#utility.yul\":10634:10671   */\n      swap1\n      pop\n        /* \"#utility.yul\":10726:10730   */\n      0x20\n        /* \"#utility.yul\":10720:10724   */\n      dup2\n        /* \"#utility.yul\":10716:10731   */\n      add\n        /* \"#utility.yul\":10708:10731   */\n      swap1\n      pop\n        /* \"#utility.yul\":10497:10738   */\n      swap2\n      swap1\n      pop\n      jump\t// out\n        /* \"#utility.yul\":10744:10842   */\n    tag_354:\n        /* \"#utility.yul\":10795:10801   */\n      0x00\n        /* \"#utility.yul\":10829:10834   */\n      dup2\n        /* \"#utility.yul\":10823:10835   */\n      mload\n        /* \"#utility.yul\":10813:10835   */\n      swap1\n      pop\n        /* \"#utility.yul\":10802:10842   */\n      swap2\n      swap1\n      pop\n      jump\t// out\n        /* \"#utility.yul\":10848:10947   */\n    tag_364:\n        /* \"#utility.yul\":10900:10906   */\n      0x00\n        /* \"#utility.yul\":10934:10939   */\n      dup2\n        /* \"#utility.yul\":10928:10940   */\n      mload\n        /* \"#utility.yul\":10918:10940   */\n      swap1\n      pop\n        /* \"#utility.yul\":10907:10947   */\n      swap2\n      swap1\n      pop\n      jump\t// out\n        /* \"#utility.yul\":10953:11121   */\n    tag_356:\n        /* \"#utility.yul\":11036:11047   */\n      0x00\n        /* \"#utility.yul\":11070:11076   */\n      dup3\n        /* \"#utility.yul\":11065:11068   */\n      dup3\n        /* \"#utility.yul\":11058:11077   */\n      mstore\n        /* \"#utility.yul\":11110:11114   */\n      0x20\n        /* \"#utility.yul\":11105:11108   */\n      dup3\n        /* \"#utility.yul\":11101:11115   */\n      add\n        /* \"#utility.yul\":11086:11115   */\n      swap1\n      pop\n        /* \"#utility.yul\":11048:11121   */\n      swap3\n      swap2\n      pop\n      pop\n      jump\t// out\n        /* \"#utility.yul\":11127:11296   */\n    tag_366:\n        /* \"#utility.yul\":11211:11222   */\n      0x00\n        /* \"#utility.yul\":11245:11251   */\n      dup3\n        /* \"#utility.yul\":11240:11243   */\n      dup3\n        /* \"#utility.yul\":11233:11252   */\n      mstore\n        /* \"#utility.yul\":11285:11289   */\n      0x20\n        /* \"#utility.yul\":11280:11283   */\n      dup3\n        /* \"#utility.yul\":11276:11290   */\n      add\n        /* \"#utility.yul\":11261:11290   */\n      swap1\n      pop\n        /* \"#utility.yul\":11223:11296   */\n      swap3\n      swap2\n      pop\n      pop\n      jump\t// out\n        /* \"#utility.yul\":11302:11450   */\n    tag_373:\n        /* \"#utility.yul\":11404:11415   */\n      0x00\n        /* \"#utility.yul\":11441:11444   */\n      dup2\n        /* \"#utility.yul\":11426:11444   */\n      swap1\n      pop\n        /* \"#utility.yul\":11416:11450   */\n      swap3\n      swap2\n      pop\n      pop\n      jump\t// out\n        /* \"#utility.yul\":11456:11552   */\n    tag_346:\n        /* \"#utility.yul\":11493:11500   */\n      0x00\n        /* \"#utility.yul\":11522:11546   */\n      tag_426\n        /* \"#utility.yul\":11540:11545   */\n      dup3\n        /* \"#utility.yul\":11522:11546   */\n      tag_427\n      jump\t// in\n    tag_426:\n        /* \"#utility.yul\":11511:11546   */\n      swap1\n      pop\n        /* \"#utility.yul\":11501:11552   */\n      swap2\n      swap1\n      pop\n      jump\t// out\n        /* \"#utility.yul\":11558:11648   */\n    tag_350:\n        /* \"#utility.yul\":11592:11599   */\n      0x00\n        /* \"#utility.yul\":11635:11640   */\n      dup2\n        /* \"#utility.yul\":11628:11641   */\n      iszero\n        /* \"#utility.yul\":11621:11642   */\n      iszero\n        /* \"#utility.yul\":11610:11642   */\n      swap1\n      pop\n        /* \"#utility.yul\":11600:11648   */\n      swap2\n      swap1\n      pop\n      jump\t// out\n        /* \"#utility.yul\":11654:11803   */\n    tag_429:\n        /* \"#utility.yul\":11690:11697   */\n      0x00\n        /* \"#utility.yul\":11730:11796   */\n      0xffffffff00000000000000000000000000000000000000000000000000000000\n        /* \"#utility.yul\":11723:11728   */\n      dup3\n        /* \"#utility.yul\":11719:11797   */\n      and\n        /* \"#utility.yul\":11708:11797   */\n      swap1\n      pop\n        /* \"#utility.yul\":11698:11803   */\n      swap2\n      swap1\n      pop\n      jump\t// out\n        /* \"#utility.yul\":11809:11935   */\n    tag_427:\n        /* \"#utility.yul\":11846:11853   */\n      0x00\n        /* \"#utility.yul\":11886:11928   */\n      0xffffffffffffffffffffffffffffffffffffffff\n        /* \"#utility.yul\":11879:11884   */\n      dup3\n        /* \"#utility.yul\":11875:11929   */\n      and\n        /* \"#utility.yul\":11864:11929   */\n      swap1\n      pop\n        /* \"#utility.yul\":11854:11935   */\n      swap2\n      swap1\n      pop\n      jump\t// out\n        /* \"#utility.yul\":11941:12018   */\n    tag_388:\n        /* \"#utility.yul\":11978:11985   */\n      0x00\n        /* \"#utility.yul\":12007:12012   */\n      dup2\n        /* \"#utility.yul\":11996:12012   */\n      swap1\n      pop\n        /* \"#utility.yul\":11986:12018   */\n      swap2\n      swap1\n      pop\n      jump\t// out\n        /* \"#utility.yul\":12024:12178   */\n    tag_283:\n        /* \"#utility.yul\":12108:12114   */\n      dup3\n        /* \"#utility.yul\":12103:12106   */\n      dup2\n        /* \"#utility.yul\":12098:12101   */\n      dup4\n        /* \"#utility.yul\":12085:12115   */\n      calldatacopy\n        /* \"#utility.yul\":12170:12171   */\n      0x00\n        /* \"#utility.yul\":12161:12167   */\n      dup4\n        /* \"#utility.yul\":12156:12159   */\n      dup4\n        /* \"#utility.yul\":12152:12168   */\n      add\n        /* \"#utility.yul\":12145:12172   */\n      mstore\n        /* \"#utility.yul\":12075:12178   */\n      pop\n      pop\n      pop\n      jump\t// out\n        /* \"#utility.yul\":12184:12491   */\n    tag_358:\n        /* \"#utility.yul\":12252:12253   */\n      0x00\n        /* \"#utility.yul\":12262:12375   */\n    tag_435:\n        /* \"#utility.yul\":12276:12282   */\n      dup4\n        /* \"#utility.yul\":12273:12274   */\n      dup2\n        /* \"#utility.yul\":12270:12283   */\n      lt\n        /* \"#utility.yul\":12262:12375   */\n      iszero\n      tag_437\n      jumpi\n        /* \"#utility.yul\":12361:12362   */\n      dup1\n        /* \"#utility.yul\":12356:12359   */\n      dup3\n        /* \"#utility.yul\":12352:12363   */\n      add\n        /* \"#utility.yul\":12346:12364   */\n      mload\n        /* \"#utility.yul\":12342:12343   */\n      dup2\n        /* \"#utility.yul\":12337:12340   */\n      dup5\n        /* \"#utility.yul\":12333:12344   */\n      add\n        /* \"#utility.yul\":12326:12365   */\n      mstore\n        /* \"#utility.yul\":12298:12300   */\n      0x20\n        /* \"#utility.yul\":12295:12296   */\n      dup2\n        /* \"#utility.yul\":12291:12301   */\n      add\n        /* \"#utility.yul\":12286:12301   */\n      swap1\n      pop\n        /* \"#utility.yul\":12262:12375   */\n      jump(tag_435)\n    tag_437:\n        /* \"#utility.yul\":12393:12399   */\n      dup4\n        /* \"#utility.yul\":12390:12391   */\n      dup2\n        /* \"#utility.yul\":12387:12400   */\n      gt\n        /* \"#utility.yul\":12384:12386   */\n      iszero\n      tag_438\n      jumpi\n        /* \"#utility.yul\":12473:12474   */\n      0x00\n        /* \"#utility.yul\":12464:12470   */\n      dup5\n        /* \"#utility.yul\":12459:12462   */\n      dup5\n        /* \"#utility.yul\":12455:12471   */\n      add\n        /* \"#utility.yul\":12448:12475   */\n      mstore\n        /* \"#utility.yul\":12384:12386   */\n    tag_438:\n        /* \"#utility.yul\":12233:12491   */\n      pop\n      pop\n      pop\n      pop\n      jump\t// out\n        /* \"#utility.yul\":12497:12817   */\n    tag_100:\n        /* \"#utility.yul\":12541:12547   */\n      0x00\n        /* \"#utility.yul\":12578:12579   */\n      0x02\n        /* \"#utility.yul\":12572:12576   */\n      dup3\n        /* \"#utility.yul\":12568:12580   */\n      div\n        /* \"#utility.yul\":12558:12580   */\n      swap1\n      pop\n        /* \"#utility.yul\":12625:12626   */\n      0x01\n        /* \"#utility.yul\":12619:12623   */\n      dup3\n        /* \"#utility.yul\":12615:12627   */\n      and\n        /* \"#utility.yul\":12646:12664   */\n      dup1\n        /* \"#utility.yul\":12636:12638   */\n      tag_440\n      jumpi\n        /* \"#utility.yul\":12702:12706   */\n      0x7f\n        /* \"#utility.yul\":12694:12700   */\n      dup3\n        /* \"#utility.yul\":12690:12707   */\n      and\n        /* \"#utility.yul\":12680:12707   */\n      swap2\n      pop\n        /* \"#utility.yul\":12636:12638   */\n    tag_440:\n        /* \"#utility.yul\":12764:12766   */\n      0x20\n        /* \"#utility.yul\":12756:12762   */\n      dup3\n        /* \"#utility.yul\":12753:12767   */\n      lt\n        /* \"#utility.yul\":12733:12751   */\n      dup2\n        /* \"#utility.yul\":12730:12768   */\n      eq\n        /* \"#utility.yul\":12727:12729   */\n      iszero\n      tag_441\n      jumpi\n        /* \"#utility.yul\":12783:12801   */\n      tag_442\n      tag_443\n      jump\t// in\n    tag_442:\n        /* \"#utility.yul\":12727:12729   */\n    tag_441:\n        /* \"#utility.yul\":12548:12817   */\n      pop\n      swap2\n      swap1\n      pop\n      jump\t// out\n        /* \"#utility.yul\":12823:13104   */\n    tag_413:\n        /* \"#utility.yul\":12906:12933   */\n      tag_445\n        /* \"#utility.yul\":12928:12932   */\n      dup3\n        /* \"#utility.yul\":12906:12933   */\n      tag_360\n      jump\t// in\n    tag_445:\n        /* \"#utility.yul\":12898:12904   */\n      dup2\n        /* \"#utility.yul\":12894:12934   */\n      add\n        /* \"#utility.yul\":13036:13042   */\n      dup2\n        /* \"#utility.yul\":13024:13034   */\n      dup2\n        /* \"#utility.yul\":13021:13043   */\n      lt\n        /* \"#utility.yul\":13000:13018   */\n      0xffffffffffffffff\n        /* \"#utility.yul\":12988:12998   */\n      dup3\n        /* \"#utility.yul\":12985:13019   */\n      gt\n        /* \"#utility.yul\":12982:13044   */\n      or\n        /* \"#utility.yul\":12979:12981   */\n      iszero\n      tag_446\n      jumpi\n        /* \"#utility.yul\":13047:13065   */\n      tag_447\n      tag_418\n      jump\t// in\n    tag_447:\n        /* \"#utility.yul\":12979:12981   */\n    tag_446:\n        /* \"#utility.yul\":13087:13097   */\n      dup1\n        /* \"#utility.yul\":13083:13085   */\n      0x40\n        /* \"#utility.yul\":13076:13098   */\n      mstore\n        /* \"#utility.yul\":12866:13104   */\n      pop\n      pop\n      pop\n      jump\t// out\n        /* \"#utility.yul\":13110:13290   */\n    tag_443:\n        /* \"#utility.yul\":13158:13235   */\n      0x4e487b7100000000000000000000000000000000000000000000000000000000\n        /* \"#utility.yul\":13155:13156   */\n      0x00\n        /* \"#utility.yul\":13148:13236   */\n      mstore\n        /* \"#utility.yul\":13255:13259   */\n      0x22\n        /* \"#utility.yul\":13252:13253   */\n      0x04\n        /* \"#utility.yul\":13245:13260   */\n      mstore\n        /* \"#utility.yul\":13279:13283   */\n      0x24\n        /* \"#utility.yul\":13276:13277   */\n      0x00\n        /* \"#utility.yul\":13269:13284   */\n      revert\n        /* \"#utility.yul\":13296:13476   */\n    tag_418:\n        /* \"#utility.yul\":13344:13421   */\n      0x4e487b7100000000000000000000000000000000000000000000000000000000\n        /* \"#utility.yul\":13341:13342   */\n      0x00\n        /* \"#utility.yul\":13334:13422   */\n      mstore\n        /* \"#utility.yul\":13441:13445   */\n      0x41\n        /* \"#utility.yul\":13438:13439   */\n      0x04\n        /* \"#utility.yul\":13431:13446   */\n      mstore\n        /* \"#utility.yul\":13465:13469   */\n      0x24\n        /* \"#utility.yul\":13462:13463   */\n      0x00\n        /* \"#utility.yul\":13455:13470   */\n      revert\n        /* \"#utility.yul\":13482:13584   */\n    tag_360:\n        /* \"#utility.yul\":13523:13529   */\n      0x00\n        /* \"#utility.yul\":13574:13576   */\n      0x1f\n        /* \"#utility.yul\":13570:13577   */\n      not\n        /* \"#utility.yul\":13565:13567   */\n      0x1f\n        /* \"#utility.yul\":13558:13563   */\n      dup4\n        /* \"#utility.yul\":13554:13568   */\n      add\n        /* \"#utility.yul\":13550:13578   */\n      and\n        /* \"#utility.yul\":13540:13578   */\n      swap1\n      pop\n        /* \"#utility.yul\":13530:13584   */\n      swap2\n      swap1\n      pop\n      jump\t// out\n        /* \"#utility.yul\":13590:13815   */\n    tag_379:\n        /* \"#utility.yul\":13730:13764   */\n      0x4f776e61626c653a206e6577206f776e657220697320746865207a65726f2061\n        /* \"#utility.yul\":13726:13727   */\n      0x00\n        /* \"#utility.yul\":13718:13724   */\n      dup3\n        /* \"#utility.yul\":13714:13728   */\n      add\n        /* \"#utility.yul\":13707:13765   */\n      mstore\n        /* \"#utility.yul\":13799:13807   */\n      0x6464726573730000000000000000000000000000000000000000000000000000\n        /* \"#utility.yul\":13794:13796   */\n      0x20\n        /* \"#utility.yul\":13786:13792   */\n      dup3\n        /* \"#utility.yul\":13782:13797   */\n      add\n        /* \"#utility.yul\":13775:13808   */\n      mstore\n        /* \"#utility.yul\":13696:13815   */\n      pop\n      jump\t// out\n        /* \"#utility.yul\":13821:14003   */\n    tag_384:\n        /* \"#utility.yul\":13961:13995   */\n      0x4f776e61626c653a2063616c6c6572206973206e6f7420746865206f776e6572\n        /* \"#utility.yul\":13957:13958   */\n      0x00\n        /* \"#utility.yul\":13949:13955   */\n      dup3\n        /* \"#utility.yul\":13945:13959   */\n      add\n        /* \"#utility.yul\":13938:13996   */\n      mstore\n        /* \"#utility.yul\":13927:14003   */\n      pop\n      jump\t// out\n        /* \"#utility.yul\":14009:14131   */\n    tag_287:\n        /* \"#utility.yul\":14082:14106   */\n      tag_454\n        /* \"#utility.yul\":14100:14105   */\n      dup2\n        /* \"#utility.yul\":14082:14106   */\n      tag_346\n      jump\t// in\n    tag_454:\n        /* \"#utility.yul\":14075:14080   */\n      dup2\n        /* \"#utility.yul\":14072:14107   */\n      eq\n        /* \"#utility.yul\":14062:14064   */\n      tag_455\n      jumpi\n        /* \"#utility.yul\":14121:14122   */\n      0x00\n        /* \"#utility.yul\":14118:14119   */\n      dup1\n        /* \"#utility.yul\":14111:14123   */\n      revert\n        /* \"#utility.yul\":14062:14064   */\n    tag_455:\n        /* \"#utility.yul\":14052:14131   */\n      pop\n      jump\t// out\n        /* \"#utility.yul\":14137:14253   */\n    tag_291:\n        /* \"#utility.yul\":14207:14228   */\n      tag_457\n        /* \"#utility.yul\":14222:14227   */\n      dup2\n        /* \"#utility.yul\":14207:14228   */\n      tag_350\n      jump\t// in\n    tag_457:\n        /* \"#utility.yul\":14200:14205   */\n      dup2\n        /* \"#utility.yul\":14197:14229   */\n      eq\n        /* \"#utility.yul\":14187:14189   */\n      tag_458\n      jumpi\n        /* \"#utility.yul\":14243:14244   */\n      0x00\n        /* \"#utility.yul\":14240:14241   */\n      dup1\n        /* \"#utility.yul\":14233:14245   */\n      revert\n        /* \"#utility.yul\":14187:14189   */\n    tag_458:\n        /* \"#utility.yul\":14177:14253   */\n      pop\n      jump\t// out\n        /* \"#utility.yul\":14259:14379   */\n    tag_295:\n        /* \"#utility.yul\":14331:14354   */\n      tag_460\n        /* \"#utility.yul\":14348:14353   */\n      dup2\n        /* \"#utility.yul\":14331:14354   */\n      tag_429\n      jump\t// in\n    tag_460:\n        /* \"#utility.yul\":14324:14329   */\n      dup2\n        /* \"#utility.yul\":14321:14355   */\n      eq\n        /* \"#utility.yul\":14311:14313   */\n      tag_461\n      jumpi\n        /* \"#utility.yul\":14369:14370   */\n      0x00\n        /* \"#utility.yul\":14366:14367   */\n      dup1\n        /* \"#utility.yul\":14359:14371   */\n      revert\n        /* \"#utility.yul\":14311:14313   */\n    tag_461:\n        /* \"#utility.yul\":14301:14379   */\n      pop\n      jump\t// out\n        /* \"#utility.yul\":14385:14507   */\n    tag_306:\n        /* \"#utility.yul\":14458:14482   */\n      tag_463\n        /* \"#utility.yul\":14476:14481   */\n      dup2\n        /* \"#utility.yul\":14458:14482   */\n      tag_388\n      jump\t// in\n    tag_463:\n        /* \"#utility.yul\":14451:14456   */\n      dup2\n        /* \"#utility.yul\":14448:14483   */\n      eq\n        /* \"#utility.yul\":14438:14440   */\n      tag_464\n      jumpi\n        /* \"#utility.yul\":14497:14498   */\n      0x00\n        /* \"#utility.yul\":14494:14495   */\n      dup1\n        /* \"#utility.yul\":14487:14499   */\n      revert\n        /* \"#utility.yul\":14438:14440   */\n    tag_464:\n        /* \"#utility.yul\":14428:14507   */\n      pop\n      jump\t// out\n    stop\n    data_c85d34806aee4c64020221c448c413c2761083d5792a4f0d21c9a60bf84e8ed5 68747470733a2f2f6968656172746372616674797468696e67732e636f6d2f77702d636f6e74656e742f75706c6f6164732f323032312f30372f372e6a7067\n\n    auxdata: 0xa2646970667358221220e57999b80e42b3f47283e78c2b99395d82dca7acb5adb5a18689b224e3bd802064736f6c63430008040033\n}\n",
				"bytecode": {
					"linkReferences": {},
					"object": "60806040523480156200001157600080fd5b506040518060400160405280600581526020017f53776f72640000000000000000000000000000000000000000000000000000008152506040518060400160405280600381526020017f5357440000000000000000000000000000000000000000000000000000000000815250816002908051906020019062000096929190620001c1565b508060039080519060200190620000af929190620001c1565b50620000c0620000ee60201b60201c565b6000819055505050620000e8620000dc620000f360201b60201c565b620000fb60201b60201c565b620002d6565b600090565b600033905090565b6000600860009054906101000a900473ffffffffffffffffffffffffffffffffffffffff16905081600860006101000a81548173ffffffffffffffffffffffffffffffffffffffff021916908373ffffffffffffffffffffffffffffffffffffffff1602179055508173ffffffffffffffffffffffffffffffffffffffff168173ffffffffffffffffffffffffffffffffffffffff167f8be0079c531659141344cd1fd0a4f28419497f9722a3daafe3b4186f6b6457e060405160405180910390a35050565b828054620001cf9062000271565b90600052602060002090601f016020900481019282620001f357600085556200023f565b82601f106200020e57805160ff19168380011785556200023f565b828001600101855582156200023f579182015b828111156200023e57825182559160200191906001019062000221565b5b5090506200024e919062000252565b5090565b5b808211156200026d57600081600090555060010162000253565b5090565b600060028204905060018216806200028a57607f821691505b60208210811415620002a157620002a0620002a7565b5b50919050565b7f4e487b7100000000000000000000000000000000000000000000000000000000600052602260045260246000fd5b6120d380620002e66000396000f3fe608060405234801561001057600080fd5b50600436106101165760003560e01c806370a08231116100a2578063a22cb46511610071578063a22cb465146102cd578063b88d4fde146102e9578063c87b56dd14610305578063e985e9c514610335578063f2fde38b1461036557610116565b806370a0823114610257578063715018a6146102875780638da5cb5b1461029157806395d89b41146102af57610116565b806318160ddd116100e957806318160ddd146101b557806323b872dd146101d357806340c10f19146101ef57806342842e0e1461020b5780636352211e1461022757610116565b806301ffc9a71461011b57806306fdde031461014b578063081812fc14610169578063095ea7b314610199575b600080fd5b61013560048036038101906101309190611ab5565b610381565b6040516101429190611cd1565b60405180910390f35b610153610413565b6040516101609190611cec565b60405180910390f35b610183600480360381019061017e9190611b07565b6104a5565b6040516101909190611c6a565b60405180910390f35b6101b360048036038101906101ae9190611a79565b610521565b005b6101bd6106c8565b6040516101ca9190611d4e565b60405180910390f35b6101ed60048036038101906101e89190611973565b6106df565b005b61020960048036038101906102049190611a79565b6106ef565b005b61022560048036038101906102209190611973565b610779565b005b610241600480360381019061023c9190611b07565b610799565b60405161024e9190611c6a565b60405180910390f35b610271600480360381019061026c919061190e565b6107ab565b60405161027e9190611d4e565b60405180910390f35b61028f610864565b005b6102996108ec565b6040516102a69190611c6a565b60405180910390f35b6102b7610916565b6040516102c49190611cec565b60405180910390f35b6102e760048036038101906102e29190611a3d565b6109a8565b005b61030360048036038101906102fe91906119c2565b610b20565b005b61031f600480360381019061031a9190611b07565b610b93565b60405161032c9190611cec565b60405180910390f35b61034f600480360381019061034a9190611937565b610c32565b60405161035c9190611cd1565b60405180910390f35b61037f600480360381019061037a919061190e565b610cc6565b005b60006301ffc9a760e01b827bffffffffffffffffffffffffffffffffffffffffffffffffffffffff191614806103dc57506380ac58cd60e01b827bffffffffffffffffffffffffffffffffffffffffffffffffffffffff1916145b8061040c5750635b5e139f60e01b827bffffffffffffffffffffffffffffffffffffffffffffffffffffffff1916145b9050919050565b60606002805461042290611eb8565b80601f016020809104026020016040519081016040528092919081815260200182805461044e90611eb8565b801561049b5780601f106104705761010080835404028352916020019161049b565b820191906000526020600020905b81548152906001019060200180831161047e57829003601f168201915b5050505050905090565b60006104b082610dbe565b6104e6576040517fcf4700e400000000000000000000000000000000000000000000000000000000815260040160405180910390fd5b6006600083815260200190815260200160002060009054906101000a900473ffffffffffffffffffffffffffffffffffffffff169050919050565b600061052c82610e1d565b90508073ffffffffffffffffffffffffffffffffffffffff168373ffffffffffffffffffffffffffffffffffffffff161415610594576040517f943f7b8c00000000000000000000000000000000000000000000000000000000815260040160405180910390fd5b8073ffffffffffffffffffffffffffffffffffffffff166105b3610eeb565b73ffffffffffffffffffffffffffffffffffffffff1614610616576105df816105da610eeb565b610c32565b610615576040517fcfb3b94200000000000000000000000000000000000000000000000000000000815260040160405180910390fd5b5b826006600084815260200190815260200160002060006101000a81548173ffffffffffffffffffffffffffffffffffffffff021916908373ffffffffffffffffffffffffffffffffffffffff160217905550818373ffffffffffffffffffffffffffffffffffffffff168273ffffffffffffffffffffffffffffffffffffffff167f8c5be1e5ebec7d5bd14f71427d1e84f3dd0314c0f7b2291e5b200ac8c7c3b92560405160405180910390a4505050565b60006106d2610ef3565b6001546000540303905090565b6106ea838383610ef8565b505050565b6106f76112a2565b73ffffffffffffffffffffffffffffffffffffffff166107156108ec565b73ffffffffffffffffffffffffffffffffffffffff161461076b576040517f08c379a000000000000000000000000000000000000000000000000000000000815260040161076290611d2e565b60405180910390fd5b61077582826112aa565b5050565b61079483838360405180602001604052806000815250610b20565b505050565b60006107a482610e1d565b9050919050565b60008073ffffffffffffffffffffffffffffffffffffffff168273ffffffffffffffffffffffffffffffffffffffff161415610813576040517f8f4eb60400000000000000000000000000000000000000000000000000000000815260040160405180910390fd5b67ffffffffffffffff600560008473ffffffffffffffffffffffffffffffffffffffff1673ffffffffffffffffffffffffffffffffffffffff16815260200190815260200160002054169050919050565b61086c6112a2565b73ffffffffffffffffffffffffffffffffffffffff1661088a6108ec565b73ffffffffffffffffffffffffffffffffffffffff16146108e0576040517f08c379a00000000000000000000000000000000000000000000000000000000081526004016108d790611d2e565b60405180910390fd5b6108ea60006112c8565b565b6000600860009054906101000a900473ffffffffffffffffffffffffffffffffffffffff16905090565b60606003805461092590611eb8565b80601f016020809104026020016040519081016040528092919081815260200182805461095190611eb8565b801561099e5780601f106109735761010080835404028352916020019161099e565b820191906000526020600020905b81548152906001019060200180831161098157829003601f168201915b5050505050905090565b6109b0610eeb565b73ffffffffffffffffffffffffffffffffffffffff168273ffffffffffffffffffffffffffffffffffffffff161415610a15576040517fb06307db00000000000000000000000000000000000000000000000000000000815260040160405180910390fd5b8060076000610a22610eeb565b73ffffffffffffffffffffffffffffffffffffffff1673ffffffffffffffffffffffffffffffffffffffff16815260200190815260200160002060008473ffffffffffffffffffffffffffffffffffffffff1673ffffffffffffffffffffffffffffffffffffffff16815260200190815260200160002060006101000a81548160ff0219169083151502179055508173ffffffffffffffffffffffffffffffffffffffff16610acf610eeb565b73ffffffffffffffffffffffffffffffffffffffff167f17307eab39ab6107e8899845ad3d59bd9653f200f220920489ca2b5937696c3183604051610b149190611cd1565b60405180910390a35050565b610b2b848484610ef8565b60008373ffffffffffffffffffffffffffffffffffffffff163b14610b8d57610b568484848461138e565b610b8c576040517fd1a57ed600000000000000000000000000000000000000000000000000000000815260040160405180910390fd5b5b50505050565b6060610b9e82610dbe565b610bd4576040517fa14c4b5000000000000000000000000000000000000000000000000000000000815260040160405180910390fd5b6000610bde6114ee565b9050600081511415610bff5760405180602001604052806000815250610c2a565b80610c098461150e565b604051602001610c1a929190611c46565b6040516020818303038152906040525b915050919050565b6000600760008473ffffffffffffffffffffffffffffffffffffffff1673ffffffffffffffffffffffffffffffffffffffff16815260200190815260200160002060008373ffffffffffffffffffffffffffffffffffffffff1673ffffffffffffffffffffffffffffffffffffffff16815260200190815260200160002060009054906101000a900460ff16905092915050565b610cce6112a2565b73ffffffffffffffffffffffffffffffffffffffff16610cec6108ec565b73ffffffffffffffffffffffffffffffffffffffff1614610d42576040517f08c379a0000000000000000000000000000000000000000000000000000000008152600401610d3990611d2e565b60405180910390fd5b600073ffffffffffffffffffffffffffffffffffffffff168173ffffffffffffffffffffffffffffffffffffffff161415610db2576040517f08c379a0000000000000000000000000000000000000000000000000000000008152600401610da990611d0e565b60405180910390fd5b610dbb816112c8565b50565b600081610dc9610ef3565b11158015610dd8575060005482105b8015610e16575060007c0100000000000000000000000000000000000000000000000000000000600460008581526020019081526020016000205416145b9050919050565b60008082905080610e2c610ef3565b11610eb457600054811015610eb35760006004600083815260200190815260200160002054905060007c010000000000000000000000000000000000000000000000000000000082161415610eb1575b6000811415610ea7576004600083600190039350838152602001908152602001600020549050610e7c565b8092505050610ee6565b505b5b6040517fdf2d9b4200000000000000000000000000000000000000000000000000000000815260040160405180910390fd5b919050565b600033905090565b600090565b6000610f0382610e1d565b90508373ffffffffffffffffffffffffffffffffffffffff168173ffffffffffffffffffffffffffffffffffffffff1614610f6a576040517fa114810000000000000000000000000000000000000000000000000000000000815260040160405180910390fd5b60008473ffffffffffffffffffffffffffffffffffffffff16610f8b610eeb565b73ffffffffffffffffffffffffffffffffffffffff161480610fba5750610fb985610fb4610eeb565b610c32565b5b80610fff5750610fc8610eeb565b73ffffffffffffffffffffffffffffffffffffffff16610fe7846104a5565b73ffffffffffffffffffffffffffffffffffffffff16145b905080611038576040517f59c896be00000000000000000000000000000000000000000000000000000000815260040160405180910390fd5b600073ffffffffffffffffffffffffffffffffffffffff168473ffffffffffffffffffffffffffffffffffffffff16141561109f576040517fea553b3400000000000000000000000000000000000000000000000000000000815260040160405180910390fd5b6110ac8585856001611568565b6006600084815260200190815260200160002060006101000a81549073ffffffffffffffffffffffffffffffffffffffff0219169055600560008673ffffffffffffffffffffffffffffffffffffffff1673ffffffffffffffffffffffffffffffffffffffff168152602001908152602001600020600081546001900391905081905550600560008573ffffffffffffffffffffffffffffffffffffffff1673ffffffffffffffffffffffffffffffffffffffff16815260200190815260200160002060008154600101919050819055507c020000000000000000000000000000000000000000000000000000000060a042901b6111a98661156e565b1717600460008581526020019081526020016000208190555060007c020000000000000000000000000000000000000000000000000000000083161415611233576000600184019050600060046000838152602001908152602001600020541415611231576000548114611230578260046000838152602001908152602001600020819055505b5b505b828473ffffffffffffffffffffffffffffffffffffffff168673ffffffffffffffffffffffffffffffffffffffff167fddf252ad1be2c89b69c2b068fc378daa952ba7f163c4a11628f55a4df523b3ef60405160405180910390a461129b8585856001611578565b5050505050565b600033905090565b6112c482826040518060200160405280600081525061157e565b5050565b6000600860009054906101000a900473ffffffffffffffffffffffffffffffffffffffff16905081600860006101000a81548173ffffffffffffffffffffffffffffffffffffffff021916908373ffffffffffffffffffffffffffffffffffffffff1602179055508173ffffffffffffffffffffffffffffffffffffffff168173ffffffffffffffffffffffffffffffffffffffff167f8be0079c531659141344cd1fd0a4f28419497f9722a3daafe3b4186f6b6457e060405160405180910390a35050565b60008373ffffffffffffffffffffffffffffffffffffffff1663150b7a026113b4610eeb565b8786866040518563ffffffff1660e01b81526004016113d69493929190611c85565b602060405180830381600087803b1580156113f057600080fd5b505af192505050801561142157506040513d601f19601f8201168201806040525081019061141e9190611ade565b60015b61149b573d8060008114611451576040519150601f19603f3d011682016040523d82523d6000602084013e611456565b606091505b50600081511415611493576040517fd1a57ed600000000000000000000000000000000000000000000000000000000815260040160405180910390fd5b805181602001fd5b63150b7a0260e01b7bffffffffffffffffffffffffffffffffffffffffffffffffffffffff1916817bffffffffffffffffffffffffffffffffffffffffffffffffffffffff191614915050949350505050565b60606040518060600160405280603f815260200161205f603f9139905090565b60606080604051019050806040528082600183039250600a81066030018353600a810490505b801561155457600183039250600a81066030018353600a81049050611534565b508181036020830392508083525050919050565b50505050565b6000819050919050565b50505050565b600080549050600073ffffffffffffffffffffffffffffffffffffffff168473ffffffffffffffffffffffffffffffffffffffff1614156115eb576040517f2e07630000000000000000000000000000000000000000000000000000000000815260040160405180910390fd5b6000831415611626576040517fb562e8dd00000000000000000000000000000000000000000000000000000000815260040160405180910390fd5b6116336000858386611568565b600160406001901b178302600560008673ffffffffffffffffffffffffffffffffffffffff1673ffffffffffffffffffffffffffffffffffffffff1681526020019081526020016000206000828254019250508190555060e161169860018514611833565b901b60a042901b6116a88661156e565b1717600460008381526020019081526020016000208190555060008190506000848201905060008673ffffffffffffffffffffffffffffffffffffffff163b146117ac575b818673ffffffffffffffffffffffffffffffffffffffff16600073ffffffffffffffffffffffffffffffffffffffff167fddf252ad1be2c89b69c2b068fc378daa952ba7f163c4a11628f55a4df523b3ef60405160405180910390a461175c600087848060010195508761138e565b611792576040517fd1a57ed600000000000000000000000000000000000000000000000000000000815260040160405180910390fd5b8082106116ed5782600054146117a757600080fd5b611817565b5b818060010192508673ffffffffffffffffffffffffffffffffffffffff16600073ffffffffffffffffffffffffffffffffffffffff167fddf252ad1be2c89b69c2b068fc378daa952ba7f163c4a11628f55a4df523b3ef60405160405180910390a48082106117ad575b81600081905550505061182d6000858386611578565b50505050565b6000819050919050565b600061185061184b84611d8e565b611d69565b90508281526020810184848401111561186857600080fd5b611873848285611e76565b509392505050565b60008135905061188a81612002565b92915050565b60008135905061189f81612019565b92915050565b6000813590506118b481612030565b92915050565b6000815190506118c981612030565b92915050565b600082601f8301126118e057600080fd5b81356118f084826020860161183d565b91505092915050565b60008135905061190881612047565b92915050565b60006020828403121561192057600080fd5b600061192e8482850161187b565b91505092915050565b6000806040838503121561194a57600080fd5b60006119588582860161187b565b92505060206119698582860161187b565b9150509250929050565b60008060006060848603121561198857600080fd5b60006119968682870161187b565b93505060206119a78682870161187b565b92505060406119b8868287016118f9565b9150509250925092565b600080600080608085870312156119d857600080fd5b60006119e68782880161187b565b94505060206119f78782880161187b565b9350506040611a08878288016118f9565b925050606085013567ffffffffffffffff811115611a2557600080fd5b611a31878288016118cf565b91505092959194509250565b60008060408385031215611a5057600080fd5b6000611a5e8582860161187b565b9250506020611a6f85828601611890565b9150509250929050565b60008060408385031215611a8c57600080fd5b6000611a9a8582860161187b565b9250506020611aab858286016118f9565b9150509250929050565b600060208284031215611ac757600080fd5b6000611ad5848285016118a5565b91505092915050565b600060208284031215611af057600080fd5b6000611afe848285016118ba565b91505092915050565b600060208284031215611b1957600080fd5b6000611b27848285016118f9565b91505092915050565b611b3981611e02565b82525050565b611b4881611e14565b82525050565b6000611b5982611dbf565b611b638185611dd5565b9350611b73818560208601611e85565b611b7c81611f79565b840191505092915050565b6000611b9282611dca565b611b9c8185611de6565b9350611bac818560208601611e85565b611bb581611f79565b840191505092915050565b6000611bcb82611dca565b611bd58185611df7565b9350611be5818560208601611e85565b80840191505092915050565b6000611bfe602683611de6565b9150611c0982611f8a565b604082019050919050565b6000611c21602083611de6565b9150611c2c82611fd9565b602082019050919050565b611c4081611e6c565b82525050565b6000611c528285611bc0565b9150611c5e8284611bc0565b91508190509392505050565b6000602082019050611c7f6000830184611b30565b92915050565b6000608082019050611c9a6000830187611b30565b611ca76020830186611b30565b611cb46040830185611c37565b8181036060830152611cc68184611b4e565b905095945050505050565b6000602082019050611ce66000830184611b3f565b92915050565b60006020820190508181036000830152611d068184611b87565b905092915050565b60006020820190508181036000830152611d2781611bf1565b9050919050565b60006020820190508181036000830152611d4781611c14565b9050919050565b6000602082019050611d636000830184611c37565b92915050565b6000611d73611d84565b9050611d7f8282611eea565b919050565b6000604051905090565b600067ffffffffffffffff821115611da957611da8611f4a565b5b611db282611f79565b9050602081019050919050565b600081519050919050565b600081519050919050565b600082825260208201905092915050565b600082825260208201905092915050565b600081905092915050565b6000611e0d82611e4c565b9050919050565b60008115159050919050565b60007fffffffff0000000000000000000000000000000000000000000000000000000082169050919050565b600073ffffffffffffffffffffffffffffffffffffffff82169050919050565b6000819050919050565b82818337600083830152505050565b60005b83811015611ea3578082015181840152602081019050611e88565b83811115611eb2576000848401525b50505050565b60006002820490506001821680611ed057607f821691505b60208210811415611ee457611ee3611f1b565b5b50919050565b611ef382611f79565b810181811067ffffffffffffffff82111715611f1257611f11611f4a565b5b80604052505050565b7f4e487b7100000000000000000000000000000000000000000000000000000000600052602260045260246000fd5b7f4e487b7100000000000000000000000000000000000000000000000000000000600052604160045260246000fd5b6000601f19601f8301169050919050565b7f4f776e61626c653a206e6577206f776e657220697320746865207a65726f206160008201527f6464726573730000000000000000000000000000000000000000000000000000602082015250565b7f4f776e61626c653a2063616c6c6572206973206e6f7420746865206f776e6572600082015250565b61200b81611e02565b811461201657600080fd5b50565b61202281611e14565b811461202d57600080fd5b50565b61203981611e20565b811461204457600080fd5b50565b61205081611e6c565b811461205b57600080fd5b5056fe68747470733a2f2f6968656172746372616674797468696e67732e636f6d2f77702d636f6e74656e742f75706c6f6164732f323032312f30372f372e6a7067a2646970667358221220e57999b80e42b3f47283e78c2b99395d82dca7acb5adb5a18689b224e3bd802064736f6c63430008040033",
					"opcodes": "PUSH1 0x80 PUSH1 0x40 MSTORE CALLVALUE DUP1 ISZERO PUSH3 0x11 JUMPI PUSH1 0x0 DUP1 REVERT JUMPDEST POP PUSH1 0x40 MLOAD DUP1 PUSH1 0x40 ADD PUSH1 0x40 MSTORE DUP1 PUSH1 0x5 DUP2 MSTORE PUSH1 0x20 ADD PUSH32 0x53776F7264000000000000000000000000000000000000000000000000000000 DUP2 MSTORE POP PUSH1 0x40 MLOAD DUP1 PUSH1 0x40 ADD PUSH1 0x40 MSTORE DUP1 PUSH1 0x3 DUP2 MSTORE PUSH1 0x20 ADD PUSH32 0x5357440000000000000000000000000000000000000000000000000000000000 DUP2 MSTORE POP DUP2 PUSH1 0x2 SWAP1 DUP1 MLOAD SWAP1 PUSH1 0x20 ADD SWAP1 PUSH3 0x96 SWAP3 SWAP2 SWAP1 PUSH3 0x1C1 JUMP JUMPDEST POP DUP1 PUSH1 0x3 SWAP1 DUP1 MLOAD SWAP1 PUSH1 0x20 ADD SWAP1 PUSH3 0xAF SWAP3 SWAP2 SWAP1 PUSH3 0x1C1 JUMP JUMPDEST POP PUSH3 0xC0 PUSH3 0xEE PUSH1 0x20 SHL PUSH1 0x20 SHR JUMP JUMPDEST PUSH1 0x0 DUP2 SWAP1 SSTORE POP POP POP PUSH3 0xE8 PUSH3 0xDC PUSH3 0xF3 PUSH1 0x20 SHL PUSH1 0x20 SHR JUMP JUMPDEST PUSH3 0xFB PUSH1 0x20 SHL PUSH1 0x20 SHR JUMP JUMPDEST PUSH3 0x2D6 JUMP JUMPDEST PUSH1 0x0 SWAP1 JUMP JUMPDEST PUSH1 0x0 CALLER SWAP1 POP SWAP1 JUMP JUMPDEST PUSH1 0x0 PUSH1 0x8 PUSH1 0x0 SWAP1 SLOAD SWAP1 PUSH2 0x100 EXP SWAP1 DIV PUSH20 0xFFFFFFFFFFFFFFFFFFFFFFFFFFFFFFFFFFFFFFFF AND SWAP1 POP DUP2 PUSH1 0x8 PUSH1 0x0 PUSH2 0x100 EXP DUP2 SLOAD DUP2 PUSH20 0xFFFFFFFFFFFFFFFFFFFFFFFFFFFFFFFFFFFFFFFF MUL NOT AND SWAP1 DUP4 PUSH20 0xFFFFFFFFFFFFFFFFFFFFFFFFFFFFFFFFFFFFFFFF AND MUL OR SWAP1 SSTORE POP DUP2 PUSH20 0xFFFFFFFFFFFFFFFFFFFFFFFFFFFFFFFFFFFFFFFF AND DUP2 PUSH20 0xFFFFFFFFFFFFFFFFFFFFFFFFFFFFFFFFFFFFFFFF AND PUSH32 0x8BE0079C531659141344CD1FD0A4F28419497F9722A3DAAFE3B4186F6B6457E0 PUSH1 0x40 MLOAD PUSH1 0x40 MLOAD DUP1 SWAP2 SUB SWAP1 LOG3 POP POP JUMP JUMPDEST DUP3 DUP1 SLOAD PUSH3 0x1CF SWAP1 PUSH3 0x271 JUMP JUMPDEST SWAP1 PUSH1 0x0 MSTORE PUSH1 0x20 PUSH1 0x0 KECCAK256 SWAP1 PUSH1 0x1F ADD PUSH1 0x20 SWAP1 DIV DUP2 ADD SWAP3 DUP3 PUSH3 0x1F3 JUMPI PUSH1 0x0 DUP6 SSTORE PUSH3 0x23F JUMP JUMPDEST DUP3 PUSH1 0x1F LT PUSH3 0x20E JUMPI DUP1 MLOAD PUSH1 0xFF NOT AND DUP4 DUP1 ADD OR DUP6 SSTORE PUSH3 0x23F JUMP JUMPDEST DUP3 DUP1 ADD PUSH1 0x1 ADD DUP6 SSTORE DUP3 ISZERO PUSH3 0x23F JUMPI SWAP2 DUP3 ADD JUMPDEST DUP3 DUP2 GT ISZERO PUSH3 0x23E JUMPI DUP3 MLOAD DUP3 SSTORE SWAP2 PUSH1 0x20 ADD SWAP2 SWAP1 PUSH1 0x1 ADD SWAP1 PUSH3 0x221 JUMP JUMPDEST JUMPDEST POP SWAP1 POP PUSH3 0x24E SWAP2 SWAP1 PUSH3 0x252 JUMP JUMPDEST POP SWAP1 JUMP JUMPDEST JUMPDEST DUP1 DUP3 GT ISZERO PUSH3 0x26D JUMPI PUSH1 0x0 DUP2 PUSH1 0x0 SWAP1 SSTORE POP PUSH1 0x1 ADD PUSH3 0x253 JUMP JUMPDEST POP SWAP1 JUMP JUMPDEST PUSH1 0x0 PUSH1 0x2 DUP3 DIV SWAP1 POP PUSH1 0x1 DUP3 AND DUP1 PUSH3 0x28A JUMPI PUSH1 0x7F DUP3 AND SWAP2 POP JUMPDEST PUSH1 0x20 DUP3 LT DUP2 EQ ISZERO PUSH3 0x2A1 JUMPI PUSH3 0x2A0 PUSH3 0x2A7 JUMP JUMPDEST JUMPDEST POP SWAP2 SWAP1 POP JUMP JUMPDEST PUSH32 0x4E487B7100000000000000000000000000000000000000000000000000000000 PUSH1 0x0 MSTORE PUSH1 0x22 PUSH1 0x4 MSTORE PUSH1 0x24 PUSH1 0x0 REVERT JUMPDEST PUSH2 0x20D3 DUP1 PUSH3 0x2E6 PUSH1 0x0 CODECOPY PUSH1 0x0 RETURN INVALID PUSH1 0x80 PUSH1 0x40 MSTORE CALLVALUE DUP1 ISZERO PUSH2 0x10 JUMPI PUSH1 0x0 DUP1 REVERT JUMPDEST POP PUSH1 0x4 CALLDATASIZE LT PUSH2 0x116 JUMPI PUSH1 0x0 CALLDATALOAD PUSH1 0xE0 SHR DUP1 PUSH4 0x70A08231 GT PUSH2 0xA2 JUMPI DUP1 PUSH4 0xA22CB465 GT PUSH2 0x71 JUMPI DUP1 PUSH4 0xA22CB465 EQ PUSH2 0x2CD JUMPI DUP1 PUSH4 0xB88D4FDE EQ PUSH2 0x2E9 JUMPI DUP1 PUSH4 0xC87B56DD EQ PUSH2 0x305 JUMPI DUP1 PUSH4 0xE985E9C5 EQ PUSH2 0x335 JUMPI DUP1 PUSH4 0xF2FDE38B EQ PUSH2 0x365 JUMPI PUSH2 0x116 JUMP JUMPDEST DUP1 PUSH4 0x70A08231 EQ PUSH2 0x257 JUMPI DUP1 PUSH4 0x715018A6 EQ PUSH2 0x287 JUMPI DUP1 PUSH4 0x8DA5CB5B EQ PUSH2 0x291 JUMPI DUP1 PUSH4 0x95D89B41 EQ PUSH2 0x2AF JUMPI PUSH2 0x116 JUMP JUMPDEST DUP1 PUSH4 0x18160DDD GT PUSH2 0xE9 JUMPI DUP1 PUSH4 0x18160DDD EQ PUSH2 0x1B5 JUMPI DUP1 PUSH4 0x23B872DD EQ PUSH2 0x1D3 JUMPI DUP1 PUSH4 0x40C10F19 EQ PUSH2 0x1EF JUMPI DUP1 PUSH4 0x42842E0E EQ PUSH2 0x20B JUMPI DUP1 PUSH4 0x6352211E EQ PUSH2 0x227 JUMPI PUSH2 0x116 JUMP JUMPDEST DUP1 PUSH4 0x1FFC9A7 EQ PUSH2 0x11B JUMPI DUP1 PUSH4 0x6FDDE03 EQ PUSH2 0x14B JUMPI DUP1 PUSH4 0x81812FC EQ PUSH2 0x169 JUMPI DUP1 PUSH4 0x95EA7B3 EQ PUSH2 0x199 JUMPI JUMPDEST PUSH1 0x0 DUP1 REVERT JUMPDEST PUSH2 0x135 PUSH1 0x4 DUP1 CALLDATASIZE SUB DUP2 ADD SWAP1 PUSH2 0x130 SWAP2 SWAP1 PUSH2 0x1AB5 JUMP JUMPDEST PUSH2 0x381 JUMP JUMPDEST PUSH1 0x40 MLOAD PUSH2 0x142 SWAP2 SWAP1 PUSH2 0x1CD1 JUMP JUMPDEST PUSH1 0x40 MLOAD DUP1 SWAP2 SUB SWAP1 RETURN JUMPDEST PUSH2 0x153 PUSH2 0x413 JUMP JUMPDEST PUSH1 0x40 MLOAD PUSH2 0x160 SWAP2 SWAP1 PUSH2 0x1CEC JUMP JUMPDEST PUSH1 0x40 MLOAD DUP1 SWAP2 SUB SWAP1 RETURN JUMPDEST PUSH2 0x183 PUSH1 0x4 DUP1 CALLDATASIZE SUB DUP2 ADD SWAP1 PUSH2 0x17E SWAP2 SWAP1 PUSH2 0x1B07 JUMP JUMPDEST PUSH2 0x4A5 JUMP JUMPDEST PUSH1 0x40 MLOAD PUSH2 0x190 SWAP2 SWAP1 PUSH2 0x1C6A JUMP JUMPDEST PUSH1 0x40 MLOAD DUP1 SWAP2 SUB SWAP1 RETURN JUMPDEST PUSH2 0x1B3 PUSH1 0x4 DUP1 CALLDATASIZE SUB DUP2 ADD SWAP1 PUSH2 0x1AE SWAP2 SWAP1 PUSH2 0x1A79 JUMP JUMPDEST PUSH2 0x521 JUMP JUMPDEST STOP JUMPDEST PUSH2 0x1BD PUSH2 0x6C8 JUMP JUMPDEST PUSH1 0x40 MLOAD PUSH2 0x1CA SWAP2 SWAP1 PUSH2 0x1D4E JUMP JUMPDEST PUSH1 0x40 MLOAD DUP1 SWAP2 SUB SWAP1 RETURN JUMPDEST PUSH2 0x1ED PUSH1 0x4 DUP1 CALLDATASIZE SUB DUP2 ADD SWAP1 PUSH2 0x1E8 SWAP2 SWAP1 PUSH2 0x1973 JUMP JUMPDEST PUSH2 0x6DF JUMP JUMPDEST STOP JUMPDEST PUSH2 0x209 PUSH1 0x4 DUP1 CALLDATASIZE SUB DUP2 ADD SWAP1 PUSH2 0x204 SWAP2 SWAP1 PUSH2 0x1A79 JUMP JUMPDEST PUSH2 0x6EF JUMP JUMPDEST STOP JUMPDEST PUSH2 0x225 PUSH1 0x4 DUP1 CALLDATASIZE SUB DUP2 ADD SWAP1 PUSH2 0x220 SWAP2 SWAP1 PUSH2 0x1973 JUMP JUMPDEST PUSH2 0x779 JUMP JUMPDEST STOP JUMPDEST PUSH2 0x241 PUSH1 0x4 DUP1 CALLDATASIZE SUB DUP2 ADD SWAP1 PUSH2 0x23C SWAP2 SWAP1 PUSH2 0x1B07 JUMP JUMPDEST PUSH2 0x799 JUMP JUMPDEST PUSH1 0x40 MLOAD PUSH2 0x24E SWAP2 SWAP1 PUSH2 0x1C6A JUMP JUMPDEST PUSH1 0x40 MLOAD DUP1 SWAP2 SUB SWAP1 RETURN JUMPDEST PUSH2 0x271 PUSH1 0x4 DUP1 CALLDATASIZE SUB DUP2 ADD SWAP1 PUSH2 0x26C SWAP2 SWAP1 PUSH2 0x190E JUMP JUMPDEST PUSH2 0x7AB JUMP JUMPDEST PUSH1 0x40 MLOAD PUSH2 0x27E SWAP2 SWAP1 PUSH2 0x1D4E JUMP JUMPDEST PUSH1 0x40 MLOAD DUP1 SWAP2 SUB SWAP1 RETURN JUMPDEST PUSH2 0x28F PUSH2 0x864 JUMP JUMPDEST STOP JUMPDEST PUSH2 0x299 PUSH2 0x8EC JUMP JUMPDEST PUSH1 0x40 MLOAD PUSH2 0x2A6 SWAP2 SWAP1 PUSH2 0x1C6A JUMP JUMPDEST PUSH1 0x40 MLOAD DUP1 SWAP2 SUB SWAP1 RETURN JUMPDEST PUSH2 0x2B7 PUSH2 0x916 JUMP JUMPDEST PUSH1 0x40 MLOAD PUSH2 0x2C4 SWAP2 SWAP1 PUSH2 0x1CEC JUMP JUMPDEST PUSH1 0x40 MLOAD DUP1 SWAP2 SUB SWAP1 RETURN JUMPDEST PUSH2 0x2E7 PUSH1 0x4 DUP1 CALLDATASIZE SUB DUP2 ADD SWAP1 PUSH2 0x2E2 SWAP2 SWAP1 PUSH2 0x1A3D JUMP JUMPDEST PUSH2 0x9A8 JUMP JUMPDEST STOP JUMPDEST PUSH2 0x303 PUSH1 0x4 DUP1 CALLDATASIZE SUB DUP2 ADD SWAP1 PUSH2 0x2FE SWAP2 SWAP1 PUSH2 0x19C2 JUMP JUMPDEST PUSH2 0xB20 JUMP JUMPDEST STOP JUMPDEST PUSH2 0x31F PUSH1 0x4 DUP1 CALLDATASIZE SUB DUP2 ADD SWAP1 PUSH2 0x31A SWAP2 SWAP1 PUSH2 0x1B07 JUMP JUMPDEST PUSH2 0xB93 JUMP JUMPDEST PUSH1 0x40 MLOAD PUSH2 0x32C SWAP2 SWAP1 PUSH2 0x1CEC JUMP JUMPDEST PUSH1 0x40 MLOAD DUP1 SWAP2 SUB SWAP1 RETURN JUMPDEST PUSH2 0x34F PUSH1 0x4 DUP1 CALLDATASIZE SUB DUP2 ADD SWAP1 PUSH2 0x34A SWAP2 SWAP1 PUSH2 0x1937 JUMP JUMPDEST PUSH2 0xC32 JUMP JUMPDEST PUSH1 0x40 MLOAD PUSH2 0x35C SWAP2 SWAP1 PUSH2 0x1CD1 JUMP JUMPDEST PUSH1 0x40 MLOAD DUP1 SWAP2 SUB SWAP1 RETURN JUMPDEST PUSH2 0x37F PUSH1 0x4 DUP1 CALLDATASIZE SUB DUP2 ADD SWAP1 PUSH2 0x37A SWAP2 SWAP1 PUSH2 0x190E JUMP JUMPDEST PUSH2 0xCC6 JUMP JUMPDEST STOP JUMPDEST PUSH1 0x0 PUSH4 0x1FFC9A7 PUSH1 0xE0 SHL DUP3 PUSH28 0xFFFFFFFFFFFFFFFFFFFFFFFFFFFFFFFFFFFFFFFFFFFFFFFFFFFFFFFF NOT AND EQ DUP1 PUSH2 0x3DC JUMPI POP PUSH4 0x80AC58CD PUSH1 0xE0 SHL DUP3 PUSH28 0xFFFFFFFFFFFFFFFFFFFFFFFFFFFFFFFFFFFFFFFFFFFFFFFFFFFFFFFF NOT AND EQ JUMPDEST DUP1 PUSH2 0x40C JUMPI POP PUSH4 0x5B5E139F PUSH1 0xE0 SHL DUP3 PUSH28 0xFFFFFFFFFFFFFFFFFFFFFFFFFFFFFFFFFFFFFFFFFFFFFFFFFFFFFFFF NOT AND EQ JUMPDEST SWAP1 POP SWAP2 SWAP1 POP JUMP JUMPDEST PUSH1 0x60 PUSH1 0x2 DUP1 SLOAD PUSH2 0x422 SWAP1 PUSH2 0x1EB8 JUMP JUMPDEST DUP1 PUSH1 0x1F ADD PUSH1 0x20 DUP1 SWAP2 DIV MUL PUSH1 0x20 ADD PUSH1 0x40 MLOAD SWAP1 DUP2 ADD PUSH1 0x40 MSTORE DUP1 SWAP3 SWAP2 SWAP1 DUP2 DUP2 MSTORE PUSH1 0x20 ADD DUP3 DUP1 SLOAD PUSH2 0x44E SWAP1 PUSH2 0x1EB8 JUMP JUMPDEST DUP1 ISZERO PUSH2 0x49B JUMPI DUP1 PUSH1 0x1F LT PUSH2 0x470 JUMPI PUSH2 0x100 DUP1 DUP4 SLOAD DIV MUL DUP4 MSTORE SWAP2 PUSH1 0x20 ADD SWAP2 PUSH2 0x49B JUMP JUMPDEST DUP3 ADD SWAP2 SWAP1 PUSH1 0x0 MSTORE PUSH1 0x20 PUSH1 0x0 KECCAK256 SWAP1 JUMPDEST DUP2 SLOAD DUP2 MSTORE SWAP1 PUSH1 0x1 ADD SWAP1 PUSH1 0x20 ADD DUP1 DUP4 GT PUSH2 0x47E JUMPI DUP3 SWAP1 SUB PUSH1 0x1F AND DUP3 ADD SWAP2 JUMPDEST POP POP POP POP POP SWAP1 POP SWAP1 JUMP JUMPDEST PUSH1 0x0 PUSH2 0x4B0 DUP3 PUSH2 0xDBE JUMP JUMPDEST PUSH2 0x4E6 JUMPI PUSH1 0x40 MLOAD PUSH32 0xCF4700E400000000000000000000000000000000000000000000000000000000 DUP2 MSTORE PUSH1 0x4 ADD PUSH1 0x40 MLOAD DUP1 SWAP2 SUB SWAP1 REVERT JUMPDEST PUSH1 0x6 PUSH1 0x0 DUP4 DUP2 MSTORE PUSH1 0x20 ADD SWAP1 DUP2 MSTORE PUSH1 0x20 ADD PUSH1 0x0 KECCAK256 PUSH1 0x0 SWAP1 SLOAD SWAP1 PUSH2 0x100 EXP SWAP1 DIV PUSH20 0xFFFFFFFFFFFFFFFFFFFFFFFFFFFFFFFFFFFFFFFF AND SWAP1 POP SWAP2 SWAP1 POP JUMP JUMPDEST PUSH1 0x0 PUSH2 0x52C DUP3 PUSH2 0xE1D JUMP JUMPDEST SWAP1 POP DUP1 PUSH20 0xFFFFFFFFFFFFFFFFFFFFFFFFFFFFFFFFFFFFFFFF AND DUP4 PUSH20 0xFFFFFFFFFFFFFFFFFFFFFFFFFFFFFFFFFFFFFFFF AND EQ ISZERO PUSH2 0x594 JUMPI PUSH1 0x40 MLOAD PUSH32 0x943F7B8C00000000000000000000000000000000000000000000000000000000 DUP2 MSTORE PUSH1 0x4 ADD PUSH1 0x40 MLOAD DUP1 SWAP2 SUB SWAP1 REVERT JUMPDEST DUP1 PUSH20 0xFFFFFFFFFFFFFFFFFFFFFFFFFFFFFFFFFFFFFFFF AND PUSH2 0x5B3 PUSH2 0xEEB JUMP JUMPDEST PUSH20 0xFFFFFFFFFFFFFFFFFFFFFFFFFFFFFFFFFFFFFFFF AND EQ PUSH2 0x616 JUMPI PUSH2 0x5DF DUP2 PUSH2 0x5DA PUSH2 0xEEB JUMP JUMPDEST PUSH2 0xC32 JUMP JUMPDEST PUSH2 0x615 JUMPI PUSH1 0x40 MLOAD PUSH32 0xCFB3B94200000000000000000000000000000000000000000000000000000000 DUP2 MSTORE PUSH1 0x4 ADD PUSH1 0x40 MLOAD DUP1 SWAP2 SUB SWAP1 REVERT JUMPDEST JUMPDEST DUP3 PUSH1 0x6 PUSH1 0x0 DUP5 DUP2 MSTORE PUSH1 0x20 ADD SWAP1 DUP2 MSTORE PUSH1 0x20 ADD PUSH1 0x0 KECCAK256 PUSH1 0x0 PUSH2 0x100 EXP DUP2 SLOAD DUP2 PUSH20 0xFFFFFFFFFFFFFFFFFFFFFFFFFFFFFFFFFFFFFFFF MUL NOT AND SWAP1 DUP4 PUSH20 0xFFFFFFFFFFFFFFFFFFFFFFFFFFFFFFFFFFFFFFFF AND MUL OR SWAP1 SSTORE POP DUP2 DUP4 PUSH20 0xFFFFFFFFFFFFFFFFFFFFFFFFFFFFFFFFFFFFFFFF AND DUP3 PUSH20 0xFFFFFFFFFFFFFFFFFFFFFFFFFFFFFFFFFFFFFFFF AND PUSH32 0x8C5BE1E5EBEC7D5BD14F71427D1E84F3DD0314C0F7B2291E5B200AC8C7C3B925 PUSH1 0x40 MLOAD PUSH1 0x40 MLOAD DUP1 SWAP2 SUB SWAP1 LOG4 POP POP POP JUMP JUMPDEST PUSH1 0x0 PUSH2 0x6D2 PUSH2 0xEF3 JUMP JUMPDEST PUSH1 0x1 SLOAD PUSH1 0x0 SLOAD SUB SUB SWAP1 POP SWAP1 JUMP JUMPDEST PUSH2 0x6EA DUP4 DUP4 DUP4 PUSH2 0xEF8 JUMP JUMPDEST POP POP POP JUMP JUMPDEST PUSH2 0x6F7 PUSH2 0x12A2 JUMP JUMPDEST PUSH20 0xFFFFFFFFFFFFFFFFFFFFFFFFFFFFFFFFFFFFFFFF AND PUSH2 0x715 PUSH2 0x8EC JUMP JUMPDEST PUSH20 0xFFFFFFFFFFFFFFFFFFFFFFFFFFFFFFFFFFFFFFFF AND EQ PUSH2 0x76B JUMPI PUSH1 0x40 MLOAD PUSH32 0x8C379A000000000000000000000000000000000000000000000000000000000 DUP2 MSTORE PUSH1 0x4 ADD PUSH2 0x762 SWAP1 PUSH2 0x1D2E JUMP JUMPDEST PUSH1 0x40 MLOAD DUP1 SWAP2 SUB SWAP1 REVERT JUMPDEST PUSH2 0x775 DUP3 DUP3 PUSH2 0x12AA JUMP JUMPDEST POP POP JUMP JUMPDEST PUSH2 0x794 DUP4 DUP4 DUP4 PUSH1 0x40 MLOAD DUP1 PUSH1 0x20 ADD PUSH1 0x40 MSTORE DUP1 PUSH1 0x0 DUP2 MSTORE POP PUSH2 0xB20 JUMP JUMPDEST POP POP POP JUMP JUMPDEST PUSH1 0x0 PUSH2 0x7A4 DUP3 PUSH2 0xE1D JUMP JUMPDEST SWAP1 POP SWAP2 SWAP1 POP JUMP JUMPDEST PUSH1 0x0 DUP1 PUSH20 0xFFFFFFFFFFFFFFFFFFFFFFFFFFFFFFFFFFFFFFFF AND DUP3 PUSH20 0xFFFFFFFFFFFFFFFFFFFFFFFFFFFFFFFFFFFFFFFF AND EQ ISZERO PUSH2 0x813 JUMPI PUSH1 0x40 MLOAD PUSH32 0x8F4EB60400000000000000000000000000000000000000000000000000000000 DUP2 MSTORE PUSH1 0x4 ADD PUSH1 0x40 MLOAD DUP1 SWAP2 SUB SWAP1 REVERT JUMPDEST PUSH8 0xFFFFFFFFFFFFFFFF PUSH1 0x5 PUSH1 0x0 DUP5 PUSH20 0xFFFFFFFFFFFFFFFFFFFFFFFFFFFFFFFFFFFFFFFF AND PUSH20 0xFFFFFFFFFFFFFFFFFFFFFFFFFFFFFFFFFFFFFFFF AND DUP2 MSTORE PUSH1 0x20 ADD SWAP1 DUP2 MSTORE PUSH1 0x20 ADD PUSH1 0x0 KECCAK256 SLOAD AND SWAP1 POP SWAP2 SWAP1 POP JUMP JUMPDEST PUSH2 0x86C PUSH2 0x12A2 JUMP JUMPDEST PUSH20 0xFFFFFFFFFFFFFFFFFFFFFFFFFFFFFFFFFFFFFFFF AND PUSH2 0x88A PUSH2 0x8EC JUMP JUMPDEST PUSH20 0xFFFFFFFFFFFFFFFFFFFFFFFFFFFFFFFFFFFFFFFF AND EQ PUSH2 0x8E0 JUMPI PUSH1 0x40 MLOAD PUSH32 0x8C379A000000000000000000000000000000000000000000000000000000000 DUP2 MSTORE PUSH1 0x4 ADD PUSH2 0x8D7 SWAP1 PUSH2 0x1D2E JUMP JUMPDEST PUSH1 0x40 MLOAD DUP1 SWAP2 SUB SWAP1 REVERT JUMPDEST PUSH2 0x8EA PUSH1 0x0 PUSH2 0x12C8 JUMP JUMPDEST JUMP JUMPDEST PUSH1 0x0 PUSH1 0x8 PUSH1 0x0 SWAP1 SLOAD SWAP1 PUSH2 0x100 EXP SWAP1 DIV PUSH20 0xFFFFFFFFFFFFFFFFFFFFFFFFFFFFFFFFFFFFFFFF AND SWAP1 POP SWAP1 JUMP JUMPDEST PUSH1 0x60 PUSH1 0x3 DUP1 SLOAD PUSH2 0x925 SWAP1 PUSH2 0x1EB8 JUMP JUMPDEST DUP1 PUSH1 0x1F ADD PUSH1 0x20 DUP1 SWAP2 DIV MUL PUSH1 0x20 ADD PUSH1 0x40 MLOAD SWAP1 DUP2 ADD PUSH1 0x40 MSTORE DUP1 SWAP3 SWAP2 SWAP1 DUP2 DUP2 MSTORE PUSH1 0x20 ADD DUP3 DUP1 SLOAD PUSH2 0x951 SWAP1 PUSH2 0x1EB8 JUMP JUMPDEST DUP1 ISZERO PUSH2 0x99E JUMPI DUP1 PUSH1 0x1F LT PUSH2 0x973 JUMPI PUSH2 0x100 DUP1 DUP4 SLOAD DIV MUL DUP4 MSTORE SWAP2 PUSH1 0x20 ADD SWAP2 PUSH2 0x99E JUMP JUMPDEST DUP3 ADD SWAP2 SWAP1 PUSH1 0x0 MSTORE PUSH1 0x20 PUSH1 0x0 KECCAK256 SWAP1 JUMPDEST DUP2 SLOAD DUP2 MSTORE SWAP1 PUSH1 0x1 ADD SWAP1 PUSH1 0x20 ADD DUP1 DUP4 GT PUSH2 0x981 JUMPI DUP3 SWAP1 SUB PUSH1 0x1F AND DUP3 ADD SWAP2 JUMPDEST POP POP POP POP POP SWAP1 POP SWAP1 JUMP JUMPDEST PUSH2 0x9B0 PUSH2 0xEEB JUMP JUMPDEST PUSH20 0xFFFFFFFFFFFFFFFFFFFFFFFFFFFFFFFFFFFFFFFF AND DUP3 PUSH20 0xFFFFFFFFFFFFFFFFFFFFFFFFFFFFFFFFFFFFFFFF AND EQ ISZERO PUSH2 0xA15 JUMPI PUSH1 0x40 MLOAD PUSH32 0xB06307DB00000000000000000000000000000000000000000000000000000000 DUP2 MSTORE PUSH1 0x4 ADD PUSH1 0x40 MLOAD DUP1 SWAP2 SUB SWAP1 REVERT JUMPDEST DUP1 PUSH1 0x7 PUSH1 0x0 PUSH2 0xA22 PUSH2 0xEEB JUMP JUMPDEST PUSH20 0xFFFFFFFFFFFFFFFFFFFFFFFFFFFFFFFFFFFFFFFF AND PUSH20 0xFFFFFFFFFFFFFFFFFFFFFFFFFFFFFFFFFFFFFFFF AND DUP2 MSTORE PUSH1 0x20 ADD SWAP1 DUP2 MSTORE PUSH1 0x20 ADD PUSH1 0x0 KECCAK256 PUSH1 0x0 DUP5 PUSH20 0xFFFFFFFFFFFFFFFFFFFFFFFFFFFFFFFFFFFFFFFF AND PUSH20 0xFFFFFFFFFFFFFFFFFFFFFFFFFFFFFFFFFFFFFFFF AND DUP2 MSTORE PUSH1 0x20 ADD SWAP1 DUP2 MSTORE PUSH1 0x20 ADD PUSH1 0x0 KECCAK256 PUSH1 0x0 PUSH2 0x100 EXP DUP2 SLOAD DUP2 PUSH1 0xFF MUL NOT AND SWAP1 DUP4 ISZERO ISZERO MUL OR SWAP1 SSTORE POP DUP2 PUSH20 0xFFFFFFFFFFFFFFFFFFFFFFFFFFFFFFFFFFFFFFFF AND PUSH2 0xACF PUSH2 0xEEB JUMP JUMPDEST PUSH20 0xFFFFFFFFFFFFFFFFFFFFFFFFFFFFFFFFFFFFFFFF AND PUSH32 0x17307EAB39AB6107E8899845AD3D59BD9653F200F220920489CA2B5937696C31 DUP4 PUSH1 0x40 MLOAD PUSH2 0xB14 SWAP2 SWAP1 PUSH2 0x1CD1 JUMP JUMPDEST PUSH1 0x40 MLOAD DUP1 SWAP2 SUB SWAP1 LOG3 POP POP JUMP JUMPDEST PUSH2 0xB2B DUP5 DUP5 DUP5 PUSH2 0xEF8 JUMP JUMPDEST PUSH1 0x0 DUP4 PUSH20 0xFFFFFFFFFFFFFFFFFFFFFFFFFFFFFFFFFFFFFFFF AND EXTCODESIZE EQ PUSH2 0xB8D JUMPI PUSH2 0xB56 DUP5 DUP5 DUP5 DUP5 PUSH2 0x138E JUMP JUMPDEST PUSH2 0xB8C JUMPI PUSH1 0x40 MLOAD PUSH32 0xD1A57ED600000000000000000000000000000000000000000000000000000000 DUP2 MSTORE PUSH1 0x4 ADD PUSH1 0x40 MLOAD DUP1 SWAP2 SUB SWAP1 REVERT JUMPDEST JUMPDEST POP POP POP POP JUMP JUMPDEST PUSH1 0x60 PUSH2 0xB9E DUP3 PUSH2 0xDBE JUMP JUMPDEST PUSH2 0xBD4 JUMPI PUSH1 0x40 MLOAD PUSH32 0xA14C4B5000000000000000000000000000000000000000000000000000000000 DUP2 MSTORE PUSH1 0x4 ADD PUSH1 0x40 MLOAD DUP1 SWAP2 SUB SWAP1 REVERT JUMPDEST PUSH1 0x0 PUSH2 0xBDE PUSH2 0x14EE JUMP JUMPDEST SWAP1 POP PUSH1 0x0 DUP2 MLOAD EQ ISZERO PUSH2 0xBFF JUMPI PUSH1 0x40 MLOAD DUP1 PUSH1 0x20 ADD PUSH1 0x40 MSTORE DUP1 PUSH1 0x0 DUP2 MSTORE POP PUSH2 0xC2A JUMP JUMPDEST DUP1 PUSH2 0xC09 DUP5 PUSH2 0x150E JUMP JUMPDEST PUSH1 0x40 MLOAD PUSH1 0x20 ADD PUSH2 0xC1A SWAP3 SWAP2 SWAP1 PUSH2 0x1C46 JUMP JUMPDEST PUSH1 0x40 MLOAD PUSH1 0x20 DUP2 DUP4 SUB SUB DUP2 MSTORE SWAP1 PUSH1 0x40 MSTORE JUMPDEST SWAP2 POP POP SWAP2 SWAP1 POP JUMP JUMPDEST PUSH1 0x0 PUSH1 0x7 PUSH1 0x0 DUP5 PUSH20 0xFFFFFFFFFFFFFFFFFFFFFFFFFFFFFFFFFFFFFFFF AND PUSH20 0xFFFFFFFFFFFFFFFFFFFFFFFFFFFFFFFFFFFFFFFF AND DUP2 MSTORE PUSH1 0x20 ADD SWAP1 DUP2 MSTORE PUSH1 0x20 ADD PUSH1 0x0 KECCAK256 PUSH1 0x0 DUP4 PUSH20 0xFFFFFFFFFFFFFFFFFFFFFFFFFFFFFFFFFFFFFFFF AND PUSH20 0xFFFFFFFFFFFFFFFFFFFFFFFFFFFFFFFFFFFFFFFF AND DUP2 MSTORE PUSH1 0x20 ADD SWAP1 DUP2 MSTORE PUSH1 0x20 ADD PUSH1 0x0 KECCAK256 PUSH1 0x0 SWAP1 SLOAD SWAP1 PUSH2 0x100 EXP SWAP1 DIV PUSH1 0xFF AND SWAP1 POP SWAP3 SWAP2 POP POP JUMP JUMPDEST PUSH2 0xCCE PUSH2 0x12A2 JUMP JUMPDEST PUSH20 0xFFFFFFFFFFFFFFFFFFFFFFFFFFFFFFFFFFFFFFFF AND PUSH2 0xCEC PUSH2 0x8EC JUMP JUMPDEST PUSH20 0xFFFFFFFFFFFFFFFFFFFFFFFFFFFFFFFFFFFFFFFF AND EQ PUSH2 0xD42 JUMPI PUSH1 0x40 MLOAD PUSH32 0x8C379A000000000000000000000000000000000000000000000000000000000 DUP2 MSTORE PUSH1 0x4 ADD PUSH2 0xD39 SWAP1 PUSH2 0x1D2E JUMP JUMPDEST PUSH1 0x40 MLOAD DUP1 SWAP2 SUB SWAP1 REVERT JUMPDEST PUSH1 0x0 PUSH20 0xFFFFFFFFFFFFFFFFFFFFFFFFFFFFFFFFFFFFFFFF AND DUP2 PUSH20 0xFFFFFFFFFFFFFFFFFFFFFFFFFFFFFFFFFFFFFFFF AND EQ ISZERO PUSH2 0xDB2 JUMPI PUSH1 0x40 MLOAD PUSH32 0x8C379A000000000000000000000000000000000000000000000000000000000 DUP2 MSTORE PUSH1 0x4 ADD PUSH2 0xDA9 SWAP1 PUSH2 0x1D0E JUMP JUMPDEST PUSH1 0x40 MLOAD DUP1 SWAP2 SUB SWAP1 REVERT JUMPDEST PUSH2 0xDBB DUP2 PUSH2 0x12C8 JUMP JUMPDEST POP JUMP JUMPDEST PUSH1 0x0 DUP2 PUSH2 0xDC9 PUSH2 0xEF3 JUMP JUMPDEST GT ISZERO DUP1 ISZERO PUSH2 0xDD8 JUMPI POP PUSH1 0x0 SLOAD DUP3 LT JUMPDEST DUP1 ISZERO PUSH2 0xE16 JUMPI POP PUSH1 0x0 PUSH29 0x100000000000000000000000000000000000000000000000000000000 PUSH1 0x4 PUSH1 0x0 DUP6 DUP2 MSTORE PUSH1 0x20 ADD SWAP1 DUP2 MSTORE PUSH1 0x20 ADD PUSH1 0x0 KECCAK256 SLOAD AND EQ JUMPDEST SWAP1 POP SWAP2 SWAP1 POP JUMP JUMPDEST PUSH1 0x0 DUP1 DUP3 SWAP1 POP DUP1 PUSH2 0xE2C PUSH2 0xEF3 JUMP JUMPDEST GT PUSH2 0xEB4 JUMPI PUSH1 0x0 SLOAD DUP2 LT ISZERO PUSH2 0xEB3 JUMPI PUSH1 0x0 PUSH1 0x4 PUSH1 0x0 DUP4 DUP2 MSTORE PUSH1 0x20 ADD SWAP1 DUP2 MSTORE PUSH1 0x20 ADD PUSH1 0x0 KECCAK256 SLOAD SWAP1 POP PUSH1 0x0 PUSH29 0x100000000000000000000000000000000000000000000000000000000 DUP3 AND EQ ISZERO PUSH2 0xEB1 JUMPI JUMPDEST PUSH1 0x0 DUP2 EQ ISZERO PUSH2 0xEA7 JUMPI PUSH1 0x4 PUSH1 0x0 DUP4 PUSH1 0x1 SWAP1 SUB SWAP4 POP DUP4 DUP2 MSTORE PUSH1 0x20 ADD SWAP1 DUP2 MSTORE PUSH1 0x20 ADD PUSH1 0x0 KECCAK256 SLOAD SWAP1 POP PUSH2 0xE7C JUMP JUMPDEST DUP1 SWAP3 POP POP POP PUSH2 0xEE6 JUMP JUMPDEST POP JUMPDEST JUMPDEST PUSH1 0x40 MLOAD PUSH32 0xDF2D9B4200000000000000000000000000000000000000000000000000000000 DUP2 MSTORE PUSH1 0x4 ADD PUSH1 0x40 MLOAD DUP1 SWAP2 SUB SWAP1 REVERT JUMPDEST SWAP2 SWAP1 POP JUMP JUMPDEST PUSH1 0x0 CALLER SWAP1 POP SWAP1 JUMP JUMPDEST PUSH1 0x0 SWAP1 JUMP JUMPDEST PUSH1 0x0 PUSH2 0xF03 DUP3 PUSH2 0xE1D JUMP JUMPDEST SWAP1 POP DUP4 PUSH20 0xFFFFFFFFFFFFFFFFFFFFFFFFFFFFFFFFFFFFFFFF AND DUP2 PUSH20 0xFFFFFFFFFFFFFFFFFFFFFFFFFFFFFFFFFFFFFFFF AND EQ PUSH2 0xF6A JUMPI PUSH1 0x40 MLOAD PUSH32 0xA114810000000000000000000000000000000000000000000000000000000000 DUP2 MSTORE PUSH1 0x4 ADD PUSH1 0x40 MLOAD DUP1 SWAP2 SUB SWAP1 REVERT JUMPDEST PUSH1 0x0 DUP5 PUSH20 0xFFFFFFFFFFFFFFFFFFFFFFFFFFFFFFFFFFFFFFFF AND PUSH2 0xF8B PUSH2 0xEEB JUMP JUMPDEST PUSH20 0xFFFFFFFFFFFFFFFFFFFFFFFFFFFFFFFFFFFFFFFF AND EQ DUP1 PUSH2 0xFBA JUMPI POP PUSH2 0xFB9 DUP6 PUSH2 0xFB4 PUSH2 0xEEB JUMP JUMPDEST PUSH2 0xC32 JUMP JUMPDEST JUMPDEST DUP1 PUSH2 0xFFF JUMPI POP PUSH2 0xFC8 PUSH2 0xEEB JUMP JUMPDEST PUSH20 0xFFFFFFFFFFFFFFFFFFFFFFFFFFFFFFFFFFFFFFFF AND PUSH2 0xFE7 DUP5 PUSH2 0x4A5 JUMP JUMPDEST PUSH20 0xFFFFFFFFFFFFFFFFFFFFFFFFFFFFFFFFFFFFFFFF AND EQ JUMPDEST SWAP1 POP DUP1 PUSH2 0x1038 JUMPI PUSH1 0x40 MLOAD PUSH32 0x59C896BE00000000000000000000000000000000000000000000000000000000 DUP2 MSTORE PUSH1 0x4 ADD PUSH1 0x40 MLOAD DUP1 SWAP2 SUB SWAP1 REVERT JUMPDEST PUSH1 0x0 PUSH20 0xFFFFFFFFFFFFFFFFFFFFFFFFFFFFFFFFFFFFFFFF AND DUP5 PUSH20 0xFFFFFFFFFFFFFFFFFFFFFFFFFFFFFFFFFFFFFFFF AND EQ ISZERO PUSH2 0x109F JUMPI PUSH1 0x40 MLOAD PUSH32 0xEA553B3400000000000000000000000000000000000000000000000000000000 DUP2 MSTORE PUSH1 0x4 ADD PUSH1 0x40 MLOAD DUP1 SWAP2 SUB SWAP1 REVERT JUMPDEST PUSH2 0x10AC DUP6 DUP6 DUP6 PUSH1 0x1 PUSH2 0x1568 JUMP JUMPDEST PUSH1 0x6 PUSH1 0x0 DUP5 DUP2 MSTORE PUSH1 0x20 ADD SWAP1 DUP2 MSTORE PUSH1 0x20 ADD PUSH1 0x0 KECCAK256 PUSH1 0x0 PUSH2 0x100 EXP DUP2 SLOAD SWAP1 PUSH20 0xFFFFFFFFFFFFFFFFFFFFFFFFFFFFFFFFFFFFFFFF MUL NOT AND SWAP1 SSTORE PUSH1 0x5 PUSH1 0x0 DUP7 PUSH20 0xFFFFFFFFFFFFFFFFFFFFFFFFFFFFFFFFFFFFFFFF AND PUSH20 0xFFFFFFFFFFFFFFFFFFFFFFFFFFFFFFFFFFFFFFFF AND DUP2 MSTORE PUSH1 0x20 ADD SWAP1 DUP2 MSTORE PUSH1 0x20 ADD PUSH1 0x0 KECCAK256 PUSH1 0x0 DUP2 SLOAD PUSH1 0x1 SWAP1 SUB SWAP2 SWAP1 POP DUP2 SWAP1 SSTORE POP PUSH1 0x5 PUSH1 0x0 DUP6 PUSH20 0xFFFFFFFFFFFFFFFFFFFFFFFFFFFFFFFFFFFFFFFF AND PUSH20 0xFFFFFFFFFFFFFFFFFFFFFFFFFFFFFFFFFFFFFFFF AND DUP2 MSTORE PUSH1 0x20 ADD SWAP1 DUP2 MSTORE PUSH1 0x20 ADD PUSH1 0x0 KECCAK256 PUSH1 0x0 DUP2 SLOAD PUSH1 0x1 ADD SWAP2 SWAP1 POP DUP2 SWAP1 SSTORE POP PUSH29 0x200000000000000000000000000000000000000000000000000000000 PUSH1 0xA0 TIMESTAMP SWAP1 SHL PUSH2 0x11A9 DUP7 PUSH2 0x156E JUMP JUMPDEST OR OR PUSH1 0x4 PUSH1 0x0 DUP6 DUP2 MSTORE PUSH1 0x20 ADD SWAP1 DUP2 MSTORE PUSH1 0x20 ADD PUSH1 0x0 KECCAK256 DUP2 SWAP1 SSTORE POP PUSH1 0x0 PUSH29 0x200000000000000000000000000000000000000000000000000000000 DUP4 AND EQ ISZERO PUSH2 0x1233 JUMPI PUSH1 0x0 PUSH1 0x1 DUP5 ADD SWAP1 POP PUSH1 0x0 PUSH1 0x4 PUSH1 0x0 DUP4 DUP2 MSTORE PUSH1 0x20 ADD SWAP1 DUP2 MSTORE PUSH1 0x20 ADD PUSH1 0x0 KECCAK256 SLOAD EQ ISZERO PUSH2 0x1231 JUMPI PUSH1 0x0 SLOAD DUP2 EQ PUSH2 0x1230 JUMPI DUP3 PUSH1 0x4 PUSH1 0x0 DUP4 DUP2 MSTORE PUSH1 0x20 ADD SWAP1 DUP2 MSTORE PUSH1 0x20 ADD PUSH1 0x0 KECCAK256 DUP2 SWAP1 SSTORE POP JUMPDEST JUMPDEST POP JUMPDEST DUP3 DUP5 PUSH20 0xFFFFFFFFFFFFFFFFFFFFFFFFFFFFFFFFFFFFFFFF AND DUP7 PUSH20 0xFFFFFFFFFFFFFFFFFFFFFFFFFFFFFFFFFFFFFFFF AND PUSH32 0xDDF252AD1BE2C89B69C2B068FC378DAA952BA7F163C4A11628F55A4DF523B3EF PUSH1 0x40 MLOAD PUSH1 0x40 MLOAD DUP1 SWAP2 SUB SWAP1 LOG4 PUSH2 0x129B DUP6 DUP6 DUP6 PUSH1 0x1 PUSH2 0x1578 JUMP JUMPDEST POP POP POP POP POP JUMP JUMPDEST PUSH1 0x0 CALLER SWAP1 POP SWAP1 JUMP JUMPDEST PUSH2 0x12C4 DUP3 DUP3 PUSH1 0x40 MLOAD DUP1 PUSH1 0x20 ADD PUSH1 0x40 MSTORE DUP1 PUSH1 0x0 DUP2 MSTORE POP PUSH2 0x157E JUMP JUMPDEST POP POP JUMP JUMPDEST PUSH1 0x0 PUSH1 0x8 PUSH1 0x0 SWAP1 SLOAD SWAP1 PUSH2 0x100 EXP SWAP1 DIV PUSH20 0xFFFFFFFFFFFFFFFFFFFFFFFFFFFFFFFFFFFFFFFF AND SWAP1 POP DUP2 PUSH1 0x8 PUSH1 0x0 PUSH2 0x100 EXP DUP2 SLOAD DUP2 PUSH20 0xFFFFFFFFFFFFFFFFFFFFFFFFFFFFFFFFFFFFFFFF MUL NOT AND SWAP1 DUP4 PUSH20 0xFFFFFFFFFFFFFFFFFFFFFFFFFFFFFFFFFFFFFFFF AND MUL OR SWAP1 SSTORE POP DUP2 PUSH20 0xFFFFFFFFFFFFFFFFFFFFFFFFFFFFFFFFFFFFFFFF AND DUP2 PUSH20 0xFFFFFFFFFFFFFFFFFFFFFFFFFFFFFFFFFFFFFFFF AND PUSH32 0x8BE0079C531659141344CD1FD0A4F28419497F9722A3DAAFE3B4186F6B6457E0 PUSH1 0x40 MLOAD PUSH1 0x40 MLOAD DUP1 SWAP2 SUB SWAP1 LOG3 POP POP JUMP JUMPDEST PUSH1 0x0 DUP4 PUSH20 0xFFFFFFFFFFFFFFFFFFFFFFFFFFFFFFFFFFFFFFFF AND PUSH4 0x150B7A02 PUSH2 0x13B4 PUSH2 0xEEB JUMP JUMPDEST DUP8 DUP7 DUP7 PUSH1 0x40 MLOAD DUP6 PUSH4 0xFFFFFFFF AND PUSH1 0xE0 SHL DUP2 MSTORE PUSH1 0x4 ADD PUSH2 0x13D6 SWAP5 SWAP4 SWAP3 SWAP2 SWAP1 PUSH2 0x1C85 JUMP JUMPDEST PUSH1 0x20 PUSH1 0x40 MLOAD DUP1 DUP4 SUB DUP2 PUSH1 0x0 DUP8 DUP1 EXTCODESIZE ISZERO DUP1 ISZERO PUSH2 0x13F0 JUMPI PUSH1 0x0 DUP1 REVERT JUMPDEST POP GAS CALL SWAP3 POP POP POP DUP1 ISZERO PUSH2 0x1421 JUMPI POP PUSH1 0x40 MLOAD RETURNDATASIZE PUSH1 0x1F NOT PUSH1 0x1F DUP3 ADD AND DUP3 ADD DUP1 PUSH1 0x40 MSTORE POP DUP2 ADD SWAP1 PUSH2 0x141E SWAP2 SWAP1 PUSH2 0x1ADE JUMP JUMPDEST PUSH1 0x1 JUMPDEST PUSH2 0x149B JUMPI RETURNDATASIZE DUP1 PUSH1 0x0 DUP2 EQ PUSH2 0x1451 JUMPI PUSH1 0x40 MLOAD SWAP2 POP PUSH1 0x1F NOT PUSH1 0x3F RETURNDATASIZE ADD AND DUP3 ADD PUSH1 0x40 MSTORE RETURNDATASIZE DUP3 MSTORE RETURNDATASIZE PUSH1 0x0 PUSH1 0x20 DUP5 ADD RETURNDATACOPY PUSH2 0x1456 JUMP JUMPDEST PUSH1 0x60 SWAP2 POP JUMPDEST POP PUSH1 0x0 DUP2 MLOAD EQ ISZERO PUSH2 0x1493 JUMPI PUSH1 0x40 MLOAD PUSH32 0xD1A57ED600000000000000000000000000000000000000000000000000000000 DUP2 MSTORE PUSH1 0x4 ADD PUSH1 0x40 MLOAD DUP1 SWAP2 SUB SWAP1 REVERT JUMPDEST DUP1 MLOAD DUP2 PUSH1 0x20 ADD REVERT JUMPDEST PUSH4 0x150B7A02 PUSH1 0xE0 SHL PUSH28 0xFFFFFFFFFFFFFFFFFFFFFFFFFFFFFFFFFFFFFFFFFFFFFFFFFFFFFFFF NOT AND DUP2 PUSH28 0xFFFFFFFFFFFFFFFFFFFFFFFFFFFFFFFFFFFFFFFFFFFFFFFFFFFFFFFF NOT AND EQ SWAP2 POP POP SWAP5 SWAP4 POP POP POP POP JUMP JUMPDEST PUSH1 0x60 PUSH1 0x40 MLOAD DUP1 PUSH1 0x60 ADD PUSH1 0x40 MSTORE DUP1 PUSH1 0x3F DUP2 MSTORE PUSH1 0x20 ADD PUSH2 0x205F PUSH1 0x3F SWAP2 CODECOPY SWAP1 POP SWAP1 JUMP JUMPDEST PUSH1 0x60 PUSH1 0x80 PUSH1 0x40 MLOAD ADD SWAP1 POP DUP1 PUSH1 0x40 MSTORE DUP1 DUP3 PUSH1 0x1 DUP4 SUB SWAP3 POP PUSH1 0xA DUP2 MOD PUSH1 0x30 ADD DUP4 MSTORE8 PUSH1 0xA DUP2 DIV SWAP1 POP JUMPDEST DUP1 ISZERO PUSH2 0x1554 JUMPI PUSH1 0x1 DUP4 SUB SWAP3 POP PUSH1 0xA DUP2 MOD PUSH1 0x30 ADD DUP4 MSTORE8 PUSH1 0xA DUP2 DIV SWAP1 POP PUSH2 0x1534 JUMP JUMPDEST POP DUP2 DUP2 SUB PUSH1 0x20 DUP4 SUB SWAP3 POP DUP1 DUP4 MSTORE POP POP SWAP2 SWAP1 POP JUMP JUMPDEST POP POP POP POP JUMP JUMPDEST PUSH1 0x0 DUP2 SWAP1 POP SWAP2 SWAP1 POP JUMP JUMPDEST POP POP POP POP JUMP JUMPDEST PUSH1 0x0 DUP1 SLOAD SWAP1 POP PUSH1 0x0 PUSH20 0xFFFFFFFFFFFFFFFFFFFFFFFFFFFFFFFFFFFFFFFF AND DUP5 PUSH20 0xFFFFFFFFFFFFFFFFFFFFFFFFFFFFFFFFFFFFFFFF AND EQ ISZERO PUSH2 0x15EB JUMPI PUSH1 0x40 MLOAD PUSH32 0x2E07630000000000000000000000000000000000000000000000000000000000 DUP2 MSTORE PUSH1 0x4 ADD PUSH1 0x40 MLOAD DUP1 SWAP2 SUB SWAP1 REVERT JUMPDEST PUSH1 0x0 DUP4 EQ ISZERO PUSH2 0x1626 JUMPI PUSH1 0x40 MLOAD PUSH32 0xB562E8DD00000000000000000000000000000000000000000000000000000000 DUP2 MSTORE PUSH1 0x4 ADD PUSH1 0x40 MLOAD DUP1 SWAP2 SUB SWAP1 REVERT JUMPDEST PUSH2 0x1633 PUSH1 0x0 DUP6 DUP4 DUP7 PUSH2 0x1568 JUMP JUMPDEST PUSH1 0x1 PUSH1 0x40 PUSH1 0x1 SWAP1 SHL OR DUP4 MUL PUSH1 0x5 PUSH1 0x0 DUP7 PUSH20 0xFFFFFFFFFFFFFFFFFFFFFFFFFFFFFFFFFFFFFFFF AND PUSH20 0xFFFFFFFFFFFFFFFFFFFFFFFFFFFFFFFFFFFFFFFF AND DUP2 MSTORE PUSH1 0x20 ADD SWAP1 DUP2 MSTORE PUSH1 0x20 ADD PUSH1 0x0 KECCAK256 PUSH1 0x0 DUP3 DUP3 SLOAD ADD SWAP3 POP POP DUP2 SWAP1 SSTORE POP PUSH1 0xE1 PUSH2 0x1698 PUSH1 0x1 DUP6 EQ PUSH2 0x1833 JUMP JUMPDEST SWAP1 SHL PUSH1 0xA0 TIMESTAMP SWAP1 SHL PUSH2 0x16A8 DUP7 PUSH2 0x156E JUMP JUMPDEST OR OR PUSH1 0x4 PUSH1 0x0 DUP4 DUP2 MSTORE PUSH1 0x20 ADD SWAP1 DUP2 MSTORE PUSH1 0x20 ADD PUSH1 0x0 KECCAK256 DUP2 SWAP1 SSTORE POP PUSH1 0x0 DUP2 SWAP1 POP PUSH1 0x0 DUP5 DUP3 ADD SWAP1 POP PUSH1 0x0 DUP7 PUSH20 0xFFFFFFFFFFFFFFFFFFFFFFFFFFFFFFFFFFFFFFFF AND EXTCODESIZE EQ PUSH2 0x17AC JUMPI JUMPDEST DUP2 DUP7 PUSH20 0xFFFFFFFFFFFFFFFFFFFFFFFFFFFFFFFFFFFFFFFF AND PUSH1 0x0 PUSH20 0xFFFFFFFFFFFFFFFFFFFFFFFFFFFFFFFFFFFFFFFF AND PUSH32 0xDDF252AD1BE2C89B69C2B068FC378DAA952BA7F163C4A11628F55A4DF523B3EF PUSH1 0x40 MLOAD PUSH1 0x40 MLOAD DUP1 SWAP2 SUB SWAP1 LOG4 PUSH2 0x175C PUSH1 0x0 DUP8 DUP5 DUP1 PUSH1 0x1 ADD SWAP6 POP DUP8 PUSH2 0x138E JUMP JUMPDEST PUSH2 0x1792 JUMPI PUSH1 0x40 MLOAD PUSH32 0xD1A57ED600000000000000000000000000000000000000000000000000000000 DUP2 MSTORE PUSH1 0x4 ADD PUSH1 0x40 MLOAD DUP1 SWAP2 SUB SWAP1 REVERT JUMPDEST DUP1 DUP3 LT PUSH2 0x16ED JUMPI DUP3 PUSH1 0x0 SLOAD EQ PUSH2 0x17A7 JUMPI PUSH1 0x0 DUP1 REVERT JUMPDEST PUSH2 0x1817 JUMP JUMPDEST JUMPDEST DUP2 DUP1 PUSH1 0x1 ADD SWAP3 POP DUP7 PUSH20 0xFFFFFFFFFFFFFFFFFFFFFFFFFFFFFFFFFFFFFFFF AND PUSH1 0x0 PUSH20 0xFFFFFFFFFFFFFFFFFFFFFFFFFFFFFFFFFFFFFFFF AND PUSH32 0xDDF252AD1BE2C89B69C2B068FC378DAA952BA7F163C4A11628F55A4DF523B3EF PUSH1 0x40 MLOAD PUSH1 0x40 MLOAD DUP1 SWAP2 SUB SWAP1 LOG4 DUP1 DUP3 LT PUSH2 0x17AD JUMPI JUMPDEST DUP2 PUSH1 0x0 DUP2 SWAP1 SSTORE POP POP POP PUSH2 0x182D PUSH1 0x0 DUP6 DUP4 DUP7 PUSH2 0x1578 JUMP JUMPDEST POP POP POP POP JUMP JUMPDEST PUSH1 0x0 DUP2 SWAP1 POP SWAP2 SWAP1 POP JUMP JUMPDEST PUSH1 0x0 PUSH2 0x1850 PUSH2 0x184B DUP5 PUSH2 0x1D8E JUMP JUMPDEST PUSH2 0x1D69 JUMP JUMPDEST SWAP1 POP DUP3 DUP2 MSTORE PUSH1 0x20 DUP2 ADD DUP5 DUP5 DUP5 ADD GT ISZERO PUSH2 0x1868 JUMPI PUSH1 0x0 DUP1 REVERT JUMPDEST PUSH2 0x1873 DUP5 DUP3 DUP6 PUSH2 0x1E76 JUMP JUMPDEST POP SWAP4 SWAP3 POP POP POP JUMP JUMPDEST PUSH1 0x0 DUP2 CALLDATALOAD SWAP1 POP PUSH2 0x188A DUP2 PUSH2 0x2002 JUMP JUMPDEST SWAP3 SWAP2 POP POP JUMP JUMPDEST PUSH1 0x0 DUP2 CALLDATALOAD SWAP1 POP PUSH2 0x189F DUP2 PUSH2 0x2019 JUMP JUMPDEST SWAP3 SWAP2 POP POP JUMP JUMPDEST PUSH1 0x0 DUP2 CALLDATALOAD SWAP1 POP PUSH2 0x18B4 DUP2 PUSH2 0x2030 JUMP JUMPDEST SWAP3 SWAP2 POP POP JUMP JUMPDEST PUSH1 0x0 DUP2 MLOAD SWAP1 POP PUSH2 0x18C9 DUP2 PUSH2 0x2030 JUMP JUMPDEST SWAP3 SWAP2 POP POP JUMP JUMPDEST PUSH1 0x0 DUP3 PUSH1 0x1F DUP4 ADD SLT PUSH2 0x18E0 JUMPI PUSH1 0x0 DUP1 REVERT JUMPDEST DUP2 CALLDATALOAD PUSH2 0x18F0 DUP5 DUP3 PUSH1 0x20 DUP7 ADD PUSH2 0x183D JUMP JUMPDEST SWAP2 POP POP SWAP3 SWAP2 POP POP JUMP JUMPDEST PUSH1 0x0 DUP2 CALLDATALOAD SWAP1 POP PUSH2 0x1908 DUP2 PUSH2 0x2047 JUMP JUMPDEST SWAP3 SWAP2 POP POP JUMP JUMPDEST PUSH1 0x0 PUSH1 0x20 DUP3 DUP5 SUB SLT ISZERO PUSH2 0x1920 JUMPI PUSH1 0x0 DUP1 REVERT JUMPDEST PUSH1 0x0 PUSH2 0x192E DUP5 DUP3 DUP6 ADD PUSH2 0x187B JUMP JUMPDEST SWAP2 POP POP SWAP3 SWAP2 POP POP JUMP JUMPDEST PUSH1 0x0 DUP1 PUSH1 0x40 DUP4 DUP6 SUB SLT ISZERO PUSH2 0x194A JUMPI PUSH1 0x0 DUP1 REVERT JUMPDEST PUSH1 0x0 PUSH2 0x1958 DUP6 DUP3 DUP7 ADD PUSH2 0x187B JUMP JUMPDEST SWAP3 POP POP PUSH1 0x20 PUSH2 0x1969 DUP6 DUP3 DUP7 ADD PUSH2 0x187B JUMP JUMPDEST SWAP2 POP POP SWAP3 POP SWAP3 SWAP1 POP JUMP JUMPDEST PUSH1 0x0 DUP1 PUSH1 0x0 PUSH1 0x60 DUP5 DUP7 SUB SLT ISZERO PUSH2 0x1988 JUMPI PUSH1 0x0 DUP1 REVERT JUMPDEST PUSH1 0x0 PUSH2 0x1996 DUP7 DUP3 DUP8 ADD PUSH2 0x187B JUMP JUMPDEST SWAP4 POP POP PUSH1 0x20 PUSH2 0x19A7 DUP7 DUP3 DUP8 ADD PUSH2 0x187B JUMP JUMPDEST SWAP3 POP POP PUSH1 0x40 PUSH2 0x19B8 DUP7 DUP3 DUP8 ADD PUSH2 0x18F9 JUMP JUMPDEST SWAP2 POP POP SWAP3 POP SWAP3 POP SWAP3 JUMP JUMPDEST PUSH1 0x0 DUP1 PUSH1 0x0 DUP1 PUSH1 0x80 DUP6 DUP8 SUB SLT ISZERO PUSH2 0x19D8 JUMPI PUSH1 0x0 DUP1 REVERT JUMPDEST PUSH1 0x0 PUSH2 0x19E6 DUP8 DUP3 DUP9 ADD PUSH2 0x187B JUMP JUMPDEST SWAP5 POP POP PUSH1 0x20 PUSH2 0x19F7 DUP8 DUP3 DUP9 ADD PUSH2 0x187B JUMP JUMPDEST SWAP4 POP POP PUSH1 0x40 PUSH2 0x1A08 DUP8 DUP3 DUP9 ADD PUSH2 0x18F9 JUMP JUMPDEST SWAP3 POP POP PUSH1 0x60 DUP6 ADD CALLDATALOAD PUSH8 0xFFFFFFFFFFFFFFFF DUP2 GT ISZERO PUSH2 0x1A25 JUMPI PUSH1 0x0 DUP1 REVERT JUMPDEST PUSH2 0x1A31 DUP8 DUP3 DUP9 ADD PUSH2 0x18CF JUMP JUMPDEST SWAP2 POP POP SWAP3 SWAP6 SWAP2 SWAP5 POP SWAP3 POP JUMP JUMPDEST PUSH1 0x0 DUP1 PUSH1 0x40 DUP4 DUP6 SUB SLT ISZERO PUSH2 0x1A50 JUMPI PUSH1 0x0 DUP1 REVERT JUMPDEST PUSH1 0x0 PUSH2 0x1A5E DUP6 DUP3 DUP7 ADD PUSH2 0x187B JUMP JUMPDEST SWAP3 POP POP PUSH1 0x20 PUSH2 0x1A6F DUP6 DUP3 DUP7 ADD PUSH2 0x1890 JUMP JUMPDEST SWAP2 POP POP SWAP3 POP SWAP3 SWAP1 POP JUMP JUMPDEST PUSH1 0x0 DUP1 PUSH1 0x40 DUP4 DUP6 SUB SLT ISZERO PUSH2 0x1A8C JUMPI PUSH1 0x0 DUP1 REVERT JUMPDEST PUSH1 0x0 PUSH2 0x1A9A DUP6 DUP3 DUP7 ADD PUSH2 0x187B JUMP JUMPDEST SWAP3 POP POP PUSH1 0x20 PUSH2 0x1AAB DUP6 DUP3 DUP7 ADD PUSH2 0x18F9 JUMP JUMPDEST SWAP2 POP POP SWAP3 POP SWAP3 SWAP1 POP JUMP JUMPDEST PUSH1 0x0 PUSH1 0x20 DUP3 DUP5 SUB SLT ISZERO PUSH2 0x1AC7 JUMPI PUSH1 0x0 DUP1 REVERT JUMPDEST PUSH1 0x0 PUSH2 0x1AD5 DUP5 DUP3 DUP6 ADD PUSH2 0x18A5 JUMP JUMPDEST SWAP2 POP POP SWAP3 SWAP2 POP POP JUMP JUMPDEST PUSH1 0x0 PUSH1 0x20 DUP3 DUP5 SUB SLT ISZERO PUSH2 0x1AF0 JUMPI PUSH1 0x0 DUP1 REVERT JUMPDEST PUSH1 0x0 PUSH2 0x1AFE DUP5 DUP3 DUP6 ADD PUSH2 0x18BA JUMP JUMPDEST SWAP2 POP POP SWAP3 SWAP2 POP POP JUMP JUMPDEST PUSH1 0x0 PUSH1 0x20 DUP3 DUP5 SUB SLT ISZERO PUSH2 0x1B19 JUMPI PUSH1 0x0 DUP1 REVERT JUMPDEST PUSH1 0x0 PUSH2 0x1B27 DUP5 DUP3 DUP6 ADD PUSH2 0x18F9 JUMP JUMPDEST SWAP2 POP POP SWAP3 SWAP2 POP POP JUMP JUMPDEST PUSH2 0x1B39 DUP2 PUSH2 0x1E02 JUMP JUMPDEST DUP3 MSTORE POP POP JUMP JUMPDEST PUSH2 0x1B48 DUP2 PUSH2 0x1E14 JUMP JUMPDEST DUP3 MSTORE POP POP JUMP JUMPDEST PUSH1 0x0 PUSH2 0x1B59 DUP3 PUSH2 0x1DBF JUMP JUMPDEST PUSH2 0x1B63 DUP2 DUP6 PUSH2 0x1DD5 JUMP JUMPDEST SWAP4 POP PUSH2 0x1B73 DUP2 DUP6 PUSH1 0x20 DUP7 ADD PUSH2 0x1E85 JUMP JUMPDEST PUSH2 0x1B7C DUP2 PUSH2 0x1F79 JUMP JUMPDEST DUP5 ADD SWAP2 POP POP SWAP3 SWAP2 POP POP JUMP JUMPDEST PUSH1 0x0 PUSH2 0x1B92 DUP3 PUSH2 0x1DCA JUMP JUMPDEST PUSH2 0x1B9C DUP2 DUP6 PUSH2 0x1DE6 JUMP JUMPDEST SWAP4 POP PUSH2 0x1BAC DUP2 DUP6 PUSH1 0x20 DUP7 ADD PUSH2 0x1E85 JUMP JUMPDEST PUSH2 0x1BB5 DUP2 PUSH2 0x1F79 JUMP JUMPDEST DUP5 ADD SWAP2 POP POP SWAP3 SWAP2 POP POP JUMP JUMPDEST PUSH1 0x0 PUSH2 0x1BCB DUP3 PUSH2 0x1DCA JUMP JUMPDEST PUSH2 0x1BD5 DUP2 DUP6 PUSH2 0x1DF7 JUMP JUMPDEST SWAP4 POP PUSH2 0x1BE5 DUP2 DUP6 PUSH1 0x20 DUP7 ADD PUSH2 0x1E85 JUMP JUMPDEST DUP1 DUP5 ADD SWAP2 POP POP SWAP3 SWAP2 POP POP JUMP JUMPDEST PUSH1 0x0 PUSH2 0x1BFE PUSH1 0x26 DUP4 PUSH2 0x1DE6 JUMP JUMPDEST SWAP2 POP PUSH2 0x1C09 DUP3 PUSH2 0x1F8A JUMP JUMPDEST PUSH1 0x40 DUP3 ADD SWAP1 POP SWAP2 SWAP1 POP JUMP JUMPDEST PUSH1 0x0 PUSH2 0x1C21 PUSH1 0x20 DUP4 PUSH2 0x1DE6 JUMP JUMPDEST SWAP2 POP PUSH2 0x1C2C DUP3 PUSH2 0x1FD9 JUMP JUMPDEST PUSH1 0x20 DUP3 ADD SWAP1 POP SWAP2 SWAP1 POP JUMP JUMPDEST PUSH2 0x1C40 DUP2 PUSH2 0x1E6C JUMP JUMPDEST DUP3 MSTORE POP POP JUMP JUMPDEST PUSH1 0x0 PUSH2 0x1C52 DUP3 DUP6 PUSH2 0x1BC0 JUMP JUMPDEST SWAP2 POP PUSH2 0x1C5E DUP3 DUP5 PUSH2 0x1BC0 JUMP JUMPDEST SWAP2 POP DUP2 SWAP1 POP SWAP4 SWAP3 POP POP POP JUMP JUMPDEST PUSH1 0x0 PUSH1 0x20 DUP3 ADD SWAP1 POP PUSH2 0x1C7F PUSH1 0x0 DUP4 ADD DUP5 PUSH2 0x1B30 JUMP JUMPDEST SWAP3 SWAP2 POP POP JUMP JUMPDEST PUSH1 0x0 PUSH1 0x80 DUP3 ADD SWAP1 POP PUSH2 0x1C9A PUSH1 0x0 DUP4 ADD DUP8 PUSH2 0x1B30 JUMP JUMPDEST PUSH2 0x1CA7 PUSH1 0x20 DUP4 ADD DUP7 PUSH2 0x1B30 JUMP JUMPDEST PUSH2 0x1CB4 PUSH1 0x40 DUP4 ADD DUP6 PUSH2 0x1C37 JUMP JUMPDEST DUP2 DUP2 SUB PUSH1 0x60 DUP4 ADD MSTORE PUSH2 0x1CC6 DUP2 DUP5 PUSH2 0x1B4E JUMP JUMPDEST SWAP1 POP SWAP6 SWAP5 POP POP POP POP POP JUMP JUMPDEST PUSH1 0x0 PUSH1 0x20 DUP3 ADD SWAP1 POP PUSH2 0x1CE6 PUSH1 0x0 DUP4 ADD DUP5 PUSH2 0x1B3F JUMP JUMPDEST SWAP3 SWAP2 POP POP JUMP JUMPDEST PUSH1 0x0 PUSH1 0x20 DUP3 ADD SWAP1 POP DUP2 DUP2 SUB PUSH1 0x0 DUP4 ADD MSTORE PUSH2 0x1D06 DUP2 DUP5 PUSH2 0x1B87 JUMP JUMPDEST SWAP1 POP SWAP3 SWAP2 POP POP JUMP JUMPDEST PUSH1 0x0 PUSH1 0x20 DUP3 ADD SWAP1 POP DUP2 DUP2 SUB PUSH1 0x0 DUP4 ADD MSTORE PUSH2 0x1D27 DUP2 PUSH2 0x1BF1 JUMP JUMPDEST SWAP1 POP SWAP2 SWAP1 POP JUMP JUMPDEST PUSH1 0x0 PUSH1 0x20 DUP3 ADD SWAP1 POP DUP2 DUP2 SUB PUSH1 0x0 DUP4 ADD MSTORE PUSH2 0x1D47 DUP2 PUSH2 0x1C14 JUMP JUMPDEST SWAP1 POP SWAP2 SWAP1 POP JUMP JUMPDEST PUSH1 0x0 PUSH1 0x20 DUP3 ADD SWAP1 POP PUSH2 0x1D63 PUSH1 0x0 DUP4 ADD DUP5 PUSH2 0x1C37 JUMP JUMPDEST SWAP3 SWAP2 POP POP JUMP JUMPDEST PUSH1 0x0 PUSH2 0x1D73 PUSH2 0x1D84 JUMP JUMPDEST SWAP1 POP PUSH2 0x1D7F DUP3 DUP3 PUSH2 0x1EEA JUMP JUMPDEST SWAP2 SWAP1 POP JUMP JUMPDEST PUSH1 0x0 PUSH1 0x40 MLOAD SWAP1 POP SWAP1 JUMP JUMPDEST PUSH1 0x0 PUSH8 0xFFFFFFFFFFFFFFFF DUP3 GT ISZERO PUSH2 0x1DA9 JUMPI PUSH2 0x1DA8 PUSH2 0x1F4A JUMP JUMPDEST JUMPDEST PUSH2 0x1DB2 DUP3 PUSH2 0x1F79 JUMP JUMPDEST SWAP1 POP PUSH1 0x20 DUP2 ADD SWAP1 POP SWAP2 SWAP1 POP JUMP JUMPDEST PUSH1 0x0 DUP2 MLOAD SWAP1 POP SWAP2 SWAP1 POP JUMP JUMPDEST PUSH1 0x0 DUP2 MLOAD SWAP1 POP SWAP2 SWAP1 POP JUMP JUMPDEST PUSH1 0x0 DUP3 DUP3 MSTORE PUSH1 0x20 DUP3 ADD SWAP1 POP SWAP3 SWAP2 POP POP JUMP JUMPDEST PUSH1 0x0 DUP3 DUP3 MSTORE PUSH1 0x20 DUP3 ADD SWAP1 POP SWAP3 SWAP2 POP POP JUMP JUMPDEST PUSH1 0x0 DUP2 SWAP1 POP SWAP3 SWAP2 POP POP JUMP JUMPDEST PUSH1 0x0 PUSH2 0x1E0D DUP3 PUSH2 0x1E4C JUMP JUMPDEST SWAP1 POP SWAP2 SWAP1 POP JUMP JUMPDEST PUSH1 0x0 DUP2 ISZERO ISZERO SWAP1 POP SWAP2 SWAP1 POP JUMP JUMPDEST PUSH1 0x0 PUSH32 0xFFFFFFFF00000000000000000000000000000000000000000000000000000000 DUP3 AND SWAP1 POP SWAP2 SWAP1 POP JUMP JUMPDEST PUSH1 0x0 PUSH20 0xFFFFFFFFFFFFFFFFFFFFFFFFFFFFFFFFFFFFFFFF DUP3 AND SWAP1 POP SWAP2 SWAP1 POP JUMP JUMPDEST PUSH1 0x0 DUP2 SWAP1 POP SWAP2 SWAP1 POP JUMP JUMPDEST DUP3 DUP2 DUP4 CALLDATACOPY PUSH1 0x0 DUP4 DUP4 ADD MSTORE POP POP POP JUMP JUMPDEST PUSH1 0x0 JUMPDEST DUP4 DUP2 LT ISZERO PUSH2 0x1EA3 JUMPI DUP1 DUP3 ADD MLOAD DUP2 DUP5 ADD MSTORE PUSH1 0x20 DUP2 ADD SWAP1 POP PUSH2 0x1E88 JUMP JUMPDEST DUP4 DUP2 GT ISZERO PUSH2 0x1EB2 JUMPI PUSH1 0x0 DUP5 DUP5 ADD MSTORE JUMPDEST POP POP POP POP JUMP JUMPDEST PUSH1 0x0 PUSH1 0x2 DUP3 DIV SWAP1 POP PUSH1 0x1 DUP3 AND DUP1 PUSH2 0x1ED0 JUMPI PUSH1 0x7F DUP3 AND SWAP2 POP JUMPDEST PUSH1 0x20 DUP3 LT DUP2 EQ ISZERO PUSH2 0x1EE4 JUMPI PUSH2 0x1EE3 PUSH2 0x1F1B JUMP JUMPDEST JUMPDEST POP SWAP2 SWAP1 POP JUMP JUMPDEST PUSH2 0x1EF3 DUP3 PUSH2 0x1F79 JUMP JUMPDEST DUP2 ADD DUP2 DUP2 LT PUSH8 0xFFFFFFFFFFFFFFFF DUP3 GT OR ISZERO PUSH2 0x1F12 JUMPI PUSH2 0x1F11 PUSH2 0x1F4A JUMP JUMPDEST JUMPDEST DUP1 PUSH1 0x40 MSTORE POP POP POP JUMP JUMPDEST PUSH32 0x4E487B7100000000000000000000000000000000000000000000000000000000 PUSH1 0x0 MSTORE PUSH1 0x22 PUSH1 0x4 MSTORE PUSH1 0x24 PUSH1 0x0 REVERT JUMPDEST PUSH32 0x4E487B7100000000000000000000000000000000000000000000000000000000 PUSH1 0x0 MSTORE PUSH1 0x41 PUSH1 0x4 MSTORE PUSH1 0x24 PUSH1 0x0 REVERT JUMPDEST PUSH1 0x0 PUSH1 0x1F NOT PUSH1 0x1F DUP4 ADD AND SWAP1 POP SWAP2 SWAP1 POP JUMP JUMPDEST PUSH32 0x4F776E61626C653A206E6577206F776E657220697320746865207A65726F2061 PUSH1 0x0 DUP3 ADD MSTORE PUSH32 0x6464726573730000000000000000000000000000000000000000000000000000 PUSH1 0x20 DUP3 ADD MSTORE POP JUMP JUMPDEST PUSH32 0x4F776E61626C653A2063616C6C6572206973206E6F7420746865206F776E6572 PUSH1 0x0 DUP3 ADD MSTORE POP JUMP JUMPDEST PUSH2 0x200B DUP2 PUSH2 0x1E02 JUMP JUMPDEST DUP2 EQ PUSH2 0x2016 JUMPI PUSH1 0x0 DUP1 REVERT JUMPDEST POP JUMP JUMPDEST PUSH2 0x2022 DUP2 PUSH2 0x1E14 JUMP JUMPDEST DUP2 EQ PUSH2 0x202D JUMPI PUSH1 0x0 DUP1 REVERT JUMPDEST POP JUMP JUMPDEST PUSH2 0x2039 DUP2 PUSH2 0x1E20 JUMP JUMPDEST DUP2 EQ PUSH2 0x2044 JUMPI PUSH1 0x0 DUP1 REVERT JUMPDEST POP JUMP JUMPDEST PUSH2 0x2050 DUP2 PUSH2 0x1E6C JUMP JUMPDEST DUP2 EQ PUSH2 0x205B JUMPI PUSH1 0x0 DUP1 REVERT JUMPDEST POP JUMP INVALID PUSH9 0x747470733A2F2F6968 PUSH6 0x617274637261 PUSH7 0x74797468696E67 PUSH20 0x2E636F6D2F77702D636F6E74656E742F75706C6F PUSH2 0x6473 0x2F ORIGIN ADDRESS ORIGIN BALANCE 0x2F ADDRESS CALLDATACOPY 0x2F CALLDATACOPY 0x2E PUSH11 0x7067A26469706673582212 KECCAK256 0xE5 PUSH26 0x99B80E42B3F47283E78C2B99395D82DCA7ACB5ADB5A18689B224 0xE3 0xBD DUP1 KECCAK256 PUSH5 0x736F6C6343 STOP ADDMOD DIV STOP CALLER "
				},
				"gasEstimates": {
					"creation": {
						"codeDepositCost": "1680600",
						"executionCost": "infinite",
						"totalCost": "infinite"
					},
					"external": {
						"approve(address,uint256)": "infinite",
						"balanceOf(address)": "1608",
						"getApproved(uint256)": "3475",
						"isApprovedForAll(address,address)": "infinite",
						"mint(address,uint256)": "infinite",
						"name()": "infinite",
						"owner()": "1289",
						"ownerOf(uint256)": "infinite",
						"renounceOwnership()": "24419",
						"safeTransferFrom(address,address,uint256)": "infinite",
						"safeTransferFrom(address,address,uint256,bytes)": "infinite",
						"setApprovalForAll(address,bool)": "infinite",
						"supportsInterface(bytes4)": "745",
						"symbol()": "infinite",
						"tokenURI(uint256)": "infinite",
						"totalSupply()": "1999",
						"transferFrom(address,address,uint256)": "infinite",
						"transferOwnership(address)": "24833"
					},
					"internal": {
						"_baseURI()": "infinite"
					}
				},
				"methodIdentifiers": {
					"approve(address,uint256)": "095ea7b3",
					"balanceOf(address)": "70a08231",
					"getApproved(uint256)": "081812fc",
					"isApprovedForAll(address,address)": "e985e9c5",
					"mint(address,uint256)": "40c10f19",
					"name()": "06fdde03",
					"owner()": "8da5cb5b",
					"ownerOf(uint256)": "6352211e",
					"renounceOwnership()": "715018a6",
					"safeTransferFrom(address,address,uint256)": "42842e0e",
					"safeTransferFrom(address,address,uint256,bytes)": "b88d4fde",
					"setApprovalForAll(address,bool)": "a22cb465",
					"supportsInterface(bytes4)": "01ffc9a7",
					"symbol()": "95d89b41",
					"tokenURI(uint256)": "c87b56dd",
					"totalSupply()": "18160ddd",
					"transferFrom(address,address,uint256)": "23b872dd",
					"transferOwnership(address)": "f2fde38b"
				}
			},
			"storageLayout": {
				"storage": [
					{
						"astId": 190,
						"contract": "bulkNFTminter.sol:NftMinter",
						"label": "_currentIndex",
						"offset": 0,
						"slot": "0",
						"type": "t_uint256"
					},
					{
						"astId": 192,
						"contract": "bulkNFTminter.sol:NftMinter",
						"label": "_burnCounter",
						"offset": 0,
						"slot": "1",
						"type": "t_uint256"
					},
					{
						"astId": 194,
						"contract": "bulkNFTminter.sol:NftMinter",
						"label": "_name",
						"offset": 0,
						"slot": "2",
						"type": "t_string_storage"
					},
					{
						"astId": 196,
						"contract": "bulkNFTminter.sol:NftMinter",
						"label": "_symbol",
						"offset": 0,
						"slot": "3",
						"type": "t_string_storage"
					},
					{
						"astId": 200,
						"contract": "bulkNFTminter.sol:NftMinter",
						"label": "_packedOwnerships",
						"offset": 0,
						"slot": "4",
						"type": "t_mapping(t_uint256,t_uint256)"
					},
					{
						"astId": 204,
						"contract": "bulkNFTminter.sol:NftMinter",
						"label": "_packedAddressData",
						"offset": 0,
						"slot": "5",
						"type": "t_mapping(t_address,t_uint256)"
					},
					{
						"astId": 208,
						"contract": "bulkNFTminter.sol:NftMinter",
						"label": "_tokenApprovals",
						"offset": 0,
						"slot": "6",
						"type": "t_mapping(t_uint256,t_address)"
					},
					{
						"astId": 214,
						"contract": "bulkNFTminter.sol:NftMinter",
						"label": "_operatorApprovals",
						"offset": 0,
						"slot": "7",
						"type": "t_mapping(t_address,t_mapping(t_address,t_bool))"
					},
					{
						"astId": 7,
						"contract": "bulkNFTminter.sol:NftMinter",
						"label": "_owner",
						"offset": 0,
						"slot": "8",
						"type": "t_address"
					}
				],
				"types": {
					"t_address": {
						"encoding": "inplace",
						"label": "address",
						"numberOfBytes": "20"
					},
					"t_bool": {
						"encoding": "inplace",
						"label": "bool",
						"numberOfBytes": "1"
					},
					"t_mapping(t_address,t_bool)": {
						"encoding": "mapping",
						"key": "t_address",
						"label": "mapping(address => bool)",
						"numberOfBytes": "32",
						"value": "t_bool"
					},
					"t_mapping(t_address,t_mapping(t_address,t_bool))": {
						"encoding": "mapping",
						"key": "t_address",
						"label": "mapping(address => mapping(address => bool))",
						"numberOfBytes": "32",
						"value": "t_mapping(t_address,t_bool)"
					},
					"t_mapping(t_address,t_uint256)": {
						"encoding": "mapping",
						"key": "t_address",
						"label": "mapping(address => uint256)",
						"numberOfBytes": "32",
						"value": "t_uint256"
					},
					"t_mapping(t_uint256,t_address)": {
						"encoding": "mapping",
						"key": "t_uint256",
						"label": "mapping(uint256 => address)",
						"numberOfBytes": "32",
						"value": "t_address"
					},
					"t_mapping(t_uint256,t_uint256)": {
						"encoding": "mapping",
						"key": "t_uint256",
						"label": "mapping(uint256 => uint256)",
						"numberOfBytes": "32",
						"value": "t_uint256"
					},
					"t_string_storage": {
						"encoding": "bytes",
						"label": "string",
						"numberOfBytes": "32"
					},
					"t_uint256": {
						"encoding": "inplace",
						"label": "uint256",
						"numberOfBytes": "32"
					}
				}
			},
			"userdoc": {
				"errors": {
					"ApprovalCallerNotOwnerNorApproved()": [
						{
							"notice": "The caller must own the token or be an approved operator."
						}
					],
					"ApprovalQueryForNonexistentToken()": [
						{
							"notice": "The token does not exist."
						}
					],
					"ApprovalToCurrentOwner()": [
						{
							"notice": "The caller cannot approve to the current owner."
						}
					],
					"ApproveToCaller()": [
						{
							"notice": "The caller cannot approve to their own address."
						}
					],
					"BalanceQueryForZeroAddress()": [
						{
							"notice": "Cannot query the balance for the zero address."
						}
					],
					"MintToZeroAddress()": [
						{
							"notice": "Cannot mint to the zero address."
						}
					],
					"MintZeroQuantity()": [
						{
							"notice": "The quantity of tokens minted must be more than zero."
						}
					],
					"OwnerQueryForNonexistentToken()": [
						{
							"notice": "The token does not exist."
						}
					],
					"TransferCallerNotOwnerNorApproved()": [
						{
							"notice": "The caller must own the token or be an approved operator."
						}
					],
					"TransferFromIncorrectOwner()": [
						{
							"notice": "The token must be owned by `from`."
						}
					],
					"TransferToNonERC721ReceiverImplementer()": [
						{
							"notice": "Cannot safely transfer to a contract that does not implement the ERC721Receiver interface."
						}
					],
					"TransferToZeroAddress()": [
						{
							"notice": "Cannot transfer to the zero address."
						}
					],
					"URIQueryForNonexistentToken()": [
						{
							"notice": "The token does not exist."
						}
					]
				},
				"kind": "user",
				"methods": {},
				"version": 1
			}
		}
	}
}